{
  "contractName": "KYC",
  "abi": [
    {
      "inputs": [
        {
          "internalType": "string",
          "name": "name",
          "type": "string"
        },
        {
          "internalType": "string",
          "name": "email",
          "type": "string"
        }
      ],
      "stateMutability": "nonpayable",
      "type": "constructor"
    },
    {
      "anonymous": false,
      "inputs": [
        {
          "indexed": false,
          "internalType": "address",
          "name": "ID",
          "type": "address"
        },
        {
          "indexed": false,
          "internalType": "string",
          "name": "name",
          "type": "string"
        },
        {
          "indexed": false,
          "internalType": "string",
          "name": "email",
          "type": "string"
        }
      ],
      "name": "ClientAdded",
      "type": "event"
    },
    {
      "anonymous": false,
      "inputs": [
        {
          "indexed": false,
          "internalType": "address",
          "name": "ID",
          "type": "address"
        },
        {
          "indexed": false,
          "internalType": "string",
          "name": "name",
          "type": "string"
        },
        {
          "indexed": false,
          "internalType": "string",
          "name": "email",
          "type": "string"
        }
      ],
      "name": "ClientDataUpdated",
      "type": "event"
    },
    {
      "anonymous": false,
      "inputs": [
        {
          "indexed": false,
          "internalType": "address",
          "name": "ID",
          "type": "address"
        },
        {
          "indexed": false,
          "internalType": "string",
          "name": "name",
          "type": "string"
        }
      ],
      "name": "FIactivated",
      "type": "event"
    },
    {
      "anonymous": false,
      "inputs": [
        {
          "indexed": false,
          "internalType": "address",
          "name": "ID",
          "type": "address"
        },
        {
          "indexed": false,
          "internalType": "string",
          "name": "name",
          "type": "string"
        },
        {
          "indexed": false,
          "internalType": "string",
          "name": "email",
          "type": "string"
        },
        {
          "indexed": false,
          "internalType": "string",
          "name": "SwiftCode",
          "type": "string"
        }
      ],
      "name": "FIadded",
      "type": "event"
    },
    {
      "anonymous": false,
      "inputs": [
        {
          "indexed": false,
          "internalType": "address",
          "name": "ID",
          "type": "address"
        },
        {
          "indexed": false,
          "internalType": "string",
          "name": "name",
          "type": "string"
        }
      ],
      "name": "FIdeactivated",
      "type": "event"
    },
    {
      "anonymous": false,
      "inputs": [
        {
          "indexed": false,
          "internalType": "address",
          "name": "ID",
          "type": "address"
        },
        {
          "indexed": false,
          "internalType": "string",
          "name": "name",
          "type": "string"
        },
        {
          "indexed": false,
          "internalType": "string",
          "name": "email",
          "type": "string"
        }
      ],
      "name": "FIupdated",
      "type": "event"
    },
    {
      "anonymous": false,
      "inputs": [
        {
          "indexed": false,
          "internalType": "string",
          "name": "iDreq",
          "type": "string"
        },
        {
          "indexed": false,
          "internalType": "string",
          "name": "FIName",
          "type": "string"
        },
        {
          "indexed": false,
          "internalType": "string",
          "name": "ClinetName",
          "type": "string"
        }
      ],
      "name": "addKYC",
      "type": "event"
    },
    {
      "anonymous": false,
      "inputs": [
        {
          "indexed": false,
          "internalType": "string",
          "name": "iDreq",
          "type": "string"
        },
        {
          "indexed": false,
          "internalType": "address",
          "name": "Client_ID",
          "type": "address"
        },
        {
          "indexed": false,
          "internalType": "address",
          "name": "FI_ID",
          "type": "address"
        },
        {
          "indexed": false,
          "internalType": "enum appearances.KYCStatus",
          "name": "status",
          "type": "uint8"
        }
      ],
      "name": "changeStatus",
      "type": "event"
    },
    {
      "anonymous": false,
      "inputs": [
        {
          "indexed": false,
          "internalType": "address",
          "name": "ID",
          "type": "address"
        },
        {
          "indexed": false,
          "internalType": "string",
          "name": "clientName",
          "type": "string"
        },
        {
          "indexed": false,
          "internalType": "string",
          "name": "dataHash",
          "type": "string"
        }
      ],
      "name": "dataHashUpdated",
      "type": "event"
    },
    {
      "anonymous": false,
      "inputs": [
        {
          "indexed": false,
          "internalType": "string",
          "name": "iDreq",
          "type": "string"
        },
        {
          "indexed": false,
          "internalType": "address",
          "name": "Client_ID",
          "type": "address"
        },
        {
          "indexed": false,
          "internalType": "address",
          "name": "FI_ID",
          "type": "address"
        },
        {
          "indexed": false,
          "internalType": "enum appearances.DataHashStatus",
          "name": "status",
          "type": "uint8"
        }
      ],
      "name": "dataHashpermission",
      "type": "event"
    },
    {
      "anonymous": false,
      "inputs": [
        {
          "indexed": false,
          "internalType": "string",
          "name": "iDreq",
          "type": "string"
        },
        {
          "indexed": false,
          "internalType": "string",
          "name": "FIName",
          "type": "string"
        },
        {
          "indexed": false,
          "internalType": "string",
          "name": "ClientName",
          "type": "string"
        }
      ],
      "name": "startKYC",
      "type": "event"
    },
    {
      "inputs": [
        {
          "internalType": "uint256",
          "name": "pageNumber",
          "type": "uint256"
        }
      ],
      "name": "AllFI",
      "outputs": [
        {
          "internalType": "uint256",
          "name": "Totalpages",
          "type": "uint256"
        },
        {
          "components": [
            {
              "internalType": "string",
              "name": "name",
              "type": "string"
            },
            {
              "internalType": "string",
              "name": "email",
              "type": "string"
            },
            {
              "internalType": "address",
              "name": "ID",
              "type": "address"
            },
            {
              "internalType": "string",
              "name": "SwiftCode",
              "type": "string"
            },
            {
              "internalType": "uint16",
              "name": "KYCCount",
              "type": "uint16"
            },
            {
              "internalType": "enum appearances.FIStatus",
              "name": "status",
              "type": "uint8"
            }
          ],
          "internalType": "struct appearances.FI[]",
          "name": "",
          "type": "tuple[]"
        }
      ],
      "stateMutability": "view",
      "type": "function"
    },
    {
      "inputs": [
        {
          "components": [
            {
              "internalType": "string",
              "name": "name",
              "type": "string"
            },
            {
              "internalType": "string",
              "name": "email",
              "type": "string"
            },
            {
              "internalType": "address",
              "name": "ID",
              "type": "address"
            },
            {
              "internalType": "string",
              "name": "SwiftCode",
              "type": "string"
            },
            {
              "internalType": "uint16",
              "name": "KYCCount",
              "type": "uint16"
            },
            {
              "internalType": "enum appearances.FIStatus",
              "name": "status",
              "type": "uint8"
            }
          ],
          "internalType": "struct appearances.FI",
          "name": "fiAdd",
          "type": "tuple"
        }
      ],
      "name": "AddFIAccount",
      "outputs": [],
      "stateMutability": "nonpayable",
      "type": "function"
    },
    {
      "inputs": [
        {
          "internalType": "address",
          "name": "ID",
          "type": "address"
        },
        {
          "internalType": "string",
          "name": "email",
          "type": "string"
        },
        {
          "internalType": "string",
          "name": "name",
          "type": "string"
        }
      ],
      "name": "FIUpdate",
      "outputs": [],
      "stateMutability": "nonpayable",
      "type": "function"
    },
    {
      "inputs": [
        {
          "internalType": "address",
          "name": "ID",
          "type": "address"
        },
        {
          "internalType": "bool",
          "name": "MakeActive",
          "type": "bool"
        }
      ],
      "name": "ActiveteandDeactivete",
      "outputs": [],
      "stateMutability": "nonpayable",
      "type": "function"
    },
    {
      "inputs": [
        {
          "internalType": "uint256",
          "name": "pageNumber",
          "type": "uint256"
        }
      ],
      "name": "getClientofFI",
      "outputs": [
        {
          "internalType": "uint256",
          "name": "Totalpages",
          "type": "uint256"
        },
        {
          "components": [
            {
              "internalType": "string",
              "name": "ID",
              "type": "string"
            },
            {
              "internalType": "address",
              "name": "user_ID",
              "type": "address"
            },
            {
              "internalType": "string",
              "name": "ClientName",
              "type": "string"
            },
            {
              "internalType": "address",
              "name": "FI_ID",
              "type": "address"
            },
            {
              "internalType": "string",
              "name": "FIName",
              "type": "string"
            },
            {
              "internalType": "string",
              "name": "dataHash",
              "type": "string"
            },
            {
              "internalType": "uint256",
              "name": "updatedOn",
              "type": "uint256"
            },
            {
              "internalType": "enum appearances.KYCStatus",
              "name": "status",
              "type": "uint8"
            },
            {
              "internalType": "enum appearances.DataHashStatus",
              "name": "dataRequest",
              "type": "uint8"
            },
            {
              "internalType": "string",
              "name": "additionalNotes",
              "type": "string"
            }
          ],
          "internalType": "struct appearances.KYCRequest[]",
          "name": "",
          "type": "tuple[]"
        }
      ],
      "stateMutability": "view",
      "type": "function"
    },
    {
      "inputs": [
        {
          "components": [
            {
              "internalType": "string",
              "name": "name",
              "type": "string"
            },
            {
              "internalType": "string",
              "name": "email",
              "type": "string"
            },
            {
              "internalType": "uint16",
              "name": "MobileNumber",
              "type": "uint16"
            },
            {
              "internalType": "address",
              "name": "ID",
              "type": "address"
            },
            {
              "internalType": "address",
              "name": "VerifiedBy",
              "type": "address"
            },
            {
              "internalType": "string",
              "name": "dataHash",
              "type": "string"
            },
            {
              "internalType": "uint256",
              "name": "dataUpdated",
              "type": "uint256"
            }
          ],
          "internalType": "struct appearances.Client",
          "name": "client",
          "type": "tuple"
        },
        {
          "internalType": "uint256",
          "name": "Timestemp",
          "type": "uint256"
        },
        {
          "internalType": "string",
          "name": "note",
          "type": "string"
        }
      ],
      "name": "AddKYC",
      "outputs": [],
      "stateMutability": "nonpayable",
      "type": "function"
    },
    {
      "inputs": [
        {
          "internalType": "address",
          "name": "ID",
          "type": "address"
        },
        {
          "internalType": "string",
          "name": "note",
          "type": "string"
        }
      ],
      "name": "reKYC",
      "outputs": [],
      "stateMutability": "nonpayable",
      "type": "function"
    },
    {
      "inputs": [
        {
          "internalType": "address",
          "name": "user_ID",
          "type": "address"
        },
        {
          "internalType": "bool",
          "name": "verified",
          "type": "bool"
        },
        {
          "internalType": "string",
          "name": "note",
          "type": "string"
        }
      ],
      "name": "KYCVerification",
      "outputs": [],
      "stateMutability": "nonpayable",
      "type": "function"
    },
    {
      "inputs": [
        {
          "internalType": "address",
          "name": "ID",
          "type": "address"
        }
      ],
      "name": "searchClient",
      "outputs": [
        {
          "internalType": "bool",
          "name": "",
          "type": "bool"
        },
        {
          "components": [
            {
              "internalType": "string",
              "name": "name",
              "type": "string"
            },
            {
              "internalType": "string",
              "name": "email",
              "type": "string"
            },
            {
              "internalType": "uint16",
              "name": "MobileNumber",
              "type": "uint16"
            },
            {
              "internalType": "address",
              "name": "ID",
              "type": "address"
            },
            {
              "internalType": "address",
              "name": "VerifiedBy",
              "type": "address"
            },
            {
              "internalType": "string",
              "name": "dataHash",
              "type": "string"
            },
            {
              "internalType": "uint256",
              "name": "dataUpdated",
              "type": "uint256"
            }
          ],
          "internalType": "struct appearances.Client",
          "name": "",
          "type": "tuple"
        },
        {
          "components": [
            {
              "internalType": "string",
              "name": "ID",
              "type": "string"
            },
            {
              "internalType": "address",
              "name": "user_ID",
              "type": "address"
            },
            {
              "internalType": "string",
              "name": "ClientName",
              "type": "string"
            },
            {
              "internalType": "address",
              "name": "FI_ID",
              "type": "address"
            },
            {
              "internalType": "string",
              "name": "FIName",
              "type": "string"
            },
            {
              "internalType": "string",
              "name": "dataHash",
              "type": "string"
            },
            {
              "internalType": "uint256",
              "name": "updatedOn",
              "type": "uint256"
            },
            {
              "internalType": "enum appearances.KYCStatus",
              "name": "status",
              "type": "uint8"
            },
            {
              "internalType": "enum appearances.DataHashStatus",
              "name": "dataRequest",
              "type": "uint8"
            },
            {
              "internalType": "string",
              "name": "additionalNotes",
              "type": "string"
            }
          ],
          "internalType": "struct appearances.KYCRequest",
          "name": "",
          "type": "tuple"
        }
      ],
      "stateMutability": "view",
      "type": "function"
    },
    {
      "inputs": [
        {
          "internalType": "uint256",
          "name": "pageNumber",
          "type": "uint256"
        }
      ],
      "name": "FIrequest",
      "outputs": [
        {
          "internalType": "uint256",
          "name": "Totalpages",
          "type": "uint256"
        },
        {
          "components": [
            {
              "internalType": "string",
              "name": "ID",
              "type": "string"
            },
            {
              "internalType": "address",
              "name": "user_ID",
              "type": "address"
            },
            {
              "internalType": "string",
              "name": "ClientName",
              "type": "string"
            },
            {
              "internalType": "address",
              "name": "FI_ID",
              "type": "address"
            },
            {
              "internalType": "string",
              "name": "FIName",
              "type": "string"
            },
            {
              "internalType": "string",
              "name": "dataHash",
              "type": "string"
            },
            {
              "internalType": "uint256",
              "name": "updatedOn",
              "type": "uint256"
            },
            {
              "internalType": "enum appearances.KYCStatus",
              "name": "status",
              "type": "uint8"
            },
            {
              "internalType": "enum appearances.DataHashStatus",
              "name": "dataRequest",
              "type": "uint8"
            },
            {
              "internalType": "string",
              "name": "additionalNotes",
              "type": "string"
            }
          ],
          "internalType": "struct appearances.KYCRequest[]",
          "name": "",
          "type": "tuple[]"
        }
      ],
      "stateMutability": "view",
      "type": "function"
    },
    {
      "inputs": [
        {
          "internalType": "address",
          "name": "FI_ID",
          "type": "address"
        },
        {
          "internalType": "bool",
          "name": "approve",
          "type": "bool"
        },
        {
          "internalType": "string",
          "name": "note",
          "type": "string"
        }
      ],
      "name": "KYCaction",
      "outputs": [],
      "stateMutability": "nonpayable",
      "type": "function"
    },
    {
      "inputs": [
        {
          "internalType": "string",
          "name": "name",
          "type": "string"
        },
        {
          "internalType": "string",
          "name": "email",
          "type": "string"
        },
        {
          "internalType": "uint16",
          "name": "MobileNumber",
          "type": "uint16"
        }
      ],
      "name": "updateProfile",
      "outputs": [],
      "stateMutability": "nonpayable",
      "type": "function"
    },
    {
      "inputs": [
        {
          "internalType": "string",
          "name": "hash",
          "type": "string"
        },
        {
          "internalType": "uint256",
          "name": "Timestemp",
          "type": "uint256"
        }
      ],
      "name": "updateHash",
      "outputs": [],
      "stateMutability": "nonpayable",
      "type": "function"
    },
    {
      "inputs": [
        {
          "internalType": "address",
          "name": "FI_ID",
          "type": "address"
        },
        {
          "internalType": "string",
          "name": "note",
          "type": "string"
        }
      ],
      "name": "removePremission",
      "outputs": [],
      "stateMutability": "nonpayable",
      "type": "function"
    },
    {
      "inputs": [
        {
          "internalType": "address",
          "name": "FI_ID",
          "type": "address"
        }
      ],
      "name": "searchforFI",
      "outputs": [
        {
          "internalType": "bool",
          "name": "",
          "type": "bool"
        },
        {
          "components": [
            {
              "internalType": "string",
              "name": "name",
              "type": "string"
            },
            {
              "internalType": "string",
              "name": "email",
              "type": "string"
            },
            {
              "internalType": "address",
              "name": "ID",
              "type": "address"
            },
            {
              "internalType": "string",
              "name": "SwiftCode",
              "type": "string"
            },
            {
              "internalType": "uint16",
              "name": "KYCCount",
              "type": "uint16"
            },
            {
              "internalType": "enum appearances.FIStatus",
              "name": "status",
              "type": "uint8"
            }
          ],
          "internalType": "struct appearances.FI",
          "name": "",
          "type": "tuple"
        },
        {
          "components": [
            {
              "internalType": "string",
              "name": "ID",
              "type": "string"
            },
            {
              "internalType": "address",
              "name": "user_ID",
              "type": "address"
            },
            {
              "internalType": "string",
              "name": "ClientName",
              "type": "string"
            },
            {
              "internalType": "address",
              "name": "FI_ID",
              "type": "address"
            },
            {
              "internalType": "string",
              "name": "FIName",
              "type": "string"
            },
            {
              "internalType": "string",
              "name": "dataHash",
              "type": "string"
            },
            {
              "internalType": "uint256",
              "name": "updatedOn",
              "type": "uint256"
            },
            {
              "internalType": "enum appearances.KYCStatus",
              "name": "status",
              "type": "uint8"
            },
            {
              "internalType": "enum appearances.DataHashStatus",
              "name": "dataRequest",
              "type": "uint8"
            },
            {
              "internalType": "string",
              "name": "additionalNotes",
              "type": "string"
            }
          ],
          "internalType": "struct appearances.KYCRequest",
          "name": "",
          "type": "tuple"
        }
      ],
      "stateMutability": "view",
      "type": "function"
    },
    {
      "inputs": [],
      "name": "checkIt",
      "outputs": [
        {
          "components": [
            {
              "internalType": "string",
              "name": "name",
              "type": "string"
            },
            {
              "internalType": "string",
              "name": "email",
              "type": "string"
            },
            {
              "internalType": "address",
              "name": "ID",
              "type": "address"
            },
            {
              "internalType": "enum appearances.Positions",
              "name": "positions",
              "type": "uint8"
            },
            {
              "internalType": "enum appearances.FIStatus",
              "name": "status",
              "type": "uint8"
            }
          ],
          "internalType": "struct appearances.User",
          "name": "",
          "type": "tuple"
        }
      ],
      "stateMutability": "view",
      "type": "function"
    },
    {
      "inputs": [
        {
          "internalType": "address",
          "name": "ID",
          "type": "address"
        }
      ],
      "name": "gettheClientDetials",
      "outputs": [
        {
          "components": [
            {
              "internalType": "string",
              "name": "name",
              "type": "string"
            },
            {
              "internalType": "string",
              "name": "email",
              "type": "string"
            },
            {
              "internalType": "uint16",
              "name": "MobileNumber",
              "type": "uint16"
            },
            {
              "internalType": "address",
              "name": "ID",
              "type": "address"
            },
            {
              "internalType": "address",
              "name": "VerifiedBy",
              "type": "address"
            },
            {
              "internalType": "string",
              "name": "dataHash",
              "type": "string"
            },
            {
              "internalType": "uint256",
              "name": "dataUpdated",
              "type": "uint256"
            }
          ],
          "internalType": "struct appearances.Client",
          "name": "",
          "type": "tuple"
        }
      ],
      "stateMutability": "view",
      "type": "function"
    },
    {
      "inputs": [
        {
          "internalType": "address",
          "name": "ID",
          "type": "address"
        }
      ],
      "name": "getFIDetails",
      "outputs": [
        {
          "components": [
            {
              "internalType": "string",
              "name": "name",
              "type": "string"
            },
            {
              "internalType": "string",
              "name": "email",
              "type": "string"
            },
            {
              "internalType": "address",
              "name": "ID",
              "type": "address"
            },
            {
              "internalType": "string",
              "name": "SwiftCode",
              "type": "string"
            },
            {
              "internalType": "uint16",
              "name": "KYCCount",
              "type": "uint16"
            },
            {
              "internalType": "enum appearances.FIStatus",
              "name": "status",
              "type": "uint8"
            }
          ],
          "internalType": "struct appearances.FI",
          "name": "",
          "type": "tuple"
        }
      ],
      "stateMutability": "view",
      "type": "function"
    }
  ],
  "bytecode": "0x60806040523480156200001157600080fd5b5060405162005cbb38038062005cbb83398101604081905262000034916200029e565b60048054600160a060020a031916339081179091556040805160a08101825284815260208082018590528183018490526000606083018190526080830181905293845260069052912081518291908190620000909082620003df565b5060208201516001820190620000a79082620003df565b50604082015160028083018054600160a060020a03909316600160a060020a03198416811782556060860151939192600160a860020a03199092161790740100000000000000000000000000000000000000009084908111156200010f576200010f62000308565b0217905550608082015160028201805460a860020a60ff021916750100000000000000000000000000000000000000000083600181111562000155576200015562000308565b021790555050600454600580546001810182556000919091527f036b6384b5eca791c62761152d0c79bb0604c104a5fb6f4eb0703f3154bb3db0018054600160a060020a031916600160a060020a0390921691909117905550620004b192505050565b7f4e487b7100000000000000000000000000000000000000000000000000000000600052604160045260246000fd5b600082601f830112620001f957600080fd5b81516001604060020a0380821115620002165762000216620001b8565b604051601f8301601f19908116603f01168101908282118183101715620002415762000241620001b8565b816040528381526020925086838588010111156200025e57600080fd5b600091505b8382101562000282578582018301518183018401529082019062000263565b83821115620002945760008385830101525b9695505050505050565b60008060408385031215620002b257600080fd5b82516001604060020a0380821115620002ca57600080fd5b620002d886838701620001e7565b93506020850151915080821115620002ef57600080fd5b50620002fe85828601620001e7565b9150509250929050565b7f4e487b7100000000000000000000000000000000000000000000000000000000600052602160045260246000fd5b6002810460018216806200034c57607f821691505b60208210810362000386577f4e487b7100000000000000000000000000000000000000000000000000000000600052602260045260246000fd5b50919050565b601f821115620003da576000818152602081206020601f86010481016020861015620003b55750805b6020601f860104820191505b81811015620003d657828155600101620003c1565b5050505b505050565b81516001604060020a03811115620003fb57620003fb620001b8565b62000413816200040c845462000337565b846200038c565b602080601f8311600181146200044f5760008415620004325750858301515b60028086026008870290910a6000190419821617865550620003d6565b600085815260208120601f198616915b8281101562000480578886015182559484019460019091019084016200045f565b5085821015620004a157878501516008601f88160260020a60001904191681555b5050505050600202600101905550565b6157fa80620004c16000396000f3fe608060405234801561001057600080fd5b5060043610610133576000357c010000000000000000000000000000000000000000000000000000000090048063ac157423116100bf578063bc3b3ddb1161008e578063bc3b3ddb14610290578063c2c3f244146102a3578063d5626b1f146102b6578063eae958a0146102c9578063fac8d0b4146102dc57600080fd5b8063ac15742314610228578063b3f32a4114610248578063b69c469c1461026a578063b6c1b3161461027d57600080fd5b80635d676796116101065780635d676796146101ab5780637db674b6146101c05780638202cfbc146101e25780638e97e778146101f55780639ceecfd61461020857600080fd5b8063173eb4df1461013857806321c8fc5a1461014d5780632a807f77146101775780633949d0211461018a575b600080fd5b61014b6101463660046147a2565b6102ef565b005b61016061015b3660046147d5565b610369565b60405161016e929190614970565b60405180910390f35b61014b610185366004614aec565b61045f565b61019d6101983660046147d5565b6105fe565b60405161016e929190614c6a565b6101b361061c565b60405161016e9190614cc5565b6101d36101ce366004614d3b565b6108b3565b60405161016e93929190614ded565b61014b6101f0366004614e1a565b610f35565b61014b610203366004614e8e565b610f96565b61021b610216366004614d3b565b61125f565b60405161016e9190614edc565b61023b610236366004614d3b565b611350565b60405161016e9190614eef565b61025b610256366004614d3b565b61141a565b60405161016e93929190614f02565b61014b610278366004614f1d565b611a54565b61016061028b3660046147d5565b611cce565b61014b61029e366004614e8e565b611d8d565b61014b6102b1366004614f62565b611f4d565b61014b6102c436600461506d565b6124c2565b61014b6102d73660046150c1565b61277c565b61014b6102ea36600461506d565b61286d565b6102f7612a82565b6103018282612ae1565b600160a060020a0383166000908152600660205260409020600201805475ff0000000000000000000000000000000000000000001916750100000000000000000000000000000000000000000083600181111561036057610360614846565b02179055505050565b336000818152600360205260408120600201549091606091600160a060020a03166103b25760405160e560020a62461bcd0281526004016103a990615135565b60405180910390fd5b600160a060020a03808216600081815260036020526040902060020154909116146103f25760405160e560020a62461bcd0281526004016103a990615192565b6000600160a060020a03821660009081526003602052604090206004015462010000900460ff16600181111561042a5761042a614846565b1461044a5760405160e560020a62461bcd0281526004016103a9906151ef565b610455846001612cb1565b9250925050915091565b610467612a82565b61047081613294565b6040805160a08101825282518152602080840151818301528383018051600160a060020a0390811684860152600160608501526000608085018190529151168152600690915291909120815181906104c890826152f8565b50602082015160018201906104dd90826152f8565b50604082015160028083018054600160a060020a03909316600160a060020a0319841681178255606086015193919274ffffffffffffffffffffffffffffffffffffffffff1990921617907401000000000000000000000000000000000000000090849081111561055057610550614846565b0217905550608082015160028201805475ff000000000000000000000000000000000000000000191675010000000000000000000000000000000000000000008360018111156105a2576105a2614846565b0217905550505060400151600580546001810182556000919091527f036b6384b5eca791c62761152d0c79bb0604c104a5fb6f4eb0703f3154bb3db0018054600160a060020a031916600160a060020a03909216919091179055565b6000606061060a612a82565b610613836133cc565b91509150915091565b610624614638565b336106745760405160e560020a62461bcd02815260206004820152600f60248201527f53656e64657220494420456d707479000000000000000000000000000000000060448201526064016103a9565b33600090815260066020526040902060020154600160a060020a03166106df5760405160e560020a62461bcd02815260206004820152600d60248201527f5573657220494420456d7074790000000000000000000000000000000000000060448201526064016103a9565b3360009081526006602052604090819020815160a0810190925280548290829061070890615272565b80601f016020809104026020016040519081016040528092919081815260200182805461073490615272565b80156107815780601f1061075657610100808354040283529160200191610781565b820191906000526020600020905b81548152906001019060200180831161076457829003601f168201915b5050505050815260200160018201805461079a90615272565b80601f01602080910402602001604051908101604052809291908181526020018280546107c690615272565b80156108135780601f106107e857610100808354040283529160200191610813565b820191906000526020600020905b8154815290600101906020018083116107f657829003601f168201915b5050509183525050600282810154600160a060020a038116602084015260409092019174010000000000000000000000000000000000000000900460ff169081111561086157610861614846565b600281111561087257610872614846565b81526020016002820160159054906101000a900460ff16600181111561089a5761089a614846565b60018111156108ab576108ab614846565b905250919050565b60006108bd614680565b6108c56146d3565b83600160a060020a0381166108ef5760405160e560020a62461bcd0281526004016103a9906153be565b600160a060020a03818116600090815260016020526040902060020154620100009004166109325760405160e560020a62461bcd0281526004016103a9906153f5565b600160a060020a03811660009081526001602081905260409091200180546109f1919061095e90615272565b80601f016020809104026020016040519081016040528092919081815260200182805461098a90615272565b80156109d75780601f106109ac576101008083540402835291602001916109d7565b820191906000526020600020905b8154815290600101906020018083116109ba57829003601f168201915b505050505060405180602001604052806000815250613789565b15610a115760405160e560020a62461bcd0281526004016103a99061542c565b33600081815260036020526040902060020154600160a060020a0316610a4c5760405160e560020a62461bcd0281526004016103a990615135565b600160a060020a0380821660008181526003602052604090206002015490911614610a8c5760405160e560020a62461bcd0281526004016103a990615192565b6000600160a060020a03821660009081526003602052604090206004015462010000900460ff166001811115610ac457610ac4614846565b14610ae45760405160e560020a62461bcd0281526004016103a9906151ef565b6000610aee614680565b610af66146d3565b336000908152600860209081526040918290208054835181840281018401909452808452610b67938d9390929190830182828015610b5d57602002820191906000526020600020905b8154600160a060020a03168152600190910190602001808311610b3f575b50505050506137e2565b90935091508215610f26576007610b7e338b613a81565b604051610b8b9190615463565b908152602001604051809103902060405180610140016040529081600082018054610bb590615272565b80601f0160208091040260200160405190810160405280929190818152602001828054610be190615272565b8015610c2e5780601f10610c0357610100808354040283529160200191610c2e565b820191906000526020600020905b815481529060010190602001808311610c1157829003601f168201915b50505091835250506001820154600160a060020a03166020820152600282018054604090920191610c5e90615272565b80601f0160208091040260200160405190810160405280929190818152602001828054610c8a90615272565b8015610cd75780601f10610cac57610100808354040283529160200191610cd7565b820191906000526020600020905b815481529060010190602001808311610cba57829003601f168201915b50505091835250506003820154600160a060020a03166020820152600482018054604090920191610d0790615272565b80601f0160208091040260200160405190810160405280929190818152602001828054610d3390615272565b8015610d805780601f10610d5557610100808354040283529160200191610d80565b820191906000526020600020905b815481529060010190602001808311610d6357829003601f168201915b50505050508152602001600582018054610d9990615272565b80601f0160208091040260200160405190810160405280929190818152602001828054610dc590615272565b8015610e125780601f10610de757610100808354040283529160200191610e12565b820191906000526020600020905b815481529060010190602001808311610df557829003601f168201915b505050918352505060068201546020820152600782015460409091019060ff166002811115610e4357610e43614846565b6002811115610e5457610e54614846565b81526020016007820160019054906101000a900460ff166002811115610e7c57610e7c614846565b6002811115610e8d57610e8d614846565b8152602001600882018054610ea190615272565b80601f0160208091040260200160405190810160405280929190818152602001828054610ecd90615272565b8015610f1a5780601f10610eef57610100808354040283529160200191610f1a565b820191906000526020600020905b815481529060010190602001808311610efd57829003601f168201915b50505050508152505090505b91989097509095509350505050565b610f3d612a82565b610f48838383613ac9565b600160a060020a0383166000908152600660205260409020610f6a82826152f8565b50600160a060020a0383166000908152600660205260409020600101610f9083826152f8565b50505050565b33600081815260036020526040902060020154600160a060020a0316610fd15760405160e560020a62461bcd0281526004016103a990615135565b600160a060020a03808216600081815260036020526040902060020154909116146110115760405160e560020a62461bcd0281526004016103a990615192565b6000600160a060020a03821660009081526003602052604090206004015462010000900460ff16600181111561104957611049614846565b146110695760405160e560020a62461bcd0281526004016103a9906151ef565b60006110753385613a81565b905061108081613b8f565b6110cf5760405160e560020a62461bcd02815260206004820152601160248201527f4b594320686173206e6f7420666f756e6400000000000000000000000000000060448201526064016103a9565b6110d884613cab565b6111275760405160e560020a62461bcd02815260206004820152601660248201527f437573746f6d657220686173206e6f7420666f756e640000000000000000000060448201526064016103a9565b60006007826040516111399190615463565b908152604051908190036020019020600701805460ff1916600183600281111561116557611165614846565b0217905550600060078260405161117c9190615463565b908152604051908190036020019020600701805461ff0019166101008360028111156111aa576111aa614846565b0217905550826007826040516111c09190615463565b908152602001604051809103902060080190816111dd91906152f8565b507f354cce7003647c7a26dfcea100fa1e84602bc520067f5bfef90677aa0cd4ff86816007836040516112109190615463565b90815260200160405180910390206004016007846040516112319190615463565b9081526020016040518091039020600201604051611251939291906154fb565b60405180910390a150505050565b611267614749565b600160a060020a038083166000908152600360205260409020600201548391166112a65760405160e560020a62461bcd0281526004016103a990615135565b600160a060020a03808216600081815260036020526040902060020154909116146112e65760405160e560020a62461bcd0281526004016103a990615192565b6000600160a060020a03821660009081526003602052604090206004015462010000900460ff16600181111561131e5761131e614846565b1461133e5760405160e560020a62461bcd0281526004016103a9906151ef565b61134783613d6f565b91505b50919050565b611358614680565b81600160a060020a0381166113825760405160e560020a62461bcd0281526004016103a9906153be565b600160a060020a03818116600090815260016020526040902060020154620100009004166113c55760405160e560020a62461bcd0281526004016103a9906153f5565b600160a060020a03811660009081526001602081905260409091200180546113f1919061095e90615272565b156114115760405160e560020a62461bcd0281526004016103a99061542c565b61134783613fd7565b6000611424614749565b61142c6146d3565b338061144d5760405160e560020a62461bcd0281526004016103a9906153be565b600160a060020a03818116600090815260016020526040902060020154620100009004166114905760405160e560020a62461bcd0281526004016103a9906153f5565b600160a060020a03811660009081526001602081905260409091200180546114bc919061095e90615272565b156114dc5760405160e560020a62461bcd0281526004016103a99061542c565b600160a060020a0380861660009081526003602052604090206002015486911661151b5760405160e560020a62461bcd0281526004016103a990615135565b600160a060020a038082166000818152600360205260409020600201549091161461155b5760405160e560020a62461bcd0281526004016103a990615192565b6000600160a060020a03821660009081526003602052604090206004015462010000900460ff16600181111561159357611593614846565b146115b35760405160e560020a62461bcd0281526004016103a9906151ef565b60006115bd614749565b6115c56146d3565b3360009081526009602090815260408083208054825181850281018501909352808352919290919083018282801561162657602002820191906000526020600020905b8154600160a060020a03168152600190910190602001808311611608575b5050505050905060005b8151811015611a44578a600160a060020a031682828151811061165557611655615534565b6020026020010151600160a060020a031603611a3257600194506116788b613d6f565b935060076116868c33613a81565b6040516116939190615463565b9081526020016040518091039020604051806101400160405290816000820180546116bd90615272565b80601f01602080910402602001604051908101604052809291908181526020018280546116e990615272565b80156117365780601f1061170b57610100808354040283529160200191611736565b820191906000526020600020905b81548152906001019060200180831161171957829003601f168201915b50505091835250506001820154600160a060020a0316602082015260028201805460409092019161176690615272565b80601f016020809104026020016040519081016040528092919081815260200182805461179290615272565b80156117df5780601f106117b4576101008083540402835291602001916117df565b820191906000526020600020905b8154815290600101906020018083116117c257829003601f168201915b50505091835250506003820154600160a060020a0316602082015260048201805460409092019161180f90615272565b80601f016020809104026020016040519081016040528092919081815260200182805461183b90615272565b80156118885780601f1061185d57610100808354040283529160200191611888565b820191906000526020600020905b81548152906001019060200180831161186b57829003601f168201915b505050505081526020016005820180546118a190615272565b80601f01602080910402602001604051908101604052809291908181526020018280546118cd90615272565b801561191a5780601f106118ef5761010080835404028352916020019161191a565b820191906000526020600020905b8154815290600101906020018083116118fd57829003601f168201915b505050918352505060068201546020820152600782015460409091019060ff16600281111561194b5761194b614846565b600281111561195c5761195c614846565b81526020016007820160019054906101000a900460ff16600281111561198457611984614846565b600281111561199557611995614846565b81526020016008820180546119a990615272565b80601f01602080910402602001604051908101604052809291908181526020018280546119d590615272565b8015611a225780601f106119f757610100808354040283529160200191611a22565b820191906000526020600020905b815481529060010190602001808311611a0557829003601f168201915b5050505050815250509250611a44565b80611a3c81615566565b915050611630565b5092999198509650945050505050565b3380611a755760405160e560020a62461bcd0281526004016103a9906153be565b600160a060020a0381811660009081526001602052604090206002015462010000900416611ab85760405160e560020a62461bcd0281526004016103a9906153f5565b600160a060020a0381166000908152600160208190526040909120018054611ae4919061095e90615272565b15611b045760405160e560020a62461bcd0281526004016103a99061542c565b611b0e83836141fc565b33600090815260096020908152604080832080548251818502810185019093528083529192909190830182828015611b6f57602002820191906000526020600020905b8154600160a060020a03168152600190910190602001808311611b51575b5050505050905060005b8151811015611cc7576000611ba7838381518110611b9957611b99615534565b602002602001015133613a81565b9050611bb281613b8f565b15611cb45785600782604051611bc89190615463565b90815260200160405180910390206005019081611be591906152f8565b5084600782604051611bf79190615463565b9081526020016040518091039020600601819055506000600782604051611c1e9190615463565b908152604051908190036020019020600701805460ff19166001836002811115611c4a57611c4a614846565b02179055506040518060400160405280601781526020017f55706461746520616c6c206d7920646f63756d656e7473000000000000000000815250600782604051611c959190615463565b90815260200160405180910390206008019081611cb291906152f8565b505b5080611cbf81615566565b915050611b79565b5050505050565b600060603380611cf35760405160e560020a62461bcd0281526004016103a9906153be565b600160a060020a0381811660009081526001602052604090206002015462010000900416611d365760405160e560020a62461bcd0281526004016103a9906153f5565b600160a060020a0381166000908152600160208190526040909120018054611d62919061095e90615272565b15611d825760405160e560020a62461bcd0281526004016103a99061542c565b610455846000612cb1565b3380611dae5760405160e560020a62461bcd0281526004016103a9906153be565b600160a060020a0381811660009081526001602052604090206002015462010000900416611df15760405160e560020a62461bcd0281526004016103a9906153f5565b600160a060020a0381166000908152600160208190526040909120018054611e1d919061095e90615272565b15611e3d5760405160e560020a62461bcd0281526004016103a99061542c565b6000611e498433613a81565b9050611e5481613b8f565b611ea35760405160e560020a62461bcd02815260206004820152601860248201527f5065726d697373696f6e20686173206e6f7420666f756e64000000000000000060448201526064016103a9565b6002600782604051611eb59190615463565b908152604051908190036020019020600701805461ff001916610100836002811115611ee357611ee3614846565b021790555082600782604051611ef99190615463565b90815260200160405180910390206008019081611f1691906152f8565b507fa8dbf5117d5dedc3fd5ba8fe21e806ed427f7c6f59227fc077fc198f05a90fb38133866002604051611251949392919061557f565b33600081815260036020526040902060020154600160a060020a0316611f885760405160e560020a62461bcd0281526004016103a990615135565b600160a060020a0380821660008181526003602052604090206002015490911614611fc85760405160e560020a62461bcd0281526004016103a990615192565b6000600160a060020a03821660009081526003602052604090206004015462010000900460ff16600181111561200057612000614846565b146120205760405160e560020a62461bcd0281526004016103a9906151ef565b6000612030338660600151613a81565b905061203b81613b8f565b1561208b5760405160e560020a62461bcd02815260206004820152601660248201527f557365722068616420726571756573746564204b59430000000000000000000060448201526064016103a9565b6040518061014001604052808281526020018660600151600160a060020a031681526020018660000151815260200133600160a060020a031681526020016120d233613d6f565b51815260a087015160208201526040810186905260600160008152602001600081526020018481525060078260405161210b9190615463565b9081526040519081900360200190208151819061212890826152f8565b506020820151600182018054600160a060020a031916600160a060020a039092169190911790556040820151600282019061216390826152f8565b506060820151600382018054600160a060020a031916600160a060020a039092169190911790556080820151600482019061219e90826152f8565b5060a082015160058201906121b390826152f8565b5060c0820151600682015560e082015160078201805460ff191660018360028111156121e1576121e1614846565b0217905550610100828101516007830180549192909161ff0019169083600281111561220f5761220f614846565b0217905550610120820151600882019061222990826152f8565b505033600081815260086020908152604080832060608b018051825460018181018555938752858720018054600160a060020a03928316600160a060020a031991821617909155915116855260098452828520805492830181558552929093209092018054909116909217909155517f4124a335861f44ee2e2c6db4204fa6e9af4802ee84175abe9223185a21167d3c915082906007906122cb908390615463565b90815260405190819003602001812088516122ec93926004909201916155c3565b60405180910390a16123018560600151613cab565b611cc75761230e8561426e565b6040518060a0016040528086600001518152602001866020015181526020018660600151600160a060020a0316815260200160028081111561235257612352614846565b8152602001600090526060860151600160a060020a031660009081526006602052604090208151819061238590826152f8565b506020820151600182019061239a90826152f8565b50604082015160028083018054600160a060020a03909316600160a060020a0319841681178255606086015193919274ffffffffffffffffffffffffffffffffffffffffff1990921617907401000000000000000000000000000000000000000090849081111561240d5761240d614846565b0217905550608082015160028201805475ff0000000000000000000000000000000000000000001916750100000000000000000000000000000000000000000083600181111561245f5761245f614846565b021790555050505060609390930151600580546001810182556000919091527f036b6384b5eca791c62761152d0c79bb0604c104a5fb6f4eb0703f3154bb3db0018054600160a060020a031916600160a060020a03909216919091179055505050565b33806124e35760405160e560020a62461bcd0281526004016103a9906153be565b600160a060020a03818116600090815260016020526040902060020154620100009004166125265760405160e560020a62461bcd0281526004016103a9906153f5565b600160a060020a0381166000908152600160208190526040909120018054612552919061095e90615272565b156125725760405160e560020a62461bcd0281526004016103a99061542c565b600160a060020a038085166000908152600360205260409020600201548591166125b15760405160e560020a62461bcd0281526004016103a990615135565b600160a060020a03808216600081815260036020526040902060020154909116146125f15760405160e560020a62461bcd0281526004016103a990615192565b6000600160a060020a03821660009081526003602052604090206004015462010000900460ff16600181111561262957612629614846565b146126495760405160e560020a62461bcd0281526004016103a9906151ef565b60006126558633613a81565b905061266081613b8f565b6126af5760405160e560020a62461bcd02815260206004820152601e60248201527f5573657220646f6573206e6f742068617665204b59432072657175657374000060448201526064016103a9565b600085156126bf575060016126c3565b5060025b806007836040516126d49190615463565b908152604051908190036020019020600701805461ff00191661010083600281111561270257612702614846565b0217905550846007836040516127189190615463565b9081526020016040518091039020600801908161273591906152f8565b507fa8dbf5117d5dedc3fd5ba8fe21e806ed427f7c6f59227fc077fc198f05a90fb38233898460405161276b949392919061557f565b60405180910390a150505050505050565b338061279d5760405160e560020a62461bcd0281526004016103a9906153be565b600160a060020a03818116600090815260016020526040902060020154620100009004166127e05760405160e560020a62461bcd0281526004016103a9906153f5565b600160a060020a038116600090815260016020819052604090912001805461280c919061095e90615272565b1561282c5760405160e560020a62461bcd0281526004016103a99061542c565b6128378484846143c0565b33600090815260066020526040902061285085826152f8565b50336000908152600660205260409020600101611cc784826152f8565b33600081815260036020526040902060020154600160a060020a03166128a85760405160e560020a62461bcd0281526004016103a990615135565b600160a060020a03808216600081815260036020526040902060020154909116146128e85760405160e560020a62461bcd0281526004016103a990615192565b6000600160a060020a03821660009081526003602052604090206004015462010000900460ff16600181111561292057612920614846565b146129405760405160e560020a62461bcd0281526004016103a9906151ef565b600061294c3386613a81565b905061295781613b8f565b6129a65760405160e560020a62461bcd02815260206004820152601860248201527f4b594320686173206e6f74206265656e2072657175697265000000000000000060448201526064016103a9565b600084156129c8575060016129ba3361444b565b6129c386614513565b6129cc565b5060025b806007836040516129dd9190615463565b908152604051908190036020019020600701805460ff19166001836002811115612a0957612a09614846565b021790555083600783604051612a1f9190615463565b90815260200160405180910390206008019081612a3c91906152f8565b507fd80f00259edeef8f2a1f23c33ab3a8e57577db0527ed9f04dd9a61e8917d293782873384604051612a72949392919061557f565b60405180910390a1505050505050565b600454600160a060020a03163314612adf5760405160e560020a62461bcd02815260206004820152601560248201527f4f6e6c792061646d696e20697320616c6c6f776564000000000000000000000060448201526064016103a9565b565b600160a060020a03828116600090815260036020526040812060020154909116612b205760405160e560020a62461bcd0281526004016103a9906155fc565b818015612b6257506001600160a060020a03841660009081526003602052604090206004015462010000900460ff166001811115612b6057612b60614846565b145b15612bcf57600160a060020a0383166000908152600360205260409081902060048101805462ff00001916905590517feb08358b4ed3424dcaa050650ea22c135e76b9a05ec0766bd3c0d664bc2c169791612bbf91869190615659565b60405180910390a1506000612cab565b81158015612c1257506000600160a060020a03841660009081526003602052604090206004015462010000900460ff166001811115612c1057612c10614846565b145b15612c8457600160a060020a0383166000908152600360205260409081902060048101805462ff000019166201000017905590517fafdccd44091dde1f075ad1dc885589e840a8f844772be0e4ee0d2794e266122b91612c7491869190615659565b60405180910390a1506001612cab565b50600160a060020a03821660009081526003602052604090206004015462010000900460ff165b92915050565b6000606060008411612d085760405160e560020a62461bcd02815260206004820152601860248201527f506167654e756d6265722073686f756c64206265203e2030000000000000000060448201526064016103a9565b600080600080612d998888612d2b57336000908152600960205260409020612d3b565b3360009081526008602052604090205b805480602002602001604051908101604052809291908181526020018280548015612d8f57602002820191906000526020600020905b8154600160a060020a03168152600190910190602001808311612d71575b5050505050614598565b935093509350935060008367ffffffffffffffff811115612dbc57612dbc6149d9565b604051908082528060200260200182016040528015612df557816020015b612de26146d3565b815260200190600190039081612dda5790505b509050825b828110156132845788612e6a573360009081526009602052604090208054600791612e4a9184908110612e2f57612e2f615534565b600091825260209091200154600160a060020a031633613a81565b604051612e579190615463565b9081526020016040518091039020612eca565b3360008181526008602052604090208054600792612eae92909185908110612e9457612e94615534565b600091825260209091200154600160a060020a0316613a81565b604051612ebb9190615463565b90815260200160405180910390205b60405180610140016040529081600082018054612ee690615272565b80601f0160208091040260200160405190810160405280929190818152602001828054612f1290615272565b8015612f5f5780601f10612f3457610100808354040283529160200191612f5f565b820191906000526020600020905b815481529060010190602001808311612f4257829003601f168201915b50505091835250506001820154600160a060020a03166020820152600282018054604090920191612f8f90615272565b80601f0160208091040260200160405190810160405280929190818152602001828054612fbb90615272565b80156130085780601f10612fdd57610100808354040283529160200191613008565b820191906000526020600020905b815481529060010190602001808311612feb57829003601f168201915b50505091835250506003820154600160a060020a0316602082015260048201805460409092019161303890615272565b80601f016020809104026020016040519081016040528092919081815260200182805461306490615272565b80156130b15780601f10613086576101008083540402835291602001916130b1565b820191906000526020600020905b81548152906001019060200180831161309457829003601f168201915b505050505081526020016005820180546130ca90615272565b80601f01602080910402602001604051908101604052809291908181526020018280546130f690615272565b80156131435780601f1061311857610100808354040283529160200191613143565b820191906000526020600020905b81548152906001019060200180831161312657829003601f168201915b505050918352505060068201546020820152600782015460409091019060ff16600281111561317457613174614846565b600281111561318557613185614846565b81526020016007820160019054906101000a900460ff1660028111156131ad576131ad614846565b60028111156131be576131be614846565b81526020016008820180546131d290615272565b80601f01602080910402602001604051908101604052809291908181526020018280546131fe90615272565b801561324b5780601f106132205761010080835404028352916020019161324b565b820191906000526020600020905b81548152906001019060200180831161322e57829003601f168201915b50505050508152505082828151811061326657613266615534565b6020026020010181905250808061327c90615566565b915050612dfa565b5093989397509295505050505050565b604080820151600160a060020a03908116600090815260036020529190912060020154161561332e5760405160e560020a62461bcd02815260206004820152602560248201527f546869732046696e616e6369616c20496e737469747574696f6e20697320657860448201527f697374656400000000000000000000000000000000000000000000000000000060648201526084016103a9565b60408181018051600280546001810182556000919091527f405787fa12a823e0f2b7631cc41b3ba8828b3321ca811111fa75cd3aa3bb5ace018054600160a060020a031916600160a060020a039092169190911790555182516020840151606085015193517f525fd5edcf782f6d6185cd349b4698e6d22dbd3c2a35aa6b58d07c68dac77e18946133c194939291615683565b60405180910390a150565b60006060600083116134235760405160e560020a62461bcd02815260206004820152601860248201527f506167654e756d6265722073686f756c64206265203e2030000000000000000060448201526064016103a9565b60008060008061348b876002805480602002602001604051908101604052809291908181526020018280548015612d8f57602002820191906000526020600020908154600160a060020a03168152600190910190602001808311612d71575050505050614598565b935093509350935060008367ffffffffffffffff8111156134ae576134ae6149d9565b6040519080825280602002602001820160405280156134e757816020015b6134d4614749565b8152602001906001900390816134cc5790505b509050825b8281101561377a57600360006002838154811061350b5761350b615534565b6000918252602080832090910154600160a060020a031683528201929092526040908101909120815160c0810190925280548290829061354a90615272565b80601f016020809104026020016040519081016040528092919081815260200182805461357690615272565b80156135c35780601f10613598576101008083540402835291602001916135c3565b820191906000526020600020905b8154815290600101906020018083116135a657829003601f168201915b505050505081526020016001820180546135dc90615272565b80601f016020809104026020016040519081016040528092919081815260200182805461360890615272565b80156136555780601f1061362a57610100808354040283529160200191613655565b820191906000526020600020905b81548152906001019060200180831161363857829003601f168201915b50505091835250506002820154600160a060020a0316602082015260038201805460409092019161368590615272565b80601f01602080910402602001604051908101604052809291908181526020018280546136b190615272565b80156136fe5780601f106136d3576101008083540402835291602001916136fe565b820191906000526020600020905b8154815290600101906020018083116136e157829003601f168201915b5050509183525050600482015461ffff8116602083015260409091019062010000900460ff16600181111561373557613735614846565b600181111561374657613746614846565b8152505082828151811061375c5761375c615534565b6020026020010181905250808061377290615566565b9150506134ec565b50939793965092945050505050565b60008160405160200161379c9190615463565b60405160208183030381529060405280519060200120836040516020016137c39190615463565b6040516020818303038152906040528051906020012014905092915050565b60006137ec614680565b60006137f6614680565b60005b8551811015613a755786600160a060020a031686828151811061381e5761381e615534565b6020026020010151600160a060020a031603613a6357600192506001600088600160a060020a0316600160a060020a031681526020019081526020016000206040518060e001604052908160008201805461387890615272565b80601f01602080910402602001604051908101604052809291908181526020018280546138a490615272565b80156138f15780601f106138c6576101008083540402835291602001916138f1565b820191906000526020600020905b8154815290600101906020018083116138d457829003601f168201915b5050505050815260200160018201805461390a90615272565b80601f016020809104026020016040519081016040528092919081815260200182805461393690615272565b80156139835780601f1061395857610100808354040283529160200191613983565b820191906000526020600020905b81548152906001019060200180831161396657829003601f168201915b5050509183525050600282015461ffff81166020830152600160a060020a03620100009091048116604083015260038301541660608201526004820180546080909201916139d090615272565b80601f01602080910402602001604051908101604052809291908181526020018280546139fc90615272565b8015613a495780601f10613a1e57610100808354040283529160200191613a49565b820191906000526020600020905b815481529060010190602001808311613a2c57829003601f168201915b505050505081526020016005820154815250509150613a75565b80613a6d81615566565b9150506137f9565b50909590945092505050565b6040516c01000000000000000000000000600160a060020a03808516820260208401528316026034820152606090604801604051602081830303815290604052905092915050565b600160a060020a0383811660009081526003602052604090206002015416613b065760405160e560020a62461bcd0281526004016103a9906155fc565b600160a060020a0383166000908152600360205260409020613b2882826152f8565b50600160a060020a0383166000908152600360205260409020600101613b4e83826152f8565b507fb4cb25b08e4b645535d427082bc0cd9007bc58e01c068f627b44bd0ec489f39f838284604051613b82939291906156d6565b60405180910390a1505050565b6000613baa8260405180602001604052806000815250613789565b15613bfa5760405160e560020a62461bcd02815260206004820152601460248201527f52657175657374206973206e6f7420666f756e6400000000000000000000000060448201526064016103a9565b612cab600783604051613c0d9190615463565b9081526040519081900360200190208054613c2790615272565b80601f0160208091040260200160405190810160405280929190818152602001828054613c5390615272565b8015613ca05780601f10613c7557610100808354040283529160200191613ca0565b820191906000526020600020905b815481529060010190602001808311613c8357829003601f168201915b505050505083613789565b6000600160a060020a038216613d065760405160e560020a62461bcd02815260206004820152601060248201527f494420686173206e6f7420666f756e640000000000000000000000000000000060448201526064016103a9565b600160a060020a038281166000908152600160205260409020600201546201000090041615801590613d615750600160a060020a0382166000908152600160208190526040909120018054613d5f919061095e90615272565b155b15613d6a575060015b919050565b613d77614749565b600160a060020a038216613da05760405160e560020a62461bcd0281526004016103a9906153be565b600160a060020a03821660009081526003602052604090819020815160c08101909252805482908290613dd290615272565b80601f0160208091040260200160405190810160405280929190818152602001828054613dfe90615272565b8015613e4b5780601f10613e2057610100808354040283529160200191613e4b565b820191906000526020600020905b815481529060010190602001808311613e2e57829003601f168201915b50505050508152602001600182018054613e6490615272565b80601f0160208091040260200160405190810160405280929190818152602001828054613e9090615272565b8015613edd5780601f10613eb257610100808354040283529160200191613edd565b820191906000526020600020905b815481529060010190602001808311613ec057829003601f168201915b50505091835250506002820154600160a060020a03166020820152600382018054604090920191613f0d90615272565b80601f0160208091040260200160405190810160405280929190818152602001828054613f3990615272565b8015613f865780601f10613f5b57610100808354040283529160200191613f86565b820191906000526020600020905b815481529060010190602001808311613f6957829003601f168201915b5050509183525050600482015461ffff8116602083015260409091019062010000900460ff166001811115613fbd57613fbd614846565b6001811115613fce57613fce614846565b90525092915050565b613fdf614680565b600160a060020a03821660009081526001602052604090819020815160e0810190925280548290829061401190615272565b80601f016020809104026020016040519081016040528092919081815260200182805461403d90615272565b801561408a5780601f1061405f5761010080835404028352916020019161408a565b820191906000526020600020905b81548152906001019060200180831161406d57829003601f168201915b505050505081526020016001820180546140a390615272565b80601f01602080910402602001604051908101604052809291908181526020018280546140cf90615272565b801561411c5780601f106140f15761010080835404028352916020019161411c565b820191906000526020600020905b8154815290600101906020018083116140ff57829003601f168201915b5050509183525050600282015461ffff81166020830152600160a060020a036201000090910481166040830152600383015416606082015260048201805460809092019161416990615272565b80601f016020809104026020016040519081016040528092919081815260200182805461419590615272565b80156141e25780601f106141b7576101008083540402835291602001916141e2565b820191906000526020600020905b8154815290600101906020018083116141c557829003601f168201915b505050505081526020016005820154815250509050919050565b33600090815260016020526040902060040161421883826152f8565b5033600081815260016020526040908190206005810184905590517fd19d4ad3ae69ce55a7b2abedbf945c905fb06fd10e10fd91cf7e206a45e7367392614262929091869061570a565b60405180910390a15050565b6060810151600160a060020a031660009081526001602052604090208151829190819061429b90826152f8565b50602082015160018201906142b090826152f8565b506040820151600282018054606085015161ffff90931675ffffffffffffffffffffffffffffffffffffffffffff199091161762010000600160a060020a03938416021790556080830151600383018054600160a060020a0319169190921617905560a0820151600482019061432690826152f8565b5060c09190910151600590910155606081018051600080546001810182559080527f290decd9548b62a8d60345a988386fc84ba6bc95484008f6362f93160ef3e563018054600160a060020a031916600160a060020a0390921691909117905551815160208301516040517ffc753eff51ef9bc95cc7789cefef07d6f2b86de04834071141298e2cc3e5360f936133c193909290916156d6565b3360009081526001602052604090206143d984826152f8565b50336000908152600160208190526040909120016143f783826152f8565b503360008181526001602052604090819020600201805461ffff191661ffff8516179055517f6187a440bf69704d8832c067e5749fd4293c4398454c804cb395c24189a7dd8291613b8291869086906156d6565b600160a060020a0381166144ca5760405160e560020a62461bcd02815260206004820152602260248201527f46696e616e6369616c20494e737469747574696f6e206973206e6f7420666f7560448201527f6e6400000000000000000000000000000000000000000000000000000000000060648201526084016103a9565b600160a060020a0381166000908152600360205260408120600401805461ffff16916144f58361572c565b91906101000a81548161ffff021916908361ffff1602179055505050565b600160a060020a03811661456c5760405160e560020a62461bcd02815260206004820152601960248201527f437573746f6d657220494420686173206e6f7420466f756e640000000000000060448201526064016103a9565b600160a060020a031660009081526001602052604090206003018054600160a060020a03191633179055565b6000806000806000601486516145ae9190615766565b9050601486516145be919061577a565b945080156145d457846145d081615566565b9550505b601493506145e360018861578e565b6145ee9060146157a5565b92506145fb8760146157a5565b91508487111561461257600093506000915061462e565b84871480156146215750600081115b1561462e57809350855191505b5092959194509250565b6040518060a0016040528060608152602001606081526020016000600160a060020a031681526020016000600281111561467457614674614846565b81526020016000905290565b6040518060e001604052806060815260200160608152602001600061ffff1681526020016000600160a060020a031681526020016000600160a060020a0316815260200160608152602001600081525090565b604051806101400160405280606081526020016000600160a060020a03168152602001606081526020016000600160a060020a031681526020016060815260200160608152602001600081526020016000600281111561473557614735614846565b815260200160008152602001606081525090565b6040805160c081018252606080825260208201819052600092820183905280820152608081018290529060a082015290565b8035600160a060020a0381168114613d6a57600080fd5b80358015158114613d6a57600080fd5b600080604083850312156147b557600080fd5b6147be8361477b565b91506147cc60208401614792565b90509250929050565b6000602082840312156147e757600080fd5b5035919050565b60005b838110156148095781810151838201526020016147f1565b83811115610f905750506000910152565b600081518084526148328160208601602086016147ee565b601f01601f19169290920160200192915050565b60e060020a634e487b7102600052602160045260246000fd5b6003811061486f5761486f614846565b50565b61487b8161485f565b9052565b600061014082518185526148958286018261481a565b91505060208301516148b26020860182600160a060020a03169052565b50604083015184820360408601526148ca828261481a565b91505060608301516148e76060860182600160a060020a03169052565b50608083015184820360808601526148ff828261481a565b91505060a083015184820360a0860152614919828261481a565b91505060c083015160c085015260e083015161493860e0860182614872565b506101008084015161494c82870182614872565b50506101208084015185830382870152614966838261481a565b9695505050505050565b60006040820184835260206040818501528185518084526060860191506060838202870101935082870160005b828110156149cb57605f198887030184526149b986835161487f565b9550928401929084019060010161499d565b509398975050505050505050565b60e060020a634e487b7102600052604160045260246000fd5b60405160c0810167ffffffffffffffff81118282101715614a1557614a156149d9565b60405290565b60405160e0810167ffffffffffffffff81118282101715614a1557614a156149d9565b600082601f830112614a4f57600080fd5b813567ffffffffffffffff80821115614a6a57614a6a6149d9565b604051601f8301601f19908116603f01168101908282118183101715614a9257614a926149d9565b81604052838152866020858801011115614aab57600080fd5b836020870160208301376000602085830101528094505050505092915050565b803561ffff81168114613d6a57600080fd5b803560028110613d6a57600080fd5b600060208284031215614afe57600080fd5b813567ffffffffffffffff80821115614b1657600080fd5b9083019060c08286031215614b2a57600080fd5b614b326149f2565b823582811115614b4157600080fd5b614b4d87828601614a3e565b825250602083013582811115614b6257600080fd5b614b6e87828601614a3e565b602083015250614b806040840161477b565b6040820152606083013582811115614b9757600080fd5b614ba387828601614a3e565b606083015250614bb560808401614acb565b6080820152614bc660a08401614add565b60a082015295945050505050565b6002811061487b5761487b614846565b6000815160c08452614bf960c085018261481a565b905060208301518482036020860152614c12828261481a565b915050600160a060020a03604084015116604085015260608301518482036060860152614c3f828261481a565b91505061ffff608084015116608085015260a0830151614c6260a0860182614bd4565b509392505050565b60006040820184835260206040818501528185518084526060860191506060838202870101935082870160005b828110156149cb57605f19888703018452614cb3868351614be4565b95509284019290840190600101614c97565b602081526000825160a06020840152614ce160c084018261481a565b90506020840151601f19848303016040850152614cfe828261481a565b915050600160a060020a0360408501511660608401526060840151614d228161485f565b806080850152506080840151614c6260a0850182614bd4565b600060208284031215614d4d57600080fd5b614d568261477b565b9392505050565b6000815160e08452614d7260e085018261481a565b905060208301518482036020860152614d8b828261481a565b91505061ffff60408401511660408501526060830151600160a060020a038082166060870152806080860151166080870152505060a083015184820360a0860152614dd6828261481a565b91505060c083015160c08501528091505092915050565b8315158152606060208201526000614e086060830185614d5d565b8281036040840152614966818561487f565b600080600060608486031215614e2f57600080fd5b614e388461477b565b9250602084013567ffffffffffffffff80821115614e5557600080fd5b614e6187838801614a3e565b93506040860135915080821115614e7757600080fd5b50614e8486828701614a3e565b9150509250925092565b60008060408385031215614ea157600080fd5b614eaa8361477b565b9150602083013567ffffffffffffffff811115614ec657600080fd5b614ed285828601614a3e565b9150509250929050565b602081526000614d566020830184614be4565b602081526000614d566020830184614d5d565b8315158152606060208201526000614e086060830185614be4565b60008060408385031215614f3057600080fd5b823567ffffffffffffffff811115614f4757600080fd5b614f5385828601614a3e565b95602094909401359450505050565b600080600060608486031215614f7757600080fd5b833567ffffffffffffffff80821115614f8f57600080fd5b9085019060e08288031215614fa357600080fd5b614fab614a1b565b823582811115614fba57600080fd5b614fc689828601614a3e565b825250602083013582811115614fdb57600080fd5b614fe789828601614a3e565b602083015250614ff960408401614acb565b604082015261500a6060840161477b565b606082015261501b6080840161477b565b608082015260a08301358281111561503257600080fd5b61503e89828601614a3e565b60a08301525060c083013560c082015280955050602086013593506040860135915080821115614e7757600080fd5b60008060006060848603121561508257600080fd5b61508b8461477b565b925061509960208501614792565b9150604084013567ffffffffffffffff8111156150b557600080fd5b614e8486828701614a3e565b6000806000606084860312156150d657600080fd5b833567ffffffffffffffff808211156150ee57600080fd5b6150fa87838801614a3e565b9450602086013591508082111561511057600080fd5b5061511d86828701614a3e565b92505061512c60408501614acb565b90509250925092565b60208082526027908201527f546869732046696e616e6369616c20496e737469747574696f6e206973206e6f60408201527f7420666f756e6400000000000000000000000000000000000000000000000000606082015260800190565b6020808252602d908201527f546869732046696e616e6369616c20496e737469747574696f6e20686173206e60408201527f6f74206265656e20616464656400000000000000000000000000000000000000606082015260800190565b60208082526045908201527f546869732046696e616e6369616c20496e737469747574696f6e206973206e6f60408201527f74206163746976652c20706c65736520636f6e746163742041646d696e69737460608201527f7261746f72000000000000000000000000000000000000000000000000000000608082015260a00190565b60028104600182168061528657607f821691505b60208210810361134a5760e060020a634e487b7102600052602260045260246000fd5b601f8211156152f3576000818152602081206020601f860104810160208610156152d05750805b6020601f860104820191505b818110156152ef578281556001016152dc565b5050505b505050565b815167ffffffffffffffff811115615312576153126149d9565b615326816153208454615272565b846152a9565b602080601f83116001811461535f57600084156153435750858301515b60028086026008870290910a60001904198216178655506152ef565b600085815260208120601f198616915b8281101561538e5788860151825594840194600190910190840161536f565b50858210156153ae57878501516008601f88160260020a60001904191681555b5050505050600202600101905550565b6020808252600f908201527f4944206973206e6f7420666f756e640000000000000000000000000000000000604082015260600190565b60208082526011908201527f55736572206973206e6f7420666f756e64000000000000000000000000000000604082015260600190565b60208082526012908201527f456d61696c206973206e6f7420666f756e640000000000000000000000000000604082015260600190565b600082516154758184602087016147ee565b9190910192915050565b6000815461548c81615272565b8085526020600183811680156154a957600181146154c2576154f0565b60ff1985168884015283151583028801830195506154f0565b866000528260002060005b858110156154e85781548a82018601529083019084016154cd565b890184019650505b505050505092915050565b60608152600061550e606083018661481a565b8281036020840152615520818661547f565b90508281036040840152614966818561547f565b60e060020a634e487b7102600052603260045260246000fd5b60e060020a634e487b7102600052601160045260246000fd5b6000600182016155785761557861554d565b5060010190565b608081526000615592608083018761481a565b600160a060020a0386811660208501528516604084015290506155b48361485f565b82606083015295945050505050565b6060815260006155d6606083018661481a565b82810360208401526155e8818661547f565b90508281036040840152614966818561481a565b60208082526027908201527f546869732046696e616e6369616c20496e737469747574696f6e206973206e6f60408201527f7220666f756e6400000000000000000000000000000000000000000000000000606082015260800190565b600160a060020a038316815260406020820152600061567b604083018461547f565b949350505050565b600160a060020a03851681526080602082015260006156a5608083018661481a565b82810360408401526156b7818661481a565b905082810360608401526156cb818561481a565b979650505050505050565b600160a060020a03841681526060602082015260006156f8606083018561481a565b8281036040840152614966818561481a565b600160a060020a03841681526060602082015260006156f8606083018561547f565b600061ffff8083168181036157435761574361554d565b6001019392505050565b60e060020a634e487b7102600052601260045260246000fd5b6000826157755761577561574d565b500690565b6000826157895761578961574d565b500490565b6000828210156157a0576157a061554d565b500390565b60008160001904831182151516156157bf576157bf61554d565b50029056fea26469706673582212202a87427e76979c8164e52d013103a59237e6ac7f0bf243810f6eb25ff0ccb7ff64736f6c634300080f0033",
  "immutableReferences": {},
  "source": "// SPDX-License-Identifier: MIT and GPL-3.0\npragma experimental ABIEncoderV2;\npragma solidity >=0.6;\n\nimport \"./FI.sol\";\nimport \"./Client.sol\";\n\n// Administration for managing KYC process. \ncontract KYC is Client, FI {\n    address admin;\n    address[] internal adminList;\n\n    mapping(address => appearances.User) internal users;\n    mapping(string => appearances.KYCRequest) internal request;\n    mapping(address => address[]) internal FItoClient;\n    mapping(address => address[]) internal ClienttoFI;\n\n    event addKYC(string iDreq, string FIName, string ClinetName);\n    event startKYC(string iDreq, string FIName, string ClientName);\n    event changeStatus(\n        string iDreq,\n        address Client_ID,\n        address FI_ID,\n        appearances.KYCStatus status\n    );\n    event dataHashpermission(\n        string iDreq,\n        address Client_ID,\n        address FI_ID,\n        appearances.DataHashStatus status\n    );\n\n    // Set the admin who can add FIs to system and deploy this contract.\n    constructor(string memory name, string memory email) {\n        admin = msg.sender;\n        appearances.User memory user = appearances.User({\n            name: name,\n            email: email,\n            ID: admin,\n            positions: appearances.Positions.Admin,\n            status: appearances.FIStatus.Active\n        });\n        users[admin] = user;\n        adminList.push(admin);\n    }\n    function _onlyAdmin() private view {\n        require(msg.sender == admin, \"Only admin is allowed\");\n    }\n    // Check whether the inquirer is a admin.  \n    modifier isAdmin() {\n        _onlyAdmin();\n        _;\n    }\n    /*  Function that check whether the KYC is alredy exists.\n     *  iDreq is a unique ID for KYC request process.\n     *  this function will return \"boolean\"\n     */   \n    function isKYCexists(string memory iDreq) internal view returns(bool) {\n        require(!support.stringsCompare(iDreq, \"\"), \"Request is not found\");\n        return support.stringsCompare(request[iDreq].ID, iDreq);\n    }\n\n    //Function to request KYC process.  \n    function getKYC(uint256 pageNumber, bool forFI) \n    internal view returns(uint256 Totalpages, appearances.KYCRequest[] memory) {\n        require(pageNumber > 0, \"PageNumber should be > 0\");\n        (\n            uint256 pages,\n            uint256 pageLength,\n            uint256 startIndex,\n            uint256 endIndex\n        ) = support.getIndexes(\n            pageNumber, \n            forFI\n                ? FItoClient[msg.sender]\n                : ClienttoFI[msg.sender]\n        );\n        appearances.KYCRequest[] memory list = new appearances.KYCRequest[](pageLength);\n        for (uint256 i = startIndex; i < endIndex; i++)\n        list[i] = forFI\n        ? request[support.append(msg.sender, FItoClient[msg.sender][i])] \n        : request[support.append(ClienttoFI[msg.sender][i], msg.sender)];\n        return(pages, list);\n    }\n\n    // Admin Interface.\n\n    // Function to list all FIs\n    function AllFI(uint256 pageNumber) public view isAdmin\n    returns(uint256 Totalpages, appearances.FI[] memory) {\n        return getallFI(pageNumber);\n    }\n\n    // Funcition to add nee FI including their details. \n    function AddFIAccount(appearances.FI memory fiAdd) public isAdmin {\n        addFI(fiAdd);\n        users[fiAdd.ID] = appearances.User({\n            name: fiAdd.name,\n            email: fiAdd.email,\n            ID: fiAdd.ID,\n            positions: appearances.Positions.FI,\n            status: appearances.FIStatus.Active\n        });\n        adminList.push(fiAdd.ID);\n    }\n\n    // Function to update Fis details.\n    function FIUpdate(address ID, string memory email, string memory name)\n    public isAdmin {\n        updateFI(ID, email, name);\n        users[ID].name = name;\n        users[ID].email = email;\n    }\n\n    /*  Function to active FIs for KYC. \n     *  If boolearn return true, FI will mark as a active \n     *  Otherwise will mark as a deactive\n     */\n    function ActiveteandDeactivete(address ID, bool MakeActive) public isAdmin {\n        users[ID].status = activeteAnddeactivete(ID, MakeActive);\n    }\n\n    // Bank Interface\n\n    //Function that list clients, who like with the FI in this system. \n    function getClientofFI(uint256 pageNumber) public view isFIValid(msg.sender)\n    returns(uint256 Totalpages, appearances.KYCRequest[] memory) {\n        return getKYC(pageNumber, true);\n    }\n\n    // Function to record new KYC for a client.\n    function AddKYC(appearances.Client memory client, uint256 Timestemp,\n    string memory note) public isFIValid(msg.sender) {\n        string memory iDreq = support.append(msg.sender, client.ID);\n        require(!isKYCexists(iDreq), \"User had requested KYC\");\n        // client's details. \n        request[iDreq] = appearances.KYCRequest({\n            ID: iDreq,\n            user_ID: client.ID,\n            ClientName: client.name,\n            FI_ID: msg.sender,\n            FIName: gettheFI(msg.sender).name,\n            dataHash: client.dataHash,\n            // Timestemp is current date & time in unix epoch timestemp.\n            updatedOn: Timestemp,\n            status: appearances.KYCStatus.Pending,\n            dataRequest: appearances.DataHashStatus.Pending,\n            // note is aollow the additinal details to be added.\n            additionalNotes: note\n        });\n        FItoClient[msg.sender].push(client.ID);\n        ClienttoFI[client.ID].push(msg.sender);\n        emit addKYC(iDreq, request[iDreq].FIName, client.name);\n\n        if(!ExistedClient(client.ID)) {\n            addClient(client);\n            users[client.ID] = appearances.User({\n                name: client.name,\n                email: client.email,\n                ID: client.ID,\n                positions: appearances.Positions.Client,\n                status: appearances.FIStatus.Active\n            });\n            adminList.push(client.ID);\n        }\n    }\n\n    // Function to re-request KYC for clients.\n    function reKYC(address ID, string memory note) public\n    isFIValid(msg.sender) {\n        string memory iDreq = support.append(msg.sender, ID);\n        require(isKYCexists(iDreq), \"KYC has not found\");\n        require(ExistedClient(ID), \"Customer has not found\");\n        \n        request[iDreq].status = appearances.KYCStatus.Pending;\n        request[iDreq].dataRequest = appearances.DataHashStatus.Pending;\n        request[iDreq].additionalNotes = note;\n        emit startKYC(iDreq, request[iDreq].FIName, request[iDreq].ClientName);\n    }\n    \n    // Function to verify KYC as failure.\n    function KYCVerification(address user_ID, bool verified, string memory note)\n    public isFIValid(msg.sender) {\n        string memory iDreq = support.append(msg.sender, user_ID);\n        require(isKYCexists(iDreq), \"KYC has not been require\");\n\n        appearances.KYCStatus status = appearances.KYCStatus.Pending;\n        if(verified) {\n            status = appearances.KYCStatus.KYCVerified;\n            updateKYC(msg.sender);\n            verifiedKYC(user_ID);           \n        }\n        else {\n            status = appearances.KYCStatus.KYCFailed;\n        }\n        request[iDreq].status = status;\n        // info to be shared with the clients.\n        request[iDreq].additionalNotes = note;\n        emit changeStatus(iDreq, user_ID, msg.sender, status);\n    }\n\n    /*  Function to search for client's details for FIs that client link to.\n     *  This will return in boolean which tell if client exits or not.\n     */   \n    function searchClient(address ID) public view \n    isClientValid(ID) isFIValid(msg.sender)\n    returns(bool, appearances.Client memory, appearances.KYCRequest memory) {\n        bool found;\n        appearances.Client memory client;\n        appearances.KYCRequest memory requested;\n        (found, client) = searchforclient(ID, FItoClient[msg.sender]);\n        // If client exits will return with full of client's details, including KYC status.\n        if (found) requested = request[support.append(msg.sender, ID)];\n        return (found, client, requested); \n    }\n\n    // Client Interface\n\n    // Function that list FIs for Client \n    function FIrequest(uint256 pageNumber) public view isClientValid(msg.sender)\n    returns(uint256 Totalpages, appearances.KYCRequest[] memory) {\n        return getKYC(pageNumber, false);\n    }\n\n    // Function to check if KYC approve or reject. \n    function KYCaction(address FI_ID, bool approve, string memory note)\n    public isClientValid(msg.sender) isFIValid(FI_ID) {\n        string memory iDreq = support.append(FI_ID, msg.sender);\n        require(isKYCexists(iDreq), \"User does not have KYC request\");\n\n        appearances.DataHashStatus status = appearances.DataHashStatus.Pending;\n        if (approve) {\n            status = appearances.DataHashStatus.Approved;\n        }\n        else {\n            status = appearances.DataHashStatus.Rejected;\n        }\n        request[iDreq].dataRequest = status;\n        request[iDreq].additionalNotes = note;\n        emit dataHashpermission(iDreq, msg.sender, FI_ID, status);\n    }\n\n    // Function to update the user proflie.\n    function updateProfile(string memory name, string memory email, uint16 MobileNumber)\n    public isClientValid(msg.sender) {\n        getProflieUpdate(name, email, MobileNumber);\n        users[msg.sender].name = name;\n        users[msg.sender].email = email;\n    }\n\n    // Function to upate dathash of the documents.\n    function updateHash(string memory hash, uint256 Timestemp) public\n    isClientValid(msg.sender) {\n        dataHashUpdate(hash, Timestemp);\n        // Reset KYC verification status for all FIs \n        address[] memory FIsList = ClienttoFI[msg.sender];\n        for (uint256 i = 0; i < FIsList.length; i++) {\n            string memory iDreq = support.append(FIsList[i], msg.sender);\n            if (isKYCexists(iDreq)) {\n                request[iDreq].dataHash = hash;\n                request[iDreq].updatedOn = Timestemp;\n                request[iDreq].status = appearances.KYCStatus.Pending;\n                request[iDreq].additionalNotes = \"Update all my documents\";\n            }\n        }\n    }\n\n    /*  Function to removes the permission to a specific FIs.\n     *  So, they can't access the documents again.\n     */\n    function removePremission(address FI_ID, string memory note) public\n    isClientValid(msg.sender) {\n        string memory iDreq = support.append(FI_ID, msg.sender);\n        require(isKYCexists(iDreq), \"Permission has not found\");\n        request[iDreq].dataRequest = appearances.DataHashStatus.Rejected;\n        request[iDreq].additionalNotes = note;\n        emit dataHashpermission(iDreq, msg.sender, FI_ID, appearances.DataHashStatus.Rejected);\n    }\n    /*  Fucntion to search for FIs details in the list that directly linked to customer.\n     *  This will return say FI exits or not.\n     */ \n    function searchforFI(address FI_ID) public view \n    isClientValid(msg.sender) isFIValid(FI_ID)\n    returns(bool, appearances.FI memory, appearances.KYCRequest memory) {\n        bool found;\n        appearances.FI memory fiAdd;\n        appearances.KYCRequest memory req;\n        address[] memory fis = ClienttoFI[msg.sender];\n        // If FI i found will return their detials including status.\n        for (uint256 i = 0; i < fis.length; i++) {\n            if(fis[i] == FI_ID) {\n                found = true;\n                fiAdd = gettheFI(FI_ID);\n                req = request[support.append(FI_ID, msg.sender)];\n                break;\n            }\n        }\n        return(found, fiAdd, req);\n    }\n\n    // Common Interfacc\n\n    // Updates the KYC request (Either Approves or Rejects)\n    function checkIt() public view returns(appearances.User memory) {\n        require(msg.sender != address(0), \"Sender ID Empty\");\n        require(users[msg.sender].ID != address(0), \"User ID Empty\");\n        return users[msg.sender];\n    }\n\n    // Get client's details\n    function gettheClientDetials(address ID) public view isClientValid(ID)\n    returns(appearances.Client memory) {\n        return getClientDetail(ID);\n    }\n    \n    // Get Financial Institution's details \n    function getFIDetails(address ID) public view isFIValid(ID)\n    returns (appearances.FI memory) {\n        return gettheFI(ID);\n    }\n\n}",
  "sourcePath": "/Users/aekkarajkuplakatee/Desktop/Dissertation/KYC/Blokchain/contracts/KYC.sol",
  "compiler": {
    "name": "solc",
    "version": "0.8.15+commit.e14f2714.Emscripten.clang"
  },
  "schemaVersion": "3.4.8",
  "updatedAt": "2023-04-30T15:36:03.794Z",
  "devdoc": {
    "kind": "dev",
    "methods": {},
    "version": 1
  },
  "userdoc": {
    "kind": "user",
    "methods": {},
    "version": 1
  }
}