{
  "contractName": "Admin",
  "abi": [
    {
      "inputs": [
        {
          "internalType": "string",
          "name": "name",
          "type": "string"
        },
        {
          "internalType": "string",
          "name": "email",
          "type": "string"
        }
      ],
      "stateMutability": "nonpayable",
      "type": "constructor"
    },
    {
      "anonymous": false,
      "inputs": [
        {
          "indexed": false,
          "internalType": "address",
          "name": "ID",
          "type": "address"
        },
        {
          "indexed": false,
          "internalType": "string",
          "name": "name",
          "type": "string"
        },
        {
          "indexed": false,
          "internalType": "string",
          "name": "email",
          "type": "string"
        }
      ],
      "name": "ClientAdded",
      "type": "event"
    },
    {
      "anonymous": false,
      "inputs": [
        {
          "indexed": false,
          "internalType": "address",
          "name": "ID",
          "type": "address"
        },
        {
          "indexed": false,
          "internalType": "string",
          "name": "name",
          "type": "string"
        },
        {
          "indexed": false,
          "internalType": "string",
          "name": "email",
          "type": "string"
        }
      ],
      "name": "ClientDataUpdated",
      "type": "event"
    },
    {
      "anonymous": false,
      "inputs": [
        {
          "indexed": false,
          "internalType": "address",
          "name": "ID",
          "type": "address"
        },
        {
          "indexed": false,
          "internalType": "string",
          "name": "name",
          "type": "string"
        }
      ],
      "name": "FIactivated",
      "type": "event"
    },
    {
      "anonymous": false,
      "inputs": [
        {
          "indexed": false,
          "internalType": "address",
          "name": "ID",
          "type": "address"
        },
        {
          "indexed": false,
          "internalType": "string",
          "name": "name",
          "type": "string"
        },
        {
          "indexed": false,
          "internalType": "string",
          "name": "email",
          "type": "string"
        },
        {
          "indexed": false,
          "internalType": "string",
          "name": "SwiftCode",
          "type": "string"
        }
      ],
      "name": "FIadded",
      "type": "event"
    },
    {
      "anonymous": false,
      "inputs": [
        {
          "indexed": false,
          "internalType": "address",
          "name": "ID",
          "type": "address"
        },
        {
          "indexed": false,
          "internalType": "string",
          "name": "name",
          "type": "string"
        }
      ],
      "name": "FIdeactivated",
      "type": "event"
    },
    {
      "anonymous": false,
      "inputs": [
        {
          "indexed": false,
          "internalType": "address",
          "name": "ID",
          "type": "address"
        },
        {
          "indexed": false,
          "internalType": "string",
          "name": "name",
          "type": "string"
        },
        {
          "indexed": false,
          "internalType": "string",
          "name": "email",
          "type": "string"
        }
      ],
      "name": "FIupdated",
      "type": "event"
    },
    {
      "anonymous": false,
      "inputs": [
        {
          "indexed": false,
          "internalType": "address",
          "name": "ID",
          "type": "address"
        },
        {
          "indexed": false,
          "internalType": "string",
          "name": "clientName",
          "type": "string"
        },
        {
          "indexed": false,
          "internalType": "string",
          "name": "dataHash",
          "type": "string"
        }
      ],
      "name": "dataHashUpdated",
      "type": "event"
    },
    {
      "inputs": [
        {
          "internalType": "uint256",
          "name": "pageNumber",
          "type": "uint256"
        }
      ],
      "name": "AllFI",
      "outputs": [
        {
          "internalType": "uint256",
          "name": "Totalpages",
          "type": "uint256"
        },
        {
          "components": [
            {
              "internalType": "string",
              "name": "name",
              "type": "string"
            },
            {
              "internalType": "string",
              "name": "email",
              "type": "string"
            },
            {
              "internalType": "address",
              "name": "ID",
              "type": "address"
            },
            {
              "internalType": "string",
              "name": "SwiftCode",
              "type": "string"
            },
            {
              "internalType": "uint16",
              "name": "KYCCount",
              "type": "uint16"
            },
            {
              "internalType": "enum appearances.FIStatus",
              "name": "status",
              "type": "uint8"
            }
          ],
          "internalType": "struct appearances.FI",
          "name": "",
          "type": "tuple"
        }
      ],
      "stateMutability": "view",
      "type": "function"
    },
    {
      "inputs": [
        {
          "components": [
            {
              "internalType": "string",
              "name": "name",
              "type": "string"
            },
            {
              "internalType": "string",
              "name": "email",
              "type": "string"
            },
            {
              "internalType": "address",
              "name": "ID",
              "type": "address"
            },
            {
              "internalType": "string",
              "name": "SwiftCode",
              "type": "string"
            },
            {
              "internalType": "uint16",
              "name": "KYCCount",
              "type": "uint16"
            },
            {
              "internalType": "enum appearances.FIStatus",
              "name": "status",
              "type": "uint8"
            }
          ],
          "internalType": "struct appearances.FI",
          "name": "fiAdd",
          "type": "tuple"
        }
      ],
      "name": "AddFIAccount",
      "outputs": [],
      "stateMutability": "nonpayable",
      "type": "function"
    },
    {
      "inputs": [
        {
          "internalType": "address",
          "name": "ID",
          "type": "address"
        },
        {
          "internalType": "string",
          "name": "email",
          "type": "string"
        },
        {
          "internalType": "string",
          "name": "name",
          "type": "string"
        }
      ],
      "name": "FIUpdate",
      "outputs": [],
      "stateMutability": "nonpayable",
      "type": "function"
    },
    {
      "inputs": [
        {
          "internalType": "address",
          "name": "ID",
          "type": "address"
        },
        {
          "internalType": "bool",
          "name": "MakeActive",
          "type": "bool"
        }
      ],
      "name": "ActiveteandDeactivete",
      "outputs": [],
      "stateMutability": "nonpayable",
      "type": "function"
    }
  ],
  "bytecode": "0x60806040523480156200001157600080fd5b506040516200140e3803806200140e83398101604081905262000034916200029e565b60048054600160a060020a031916339081179091556040805160a08101825284815260208082018590528183018490526000606083018190526080830181905293845260069052912081518291908190620000909082620003df565b5060208201516001820190620000a79082620003df565b50604082015160028083018054600160a060020a03909316600160a060020a03198416811782556060860151939192600160a860020a03199092161790740100000000000000000000000000000000000000009084908111156200010f576200010f62000308565b0217905550608082015160028201805460a860020a60ff021916750100000000000000000000000000000000000000000083600181111562000155576200015562000308565b021790555050600454600580546001810182556000919091527f036b6384b5eca791c62761152d0c79bb0604c104a5fb6f4eb0703f3154bb3db0018054600160a060020a031916600160a060020a0390921691909117905550620004b192505050565b7f4e487b7100000000000000000000000000000000000000000000000000000000600052604160045260246000fd5b600082601f830112620001f957600080fd5b81516001604060020a0380821115620002165762000216620001b8565b604051601f8301601f19908116603f01168101908282118183101715620002415762000241620001b8565b816040528381526020925086838588010111156200025e57600080fd5b600091505b8382101562000282578582018301518183018401529082019062000263565b83821115620002945760008385830101525b9695505050505050565b60008060408385031215620002b257600080fd5b82516001604060020a0380821115620002ca57600080fd5b620002d886838701620001e7565b93506020850151915080821115620002ef57600080fd5b50620002fe85828601620001e7565b9150509250929050565b7f4e487b7100000000000000000000000000000000000000000000000000000000600052602160045260246000fd5b6002810460018216806200034c57607f821691505b60208210810362000386577f4e487b7100000000000000000000000000000000000000000000000000000000600052602260045260246000fd5b50919050565b601f821115620003da576000818152602081206020601f86010481016020861015620003b55750805b6020601f860104820191505b81811015620003d657828155600101620003c1565b5050505b505050565b81516001604060020a03811115620003fb57620003fb620001b8565b62000413816200040c845462000337565b846200038c565b602080601f8311600181146200044f5760008415620004325750858301515b60028086026008870290910a6000190419821617865550620003d6565b600085815260208120601f198616915b8281101562000480578886015182559484019460019091019084016200045f565b5085821015620004a157878501516008601f88160260020a60001904191681555b5050505050600202600101905550565b610f4d80620004c16000396000f3fe608060405234801561001057600080fd5b5060043610610068577c01000000000000000000000000000000000000000000000000000000006000350463173eb4df811461006d5780632a807f77146100825780633949d021146100955780638202cfbc146100bf575b600080fd5b61008061007b366004610844565b6100d2565b005b610080610090366004610970565b61017a565b6100a86100a3366004610a58565b610358565b6040516100b6929190610ad7565b60405180910390f35b6100806100cd366004610b91565b6103c7565b600454600160a060020a031633146101085760405160e560020a62461bcd0281526004016100ff90610c05565b60405180910390fd5b610112828261044d565b600160a060020a0383166000908152600660205260409020600201805475ff0000000000000000000000000000000000000000001916750100000000000000000000000000000000000000000083600181111561017157610171610abe565b02179055505050565b600454600160a060020a031633146101a75760405160e560020a62461bcd0281526004016100ff90610c05565b6101b08161061d565b6040805160a08101825282518152602080840151818301528383018051600160a060020a0390811684860152600160608501526000608085018190529151168152600690915291909120815181906102089082610cc8565b506020820151600182019061021d9082610cc8565b50604082015160028083018054600160a060020a0390931673ffffffffffffffffffffffffffffffffffffffff19841681178255606086015193919274ffffffffffffffffffffffffffffffffffffffffff1990921617907401000000000000000000000000000000000000000090849081111561029d5761029d610abe565b0217905550608082015160028201805475ff000000000000000000000000000000000000000000191675010000000000000000000000000000000000000000008360018111156102ef576102ef610abe565b0217905550505060400151600580546001810182556000919091527f036b6384b5eca791c62761152d0c79bb0604c104a5fb6f4eb0703f3154bb3db001805473ffffffffffffffffffffffffffffffffffffffff1916600160a060020a03909216919091179055565b6040805160c0810182526060808252602082018190526000928201839052808201526080810182905260a08101829052600454600160a060020a031633146103b55760405160e560020a62461bcd0281526004016100ff90610c05565b6103be83610358565b91509150915091565b600454600160a060020a031633146103f45760405160e560020a62461bcd0281526004016100ff90610c05565b6103ff838383610762565b600160a060020a03831660009081526006602052604090206104218282610cc8565b50600160a060020a03831660009081526006602052604090206001016104478382610cc8565b50505050565b600160a060020a0382811660009081526003602052604081206002015490911661048c5760405160e560020a62461bcd0281526004016100ff90610d8e565b8180156104ce57506001600160a060020a03841660009081526003602052604090206004015462010000900460ff1660018111156104cc576104cc610abe565b145b1561053b57600160a060020a0383166000908152600360205260409081902060048101805462ff00001916905590517feb08358b4ed3424dcaa050650ea22c135e76b9a05ec0766bd3c0d664bc2c16979161052b91869190610deb565b60405180910390a1506000610617565b8115801561057e57506000600160a060020a03841660009081526003602052604090206004015462010000900460ff16600181111561057c5761057c610abe565b145b156105f057600160a060020a0383166000908152600360205260409081902060048101805462ff000019166201000017905590517fafdccd44091dde1f075ad1dc885589e840a8f844772be0e4ee0d2794e266122b916105e091869190610deb565b60405180910390a1506001610617565b50600160a060020a03821660009081526003602052604090206004015462010000900460ff165b92915050565b604080820151600160a060020a0390811660009081526003602052919091206002015416156106b75760405160e560020a62461bcd02815260206004820152602560248201527f546869732046696e616e6369616c20496e737469747574696f6e20697320657860448201527f697374656400000000000000000000000000000000000000000000000000000060648201526084016100ff565b60408181018051600280546001810182556000919091527f405787fa12a823e0f2b7631cc41b3ba8828b3321ca811111fa75cd3aa3bb5ace01805473ffffffffffffffffffffffffffffffffffffffff1916600160a060020a039092169190911790555182516020840151606085015193517f525fd5edcf782f6d6185cd349b4698e6d22dbd3c2a35aa6b58d07c68dac77e189461075794939291610e86565b60405180910390a150565b600160a060020a038381166000908152600360205260409020600201541661079f5760405160e560020a62461bcd0281526004016100ff90610d8e565b600160a060020a03831660009081526003602052604090206107c18282610cc8565b50600160a060020a03831660009081526003602052604090206001016107e78382610cc8565b507fb4cb25b08e4b645535d427082bc0cd9007bc58e01c068f627b44bd0ec489f39f83828460405161081b93929190610ed9565b60405180910390a1505050565b8035600160a060020a038116811461083f57600080fd5b919050565b6000806040838503121561085757600080fd5b61086083610828565b91506020830135801515811461087557600080fd5b809150509250929050565b60e060020a634e487b7102600052604160045260246000fd5b60405160c0810167ffffffffffffffff811182821017156108bc576108bc610880565b60405290565b600082601f8301126108d357600080fd5b813567ffffffffffffffff808211156108ee576108ee610880565b604051601f8301601f19908116603f0116810190828211818310171561091657610916610880565b8160405283815286602085880101111561092f57600080fd5b836020870160208301376000602085830101528094505050505092915050565b803561ffff8116811461083f57600080fd5b80356002811061083f57600080fd5b60006020828403121561098257600080fd5b813567ffffffffffffffff8082111561099a57600080fd5b9083019060c082860312156109ae57600080fd5b6109b6610899565b8235828111156109c557600080fd5b6109d1878286016108c2565b8252506020830135828111156109e657600080fd5b6109f2878286016108c2565b602083015250610a0460408401610828565b6040820152606083013582811115610a1b57600080fd5b610a27878286016108c2565b606083015250610a396080840161094f565b6080820152610a4a60a08401610961565b60a082015295945050505050565b600060208284031215610a6a57600080fd5b5035919050565b6000815180845260005b81811015610a9757602081850181015186830182015201610a7b565b81811115610aa9576000602083870101525b50601f01601f19169290920160200192915050565b60e060020a634e487b7102600052602160045260246000fd5b828152604060208201526000825160c06040840152610afa610100840182610a71565b90506020840151603f1980858403016060860152610b188383610a71565b9250600160a060020a03604087015116608086015260608601519150808584030160a086015250610b498282610a71565b91505061ffff60808501511660c084015260a084015160028110610b805760e060020a634e487b7102600052602160045260246000fd5b60e093909301929092525092915050565b600080600060608486031215610ba657600080fd5b610baf84610828565b9250602084013567ffffffffffffffff80821115610bcc57600080fd5b610bd8878388016108c2565b93506040860135915080821115610bee57600080fd5b50610bfb868287016108c2565b9150509250925092565b60208082526015908201527f4f6e6c792061646d696e20697320616c6c6f7765640000000000000000000000604082015260600190565b600281046001821680610c5057607f821691505b602082108103610c735760e060020a634e487b7102600052602260045260246000fd5b50919050565b601f821115610cc3576000818152602081206020601f86010481016020861015610ca05750805b6020601f860104820191505b81811015610cbf57828155600101610cac565b5050505b505050565b815167ffffffffffffffff811115610ce257610ce2610880565b610cf681610cf08454610c3c565b84610c79565b602080601f831160018114610d2f5760008415610d135750858301515b60028086026008870290910a6000190419821617865550610cbf565b600085815260208120601f198616915b82811015610d5e57888601518255948401946001909101908401610d3f565b5085821015610d7e57878501516008601f88160260020a60001904191681555b5050505050600202600101905550565b60208082526027908201527f546869732046696e616e6369616c20496e737469747574696f6e206973206e6f60408201527f7220666f756e6400000000000000000000000000000000000000000000000000606082015260800190565b600160a060020a03831681526000602060408184015260008454610e0e81610c3c565b8060408701526060600180841660008114610e305760018114610e4957610e77565b60ff198516898401528315158702890183019550610e77565b896000528660002060005b85811015610e6f5781548b8201860152908301908801610e54565b8a0184019650505b50939998505050505050505050565b600160a060020a0385168152608060208201526000610ea86080830186610a71565b8281036040840152610eba8186610a71565b90508281036060840152610ece8185610a71565b979650505050505050565b600160a060020a0384168152606060208201526000610efb6060830185610a71565b8281036040840152610f0d8185610a71565b969550505050505056fea2646970667358221220e313c4c106f964eafb509e2034bc5eaa9b9df12b9c25a837c7996513ccb830f164736f6c634300080f0033",
  "immutableReferences": {},
  "source": "// SPDX-License-Identifier: MIT and GPL-3.0\n\npragma experimental ABIEncoderV2;\npragma solidity >=0.6;\n\nimport \"./Support.sol\";\nimport \"./Appearance.sol\";\nimport \"./FI.sol\";\nimport \"./Client.sol\";\n\ncontract Admin is Client, FI {\n    address admin;\n    address[] internal adminList;\n\n    mapping(address => appearances.User) internal users;\n\n    constructor(string memory name, string memory email) {\n        admin = msg.sender;\n        appearances.User memory user = appearances.User({\n            name: name,\n            email: email,\n            ID: admin,\n            positions: appearances.Positions.Admin,\n            status: appearances.FIStatus.Active\n        });\n        users[admin] = user;\n        adminList.push(admin);\n    }\n        modifier isAdmin() {\n            require(msg.sender == admin, \"Only admin is allowed\");\n             _;\n        }\n\n    // Function to list all FIs\n    function AllFI(uint256 pageNumber) public view isAdmin\n    returns(uint256 Totalpages, appearances.FI memory) {\n        return AllFI(pageNumber);\n    }\n\n    // Funcition to add nee FI including their details. \n    function AddFIAccount(appearances.FI memory fiAdd) public isAdmin {\n        addFI(fiAdd);\n        users[fiAdd.ID] = appearances.User({\n            name: fiAdd.name,\n            email: fiAdd.email,\n            ID: fiAdd.ID,\n            positions: appearances.Positions.FI,\n            status: appearances.FIStatus.Active\n        });\n        adminList.push(fiAdd.ID);\n    }\n\n    // Function to update Fis details.\n    function FIUpdate(address ID, string memory email, string memory name)\n    public isAdmin {\n        updateFI(ID, email, name);\n        users[ID].name = name;\n        users[ID].email = email;\n    }\n\n    /*  Function to active FIs for KYC. \n     *  If boolearn return true, FI will mark as a active \n     *  Otherwise will mark as a deactive\n     */\n    function ActiveteandDeactivete(address ID, bool MakeActive) public isAdmin {\n        users[ID].status = activeteAnddeactivete(ID, MakeActive);\n    }\n}",
  "sourcePath": "/Users/aekkarajkuplakatee/Desktop/Dissertation/KYC/Blokchain/contracts/Admin.sol",
  "compiler": {
    "name": "solc",
    "version": "0.8.15+commit.e14f2714.Emscripten.clang"
  },
  "schemaVersion": "3.4.8",
  "updatedAt": "2023-04-30T15:36:03.777Z",
  "devdoc": {
    "kind": "dev",
    "methods": {},
    "version": 1
  },
  "userdoc": {
    "kind": "user",
    "methods": {},
    "version": 1
  }
}