{
  "contractName": "KYC",
  "abi": [
    {
      "inputs": [
        {
          "internalType": "string",
          "name": "name",
          "type": "string"
        },
        {
          "internalType": "string",
          "name": "email",
          "type": "string"
        }
      ],
      "stateMutability": "nonpayable",
      "type": "constructor"
    },
    {
      "anonymous": false,
      "inputs": [
        {
          "indexed": false,
          "internalType": "address",
          "name": "ID",
          "type": "address"
        },
        {
          "indexed": false,
          "internalType": "string",
          "name": "name",
          "type": "string"
        },
        {
          "indexed": false,
          "internalType": "string",
          "name": "email",
          "type": "string"
        }
      ],
      "name": "ClientAdded",
      "type": "event"
    },
    {
      "anonymous": false,
      "inputs": [
        {
          "indexed": false,
          "internalType": "address",
          "name": "ID",
          "type": "address"
        },
        {
          "indexed": false,
          "internalType": "string",
          "name": "name",
          "type": "string"
        },
        {
          "indexed": false,
          "internalType": "string",
          "name": "email",
          "type": "string"
        }
      ],
      "name": "ClientDataUpdated",
      "type": "event"
    },
    {
      "anonymous": false,
      "inputs": [
        {
          "indexed": false,
          "internalType": "address",
          "name": "ID",
          "type": "address"
        },
        {
          "indexed": false,
          "internalType": "string",
          "name": "name",
          "type": "string"
        }
      ],
      "name": "FIactivated",
      "type": "event"
    },
    {
      "anonymous": false,
      "inputs": [
        {
          "indexed": false,
          "internalType": "address",
          "name": "ID",
          "type": "address"
        },
        {
          "indexed": false,
          "internalType": "string",
          "name": "name",
          "type": "string"
        },
        {
          "indexed": false,
          "internalType": "string",
          "name": "email",
          "type": "string"
        },
        {
          "indexed": false,
          "internalType": "string",
          "name": "SwiftCode",
          "type": "string"
        }
      ],
      "name": "FIadded",
      "type": "event"
    },
    {
      "anonymous": false,
      "inputs": [
        {
          "indexed": false,
          "internalType": "address",
          "name": "ID",
          "type": "address"
        },
        {
          "indexed": false,
          "internalType": "string",
          "name": "name",
          "type": "string"
        }
      ],
      "name": "FIdeactivated",
      "type": "event"
    },
    {
      "anonymous": false,
      "inputs": [
        {
          "indexed": false,
          "internalType": "address",
          "name": "ID",
          "type": "address"
        },
        {
          "indexed": false,
          "internalType": "string",
          "name": "name",
          "type": "string"
        },
        {
          "indexed": false,
          "internalType": "string",
          "name": "email",
          "type": "string"
        }
      ],
      "name": "FIupdated",
      "type": "event"
    },
    {
      "anonymous": false,
      "inputs": [
        {
          "indexed": false,
          "internalType": "string",
          "name": "iDreq",
          "type": "string"
        },
        {
          "indexed": false,
          "internalType": "string",
          "name": "FIName",
          "type": "string"
        },
        {
          "indexed": false,
          "internalType": "string",
          "name": "ClinetName",
          "type": "string"
        }
      ],
      "name": "addKYC",
      "type": "event"
    },
    {
      "anonymous": false,
      "inputs": [
        {
          "indexed": false,
          "internalType": "string",
          "name": "iDreq",
          "type": "string"
        },
        {
          "indexed": false,
          "internalType": "address",
          "name": "Client_ID",
          "type": "address"
        },
        {
          "indexed": false,
          "internalType": "address",
          "name": "FI_ID",
          "type": "address"
        },
        {
          "indexed": false,
          "internalType": "enum appearances.KYCStatus",
          "name": "status",
          "type": "uint8"
        }
      ],
      "name": "changeStatus",
      "type": "event"
    },
    {
      "anonymous": false,
      "inputs": [
        {
          "indexed": false,
          "internalType": "address",
          "name": "ID",
          "type": "address"
        },
        {
          "indexed": false,
          "internalType": "string",
          "name": "clientName",
          "type": "string"
        },
        {
          "indexed": false,
          "internalType": "string",
          "name": "dataHash",
          "type": "string"
        }
      ],
      "name": "dataHashUpdated",
      "type": "event"
    },
    {
      "anonymous": false,
      "inputs": [
        {
          "indexed": false,
          "internalType": "string",
          "name": "iDreq",
          "type": "string"
        },
        {
          "indexed": false,
          "internalType": "address",
          "name": "Client_ID",
          "type": "address"
        },
        {
          "indexed": false,
          "internalType": "address",
          "name": "FI_ID",
          "type": "address"
        },
        {
          "indexed": false,
          "internalType": "enum appearances.DataHashStatus",
          "name": "status",
          "type": "uint8"
        }
      ],
      "name": "dataHashpermission",
      "type": "event"
    },
    {
      "anonymous": false,
      "inputs": [
        {
          "indexed": false,
          "internalType": "string",
          "name": "iDreq",
          "type": "string"
        },
        {
          "indexed": false,
          "internalType": "string",
          "name": "FIName",
          "type": "string"
        },
        {
          "indexed": false,
          "internalType": "string",
          "name": "ClientName",
          "type": "string"
        }
      ],
      "name": "startKYC",
      "type": "event"
    },
    {
      "inputs": [
        {
          "internalType": "uint256",
          "name": "pageNumber",
          "type": "uint256"
        }
      ],
      "name": "AllFI",
      "outputs": [
        {
          "internalType": "uint256",
          "name": "Totalpages",
          "type": "uint256"
        },
        {
          "components": [
            {
              "internalType": "string",
              "name": "name",
              "type": "string"
            },
            {
              "internalType": "string",
              "name": "email",
              "type": "string"
            },
            {
              "internalType": "address",
              "name": "ID",
              "type": "address"
            },
            {
              "internalType": "string",
              "name": "SwiftCode",
              "type": "string"
            },
            {
              "internalType": "uint16",
              "name": "KYCCount",
              "type": "uint16"
            },
            {
              "internalType": "enum appearances.FIStatus",
              "name": "status",
              "type": "uint8"
            }
          ],
          "internalType": "struct appearances.FI[]",
          "name": "",
          "type": "tuple[]"
        }
      ],
      "stateMutability": "view",
      "type": "function"
    },
    {
      "inputs": [
        {
          "components": [
            {
              "internalType": "string",
              "name": "name",
              "type": "string"
            },
            {
              "internalType": "string",
              "name": "email",
              "type": "string"
            },
            {
              "internalType": "address",
              "name": "ID",
              "type": "address"
            },
            {
              "internalType": "string",
              "name": "SwiftCode",
              "type": "string"
            },
            {
              "internalType": "uint16",
              "name": "KYCCount",
              "type": "uint16"
            },
            {
              "internalType": "enum appearances.FIStatus",
              "name": "status",
              "type": "uint8"
            }
          ],
          "internalType": "struct appearances.FI",
          "name": "fiAdd",
          "type": "tuple"
        }
      ],
      "name": "AddFIAccount",
      "outputs": [],
      "stateMutability": "nonpayable",
      "type": "function"
    },
    {
      "inputs": [
        {
          "internalType": "address",
          "name": "ID",
          "type": "address"
        },
        {
          "internalType": "string",
          "name": "email",
          "type": "string"
        },
        {
          "internalType": "string",
          "name": "name",
          "type": "string"
        }
      ],
      "name": "FIUpdate",
      "outputs": [],
      "stateMutability": "nonpayable",
      "type": "function"
    },
    {
      "inputs": [
        {
          "internalType": "address",
          "name": "ID",
          "type": "address"
        },
        {
          "internalType": "bool",
          "name": "MakeActive",
          "type": "bool"
        }
      ],
      "name": "ActiveteandDeactivete",
      "outputs": [],
      "stateMutability": "nonpayable",
      "type": "function"
    },
    {
      "inputs": [
        {
          "internalType": "uint256",
          "name": "pageNumber",
          "type": "uint256"
        }
      ],
      "name": "getClientofFI",
      "outputs": [
        {
          "internalType": "uint256",
          "name": "Totalpages",
          "type": "uint256"
        },
        {
          "components": [
            {
              "internalType": "string",
              "name": "ID",
              "type": "string"
            },
            {
              "internalType": "address",
              "name": "user_ID",
              "type": "address"
            },
            {
              "internalType": "string",
              "name": "ClientName",
              "type": "string"
            },
            {
              "internalType": "address",
              "name": "FI_ID",
              "type": "address"
            },
            {
              "internalType": "string",
              "name": "FIName",
              "type": "string"
            },
            {
              "internalType": "string",
              "name": "dataHash",
              "type": "string"
            },
            {
              "internalType": "uint256",
              "name": "updatedOn",
              "type": "uint256"
            },
            {
              "internalType": "enum appearances.KYCStatus",
              "name": "status",
              "type": "uint8"
            },
            {
              "internalType": "enum appearances.DataHashStatus",
              "name": "dataRequest",
              "type": "uint8"
            },
            {
              "internalType": "string",
              "name": "additionalNotes",
              "type": "string"
            }
          ],
          "internalType": "struct appearances.KYCRequest[]",
          "name": "",
          "type": "tuple[]"
        }
      ],
      "stateMutability": "view",
      "type": "function"
    },
    {
      "inputs": [
        {
          "components": [
            {
              "internalType": "string",
              "name": "name",
              "type": "string"
            },
            {
              "internalType": "string",
              "name": "email",
              "type": "string"
            },
            {
              "internalType": "uint256",
              "name": "MobileNumber",
              "type": "uint256"
            },
            {
              "internalType": "address",
              "name": "ID",
              "type": "address"
            },
            {
              "internalType": "address",
              "name": "VerifiedBy",
              "type": "address"
            },
            {
              "internalType": "string",
              "name": "dataHash",
              "type": "string"
            },
            {
              "internalType": "uint256",
              "name": "dataUpdated",
              "type": "uint256"
            }
          ],
          "internalType": "struct appearances.Client",
          "name": "client",
          "type": "tuple"
        },
        {
          "internalType": "uint256",
          "name": "Timestemp",
          "type": "uint256"
        },
        {
          "internalType": "string",
          "name": "note",
          "type": "string"
        }
      ],
      "name": "AddKYC",
      "outputs": [],
      "stateMutability": "nonpayable",
      "type": "function"
    },
    {
      "inputs": [
        {
          "internalType": "address",
          "name": "ID",
          "type": "address"
        },
        {
          "internalType": "string",
          "name": "note",
          "type": "string"
        }
      ],
      "name": "reKYC",
      "outputs": [],
      "stateMutability": "nonpayable",
      "type": "function"
    },
    {
      "inputs": [
        {
          "internalType": "address",
          "name": "user_ID",
          "type": "address"
        },
        {
          "internalType": "bool",
          "name": "verified",
          "type": "bool"
        },
        {
          "internalType": "string",
          "name": "note",
          "type": "string"
        }
      ],
      "name": "KYCVerification",
      "outputs": [],
      "stateMutability": "nonpayable",
      "type": "function"
    },
    {
      "inputs": [
        {
          "internalType": "address",
          "name": "ID",
          "type": "address"
        }
      ],
      "name": "searchClient",
      "outputs": [
        {
          "internalType": "bool",
          "name": "",
          "type": "bool"
        },
        {
          "components": [
            {
              "internalType": "string",
              "name": "name",
              "type": "string"
            },
            {
              "internalType": "string",
              "name": "email",
              "type": "string"
            },
            {
              "internalType": "uint256",
              "name": "MobileNumber",
              "type": "uint256"
            },
            {
              "internalType": "address",
              "name": "ID",
              "type": "address"
            },
            {
              "internalType": "address",
              "name": "VerifiedBy",
              "type": "address"
            },
            {
              "internalType": "string",
              "name": "dataHash",
              "type": "string"
            },
            {
              "internalType": "uint256",
              "name": "dataUpdated",
              "type": "uint256"
            }
          ],
          "internalType": "struct appearances.Client",
          "name": "",
          "type": "tuple"
        },
        {
          "components": [
            {
              "internalType": "string",
              "name": "ID",
              "type": "string"
            },
            {
              "internalType": "address",
              "name": "user_ID",
              "type": "address"
            },
            {
              "internalType": "string",
              "name": "ClientName",
              "type": "string"
            },
            {
              "internalType": "address",
              "name": "FI_ID",
              "type": "address"
            },
            {
              "internalType": "string",
              "name": "FIName",
              "type": "string"
            },
            {
              "internalType": "string",
              "name": "dataHash",
              "type": "string"
            },
            {
              "internalType": "uint256",
              "name": "updatedOn",
              "type": "uint256"
            },
            {
              "internalType": "enum appearances.KYCStatus",
              "name": "status",
              "type": "uint8"
            },
            {
              "internalType": "enum appearances.DataHashStatus",
              "name": "dataRequest",
              "type": "uint8"
            },
            {
              "internalType": "string",
              "name": "additionalNotes",
              "type": "string"
            }
          ],
          "internalType": "struct appearances.KYCRequest",
          "name": "",
          "type": "tuple"
        }
      ],
      "stateMutability": "view",
      "type": "function"
    },
    {
      "inputs": [
        {
          "internalType": "uint256",
          "name": "pageNumber",
          "type": "uint256"
        }
      ],
      "name": "FIrequest",
      "outputs": [
        {
          "internalType": "uint256",
          "name": "Totalpages",
          "type": "uint256"
        },
        {
          "components": [
            {
              "internalType": "string",
              "name": "ID",
              "type": "string"
            },
            {
              "internalType": "address",
              "name": "user_ID",
              "type": "address"
            },
            {
              "internalType": "string",
              "name": "ClientName",
              "type": "string"
            },
            {
              "internalType": "address",
              "name": "FI_ID",
              "type": "address"
            },
            {
              "internalType": "string",
              "name": "FIName",
              "type": "string"
            },
            {
              "internalType": "string",
              "name": "dataHash",
              "type": "string"
            },
            {
              "internalType": "uint256",
              "name": "updatedOn",
              "type": "uint256"
            },
            {
              "internalType": "enum appearances.KYCStatus",
              "name": "status",
              "type": "uint8"
            },
            {
              "internalType": "enum appearances.DataHashStatus",
              "name": "dataRequest",
              "type": "uint8"
            },
            {
              "internalType": "string",
              "name": "additionalNotes",
              "type": "string"
            }
          ],
          "internalType": "struct appearances.KYCRequest[]",
          "name": "",
          "type": "tuple[]"
        }
      ],
      "stateMutability": "view",
      "type": "function"
    },
    {
      "inputs": [
        {
          "internalType": "address",
          "name": "FI_ID",
          "type": "address"
        },
        {
          "internalType": "bool",
          "name": "approve",
          "type": "bool"
        },
        {
          "internalType": "string",
          "name": "note",
          "type": "string"
        }
      ],
      "name": "KYCaction",
      "outputs": [],
      "stateMutability": "nonpayable",
      "type": "function"
    },
    {
      "inputs": [
        {
          "internalType": "string",
          "name": "name",
          "type": "string"
        },
        {
          "internalType": "string",
          "name": "email",
          "type": "string"
        },
        {
          "internalType": "uint256",
          "name": "MobileNumber",
          "type": "uint256"
        }
      ],
      "name": "updateProfile",
      "outputs": [],
      "stateMutability": "nonpayable",
      "type": "function"
    },
    {
      "inputs": [
        {
          "internalType": "string",
          "name": "hash",
          "type": "string"
        },
        {
          "internalType": "uint256",
          "name": "Timestemp",
          "type": "uint256"
        }
      ],
      "name": "updateHash",
      "outputs": [],
      "stateMutability": "nonpayable",
      "type": "function"
    },
    {
      "inputs": [
        {
          "internalType": "address",
          "name": "FI_ID",
          "type": "address"
        },
        {
          "internalType": "string",
          "name": "note",
          "type": "string"
        }
      ],
      "name": "removePremission",
      "outputs": [],
      "stateMutability": "nonpayable",
      "type": "function"
    },
    {
      "inputs": [
        {
          "internalType": "address",
          "name": "FI_ID",
          "type": "address"
        }
      ],
      "name": "searchforFI",
      "outputs": [
        {
          "internalType": "bool",
          "name": "",
          "type": "bool"
        },
        {
          "components": [
            {
              "internalType": "string",
              "name": "name",
              "type": "string"
            },
            {
              "internalType": "string",
              "name": "email",
              "type": "string"
            },
            {
              "internalType": "address",
              "name": "ID",
              "type": "address"
            },
            {
              "internalType": "string",
              "name": "SwiftCode",
              "type": "string"
            },
            {
              "internalType": "uint16",
              "name": "KYCCount",
              "type": "uint16"
            },
            {
              "internalType": "enum appearances.FIStatus",
              "name": "status",
              "type": "uint8"
            }
          ],
          "internalType": "struct appearances.FI",
          "name": "",
          "type": "tuple"
        },
        {
          "components": [
            {
              "internalType": "string",
              "name": "ID",
              "type": "string"
            },
            {
              "internalType": "address",
              "name": "user_ID",
              "type": "address"
            },
            {
              "internalType": "string",
              "name": "ClientName",
              "type": "string"
            },
            {
              "internalType": "address",
              "name": "FI_ID",
              "type": "address"
            },
            {
              "internalType": "string",
              "name": "FIName",
              "type": "string"
            },
            {
              "internalType": "string",
              "name": "dataHash",
              "type": "string"
            },
            {
              "internalType": "uint256",
              "name": "updatedOn",
              "type": "uint256"
            },
            {
              "internalType": "enum appearances.KYCStatus",
              "name": "status",
              "type": "uint8"
            },
            {
              "internalType": "enum appearances.DataHashStatus",
              "name": "dataRequest",
              "type": "uint8"
            },
            {
              "internalType": "string",
              "name": "additionalNotes",
              "type": "string"
            }
          ],
          "internalType": "struct appearances.KYCRequest",
          "name": "",
          "type": "tuple"
        }
      ],
      "stateMutability": "view",
      "type": "function"
    },
    {
      "inputs": [],
      "name": "checkIt",
      "outputs": [
        {
          "components": [
            {
              "internalType": "string",
              "name": "name",
              "type": "string"
            },
            {
              "internalType": "string",
              "name": "email",
              "type": "string"
            },
            {
              "internalType": "address",
              "name": "ID",
              "type": "address"
            },
            {
              "internalType": "enum appearances.Positions",
              "name": "positions",
              "type": "uint8"
            },
            {
              "internalType": "enum appearances.FIStatus",
              "name": "status",
              "type": "uint8"
            }
          ],
          "internalType": "struct appearances.User",
          "name": "",
          "type": "tuple"
        }
      ],
      "stateMutability": "view",
      "type": "function"
    },
    {
      "inputs": [
        {
          "internalType": "address",
          "name": "ID",
          "type": "address"
        }
      ],
      "name": "gettheClientDetials",
      "outputs": [
        {
          "components": [
            {
              "internalType": "string",
              "name": "name",
              "type": "string"
            },
            {
              "internalType": "string",
              "name": "email",
              "type": "string"
            },
            {
              "internalType": "uint256",
              "name": "MobileNumber",
              "type": "uint256"
            },
            {
              "internalType": "address",
              "name": "ID",
              "type": "address"
            },
            {
              "internalType": "address",
              "name": "VerifiedBy",
              "type": "address"
            },
            {
              "internalType": "string",
              "name": "dataHash",
              "type": "string"
            },
            {
              "internalType": "uint256",
              "name": "dataUpdated",
              "type": "uint256"
            }
          ],
          "internalType": "struct appearances.Client",
          "name": "",
          "type": "tuple"
        }
      ],
      "stateMutability": "view",
      "type": "function"
    },
    {
      "inputs": [
        {
          "internalType": "address",
          "name": "ID",
          "type": "address"
        }
      ],
      "name": "getFIDetails",
      "outputs": [
        {
          "components": [
            {
              "internalType": "string",
              "name": "name",
              "type": "string"
            },
            {
              "internalType": "string",
              "name": "email",
              "type": "string"
            },
            {
              "internalType": "address",
              "name": "ID",
              "type": "address"
            },
            {
              "internalType": "string",
              "name": "SwiftCode",
              "type": "string"
            },
            {
              "internalType": "uint16",
              "name": "KYCCount",
              "type": "uint16"
            },
            {
              "internalType": "enum appearances.FIStatus",
              "name": "status",
              "type": "uint8"
            }
          ],
          "internalType": "struct appearances.FI",
          "name": "",
          "type": "tuple"
        }
      ],
      "stateMutability": "view",
      "type": "function"
    }
  ],
  "bytecode": "0x60806040523480156200001157600080fd5b5060405162005cfb38038062005cfb83398101604081905262000034916200029e565b60048054600160a060020a031916339081179091556040805160a08101825284815260208082018590528183018490526000606083018190526080830181905293845260069052912081518291908190620000909082620003df565b5060208201516001820190620000a79082620003df565b50604082015160028083018054600160a060020a03909316600160a060020a03198416811782556060860151939192600160a860020a03199092161790740100000000000000000000000000000000000000009084908111156200010f576200010f62000308565b0217905550608082015160028201805460a860020a60ff021916750100000000000000000000000000000000000000000083600181111562000155576200015562000308565b021790555050600454600580546001810182556000919091527f036b6384b5eca791c62761152d0c79bb0604c104a5fb6f4eb0703f3154bb3db0018054600160a060020a031916600160a060020a0390921691909117905550620004b192505050565b7f4e487b7100000000000000000000000000000000000000000000000000000000600052604160045260246000fd5b600082601f830112620001f957600080fd5b81516001604060020a0380821115620002165762000216620001b8565b604051601f8301601f19908116603f01168101908282118183101715620002415762000241620001b8565b816040528381526020925086838588010111156200025e57600080fd5b600091505b8382101562000282578582018301518183018401529082019062000263565b83821115620002945760008385830101525b9695505050505050565b60008060408385031215620002b257600080fd5b82516001604060020a0380821115620002ca57600080fd5b620002d886838701620001e7565b93506020850151915080821115620002ef57600080fd5b50620002fe85828601620001e7565b9150509250929050565b7f4e487b7100000000000000000000000000000000000000000000000000000000600052602160045260246000fd5b6002810460018216806200034c57607f821691505b60208210810362000386577f4e487b7100000000000000000000000000000000000000000000000000000000600052602260045260246000fd5b50919050565b601f821115620003da576000818152602081206020601f86010481016020861015620003b55750805b6020601f860104820191505b81811015620003d657828155600101620003c1565b5050505b505050565b81516001604060020a03811115620003fb57620003fb620001b8565b62000413816200040c845462000337565b846200038c565b602080601f8311600181146200044f5760008415620004325750858301515b60028086026008870290910a6000190419821617865550620003d6565b600085815260208120601f198616915b8281101562000480578886015182559484019460019091019084016200045f565b5085821015620004a157878501516008601f88160260020a60001904191681555b5050505050600202600101905550565b61583a80620004c16000396000f3fe608060405234801561001057600080fd5b5060043610610133576000357c0100000000000000000000000000000000000000000000000000000000900480638e97e778116100bf578063b69c469c1161008e578063b69c469c14610290578063b6c1b316146102a3578063bc3b3ddb146102b6578063d5626b1f146102c9578063fac8d0b4146102dc57600080fd5b80638e97e7781461021b5780639ceecfd61461022e578063ac1574231461024e578063b3f32a411461026e57600080fd5b80635d676796116101065780635d676796146101ab5780637c1d6197146101c05780637db674b6146101d35780638202cfbc146101f55780638af984971461020857600080fd5b8063173eb4df1461013857806321c8fc5a1461014d5780632a807f77146101775780633949d0211461018a575b600080fd5b61014b6101463660046147f4565b6102ef565b005b61016061015b366004614827565b610369565b60405161016e9291906149c2565b60405180910390f35b61014b610185366004614b3e565b61045f565b61019d610198366004614827565b6105fe565b60405161016e929190614cbc565b6101b361061c565b60405161016e9190614d17565b61014b6101ce366004614d8d565b6108b3565b6101e66101e1366004614dfa565b610a38565b60405161016e93929190614ea8565b61014b610203366004614ed5565b611021565b61014b610216366004614f49565b611082565b61014b61022936600461504d565b6115f7565b61024161023c366004614dfa565b6118c0565b60405161016e919061509b565b61026161025c366004614dfa565b6119b1565b60405161016e91906150ae565b61028161027c366004614dfa565b611a75565b60405161016e939291906150c1565b61014b61029e3660046150dc565b6120a9565b6101606102b1366004614827565b612316565b61014b6102c436600461504d565b6123cf565b61014b6102d7366004615121565b612589565b61014b6102ea366004615121565b61283d565b6102f7612a52565b6103018282612ab1565b600160a060020a0383166000908152600660205260409020600201805475ff0000000000000000000000000000000000000000001916750100000000000000000000000000000000000000000083600181111561036057610360614898565b02179055505050565b336000818152600360205260408120600201549091606091600160a060020a03166103b25760405160e560020a62461bcd0281526004016103a990615175565b60405180910390fd5b600160a060020a03808216600081815260036020526040902060020154909116146103f25760405160e560020a62461bcd0281526004016103a9906151d2565b6000600160a060020a03821660009081526003602052604090206004015462010000900460ff16600181111561042a5761042a614898565b1461044a5760405160e560020a62461bcd0281526004016103a99061522f565b610455846001612c81565b9250925050915091565b610467612a52565b61047081613264565b6040805160a08101825282518152602080840151818301528383018051600160a060020a0390811684860152600160608501526000608085018190529151168152600690915291909120815181906104c89082615338565b50602082015160018201906104dd9082615338565b50604082015160028083018054600160a060020a03909316600160a060020a0319841681178255606086015193919274ffffffffffffffffffffffffffffffffffffffffff1990921617907401000000000000000000000000000000000000000090849081111561055057610550614898565b0217905550608082015160028201805475ff000000000000000000000000000000000000000000191675010000000000000000000000000000000000000000008360018111156105a2576105a2614898565b0217905550505060400151600580546001810182556000919091527f036b6384b5eca791c62761152d0c79bb0604c104a5fb6f4eb0703f3154bb3db0018054600160a060020a031916600160a060020a03909216919091179055565b6000606061060a612a52565b6106138361345d565b91509150915091565b61062461468e565b336106745760405160e560020a62461bcd02815260206004820152600f60248201527f53656e64657220494420456d707479000000000000000000000000000000000060448201526064016103a9565b33600090815260066020526040902060020154600160a060020a03166106df5760405160e560020a62461bcd02815260206004820152600d60248201527f5573657220494420456d7074790000000000000000000000000000000000000060448201526064016103a9565b3360009081526006602052604090819020815160a08101909252805482908290610708906152b2565b80601f0160208091040260200160405190810160405280929190818152602001828054610734906152b2565b80156107815780601f1061075657610100808354040283529160200191610781565b820191906000526020600020905b81548152906001019060200180831161076457829003601f168201915b5050505050815260200160018201805461079a906152b2565b80601f01602080910402602001604051908101604052809291908181526020018280546107c6906152b2565b80156108135780601f106107e857610100808354040283529160200191610813565b820191906000526020600020905b8154815290600101906020018083116107f657829003601f168201915b5050509183525050600282810154600160a060020a038116602084015260409092019174010000000000000000000000000000000000000000900460ff169081111561086157610861614898565b600281111561087257610872614898565b81526020016002820160159054906101000a900460ff16600181111561089a5761089a614898565b60018111156108ab576108ab614898565b905250919050565b33806108d45760405160e560020a62461bcd0281526004016103a9906153fe565b600160a060020a03818116600090815260016020526040902060030154166109115760405160e560020a62461bcd0281526004016103a990615435565b600160a060020a03811660009081526001602081905260409091200180546109d0919061093d906152b2565b80601f0160208091040260200160405190810160405280929190818152602001828054610969906152b2565b80156109b65780601f1061098b576101008083540402835291602001916109b6565b820191906000526020600020905b81548152906001019060200180831161099957829003601f168201915b50505050506040518060200160405280600081525061381a565b156109f05760405160e560020a62461bcd0281526004016103a99061546c565b6109fb848484613873565b336000908152600660205260409020610a148582615338565b50336000908152600660205260409020600101610a318482615338565b5050505050565b6000610a426146d6565b610a4a614725565b83600160a060020a038116610a745760405160e560020a62461bcd0281526004016103a9906153fe565b600160a060020a0381811660009081526001602052604090206003015416610ab15760405160e560020a62461bcd0281526004016103a990615435565b600160a060020a0381166000908152600160208190526040909120018054610add919061093d906152b2565b15610afd5760405160e560020a62461bcd0281526004016103a99061546c565b33600081815260036020526040902060020154600160a060020a0316610b385760405160e560020a62461bcd0281526004016103a990615175565b600160a060020a0380821660008181526003602052604090206002015490911614610b785760405160e560020a62461bcd0281526004016103a9906151d2565b6000600160a060020a03821660009081526003602052604090206004015462010000900460ff166001811115610bb057610bb0614898565b14610bd05760405160e560020a62461bcd0281526004016103a99061522f565b6000610bda6146d6565b610be2614725565b336000908152600860209081526040918290208054835181840281018401909452808452610c53938d9390929190830182828015610c4957602002820191906000526020600020905b8154600160a060020a03168152600190910190602001808311610c2b575b50505050506138ff565b90935091508215611012576007610c6a338b613b98565b604051610c7791906154a3565b908152602001604051809103902060405180610140016040529081600082018054610ca1906152b2565b80601f0160208091040260200160405190810160405280929190818152602001828054610ccd906152b2565b8015610d1a5780601f10610cef57610100808354040283529160200191610d1a565b820191906000526020600020905b815481529060010190602001808311610cfd57829003601f168201915b50505091835250506001820154600160a060020a03166020820152600282018054604090920191610d4a906152b2565b80601f0160208091040260200160405190810160405280929190818152602001828054610d76906152b2565b8015610dc35780601f10610d9857610100808354040283529160200191610dc3565b820191906000526020600020905b815481529060010190602001808311610da657829003601f168201915b50505091835250506003820154600160a060020a03166020820152600482018054604090920191610df3906152b2565b80601f0160208091040260200160405190810160405280929190818152602001828054610e1f906152b2565b8015610e6c5780601f10610e4157610100808354040283529160200191610e6c565b820191906000526020600020905b815481529060010190602001808311610e4f57829003601f168201915b50505050508152602001600582018054610e85906152b2565b80601f0160208091040260200160405190810160405280929190818152602001828054610eb1906152b2565b8015610efe5780601f10610ed357610100808354040283529160200191610efe565b820191906000526020600020905b815481529060010190602001808311610ee157829003601f168201915b505050918352505060068201546020820152600782015460409091019060ff166002811115610f2f57610f2f614898565b6002811115610f4057610f40614898565b81526020016007820160019054906101000a900460ff166002811115610f6857610f68614898565b6002811115610f7957610f79614898565b8152602001600882018054610f8d906152b2565b80601f0160208091040260200160405190810160405280929190818152602001828054610fb9906152b2565b80156110065780601f10610fdb57610100808354040283529160200191611006565b820191906000526020600020905b815481529060010190602001808311610fe957829003601f168201915b50505050508152505090505b91989097509095509350505050565b611029612a52565b611034838383613be0565b600160a060020a03831660009081526006602052604090206110568282615338565b50600160a060020a038316600090815260066020526040902060010161107c8382615338565b50505050565b33600081815260036020526040902060020154600160a060020a03166110bd5760405160e560020a62461bcd0281526004016103a990615175565b600160a060020a03808216600081815260036020526040902060020154909116146110fd5760405160e560020a62461bcd0281526004016103a9906151d2565b6000600160a060020a03821660009081526003602052604090206004015462010000900460ff16600181111561113557611135614898565b146111555760405160e560020a62461bcd0281526004016103a99061522f565b6000611165338660600151613b98565b905061117081613c99565b156111c05760405160e560020a62461bcd02815260206004820152601660248201527f557365722068616420726571756573746564204b59430000000000000000000060448201526064016103a9565b6040518061014001604052808281526020018660600151600160a060020a031681526020018660000151815260200133600160a060020a0316815260200161120733613db5565b51815260a087015160208201526040810186905260600160008152602001600081526020018481525060078260405161124091906154a3565b9081526040519081900360200190208151819061125d9082615338565b506020820151600182018054600160a060020a031916600160a060020a03909216919091179055604082015160028201906112989082615338565b506060820151600382018054600160a060020a031916600160a060020a03909216919091179055608082015160048201906112d39082615338565b5060a082015160058201906112e89082615338565b5060c0820151600682015560e082015160078201805460ff1916600183600281111561131657611316614898565b0217905550610100828101516007830180549192909161ff0019169083600281111561134457611344614898565b0217905550610120820151600882019061135e9082615338565b505033600081815260086020908152604080832060608b018051825460018181018555938752858720018054600160a060020a03928316600160a060020a031991821617909155915116855260098452828520805492830181558552929093209092018054909116909217909155517f4124a335861f44ee2e2c6db4204fa6e9af4802ee84175abe9223185a21167d3c915082906007906114009083906154a3565b9081526040519081900360200181208851611421939260049092019161553b565b60405180910390a1611436856060015161401d565b610a3157611443856140db565b6040518060a0016040528086600001518152602001866020015181526020018660600151600160a060020a0316815260200160028081111561148757611487614898565b8152602001600090526060860151600160a060020a03166000908152600660205260409020815181906114ba9082615338565b50602082015160018201906114cf9082615338565b50604082015160028083018054600160a060020a03909316600160a060020a0319841681178255606086015193919274ffffffffffffffffffffffffffffffffffffffffff1990921617907401000000000000000000000000000000000000000090849081111561154257611542614898565b0217905550608082015160028201805475ff0000000000000000000000000000000000000000001916750100000000000000000000000000000000000000000083600181111561159457611594614898565b021790555050505060609390930151600580546001810182556000919091527f036b6384b5eca791c62761152d0c79bb0604c104a5fb6f4eb0703f3154bb3db0018054600160a060020a031916600160a060020a03909216919091179055505050565b33600081815260036020526040902060020154600160a060020a03166116325760405160e560020a62461bcd0281526004016103a990615175565b600160a060020a03808216600081815260036020526040902060020154909116146116725760405160e560020a62461bcd0281526004016103a9906151d2565b6000600160a060020a03821660009081526003602052604090206004015462010000900460ff1660018111156116aa576116aa614898565b146116ca5760405160e560020a62461bcd0281526004016103a99061522f565b60006116d63385613b98565b90506116e181613c99565b6117305760405160e560020a62461bcd02815260206004820152601160248201527f4b594320686173206e6f7420666f756e6400000000000000000000000000000060448201526064016103a9565b6117398461401d565b6117885760405160e560020a62461bcd02815260206004820152601660248201527f437573746f6d657220686173206e6f7420666f756e640000000000000000000060448201526064016103a9565b600060078260405161179a91906154a3565b908152604051908190036020019020600701805460ff191660018360028111156117c6576117c6614898565b021790555060006007826040516117dd91906154a3565b908152604051908190036020019020600701805461ff00191661010083600281111561180b5761180b614898565b02179055508260078260405161182191906154a3565b9081526020016040518091039020600801908161183e9190615338565b507f354cce7003647c7a26dfcea100fa1e84602bc520067f5bfef90677aa0cd4ff868160078360405161187191906154a3565b908152602001604051809103902060040160078460405161189291906154a3565b90815260200160405180910390206002016040516118b293929190615574565b60405180910390a150505050565b6118c861479b565b600160a060020a038083166000908152600360205260409020600201548391166119075760405160e560020a62461bcd0281526004016103a990615175565b600160a060020a03808216600081815260036020526040902060020154909116146119475760405160e560020a62461bcd0281526004016103a9906151d2565b6000600160a060020a03821660009081526003602052604090206004015462010000900460ff16600181111561197f5761197f614898565b1461199f5760405160e560020a62461bcd0281526004016103a99061522f565b6119a883613db5565b91505b50919050565b6119b96146d6565b81600160a060020a0381166119e35760405160e560020a62461bcd0281526004016103a9906153fe565b600160a060020a0381811660009081526001602052604090206003015416611a205760405160e560020a62461bcd0281526004016103a990615435565b600160a060020a0381166000908152600160208190526040909120018054611a4c919061093d906152b2565b15611a6c5760405160e560020a62461bcd0281526004016103a99061546c565b6119a883614210565b6000611a7f61479b565b611a87614725565b3380611aa85760405160e560020a62461bcd0281526004016103a9906153fe565b600160a060020a0381811660009081526001602052604090206003015416611ae55760405160e560020a62461bcd0281526004016103a990615435565b600160a060020a0381166000908152600160208190526040909120018054611b11919061093d906152b2565b15611b315760405160e560020a62461bcd0281526004016103a99061546c565b600160a060020a03808616600090815260036020526040902060020154869116611b705760405160e560020a62461bcd0281526004016103a990615175565b600160a060020a0380821660008181526003602052604090206002015490911614611bb05760405160e560020a62461bcd0281526004016103a9906151d2565b6000600160a060020a03821660009081526003602052604090206004015462010000900460ff166001811115611be857611be8614898565b14611c085760405160e560020a62461bcd0281526004016103a99061522f565b6000611c1261479b565b611c1a614725565b33600090815260096020908152604080832080548251818502810185019093528083529192909190830182828015611c7b57602002820191906000526020600020905b8154600160a060020a03168152600190910190602001808311611c5d575b5050505050905060005b8151811015612099578a600160a060020a0316828281518110611caa57611caa6155ad565b6020026020010151600160a060020a0316036120875760019450611ccd8b613db5565b93506007611cdb8c33613b98565b604051611ce891906154a3565b908152602001604051809103902060405180610140016040529081600082018054611d12906152b2565b80601f0160208091040260200160405190810160405280929190818152602001828054611d3e906152b2565b8015611d8b5780601f10611d6057610100808354040283529160200191611d8b565b820191906000526020600020905b815481529060010190602001808311611d6e57829003601f168201915b50505091835250506001820154600160a060020a03166020820152600282018054604090920191611dbb906152b2565b80601f0160208091040260200160405190810160405280929190818152602001828054611de7906152b2565b8015611e345780601f10611e0957610100808354040283529160200191611e34565b820191906000526020600020905b815481529060010190602001808311611e1757829003601f168201915b50505091835250506003820154600160a060020a03166020820152600482018054604090920191611e64906152b2565b80601f0160208091040260200160405190810160405280929190818152602001828054611e90906152b2565b8015611edd5780601f10611eb257610100808354040283529160200191611edd565b820191906000526020600020905b815481529060010190602001808311611ec057829003601f168201915b50505050508152602001600582018054611ef6906152b2565b80601f0160208091040260200160405190810160405280929190818152602001828054611f22906152b2565b8015611f6f5780601f10611f4457610100808354040283529160200191611f6f565b820191906000526020600020905b815481529060010190602001808311611f5257829003601f168201915b505050918352505060068201546020820152600782015460409091019060ff166002811115611fa057611fa0614898565b6002811115611fb157611fb1614898565b81526020016007820160019054906101000a900460ff166002811115611fd957611fd9614898565b6002811115611fea57611fea614898565b8152602001600882018054611ffe906152b2565b80601f016020809104026020016040519081016040528092919081815260200182805461202a906152b2565b80156120775780601f1061204c57610100808354040283529160200191612077565b820191906000526020600020905b81548152906001019060200180831161205a57829003601f168201915b5050505050815250509250612099565b80612091816155df565b915050611c85565b5092999198509650945050505050565b33806120ca5760405160e560020a62461bcd0281526004016103a9906153fe565b600160a060020a03818116600090815260016020526040902060030154166121075760405160e560020a62461bcd0281526004016103a990615435565b600160a060020a0381166000908152600160208190526040909120018054612133919061093d906152b2565b156121535760405160e560020a62461bcd0281526004016103a99061546c565b61215d838361442f565b336000908152600960209081526040808320805482518185028101850190935280835291929091908301828280156121be57602002820191906000526020600020905b8154600160a060020a031681526001909101906020018083116121a0575b5050505050905060005b8151811015610a315760006121f68383815181106121e8576121e86155ad565b602002602001015133613b98565b905061220181613c99565b15612303578560078260405161221791906154a3565b908152602001604051809103902060050190816122349190615338565b508460078260405161224691906154a3565b908152602001604051809103902060060181905550600060078260405161226d91906154a3565b908152604051908190036020019020600701805460ff1916600183600281111561229957612299614898565b02179055506040518060400160405280601781526020017f55706461746520616c6c206d7920646f63756d656e74730000000000000000008152506007826040516122e491906154a3565b908152602001604051809103902060080190816123019190615338565b505b508061230e816155df565b9150506121c8565b60006060338061233b5760405160e560020a62461bcd0281526004016103a9906153fe565b600160a060020a03818116600090815260016020526040902060030154166123785760405160e560020a62461bcd0281526004016103a990615435565b600160a060020a03811660009081526001602081905260409091200180546123a4919061093d906152b2565b156123c45760405160e560020a62461bcd0281526004016103a99061546c565b610455846000612c81565b33806123f05760405160e560020a62461bcd0281526004016103a9906153fe565b600160a060020a038181166000908152600160205260409020600301541661242d5760405160e560020a62461bcd0281526004016103a990615435565b600160a060020a0381166000908152600160208190526040909120018054612459919061093d906152b2565b156124795760405160e560020a62461bcd0281526004016103a99061546c565b60006124858433613b98565b905061249081613c99565b6124df5760405160e560020a62461bcd02815260206004820152601860248201527f5065726d697373696f6e20686173206e6f7420666f756e64000000000000000060448201526064016103a9565b60026007826040516124f191906154a3565b908152604051908190036020019020600701805461ff00191661010083600281111561251f5761251f614898565b02179055508260078260405161253591906154a3565b908152602001604051809103902060080190816125529190615338565b507fa8dbf5117d5dedc3fd5ba8fe21e806ed427f7c6f59227fc077fc198f05a90fb381338660026040516118b294939291906155f8565b33806125aa5760405160e560020a62461bcd0281526004016103a9906153fe565b600160a060020a03818116600090815260016020526040902060030154166125e75760405160e560020a62461bcd0281526004016103a990615435565b600160a060020a0381166000908152600160208190526040909120018054612613919061093d906152b2565b156126335760405160e560020a62461bcd0281526004016103a99061546c565b600160a060020a038085166000908152600360205260409020600201548591166126725760405160e560020a62461bcd0281526004016103a990615175565b600160a060020a03808216600081815260036020526040902060020154909116146126b25760405160e560020a62461bcd0281526004016103a9906151d2565b6000600160a060020a03821660009081526003602052604090206004015462010000900460ff1660018111156126ea576126ea614898565b1461270a5760405160e560020a62461bcd0281526004016103a99061522f565b60006127168633613b98565b905061272181613c99565b6127705760405160e560020a62461bcd02815260206004820152601e60248201527f5573657220646f6573206e6f742068617665204b59432072657175657374000060448201526064016103a9565b6000851561278057506001612784565b5060025b8060078360405161279591906154a3565b908152604051908190036020019020600701805461ff0019166101008360028111156127c3576127c3614898565b0217905550846007836040516127d991906154a3565b908152602001604051809103902060080190816127f69190615338565b507fa8dbf5117d5dedc3fd5ba8fe21e806ed427f7c6f59227fc077fc198f05a90fb38233898460405161282c94939291906155f8565b60405180910390a150505050505050565b33600081815260036020526040902060020154600160a060020a03166128785760405160e560020a62461bcd0281526004016103a990615175565b600160a060020a03808216600081815260036020526040902060020154909116146128b85760405160e560020a62461bcd0281526004016103a9906151d2565b6000600160a060020a03821660009081526003602052604090206004015462010000900460ff1660018111156128f0576128f0614898565b146129105760405160e560020a62461bcd0281526004016103a99061522f565b600061291c3386613b98565b905061292781613c99565b6129765760405160e560020a62461bcd02815260206004820152601860248201527f4b594320686173206e6f74206265656e2072657175697265000000000000000060448201526064016103a9565b600084156129985750600161298a336144a1565b61299386614569565b61299c565b5060025b806007836040516129ad91906154a3565b908152604051908190036020019020600701805460ff191660018360028111156129d9576129d9614898565b0217905550836007836040516129ef91906154a3565b90815260200160405180910390206008019081612a0c9190615338565b507fd80f00259edeef8f2a1f23c33ab3a8e57577db0527ed9f04dd9a61e8917d293782873384604051612a4294939291906155f8565b60405180910390a1505050505050565b600454600160a060020a03163314612aaf5760405160e560020a62461bcd02815260206004820152601560248201527f4f6e6c792061646d696e20697320616c6c6f776564000000000000000000000060448201526064016103a9565b565b600160a060020a03828116600090815260036020526040812060020154909116612af05760405160e560020a62461bcd0281526004016103a99061563c565b818015612b3257506001600160a060020a03841660009081526003602052604090206004015462010000900460ff166001811115612b3057612b30614898565b145b15612b9f57600160a060020a0383166000908152600360205260409081902060048101805462ff00001916905590517feb08358b4ed3424dcaa050650ea22c135e76b9a05ec0766bd3c0d664bc2c169791612b8f91869190615699565b60405180910390a1506000612c7b565b81158015612be257506000600160a060020a03841660009081526003602052604090206004015462010000900460ff166001811115612be057612be0614898565b145b15612c5457600160a060020a0383166000908152600360205260409081902060048101805462ff000019166201000017905590517fafdccd44091dde1f075ad1dc885589e840a8f844772be0e4ee0d2794e266122b91612c4491869190615699565b60405180910390a1506001612c7b565b50600160a060020a03821660009081526003602052604090206004015462010000900460ff165b92915050565b6000606060008411612cd85760405160e560020a62461bcd02815260206004820152601860248201527f506167654e756d6265722073686f756c64206265203e2030000000000000000060448201526064016103a9565b600080600080612d698888612cfb57336000908152600960205260409020612d0b565b3360009081526008602052604090205b805480602002602001604051908101604052809291908181526020018280548015612d5f57602002820191906000526020600020905b8154600160a060020a03168152600190910190602001808311612d41575b50505050506145ee565b935093509350935060008367ffffffffffffffff811115612d8c57612d8c614a2b565b604051908082528060200260200182016040528015612dc557816020015b612db2614725565b815260200190600190039081612daa5790505b509050825b828110156132545788612e3a573360009081526009602052604090208054600791612e1a9184908110612dff57612dff6155ad565b600091825260209091200154600160a060020a031633613b98565b604051612e2791906154a3565b9081526020016040518091039020612e9a565b3360008181526008602052604090208054600792612e7e92909185908110612e6457612e646155ad565b600091825260209091200154600160a060020a0316613b98565b604051612e8b91906154a3565b90815260200160405180910390205b60405180610140016040529081600082018054612eb6906152b2565b80601f0160208091040260200160405190810160405280929190818152602001828054612ee2906152b2565b8015612f2f5780601f10612f0457610100808354040283529160200191612f2f565b820191906000526020600020905b815481529060010190602001808311612f1257829003601f168201915b50505091835250506001820154600160a060020a03166020820152600282018054604090920191612f5f906152b2565b80601f0160208091040260200160405190810160405280929190818152602001828054612f8b906152b2565b8015612fd85780601f10612fad57610100808354040283529160200191612fd8565b820191906000526020600020905b815481529060010190602001808311612fbb57829003601f168201915b50505091835250506003820154600160a060020a03166020820152600482018054604090920191613008906152b2565b80601f0160208091040260200160405190810160405280929190818152602001828054613034906152b2565b80156130815780601f1061305657610100808354040283529160200191613081565b820191906000526020600020905b81548152906001019060200180831161306457829003601f168201915b5050505050815260200160058201805461309a906152b2565b80601f01602080910402602001604051908101604052809291908181526020018280546130c6906152b2565b80156131135780601f106130e857610100808354040283529160200191613113565b820191906000526020600020905b8154815290600101906020018083116130f657829003601f168201915b505050918352505060068201546020820152600782015460409091019060ff16600281111561314457613144614898565b600281111561315557613155614898565b81526020016007820160019054906101000a900460ff16600281111561317d5761317d614898565b600281111561318e5761318e614898565b81526020016008820180546131a2906152b2565b80601f01602080910402602001604051908101604052809291908181526020018280546131ce906152b2565b801561321b5780601f106131f05761010080835404028352916020019161321b565b820191906000526020600020905b8154815290600101906020018083116131fe57829003601f168201915b505050505081525050828281518110613236576132366155ad565b6020026020010181905250808061324c906155df565b915050612dca565b5093989397509295505050505050565b604080820151600160a060020a0390811660009081526003602052919091206002015416156132fe5760405160e560020a62461bcd02815260206004820152602560248201527f546869732046696e616e6369616c20496e737469747574696f6e20697320657860448201527f697374656400000000000000000000000000000000000000000000000000000060648201526084016103a9565b604080820151600160a060020a03166000908152600360205220815182919081906133299082615338565b506020820151600182019061333e9082615338565b506040820151600282018054600160a060020a031916600160a060020a03909216919091179055606082015160038201906133799082615338565b50608082015160048201805461ffff90921661ffff1983168117825560a08501519262ffffff191617620100008360018111156133b8576133b8614898565b0217905550505060408181018051600280546001810182556000919091527f405787fa12a823e0f2b7631cc41b3ba8828b3321ca811111fa75cd3aa3bb5ace018054600160a060020a031916600160a060020a039092169190911790555182516020840151606085015193517f525fd5edcf782f6d6185cd349b4698e6d22dbd3c2a35aa6b58d07c68dac77e1894613452949392916156c3565b60405180910390a150565b60006060600083116134b45760405160e560020a62461bcd02815260206004820152601860248201527f506167654e756d6265722073686f756c64206265203e2030000000000000000060448201526064016103a9565b60008060008061351c876002805480602002602001604051908101604052809291908181526020018280548015612d5f57602002820191906000526020600020908154600160a060020a03168152600190910190602001808311612d415750505050506145ee565b935093509350935060008367ffffffffffffffff81111561353f5761353f614a2b565b60405190808252806020026020018201604052801561357857816020015b61356561479b565b81526020019060019003908161355d5790505b509050825b8281101561380b57600360006002838154811061359c5761359c6155ad565b6000918252602080832090910154600160a060020a031683528201929092526040908101909120815160c081019092528054829082906135db906152b2565b80601f0160208091040260200160405190810160405280929190818152602001828054613607906152b2565b80156136545780601f1061362957610100808354040283529160200191613654565b820191906000526020600020905b81548152906001019060200180831161363757829003601f168201915b5050505050815260200160018201805461366d906152b2565b80601f0160208091040260200160405190810160405280929190818152602001828054613699906152b2565b80156136e65780601f106136bb576101008083540402835291602001916136e6565b820191906000526020600020905b8154815290600101906020018083116136c957829003601f168201915b50505091835250506002820154600160a060020a03166020820152600382018054604090920191613716906152b2565b80601f0160208091040260200160405190810160405280929190818152602001828054613742906152b2565b801561378f5780601f106137645761010080835404028352916020019161378f565b820191906000526020600020905b81548152906001019060200180831161377257829003601f168201915b5050509183525050600482015461ffff8116602083015260409091019062010000900460ff1660018111156137c6576137c6614898565b60018111156137d7576137d7614898565b815250508282815181106137ed576137ed6155ad565b60200260200101819052508080613803906155df565b91505061357d565b50939793965092945050505050565b60008160405160200161382d91906154a3565b604051602081830303815290604052805190602001208360405160200161385491906154a3565b6040516020818303038152906040528051906020012014905092915050565b33600090815260016020526040902061388c8482615338565b50336000908152600160208190526040909120016138aa8382615338565b503360008181526001602052604090819020600201839055517f6187a440bf69704d8832c067e5749fd4293c4398454c804cb395c24189a7dd82916138f29186908690615716565b60405180910390a1505050565b60006139096146d6565b60006139136146d6565b60005b8551811015613b8c5786600160a060020a031686828151811061393b5761393b6155ad565b6020026020010151600160a060020a031603613b7a57600192506001600088600160a060020a0316600160a060020a031681526020019081526020016000206040518060e0016040529081600082018054613995906152b2565b80601f01602080910402602001604051908101604052809291908181526020018280546139c1906152b2565b8015613a0e5780601f106139e357610100808354040283529160200191613a0e565b820191906000526020600020905b8154815290600101906020018083116139f157829003601f168201915b50505050508152602001600182018054613a27906152b2565b80601f0160208091040260200160405190810160405280929190818152602001828054613a53906152b2565b8015613aa05780601f10613a7557610100808354040283529160200191613aa0565b820191906000526020600020905b815481529060010190602001808311613a8357829003601f168201915b5050509183525050600282015460208201526003820154600160a060020a0390811660408301526004830154166060820152600582018054608090920191613ae7906152b2565b80601f0160208091040260200160405190810160405280929190818152602001828054613b13906152b2565b8015613b605780601f10613b3557610100808354040283529160200191613b60565b820191906000526020600020905b815481529060010190602001808311613b4357829003601f168201915b505050505081526020016006820154815250509150613b8c565b80613b84816155df565b915050613916565b50909590945092505050565b6040516c01000000000000000000000000600160a060020a03808516820260208401528316026034820152606090604801604051602081830303815290604052905092915050565b600160a060020a0383811660009081526003602052604090206002015416613c1d5760405160e560020a62461bcd0281526004016103a99061563c565b600160a060020a0383166000908152600360205260409020613c3f8282615338565b50600160a060020a0383166000908152600360205260409020600101613c658382615338565b507fb4cb25b08e4b645535d427082bc0cd9007bc58e01c068f627b44bd0ec489f39f8382846040516138f293929190615716565b6000613cb4826040518060200160405280600081525061381a565b15613d045760405160e560020a62461bcd02815260206004820152601460248201527f52657175657374206973206e6f7420666f756e6400000000000000000000000060448201526064016103a9565b612c7b600783604051613d1791906154a3565b9081526040519081900360200190208054613d31906152b2565b80601f0160208091040260200160405190810160405280929190818152602001828054613d5d906152b2565b8015613daa5780601f10613d7f57610100808354040283529160200191613daa565b820191906000526020600020905b815481529060010190602001808311613d8d57829003601f168201915b50505050508361381a565b613dbd61479b565b600160a060020a038216613de65760405160e560020a62461bcd0281526004016103a9906153fe565b600160a060020a03821660009081526003602052604090819020815160c08101909252805482908290613e18906152b2565b80601f0160208091040260200160405190810160405280929190818152602001828054613e44906152b2565b8015613e915780601f10613e6657610100808354040283529160200191613e91565b820191906000526020600020905b815481529060010190602001808311613e7457829003601f168201915b50505050508152602001600182018054613eaa906152b2565b80601f0160208091040260200160405190810160405280929190818152602001828054613ed6906152b2565b8015613f235780601f10613ef857610100808354040283529160200191613f23565b820191906000526020600020905b815481529060010190602001808311613f0657829003601f168201915b50505091835250506002820154600160a060020a03166020820152600382018054604090920191613f53906152b2565b80601f0160208091040260200160405190810160405280929190818152602001828054613f7f906152b2565b8015613fcc5780601f10613fa157610100808354040283529160200191613fcc565b820191906000526020600020905b815481529060010190602001808311613faf57829003601f168201915b5050509183525050600482015461ffff8116602083015260409091019062010000900460ff16600181111561400357614003614898565b600181111561401457614014614898565b90525092915050565b6000600160a060020a0382166140785760405160e560020a62461bcd02815260206004820152601060248201527f494420686173206e6f7420666f756e640000000000000000000000000000000060448201526064016103a9565b600160a060020a0382811660009081526001602052604090206003015416158015906140cd5750600160a060020a03821660009081526001602081905260409091200180546140cb919061093d906152b2565b155b156140d6575060015b919050565b6060810151600160a060020a03166000908152600160205260409020815182919081906141089082615338565b506020820151600182019061411d9082615338565b50604082015160028201556060820151600382018054600160a060020a03928316600160a060020a031991821617909155608084015160048401805491909316911617905560a082015160058201906141769082615338565b5060c09190910151600690910155606081018051600080546001810182559080527f290decd9548b62a8d60345a988386fc84ba6bc95484008f6362f93160ef3e563018054600160a060020a031916600160a060020a0390921691909117905551815160208301516040517ffc753eff51ef9bc95cc7789cefef07d6f2b86de04834071141298e2cc3e5360f936134529390929091615716565b6142186146d6565b600160a060020a03821660009081526001602052604090819020815160e0810190925280548290829061424a906152b2565b80601f0160208091040260200160405190810160405280929190818152602001828054614276906152b2565b80156142c35780601f10614298576101008083540402835291602001916142c3565b820191906000526020600020905b8154815290600101906020018083116142a657829003601f168201915b505050505081526020016001820180546142dc906152b2565b80601f0160208091040260200160405190810160405280929190818152602001828054614308906152b2565b80156143555780601f1061432a57610100808354040283529160200191614355565b820191906000526020600020905b81548152906001019060200180831161433857829003601f168201915b5050509183525050600282015460208201526003820154600160a060020a039081166040830152600483015416606082015260058201805460809092019161439c906152b2565b80601f01602080910402602001604051908101604052809291908181526020018280546143c8906152b2565b80156144155780601f106143ea57610100808354040283529160200191614415565b820191906000526020600020905b8154815290600101906020018083116143f857829003601f168201915b505050505081526020016006820154815250509050919050565b33600090815260016020526040902060050161444b8382615338565b5033600081815260016020526040908190206006810184905590517fd19d4ad3ae69ce55a7b2abedbf945c905fb06fd10e10fd91cf7e206a45e7367392614495929091869061574a565b60405180910390a15050565b600160a060020a0381166145205760405160e560020a62461bcd02815260206004820152602260248201527f46696e616e6369616c20494e737469747574696f6e206973206e6f7420666f7560448201527f6e6400000000000000000000000000000000000000000000000000000000000060648201526084016103a9565b600160a060020a0381166000908152600360205260408120600401805461ffff169161454b8361576c565b91906101000a81548161ffff021916908361ffff1602179055505050565b600160a060020a0381166145c25760405160e560020a62461bcd02815260206004820152601960248201527f437573746f6d657220494420686173206e6f7420466f756e640000000000000060448201526064016103a9565b600160a060020a031660009081526001602052604090206004018054600160a060020a03191633179055565b60008060008060006019865161460491906157a6565b90506019865161461491906157ba565b9450801561462a5784614626816155df565b9550505b601993506146396001886157ce565b6146449060196157e5565b92506146518760196157e5565b915084871115614668576000935060009150614684565b84871480156146775750600081115b1561468457809350855191505b5092959194509250565b6040518060a0016040528060608152602001606081526020016000600160a060020a03168152602001600060028111156146ca576146ca614898565b81526020016000905290565b6040518060e001604052806060815260200160608152602001600081526020016000600160a060020a031681526020016000600160a060020a0316815260200160608152602001600081525090565b604051806101400160405280606081526020016000600160a060020a03168152602001606081526020016000600160a060020a031681526020016060815260200160608152602001600081526020016000600281111561478757614787614898565b815260200160008152602001606081525090565b6040805160c081018252606080825260208201819052600092820183905280820152608081018290529060a082015290565b8035600160a060020a03811681146140d657600080fd5b803580151581146140d657600080fd5b6000806040838503121561480757600080fd5b614810836147cd565b915061481e602084016147e4565b90509250929050565b60006020828403121561483957600080fd5b5035919050565b60005b8381101561485b578181015183820152602001614843565b8381111561107c5750506000910152565b60008151808452614884816020860160208601614840565b601f01601f19169290920160200192915050565b60e060020a634e487b7102600052602160045260246000fd5b600381106148c1576148c1614898565b50565b6148cd816148b1565b9052565b600061014082518185526148e78286018261486c565b91505060208301516149046020860182600160a060020a03169052565b506040830151848203604086015261491c828261486c565b91505060608301516149396060860182600160a060020a03169052565b5060808301518482036080860152614951828261486c565b91505060a083015184820360a086015261496b828261486c565b91505060c083015160c085015260e083015161498a60e08601826148c4565b506101008084015161499e828701826148c4565b505061012080840151858303828701526149b8838261486c565b9695505050505050565b60006040820184835260206040818501528185518084526060860191506060838202870101935082870160005b82811015614a1d57605f19888703018452614a0b8683516148d1565b955092840192908401906001016149ef565b509398975050505050505050565b60e060020a634e487b7102600052604160045260246000fd5b60405160c0810167ffffffffffffffff81118282101715614a6757614a67614a2b565b60405290565b60405160e0810167ffffffffffffffff81118282101715614a6757614a67614a2b565b600082601f830112614aa157600080fd5b813567ffffffffffffffff80821115614abc57614abc614a2b565b604051601f8301601f19908116603f01168101908282118183101715614ae457614ae4614a2b565b81604052838152866020858801011115614afd57600080fd5b836020870160208301376000602085830101528094505050505092915050565b803561ffff811681146140d657600080fd5b8035600281106140d657600080fd5b600060208284031215614b5057600080fd5b813567ffffffffffffffff80821115614b6857600080fd5b9083019060c08286031215614b7c57600080fd5b614b84614a44565b823582811115614b9357600080fd5b614b9f87828601614a90565b825250602083013582811115614bb457600080fd5b614bc087828601614a90565b602083015250614bd2604084016147cd565b6040820152606083013582811115614be957600080fd5b614bf587828601614a90565b606083015250614c0760808401614b1d565b6080820152614c1860a08401614b2f565b60a082015295945050505050565b600281106148cd576148cd614898565b6000815160c08452614c4b60c085018261486c565b905060208301518482036020860152614c64828261486c565b915050600160a060020a03604084015116604085015260608301518482036060860152614c91828261486c565b91505061ffff608084015116608085015260a0830151614cb460a0860182614c26565b509392505050565b60006040820184835260206040818501528185518084526060860191506060838202870101935082870160005b82811015614a1d57605f19888703018452614d05868351614c36565b95509284019290840190600101614ce9565b602081526000825160a06020840152614d3360c084018261486c565b90506020840151601f19848303016040850152614d50828261486c565b915050600160a060020a0360408501511660608401526060840151614d74816148b1565b806080850152506080840151614cb460a0850182614c26565b600080600060608486031215614da257600080fd5b833567ffffffffffffffff80821115614dba57600080fd5b614dc687838801614a90565b94506020860135915080821115614ddc57600080fd5b50614de986828701614a90565b925050604084013590509250925092565b600060208284031215614e0c57600080fd5b614e15826147cd565b9392505050565b6000815160e08452614e3160e085018261486c565b905060208301518482036020860152614e4a828261486c565b915050604083015160408501526060830151600160a060020a038082166060870152806080860151166080870152505060a083015184820360a0860152614e91828261486c565b91505060c083015160c08501528091505092915050565b8315158152606060208201526000614ec36060830185614e1c565b82810360408401526149b881856148d1565b600080600060608486031215614eea57600080fd5b614ef3846147cd565b9250602084013567ffffffffffffffff80821115614f1057600080fd5b614f1c87838801614a90565b93506040860135915080821115614f3257600080fd5b50614f3f86828701614a90565b9150509250925092565b600080600060608486031215614f5e57600080fd5b833567ffffffffffffffff80821115614f7657600080fd5b9085019060e08288031215614f8a57600080fd5b614f92614a6d565b823582811115614fa157600080fd5b614fad89828601614a90565b825250602083013582811115614fc257600080fd5b614fce89828601614a90565b60208301525060408301356040820152614fea606084016147cd565b6060820152614ffb608084016147cd565b608082015260a08301358281111561501257600080fd5b61501e89828601614a90565b60a08301525060c083013560c082015280955050602086013593506040860135915080821115614f3257600080fd5b6000806040838503121561506057600080fd5b615069836147cd565b9150602083013567ffffffffffffffff81111561508557600080fd5b61509185828601614a90565b9150509250929050565b602081526000614e156020830184614c36565b602081526000614e156020830184614e1c565b8315158152606060208201526000614ec36060830185614c36565b600080604083850312156150ef57600080fd5b823567ffffffffffffffff81111561510657600080fd5b61511285828601614a90565b95602094909401359450505050565b60008060006060848603121561513657600080fd5b61513f846147cd565b925061514d602085016147e4565b9150604084013567ffffffffffffffff81111561516957600080fd5b614f3f86828701614a90565b60208082526027908201527f546869732046696e616e6369616c20496e737469747574696f6e206973206e6f60408201527f7420666f756e6400000000000000000000000000000000000000000000000000606082015260800190565b6020808252602d908201527f546869732046696e616e6369616c20496e737469747574696f6e20686173206e60408201527f6f74206265656e20616464656400000000000000000000000000000000000000606082015260800190565b60208082526045908201527f546869732046696e616e6369616c20496e737469747574696f6e206973206e6f60408201527f74206163746976652c20706c65736520636f6e746163742041646d696e69737460608201527f7261746f72000000000000000000000000000000000000000000000000000000608082015260a00190565b6002810460018216806152c657607f821691505b6020821081036119ab5760e060020a634e487b7102600052602260045260246000fd5b601f821115615333576000818152602081206020601f860104810160208610156153105750805b6020601f860104820191505b8181101561532f5782815560010161531c565b5050505b505050565b815167ffffffffffffffff81111561535257615352614a2b565b6153668161536084546152b2565b846152e9565b602080601f83116001811461539f57600084156153835750858301515b60028086026008870290910a600019041982161786555061532f565b600085815260208120601f198616915b828110156153ce578886015182559484019460019091019084016153af565b50858210156153ee57878501516008601f88160260020a60001904191681555b5050505050600202600101905550565b6020808252600f908201527f4944206973206e6f7420666f756e640000000000000000000000000000000000604082015260600190565b60208082526011908201527f55736572206973206e6f7420666f756e64000000000000000000000000000000604082015260600190565b60208082526012908201527f456d61696c206973206e6f7420666f756e640000000000000000000000000000604082015260600190565b600082516154b5818460208701614840565b9190910192915050565b600081546154cc816152b2565b8085526020600183811680156154e9576001811461550257615530565b60ff198516888401528315158302880183019550615530565b866000528260002060005b858110156155285781548a820186015290830190840161550d565b890184019650505b505050505092915050565b60608152600061554e606083018661486c565b828103602084015261556081866154bf565b905082810360408401526149b8818561486c565b606081526000615587606083018661486c565b828103602084015261559981866154bf565b905082810360408401526149b881856154bf565b60e060020a634e487b7102600052603260045260246000fd5b60e060020a634e487b7102600052601160045260246000fd5b6000600182016155f1576155f16155c6565b5060010190565b60808152600061560b608083018761486c565b600160a060020a03868116602085015285166040840152905061562d836148b1565b82606083015295945050505050565b60208082526027908201527f546869732046696e616e6369616c20496e737469747574696f6e206973206e6f60408201527f7220666f756e6400000000000000000000000000000000000000000000000000606082015260800190565b600160a060020a03831681526040602082015260006156bb60408301846154bf565b949350505050565b600160a060020a03851681526080602082015260006156e5608083018661486c565b82810360408401526156f7818661486c565b9050828103606084015261570b818561486c565b979650505050505050565b600160a060020a0384168152606060208201526000615738606083018561486c565b82810360408401526149b8818561486c565b600160a060020a038416815260606020820152600061573860608301856154bf565b600061ffff808316818103615783576157836155c6565b6001019392505050565b60e060020a634e487b7102600052601260045260246000fd5b6000826157b5576157b561578d565b500690565b6000826157c9576157c961578d565b500490565b6000828210156157e0576157e06155c6565b500390565b60008160001904831182151516156157ff576157ff6155c6565b50029056fea26469706673582212200a00625df7cf8a91faef0e738d9e0ef7d67bb4e60eb44634fbac2bfe2f893d5564736f6c634300080f0033",
  "immutableReferences": {},
  "source": "// SPDX-License-Identifier: MIT and GPL-3.0\npragma experimental ABIEncoderV2;\npragma solidity >=0.6;\n\nimport \"./FI.sol\";\nimport \"./Client.sol\";\n\n// Administration for managing KYC process. \ncontract KYC is Client, FI {\n    address admin;\n    address[] internal adminList;\n\n    mapping(address => appearances.User) internal users;\n    mapping(string => appearances.KYCRequest) internal request;\n    mapping(address => address[]) internal FItoClient;\n    mapping(address => address[]) internal ClienttoFI;\n\n    event addKYC(string iDreq, string FIName, string ClinetName);\n    event startKYC(string iDreq, string FIName, string ClientName);\n    event changeStatus(\n        string iDreq,\n        address Client_ID,\n        address FI_ID,\n        appearances.KYCStatus status\n    );\n    event dataHashpermission(\n        string iDreq,\n        address Client_ID,\n        address FI_ID,\n        appearances.DataHashStatus status\n    );\n\n    // Set the admin who can add FIs to system and deploy this contract.\n    constructor(string memory name, string memory email) {\n        admin = msg.sender;\n        appearances.User memory user = appearances.User({\n            name: name,\n            email: email,\n            ID: admin,\n            positions: appearances.Positions.Admin,\n            status: appearances.FIStatus.Active\n        });\n        users[admin] = user;\n        adminList.push(admin);\n    }\n    function _onlyAdmin() private view {\n        require(msg.sender == admin, \"Only admin is allowed\");\n    }\n    // Check whether the inquirer is a admin.  \n    modifier isAdmin() {\n        _onlyAdmin();\n        _;\n    }\n    /*  Function that check whether the KYC is alredy exists.\n     *  iDreq is a unique ID for KYC request process.\n     *  this function will return \"boolean\"\n     */   \n    function isKYCexists(string memory iDreq) internal view returns(bool) {\n        require(!support.stringsCompare(iDreq, \"\"), \"Request is not found\");\n        return support.stringsCompare(request[iDreq].ID, iDreq);\n    }\n\n    //Function to request KYC process.  \n    function getKYC(uint256 pageNumber, bool forFI) \n    internal view returns(uint256 Totalpages, appearances.KYCRequest[] memory) {\n        require(pageNumber > 0, \"PageNumber should be > 0\");\n        (\n            uint256 pages,\n            uint256 pageLength,\n            uint256 startIndex,\n            uint256 endIndex\n        ) = support.getIndexes(\n            pageNumber, \n            forFI\n                ? FItoClient[msg.sender]\n                : ClienttoFI[msg.sender]\n        );\n        appearances.KYCRequest[] memory list = new appearances.KYCRequest[](pageLength);\n        for (uint256 i = startIndex; i < endIndex; i++)\n        list[i] = forFI\n        ? request[support.append(msg.sender, FItoClient[msg.sender][i])] \n        : request[support.append(ClienttoFI[msg.sender][i], msg.sender)];\n        return(pages, list);\n    }\n\n    // Admin Interface.\n\n    // Function to list all FIs\n    function AllFI(uint256 pageNumber) public view isAdmin\n    returns(uint256 Totalpages, appearances.FI[] memory) {\n        return getallFI(pageNumber);\n    }\n\n    // Funcition to add nee FI including their details. \n    function AddFIAccount(appearances.FI memory fiAdd) public isAdmin {\n        addFI(fiAdd);\n        users[fiAdd.ID] = appearances.User({\n            name: fiAdd.name,\n            email: fiAdd.email,\n            ID: fiAdd.ID,\n            positions: appearances.Positions.FI,\n            status: appearances.FIStatus.Active\n        });\n        adminList.push(fiAdd.ID);\n    }\n\n    // Function to update Fis details.\n    function FIUpdate(address ID, string memory email, string memory name)\n    public isAdmin {\n        updateFI(ID, email, name);\n        users[ID].name = name;\n        users[ID].email = email;\n    }\n\n    /*  Function to active FIs for KYC. \n     *  If boolearn return true, FI will mark as a active \n     *  Otherwise will mark as a deactive\n     */\n    function ActiveteandDeactivete(address ID, bool MakeActive) public isAdmin {\n        users[ID].status = activeteAnddeactivete(ID, MakeActive);\n    }\n\n    // Bank Interface\n\n    //Function that list clients, who like with the FI in this system. \n    function getClientofFI(uint256 pageNumber) public view isFIValid(msg.sender)\n    returns(uint256 Totalpages, appearances.KYCRequest[] memory) {\n        return getKYC(pageNumber, true);\n    }\n\n    // Function to record new KYC for a client.\n    function AddKYC(appearances.Client memory client, uint256 Timestemp,\n    string memory note) public isFIValid(msg.sender) {\n        string memory iDreq = support.append(msg.sender, client.ID);\n        require(!isKYCexists(iDreq), \"User had requested KYC\");\n        // client's details. \n        request[iDreq] = appearances.KYCRequest({\n            ID: iDreq,\n            user_ID: client.ID,\n            ClientName: client.name,\n            FI_ID: msg.sender,\n            FIName: gettheFI(msg.sender).name,\n            dataHash: client.dataHash,\n            // Timestemp is current date & time in unix epoch timestemp.\n            updatedOn: Timestemp,\n            status: appearances.KYCStatus.Pending,\n            dataRequest: appearances.DataHashStatus.Pending,\n            // note is aollow the additinal details to be added.\n            additionalNotes: note\n        });\n        FItoClient[msg.sender].push(client.ID);\n        ClienttoFI[client.ID].push(msg.sender);\n        emit addKYC(iDreq, request[iDreq].FIName, client.name);\n\n        if(!ExistedClient(client.ID)) {\n            addClient(client);\n            users[client.ID] = appearances.User({\n                name: client.name,\n                email: client.email,\n                ID: client.ID,\n                positions: appearances.Positions.Client,\n                status: appearances.FIStatus.Active\n            });\n            adminList.push(client.ID);\n        }\n    }\n\n    // Function to re-request KYC for clients.\n    function reKYC(address ID, string memory note) public\n    isFIValid(msg.sender) {\n        string memory iDreq = support.append(msg.sender, ID);\n        require(isKYCexists(iDreq), \"KYC has not found\");\n        require(ExistedClient(ID), \"Customer has not found\");\n        \n        request[iDreq].status = appearances.KYCStatus.Pending;\n        request[iDreq].dataRequest = appearances.DataHashStatus.Pending;\n        request[iDreq].additionalNotes = note;\n        emit startKYC(iDreq, request[iDreq].FIName, request[iDreq].ClientName);\n    }\n    \n    // Function to verify KYC as failure.\n    function KYCVerification(address user_ID, bool verified, string memory note)\n    public isFIValid(msg.sender) {\n        string memory iDreq = support.append(msg.sender, user_ID);\n        require(isKYCexists(iDreq), \"KYC has not been require\");\n\n        appearances.KYCStatus status = appearances.KYCStatus.Pending;\n        if(verified) {\n            status = appearances.KYCStatus.KYCVerified;\n            updateKYC(msg.sender);\n            verifiedKYC(user_ID);           \n        }\n        else {\n            status = appearances.KYCStatus.KYCFailed;\n        }\n        request[iDreq].status = status;\n        // info to be shared with the clients.\n        request[iDreq].additionalNotes = note;\n        emit changeStatus(iDreq, user_ID, msg.sender, status);\n    }\n\n    /*  Function to search for client's details for FIs that client link to.\n     *  This will return in boolean which tell if client exits or not.\n     */   \n    function searchClient(address ID) public view \n    isClientValid(ID) isFIValid(msg.sender)\n    returns(bool, appearances.Client memory, appearances.KYCRequest memory) {\n        bool found;\n        appearances.Client memory client;\n        appearances.KYCRequest memory requested;\n        (found, client) = searchforclient(ID, FItoClient[msg.sender]);\n        // If client exits will return with full of client's details, including KYC status.\n        if (found) requested = request[support.append(msg.sender, ID)];\n        return (found, client, requested); \n    }\n\n    // Client Interface\n\n    // Function that list FIs for Client \n    function FIrequest(uint256 pageNumber) public view isClientValid(msg.sender)\n    returns(uint256 Totalpages, appearances.KYCRequest[] memory) {\n        return getKYC(pageNumber, false);\n    }\n\n    // Function to check if KYC approve or reject. \n    function KYCaction(address FI_ID, bool approve, string memory note)\n    public isClientValid(msg.sender) isFIValid(FI_ID) {\n        string memory iDreq = support.append(FI_ID, msg.sender);\n        require(isKYCexists(iDreq), \"User does not have KYC request\");\n\n        appearances.DataHashStatus status = appearances.DataHashStatus.Pending;\n        if (approve) {\n            status = appearances.DataHashStatus.Approved;\n        }\n        else {\n            status = appearances.DataHashStatus.Rejected;\n        }\n        request[iDreq].dataRequest = status;\n        request[iDreq].additionalNotes = note;\n        emit dataHashpermission(iDreq, msg.sender, FI_ID, status);\n    }\n\n    // Function to update the user proflie.\n    function updateProfile(string memory name, string memory email, uint256 MobileNumber)\n    public isClientValid(msg.sender) {\n        getProflieUpdate(name, email, MobileNumber);\n        users[msg.sender].name = name;\n        users[msg.sender].email = email;\n    }\n\n    // Function to upate dathash of the documents.\n    function updateHash(string memory hash, uint256 Timestemp) public\n    isClientValid(msg.sender) {\n        dataHashUpdate(hash, Timestemp);\n        // Reset KYC verification status for all FIs \n        address[] memory FIsList = ClienttoFI[msg.sender];\n        for (uint256 i = 0; i < FIsList.length; i++) {\n            string memory iDreq = support.append(FIsList[i], msg.sender);\n            if (isKYCexists(iDreq)) {\n                request[iDreq].dataHash = hash;\n                request[iDreq].updatedOn = Timestemp;\n                request[iDreq].status = appearances.KYCStatus.Pending;\n                request[iDreq].additionalNotes = \"Update all my documents\";\n            }\n        }\n    }\n\n    /*  Function to removes the permission to a specific FIs.\n     *  So, they can't access the documents again.\n     */\n    function removePremission(address FI_ID, string memory note) public\n    isClientValid(msg.sender) {\n        string memory iDreq = support.append(FI_ID, msg.sender);\n        require(isKYCexists(iDreq), \"Permission has not found\");\n        request[iDreq].dataRequest = appearances.DataHashStatus.Rejected;\n        request[iDreq].additionalNotes = note;\n        emit dataHashpermission(iDreq, msg.sender, FI_ID, appearances.DataHashStatus.Rejected);\n    }\n    /*  Fucntion to search for FIs details in the list that directly linked to customer.\n     *  This will return say FI exits or not.\n     */ \n    function searchforFI(address FI_ID) public view \n    isClientValid(msg.sender) isFIValid(FI_ID)\n    returns(bool, appearances.FI memory, appearances.KYCRequest memory) {\n        bool found;\n        appearances.FI memory fiAdd;\n        appearances.KYCRequest memory req;\n        address[] memory fis = ClienttoFI[msg.sender];\n        // If FI i found will return their detials including status.\n        for (uint256 i = 0; i < fis.length; i++) {\n            if(fis[i] == FI_ID) {\n                found = true;\n                fiAdd = gettheFI(FI_ID);\n                req = request[support.append(FI_ID, msg.sender)];\n                break;\n            }\n        }\n        return(found, fiAdd, req);\n    }\n\n    // Common Interfacc\n\n    // Updates the KYC request (Either Approves or Rejects)\n    function checkIt() public view returns(appearances.User memory) {\n        require(msg.sender != address(0), \"Sender ID Empty\");\n        require(users[msg.sender].ID != address(0), \"User ID Empty\");\n        return users[msg.sender];\n    }\n\n    // Get client's details\n    function gettheClientDetials(address ID) public view isClientValid(ID)\n    returns(appearances.Client memory) {\n        return getClientDetail(ID);\n    }\n    \n    // Get Financial Institution's details \n    function getFIDetails(address ID) public view isFIValid(ID)\n    returns (appearances.FI memory) {\n        return gettheFI(ID);\n    }\n\n}",
  "sourcePath": "/Users/aekkarajkuplakatee/Desktop/Dissertation/KYC/Blokchain/contracts/KYC.sol",
  "compiler": {
    "name": "solc",
    "version": "0.8.15+commit.e14f2714.Emscripten.clang"
  },
  "schemaVersion": "3.4.8",
  "updatedAt": "2023-05-07T20:58:51.652Z",
  "devdoc": {
    "kind": "dev",
    "methods": {},
    "version": 1
  },
  "userdoc": {
    "kind": "user",
    "methods": {},
    "version": 1
  }
}