{
	"data": {
		"bytecode": {
			"linkReferences": {},
			"object": "60806040523480156200001157600080fd5b506040516200a1073803806200a10783398181016040528101906200003791906200046a565b33600460006101000a81548173ffffffffffffffffffffffffffffffffffffffff021916908373ffffffffffffffffffffffffffffffffffffffff16021790555060006040518060a00160405280848152602001838152602001600460009054906101000a900473ffffffffffffffffffffffffffffffffffffffff1673ffffffffffffffffffffffffffffffffffffffff16815260200160006002811115620000e657620000e5620004ef565b5b815260200160006001811115620001025762000101620004ef565b5b81525090508060066000600460009054906101000a900473ffffffffffffffffffffffffffffffffffffffff1673ffffffffffffffffffffffffffffffffffffffff1673ffffffffffffffffffffffffffffffffffffffff168152602001908152602001600020600082015181600001908162000180919062000769565b50602082015181600101908162000198919062000769565b5060408201518160020160006101000a81548173ffffffffffffffffffffffffffffffffffffffff021916908373ffffffffffffffffffffffffffffffffffffffff16021790555060608201518160020160146101000a81548160ff021916908360028111156200020e576200020d620004ef565b5b021790555060808201518160020160156101000a81548160ff02191690836001811115620002415762000240620004ef565b5b02179055509050506005600460009054906101000a900473ffffffffffffffffffffffffffffffffffffffff169080600181540180825580915050600190039060005260206000200160009091909190916101000a81548173ffffffffffffffffffffffffffffffffffffffff021916908373ffffffffffffffffffffffffffffffffffffffff16021790555050505062000850565b6000604051905090565b600080fd5b600080fd5b600080fd5b600080fd5b6000601f19601f8301169050919050565b7f4e487b7100000000000000000000000000000000000000000000000000000000600052604160045260246000fd5b6200034082620002f5565b810181811067ffffffffffffffff8211171562000362576200036162000306565b5b80604052505050565b600062000377620002d7565b905062000385828262000335565b919050565b600067ffffffffffffffff821115620003a857620003a762000306565b5b620003b382620002f5565b9050602081019050919050565b60005b83811015620003e0578082015181840152602081019050620003c3565b60008484015250505050565b600062000403620003fd846200038a565b6200036b565b905082815260208101848484011115620004225762000421620002f0565b5b6200042f848285620003c0565b509392505050565b600082601f8301126200044f576200044e620002eb565b5b815162000461848260208601620003ec565b91505092915050565b60008060408385031215620004845762000483620002e1565b5b600083015167ffffffffffffffff811115620004a557620004a4620002e6565b5b620004b38582860162000437565b925050602083015167ffffffffffffffff811115620004d757620004d6620002e6565b5b620004e58582860162000437565b9150509250929050565b7f4e487b7100000000000000000000000000000000000000000000000000000000600052602160045260246000fd5b600081519050919050565b7f4e487b7100000000000000000000000000000000000000000000000000000000600052602260045260246000fd5b600060028204905060018216806200057157607f821691505b60208210810362000587576200058662000529565b5b50919050565b60008190508160005260206000209050919050565b60006020601f8301049050919050565b600082821b905092915050565b600060088302620005f17fffffffffffffffffffffffffffffffffffffffffffffffffffffffffffffffff82620005b2565b620005fd8683620005b2565b95508019841693508086168417925050509392505050565b6000819050919050565b6000819050919050565b60006200064a620006446200063e8462000615565b6200061f565b62000615565b9050919050565b6000819050919050565b620006668362000629565b6200067e620006758262000651565b848454620005bf565b825550505050565b600090565b6200069562000686565b620006a28184846200065b565b505050565b5b81811015620006ca57620006be6000826200068b565b600181019050620006a8565b5050565b601f8211156200071957620006e3816200058d565b620006ee84620005a2565b81016020851015620006fe578190505b620007166200070d85620005a2565b830182620006a7565b50505b505050565b600082821c905092915050565b60006200073e600019846008026200071e565b1980831691505092915050565b60006200075983836200072b565b9150826002028217905092915050565b62000774826200051e565b67ffffffffffffffff81111562000790576200078f62000306565b5b6200079c825462000558565b620007a9828285620006ce565b600060209050601f831160018114620007e15760008415620007cc578287015190505b620007d885826200074b565b86555062000848565b601f198416620007f1866200058d565b60005b828110156200081b57848901518255600182019150602085019450602081019050620007f4565b868310156200083b578489015162000837601f8916826200072b565b8355505b6001600288020188555050505b505050505050565b6198a780620008606000396000f3fe608060405234801561001057600080fd5b50600436106101165760003560e01c8063ac157423116100a2578063bc3b3ddb11610071578063bc3b3ddb1461031c578063c2c3f24414610338578063d5626b1f14610354578063eae958a014610370578063fac8d0b41461038c57610116565b8063ac1574231461026d578063b3f32a411461029d578063b69c469c146102cf578063b6c1b316146102eb57610116565b80635d676796116100e95780635d676796146101b55780637db674b6146101d35780638202cfbc146102055780638e97e778146102215780639ceecfd61461023d57610116565b8063173eb4df1461011b57806321c8fc5a146101375780632a807f77146101685780633949d02114610184575b600080fd5b610135600480360381019061013091906174aa565b6103a8565b005b610151600480360381019061014c9190617520565b610427565b60405161015f929190617881565b60405180910390f35b610182600480360381019061017d9190617b43565b610698565b005b61019e60048036038101906101999190617520565b61089b565b6040516101ac929190617d3c565b60405180910390f35b6101bd6108b9565b6040516101ca9190617e31565b60405180910390f35b6101ed60048036038101906101e89190617e53565b610c40565b6040516101fc9392919061802f565b60405180910390f35b61021f600480360381019061021a9190618074565b61164c565b005b61023b600480360381019061023691906180ff565b611704565b005b61025760048036038101906102529190617e53565b611b3e565b60405161026491906181f2565b60405180910390f35b61028760048036038101906102829190617e53565b611daf565b6040516102949190618214565b60405180910390f35b6102b760048036038101906102b29190617e53565b61202c565b6040516102c693929190618236565b60405180910390f35b6102e960048036038101906102e4919061827b565b612aa6565b005b61030560048036038101906103009190617520565b612f3d565b604051610313929190617881565b60405180910390f35b610336600480360381019061033191906180ff565b6131ba565b005b610352600480360381019061034d91906183df565b613531565b005b61036e6004803603810190610369919061846a565b613dd4565b005b61038a600480360381019061038591906184d9565b6143ba565b005b6103a660048036038101906103a1919061846a565b6146cf565b005b6103b0614a62565b6103ba8282614af4565b600660008473ffffffffffffffffffffffffffffffffffffffff1673ffffffffffffffffffffffffffffffffffffffff16815260200190815260200160002060020160156101000a81548160ff0219169083600181111561041e5761041d617636565b5b02179055505050565b6000606033600073ffffffffffffffffffffffffffffffffffffffff16600360008373ffffffffffffffffffffffffffffffffffffffff1673ffffffffffffffffffffffffffffffffffffffff16815260200190815260200160002060020160009054906101000a900473ffffffffffffffffffffffffffffffffffffffff1673ffffffffffffffffffffffffffffffffffffffff16036104fd576040517f08c379a00000000000000000000000000000000000000000000000000000000081526004016104f4906185e7565b60405180910390fd5b8073ffffffffffffffffffffffffffffffffffffffff16600360008373ffffffffffffffffffffffffffffffffffffffff1673ffffffffffffffffffffffffffffffffffffffff16815260200190815260200160002060020160009054906101000a900473ffffffffffffffffffffffffffffffffffffffff1673ffffffffffffffffffffffffffffffffffffffff16146105cd576040517f08c379a00000000000000000000000000000000000000000000000000000000081526004016105c490618679565b60405180910390fd5b600060018111156105e1576105e0617636565b5b600360008373ffffffffffffffffffffffffffffffffffffffff1673ffffffffffffffffffffffffffffffffffffffff16815260200190815260200160002060040160029054906101000a900460ff16600181111561064357610642617636565b5b14610683576040517f08c379a000000000000000000000000000000000000000000000000000000000815260040161067a90618731565b60405180910390fd5b61068e846001614f05565b9250925050915091565b6106a0614a62565b6106a98161567c565b6040518060a001604052808260000151815260200182602001518152602001826040015173ffffffffffffffffffffffffffffffffffffffff168152602001600160028111156106fc576106fb617636565b5b81526020016000600181111561071557610714617636565b5b81525060066000836040015173ffffffffffffffffffffffffffffffffffffffff1673ffffffffffffffffffffffffffffffffffffffff1681526020019081526020016000206000820151816000019081610770919061895d565b506020820151816001019081610786919061895d565b5060408201518160020160006101000a81548173ffffffffffffffffffffffffffffffffffffffff021916908373ffffffffffffffffffffffffffffffffffffffff16021790555060608201518160020160146101000a81548160ff021916908360028111156107f9576107f8617636565b5b021790555060808201518160020160156101000a81548160ff0219169083600181111561082957610828617636565b5b0217905550905050600581604001519080600181540180825580915050600190039060005260206000200160009091909190916101000a81548173ffffffffffffffffffffffffffffffffffffffff021916908373ffffffffffffffffffffffffffffffffffffffff16021790555050565b600060606108a7614a62565b6108b083615808565b91509150915091565b6108c1617225565b600073ffffffffffffffffffffffffffffffffffffffff163373ffffffffffffffffffffffffffffffffffffffff1603610930576040517f08c379a000000000000000000000000000000000000000000000000000000000815260040161092790618a7b565b60405180910390fd5b600073ffffffffffffffffffffffffffffffffffffffff16600660003373ffffffffffffffffffffffffffffffffffffffff1673ffffffffffffffffffffffffffffffffffffffff16815260200190815260200160002060020160009054906101000a900473ffffffffffffffffffffffffffffffffffffffff1673ffffffffffffffffffffffffffffffffffffffff1603610a01576040517f08c379a00000000000000000000000000000000000000000000000000000000081526004016109f890618ae7565b60405180910390fd5b600660003373ffffffffffffffffffffffffffffffffffffffff1673ffffffffffffffffffffffffffffffffffffffff1681526020019081526020016000206040518060a0016040529081600082018054610a5b90618780565b80601f0160208091040260200160405190810160405280929190818152602001828054610a8790618780565b8015610ad45780601f10610aa957610100808354040283529160200191610ad4565b820191906000526020600020905b815481529060010190602001808311610ab757829003601f168201915b50505050508152602001600182018054610aed90618780565b80601f0160208091040260200160405190810160405280929190818152602001828054610b1990618780565b8015610b665780601f10610b3b57610100808354040283529160200191610b66565b820191906000526020600020905b815481529060010190602001808311610b4957829003601f168201915b505050505081526020016002820160009054906101000a900473ffffffffffffffffffffffffffffffffffffffff1673ffffffffffffffffffffffffffffffffffffffff1673ffffffffffffffffffffffffffffffffffffffff1681526020016002820160149054906101000a900460ff166002811115610bea57610be9617636565b5b6002811115610bfc57610bfb617636565b5b81526020016002820160159054906101000a900460ff166001811115610c2557610c24617636565b5b6001811115610c3757610c36617636565b5b81525050905090565b6000610c4a61728e565b610c526172fb565b83600073ffffffffffffffffffffffffffffffffffffffff168173ffffffffffffffffffffffffffffffffffffffff1603610cc2576040517f08c379a0000000000000000000000000000000000000000000000000000000008152600401610cb990618b53565b60405180910390fd5b600073ffffffffffffffffffffffffffffffffffffffff16600160008373ffffffffffffffffffffffffffffffffffffffff1673ffffffffffffffffffffffffffffffffffffffff16815260200190815260200160002060020160029054906101000a900473ffffffffffffffffffffffffffffffffffffffff1673ffffffffffffffffffffffffffffffffffffffff1603610d93576040517f08c379a0000000000000000000000000000000000000000000000000000000008152600401610d8a90618bbf565b60405180910390fd5b610e76600160008373ffffffffffffffffffffffffffffffffffffffff1673ffffffffffffffffffffffffffffffffffffffff1681526020019081526020016000206001018054610de390618780565b80601f0160208091040260200160405190810160405280929190818152602001828054610e0f90618780565b8015610e5c5780601f10610e3157610100808354040283529160200191610e5c565b820191906000526020600020905b815481529060010190602001808311610e3f57829003601f168201915b505050505060405180602001604052806000815250615c84565b15610eb6576040517f08c379a0000000000000000000000000000000000000000000000000000000008152600401610ead90618c2b565b60405180910390fd5b33600073ffffffffffffffffffffffffffffffffffffffff16600360008373ffffffffffffffffffffffffffffffffffffffff1673ffffffffffffffffffffffffffffffffffffffff16815260200190815260200160002060020160009054906101000a900473ffffffffffffffffffffffffffffffffffffffff1673ffffffffffffffffffffffffffffffffffffffff1603610f88576040517f08c379a0000000000000000000000000000000000000000000000000000000008152600401610f7f906185e7565b60405180910390fd5b8073ffffffffffffffffffffffffffffffffffffffff16600360008373ffffffffffffffffffffffffffffffffffffffff1673ffffffffffffffffffffffffffffffffffffffff16815260200190815260200160002060020160009054906101000a900473ffffffffffffffffffffffffffffffffffffffff1673ffffffffffffffffffffffffffffffffffffffff1614611058576040517f08c379a000000000000000000000000000000000000000000000000000000000815260040161104f90618679565b60405180910390fd5b6000600181111561106c5761106b617636565b5b600360008373ffffffffffffffffffffffffffffffffffffffff1673ffffffffffffffffffffffffffffffffffffffff16815260200190815260200160002060040160029054906101000a900460ff1660018111156110ce576110cd617636565b5b1461110e576040517f08c379a000000000000000000000000000000000000000000000000000000000815260040161110590618731565b60405180910390fd5b600061111861728e565b6111206172fb565b6111ed89600860003373ffffffffffffffffffffffffffffffffffffffff1673ffffffffffffffffffffffffffffffffffffffff1681526020019081526020016000208054806020026020016040519081016040528092919081815260200182805480156111e357602002820191906000526020600020905b8160009054906101000a900473ffffffffffffffffffffffffffffffffffffffff1673ffffffffffffffffffffffffffffffffffffffff1681526020019060010190808311611199575b5050505050615cdd565b80935081945050508215611637576007611207338b61604e565b6040516112149190618c87565b90815260200160405180910390206040518061014001604052908160008201805461123e90618780565b80601f016020809104026020016040519081016040528092919081815260200182805461126a90618780565b80156112b75780601f1061128c576101008083540402835291602001916112b7565b820191906000526020600020905b81548152906001019060200180831161129a57829003601f168201915b505050505081526020016001820160009054906101000a900473ffffffffffffffffffffffffffffffffffffffff1673ffffffffffffffffffffffffffffffffffffffff1673ffffffffffffffffffffffffffffffffffffffff16815260200160028201805461132690618780565b80601f016020809104026020016040519081016040528092919081815260200182805461135290618780565b801561139f5780601f106113745761010080835404028352916020019161139f565b820191906000526020600020905b81548152906001019060200180831161138257829003601f168201915b505050505081526020016003820160009054906101000a900473ffffffffffffffffffffffffffffffffffffffff1673ffffffffffffffffffffffffffffffffffffffff1673ffffffffffffffffffffffffffffffffffffffff16815260200160048201805461140e90618780565b80601f016020809104026020016040519081016040528092919081815260200182805461143a90618780565b80156114875780601f1061145c57610100808354040283529160200191611487565b820191906000526020600020905b81548152906001019060200180831161146a57829003601f168201915b505050505081526020016005820180546114a090618780565b80601f01602080910402602001604051908101604052809291908181526020018280546114cc90618780565b80156115195780601f106114ee57610100808354040283529160200191611519565b820191906000526020600020905b8154815290600101906020018083116114fc57829003601f168201915b50505050508152602001600682015481526020016007820160009054906101000a900460ff16600281111561155157611550617636565b5b600281111561156357611562617636565b5b81526020016007820160019054906101000a900460ff16600281111561158c5761158b617636565b5b600281111561159e5761159d617636565b5b81526020016008820180546115b290618780565b80601f01602080910402602001604051908101604052809291908181526020018280546115de90618780565b801561162b5780601f106116005761010080835404028352916020019161162b565b820191906000526020600020905b81548152906001019060200180831161160e57829003601f168201915b50505050508152505090505b82828297509750975050505050509193909250565b611654614a62565b61165f83838361607a565b80600660008573ffffffffffffffffffffffffffffffffffffffff1673ffffffffffffffffffffffffffffffffffffffff16815260200190815260200160002060000190816116ae919061895d565b5081600660008573ffffffffffffffffffffffffffffffffffffffff1673ffffffffffffffffffffffffffffffffffffffff16815260200190815260200160002060010190816116fe919061895d565b50505050565b33600073ffffffffffffffffffffffffffffffffffffffff16600360008373ffffffffffffffffffffffffffffffffffffffff1673ffffffffffffffffffffffffffffffffffffffff16815260200190815260200160002060020160009054906101000a900473ffffffffffffffffffffffffffffffffffffffff1673ffffffffffffffffffffffffffffffffffffffff16036117d6576040517f08c379a00000000000000000000000000000000000000000000000000000000081526004016117cd906185e7565b60405180910390fd5b8073ffffffffffffffffffffffffffffffffffffffff16600360008373ffffffffffffffffffffffffffffffffffffffff1673ffffffffffffffffffffffffffffffffffffffff16815260200190815260200160002060020160009054906101000a900473ffffffffffffffffffffffffffffffffffffffff1673ffffffffffffffffffffffffffffffffffffffff16146118a6576040517f08c379a000000000000000000000000000000000000000000000000000000000815260040161189d90618679565b60405180910390fd5b600060018111156118ba576118b9617636565b5b600360008373ffffffffffffffffffffffffffffffffffffffff1673ffffffffffffffffffffffffffffffffffffffff16815260200190815260200160002060040160029054906101000a900460ff16600181111561191c5761191b617636565b5b1461195c576040517f08c379a000000000000000000000000000000000000000000000000000000000815260040161195390618731565b60405180910390fd5b6000611968338561604e565b90506119738161622b565b6119b2576040517f08c379a00000000000000000000000000000000000000000000000000000000081526004016119a990618cea565b60405180910390fd5b6119bb84616340565b6119fa576040517f08c379a00000000000000000000000000000000000000000000000000000000081526004016119f190618d56565b60405180910390fd5b6000600782604051611a0c9190618c87565b908152602001604051809103902060070160006101000a81548160ff02191690836002811115611a3f57611a3e617636565b5b02179055506000600782604051611a569190618c87565b908152602001604051809103902060070160016101000a81548160ff02191690836002811115611a8957611a88617636565b5b021790555082600782604051611a9f9190618c87565b90815260200160405180910390206008019081611abc919061895d565b507f354cce7003647c7a26dfcea100fa1e84602bc520067f5bfef90677aa0cd4ff8681600783604051611aef9190618c87565b9081526020016040518091039020600401600784604051611b109190618c87565b9081526020016040518091039020600201604051611b3093929190618e33565b60405180910390a150505050565b611b4661739e565b81600073ffffffffffffffffffffffffffffffffffffffff16600360008373ffffffffffffffffffffffffffffffffffffffff1673ffffffffffffffffffffffffffffffffffffffff16815260200190815260200160002060020160009054906101000a900473ffffffffffffffffffffffffffffffffffffffff1673ffffffffffffffffffffffffffffffffffffffff1603611c18576040517f08c379a0000000000000000000000000000000000000000000000000000000008152600401611c0f906185e7565b60405180910390fd5b8073ffffffffffffffffffffffffffffffffffffffff16600360008373ffffffffffffffffffffffffffffffffffffffff1673ffffffffffffffffffffffffffffffffffffffff16815260200190815260200160002060020160009054906101000a900473ffffffffffffffffffffffffffffffffffffffff1673ffffffffffffffffffffffffffffffffffffffff1614611ce8576040517f08c379a0000000000000000000000000000000000000000000000000000000008152600401611cdf90618679565b60405180910390fd5b60006001811115611cfc57611cfb617636565b5b600360008373ffffffffffffffffffffffffffffffffffffffff1673ffffffffffffffffffffffffffffffffffffffff16815260200190815260200160002060040160029054906101000a900460ff166001811115611d5e57611d5d617636565b5b14611d9e576040517f08c379a0000000000000000000000000000000000000000000000000000000008152600401611d9590618731565b60405180910390fd5b611da78361653e565b915050919050565b611db761728e565b81600073ffffffffffffffffffffffffffffffffffffffff168173ffffffffffffffffffffffffffffffffffffffff1603611e27576040517f08c379a0000000000000000000000000000000000000000000000000000000008152600401611e1e90618b53565b60405180910390fd5b600073ffffffffffffffffffffffffffffffffffffffff16600160008373ffffffffffffffffffffffffffffffffffffffff1673ffffffffffffffffffffffffffffffffffffffff16815260200190815260200160002060020160029054906101000a900473ffffffffffffffffffffffffffffffffffffffff1673ffffffffffffffffffffffffffffffffffffffff1603611ef8576040517f08c379a0000000000000000000000000000000000000000000000000000000008152600401611eef90618bbf565b60405180910390fd5b611fdb600160008373ffffffffffffffffffffffffffffffffffffffff1673ffffffffffffffffffffffffffffffffffffffff1681526020019081526020016000206001018054611f4890618780565b80601f0160208091040260200160405190810160405280929190818152602001828054611f7490618780565b8015611fc15780601f10611f9657610100808354040283529160200191611fc1565b820191906000526020600020905b815481529060010190602001808311611fa457829003601f168201915b505050505060405180602001604052806000815250615c84565b1561201b576040517f08c379a000000000000000000000000000000000000000000000000000000000815260040161201290618c2b565b60405180910390fd5b6120248361686d565b915050919050565b600061203661739e565b61203e6172fb565b33600073ffffffffffffffffffffffffffffffffffffffff168173ffffffffffffffffffffffffffffffffffffffff16036120ae576040517f08c379a00000000000000000000000000000000000000000000000000000000081526004016120a590618b53565b60405180910390fd5b600073ffffffffffffffffffffffffffffffffffffffff16600160008373ffffffffffffffffffffffffffffffffffffffff1673ffffffffffffffffffffffffffffffffffffffff16815260200190815260200160002060020160029054906101000a900473ffffffffffffffffffffffffffffffffffffffff1673ffffffffffffffffffffffffffffffffffffffff160361217f576040517f08c379a000000000000000000000000000000000000000000000000000000000815260040161217690618bbf565b60405180910390fd5b612262600160008373ffffffffffffffffffffffffffffffffffffffff1673ffffffffffffffffffffffffffffffffffffffff16815260200190815260200160002060010180546121cf90618780565b80601f01602080910402602001604051908101604052809291908181526020018280546121fb90618780565b80156122485780601f1061221d57610100808354040283529160200191612248565b820191906000526020600020905b81548152906001019060200180831161222b57829003601f168201915b505050505060405180602001604052806000815250615c84565b156122a2576040517f08c379a000000000000000000000000000000000000000000000000000000000815260040161229990618c2b565b60405180910390fd5b84600073ffffffffffffffffffffffffffffffffffffffff16600360008373ffffffffffffffffffffffffffffffffffffffff1673ffffffffffffffffffffffffffffffffffffffff16815260200190815260200160002060020160009054906101000a900473ffffffffffffffffffffffffffffffffffffffff1673ffffffffffffffffffffffffffffffffffffffff1603612374576040517f08c379a000000000000000000000000000000000000000000000000000000000815260040161236b906185e7565b60405180910390fd5b8073ffffffffffffffffffffffffffffffffffffffff16600360008373ffffffffffffffffffffffffffffffffffffffff1673ffffffffffffffffffffffffffffffffffffffff16815260200190815260200160002060020160009054906101000a900473ffffffffffffffffffffffffffffffffffffffff1673ffffffffffffffffffffffffffffffffffffffff1614612444576040517f08c379a000000000000000000000000000000000000000000000000000000000815260040161243b90618679565b60405180910390fd5b6000600181111561245857612457617636565b5b600360008373ffffffffffffffffffffffffffffffffffffffff1673ffffffffffffffffffffffffffffffffffffffff16815260200190815260200160002060040160029054906101000a900460ff1660018111156124ba576124b9617636565b5b146124fa576040517f08c379a00000000000000000000000000000000000000000000000000000000081526004016124f190618731565b60405180910390fd5b600061250461739e565b61250c6172fb565b6000600960003373ffffffffffffffffffffffffffffffffffffffff1673ffffffffffffffffffffffffffffffffffffffff1681526020019081526020016000208054806020026020016040519081016040528092919081815260200182805480156125cd57602002820191906000526020600020905b8160009054906101000a900473ffffffffffffffffffffffffffffffffffffffff1673ffffffffffffffffffffffffffffffffffffffff1681526020019060010190808311612583575b5050505050905060005b8151811015612a8f578a73ffffffffffffffffffffffffffffffffffffffff1682828151811061260a57612609618e7f565b5b602002602001015173ffffffffffffffffffffffffffffffffffffffff1603612a7c576001945061263a8b61653e565b935060076126488c3361604e565b6040516126559190618c87565b90815260200160405180910390206040518061014001604052908160008201805461267f90618780565b80601f01602080910402602001604051908101604052809291908181526020018280546126ab90618780565b80156126f85780601f106126cd576101008083540402835291602001916126f8565b820191906000526020600020905b8154815290600101906020018083116126db57829003601f168201915b505050505081526020016001820160009054906101000a900473ffffffffffffffffffffffffffffffffffffffff1673ffffffffffffffffffffffffffffffffffffffff1673ffffffffffffffffffffffffffffffffffffffff16815260200160028201805461276790618780565b80601f016020809104026020016040519081016040528092919081815260200182805461279390618780565b80156127e05780601f106127b5576101008083540402835291602001916127e0565b820191906000526020600020905b8154815290600101906020018083116127c357829003601f168201915b505050505081526020016003820160009054906101000a900473ffffffffffffffffffffffffffffffffffffffff1673ffffffffffffffffffffffffffffffffffffffff1673ffffffffffffffffffffffffffffffffffffffff16815260200160048201805461284f90618780565b80601f016020809104026020016040519081016040528092919081815260200182805461287b90618780565b80156128c85780601f1061289d576101008083540402835291602001916128c8565b820191906000526020600020905b8154815290600101906020018083116128ab57829003601f168201915b505050505081526020016005820180546128e190618780565b80601f016020809104026020016040519081016040528092919081815260200182805461290d90618780565b801561295a5780601f1061292f5761010080835404028352916020019161295a565b820191906000526020600020905b81548152906001019060200180831161293d57829003601f168201915b50505050508152602001600682015481526020016007820160009054906101000a900460ff16600281111561299257612991617636565b5b60028111156129a4576129a3617636565b5b81526020016007820160019054906101000a900460ff1660028111156129cd576129cc617636565b5b60028111156129df576129de617636565b5b81526020016008820180546129f390618780565b80601f0160208091040260200160405190810160405280929190818152602001828054612a1f90618780565b8015612a6c5780601f10612a4157610100808354040283529160200191612a6c565b820191906000526020600020905b815481529060010190602001808311612a4f57829003601f168201915b5050505050815250509250612a8f565b8080612a8790618edd565b9150506125d7565b508383839850985098505050505050509193909250565b33600073ffffffffffffffffffffffffffffffffffffffff168173ffffffffffffffffffffffffffffffffffffffff1603612b16576040517f08c379a0000000000000000000000000000000000000000000000000000000008152600401612b0d90618b53565b60405180910390fd5b600073ffffffffffffffffffffffffffffffffffffffff16600160008373ffffffffffffffffffffffffffffffffffffffff1673ffffffffffffffffffffffffffffffffffffffff16815260200190815260200160002060020160029054906101000a900473ffffffffffffffffffffffffffffffffffffffff1673ffffffffffffffffffffffffffffffffffffffff1603612be7576040517f08c379a0000000000000000000000000000000000000000000000000000000008152600401612bde90618bbf565b60405180910390fd5b612cca600160008373ffffffffffffffffffffffffffffffffffffffff1673ffffffffffffffffffffffffffffffffffffffff1681526020019081526020016000206001018054612c3790618780565b80601f0160208091040260200160405190810160405280929190818152602001828054612c6390618780565b8015612cb05780601f10612c8557610100808354040283529160200191612cb0565b820191906000526020600020905b815481529060010190602001808311612c9357829003601f168201915b505050505060405180602001604052806000815250615c84565b15612d0a576040517f08c379a0000000000000000000000000000000000000000000000000000000008152600401612d0190618c2b565b60405180910390fd5b612d148383616b52565b6000600960003373ffffffffffffffffffffffffffffffffffffffff1673ffffffffffffffffffffffffffffffffffffffff168152602001908152602001600020805480602002602001604051908101604052809291908181526020018280548015612dd557602002820191906000526020600020905b8160009054906101000a900473ffffffffffffffffffffffffffffffffffffffff1673ffffffffffffffffffffffffffffffffffffffff1681526020019060010190808311612d8b575b5050505050905060005b8151811015612f36576000612e0e838381518110612e0057612dff618e7f565b5b60200260200101513361604e565b9050612e198161622b565b15612f225785600782604051612e2f9190618c87565b90815260200160405180910390206005019081612e4c919061895d565b5084600782604051612e5e9190618c87565b9081526020016040518091039020600601819055506000600782604051612e859190618c87565b908152602001604051809103902060070160006101000a81548160ff02191690836002811115612eb857612eb7617636565b5b02179055506040518060400160405280601781526020017f55706461746520616c6c206d7920646f63756d656e7473000000000000000000815250600782604051612f039190618c87565b90815260200160405180910390206008019081612f20919061895d565b505b508080612f2e90618edd565b915050612ddf565b5050505050565b6000606033600073ffffffffffffffffffffffffffffffffffffffff168173ffffffffffffffffffffffffffffffffffffffff1603612fb1576040517f08c379a0000000000000000000000000000000000000000000000000000000008152600401612fa890618b53565b60405180910390fd5b600073ffffffffffffffffffffffffffffffffffffffff16600160008373ffffffffffffffffffffffffffffffffffffffff1673ffffffffffffffffffffffffffffffffffffffff16815260200190815260200160002060020160029054906101000a900473ffffffffffffffffffffffffffffffffffffffff1673ffffffffffffffffffffffffffffffffffffffff1603613082576040517f08c379a000000000000000000000000000000000000000000000000000000000815260040161307990618bbf565b60405180910390fd5b613165600160008373ffffffffffffffffffffffffffffffffffffffff1673ffffffffffffffffffffffffffffffffffffffff16815260200190815260200160002060010180546130d290618780565b80601f01602080910402602001604051908101604052809291908181526020018280546130fe90618780565b801561314b5780601f106131205761010080835404028352916020019161314b565b820191906000526020600020905b81548152906001019060200180831161312e57829003601f168201915b505050505060405180602001604052806000815250615c84565b156131a5576040517f08c379a000000000000000000000000000000000000000000000000000000000815260040161319c90618c2b565b60405180910390fd5b6131b0846000614f05565b9250925050915091565b33600073ffffffffffffffffffffffffffffffffffffffff168173ffffffffffffffffffffffffffffffffffffffff160361322a576040517f08c379a000000000000000000000000000000000000000000000000000000000815260040161322190618b53565b60405180910390fd5b600073ffffffffffffffffffffffffffffffffffffffff16600160008373ffffffffffffffffffffffffffffffffffffffff1673ffffffffffffffffffffffffffffffffffffffff16815260200190815260200160002060020160029054906101000a900473ffffffffffffffffffffffffffffffffffffffff1673ffffffffffffffffffffffffffffffffffffffff16036132fb576040517f08c379a00000000000000000000000000000000000000000000000000000000081526004016132f290618bbf565b60405180910390fd5b6133de600160008373ffffffffffffffffffffffffffffffffffffffff1673ffffffffffffffffffffffffffffffffffffffff168152602001908152602001600020600101805461334b90618780565b80601f016020809104026020016040519081016040528092919081815260200182805461337790618780565b80156133c45780601f10613399576101008083540402835291602001916133c4565b820191906000526020600020905b8154815290600101906020018083116133a757829003601f168201915b505050505060405180602001604052806000815250615c84565b1561341e576040517f08c379a000000000000000000000000000000000000000000000000000000000815260040161341590618c2b565b60405180910390fd5b600061342a843361604e565b90506134358161622b565b613474576040517f08c379a000000000000000000000000000000000000000000000000000000000815260040161346b90618f71565b60405180910390fd5b60026007826040516134869190618c87565b908152602001604051809103902060070160016101000a81548160ff021916908360028111156134b9576134b8617636565b5b0217905550826007826040516134cf9190618c87565b908152602001604051809103902060080190816134ec919061895d565b507fa8dbf5117d5dedc3fd5ba8fe21e806ed427f7c6f59227fc077fc198f05a90fb381338660026040516135239493929190618faf565b60405180910390a150505050565b33600073ffffffffffffffffffffffffffffffffffffffff16600360008373ffffffffffffffffffffffffffffffffffffffff1673ffffffffffffffffffffffffffffffffffffffff16815260200190815260200160002060020160009054906101000a900473ffffffffffffffffffffffffffffffffffffffff1673ffffffffffffffffffffffffffffffffffffffff1603613603576040517f08c379a00000000000000000000000000000000000000000000000000000000081526004016135fa906185e7565b60405180910390fd5b8073ffffffffffffffffffffffffffffffffffffffff16600360008373ffffffffffffffffffffffffffffffffffffffff1673ffffffffffffffffffffffffffffffffffffffff16815260200190815260200160002060020160009054906101000a900473ffffffffffffffffffffffffffffffffffffffff1673ffffffffffffffffffffffffffffffffffffffff16146136d3576040517f08c379a00000000000000000000000000000000000000000000000000000000081526004016136ca90618679565b60405180910390fd5b600060018111156136e7576136e6617636565b5b600360008373ffffffffffffffffffffffffffffffffffffffff1673ffffffffffffffffffffffffffffffffffffffff16815260200190815260200160002060040160029054906101000a900460ff16600181111561374957613748617636565b5b14613789576040517f08c379a000000000000000000000000000000000000000000000000000000000815260040161378090618731565b60405180910390fd5b600061379933866060015161604e565b90506137a48161622b565b156137e4576040517f08c379a00000000000000000000000000000000000000000000000000000000081526004016137db90619047565b60405180910390fd5b604051806101400160405280828152602001866060015173ffffffffffffffffffffffffffffffffffffffff168152602001866000015181526020013373ffffffffffffffffffffffffffffffffffffffff1681526020016138453361653e565b6000015181526020018660a0015181526020018581526020016000600281111561387257613871617636565b5b81526020016000600281111561388b5761388a617636565b5b8152602001848152506007826040516138a49190618c87565b908152602001604051809103902060008201518160000190816138c7919061895d565b5060208201518160010160006101000a81548173ffffffffffffffffffffffffffffffffffffffff021916908373ffffffffffffffffffffffffffffffffffffffff1602179055506040820151816002019081613924919061895d565b5060608201518160030160006101000a81548173ffffffffffffffffffffffffffffffffffffffff021916908373ffffffffffffffffffffffffffffffffffffffff1602179055506080820151816004019081613981919061895d565b5060a0820151816005019081613997919061895d565b5060c0820151816006015560e08201518160070160006101000a81548160ff021916908360028111156139cd576139cc617636565b5b02179055506101008201518160070160016101000a81548160ff021916908360028111156139fe576139fd617636565b5b0217905550610120820151816008019081613a19919061895d565b50905050600860003373ffffffffffffffffffffffffffffffffffffffff1673ffffffffffffffffffffffffffffffffffffffff16815260200190815260200160002085606001519080600181540180825580915050600190039060005260206000200160009091909190916101000a81548173ffffffffffffffffffffffffffffffffffffffff021916908373ffffffffffffffffffffffffffffffffffffffff16021790555060096000866060015173ffffffffffffffffffffffffffffffffffffffff1673ffffffffffffffffffffffffffffffffffffffff168152602001908152602001600020339080600181540180825580915050600190039060005260206000200160009091909190916101000a81548173ffffffffffffffffffffffffffffffffffffffff021916908373ffffffffffffffffffffffffffffffffffffffff1602179055507f4124a335861f44ee2e2c6db4204fa6e9af4802ee84175abe9223185a21167d3c81600783604051613b979190618c87565b90815260200160405180910390206004018760000151604051613bbc93929190619067565b60405180910390a1613bd18560600151616340565b613dcd57613bde85616c69565b6040518060a001604052808660000151815260200186602001518152602001866060015173ffffffffffffffffffffffffffffffffffffffff168152602001600280811115613c3057613c2f617636565b5b815260200160006001811115613c4957613c48617636565b5b81525060066000876060015173ffffffffffffffffffffffffffffffffffffffff1673ffffffffffffffffffffffffffffffffffffffff1681526020019081526020016000206000820151816000019081613ca4919061895d565b506020820151816001019081613cba919061895d565b5060408201518160020160006101000a81548173ffffffffffffffffffffffffffffffffffffffff021916908373ffffffffffffffffffffffffffffffffffffffff16021790555060608201518160020160146101000a81548160ff02191690836002811115613d2d57613d2c617636565b5b021790555060808201518160020160156101000a81548160ff02191690836001811115613d5d57613d5c617636565b5b0217905550905050600585606001519080600181540180825580915050600190039060005260206000200160009091909190916101000a81548173ffffffffffffffffffffffffffffffffffffffff021916908373ffffffffffffffffffffffffffffffffffffffff1602179055505b5050505050565b33600073ffffffffffffffffffffffffffffffffffffffff168173ffffffffffffffffffffffffffffffffffffffff1603613e44576040517f08c379a0000000000000000000000000000000000000000000000000000000008152600401613e3b90618b53565b60405180910390fd5b600073ffffffffffffffffffffffffffffffffffffffff16600160008373ffffffffffffffffffffffffffffffffffffffff1673ffffffffffffffffffffffffffffffffffffffff16815260200190815260200160002060020160029054906101000a900473ffffffffffffffffffffffffffffffffffffffff1673ffffffffffffffffffffffffffffffffffffffff1603613f15576040517f08c379a0000000000000000000000000000000000000000000000000000000008152600401613f0c90618bbf565b60405180910390fd5b613ff8600160008373ffffffffffffffffffffffffffffffffffffffff1673ffffffffffffffffffffffffffffffffffffffff1681526020019081526020016000206001018054613f6590618780565b80601f0160208091040260200160405190810160405280929190818152602001828054613f9190618780565b8015613fde5780601f10613fb357610100808354040283529160200191613fde565b820191906000526020600020905b815481529060010190602001808311613fc157829003601f168201915b505050505060405180602001604052806000815250615c84565b15614038576040517f08c379a000000000000000000000000000000000000000000000000000000000815260040161402f90618c2b565b60405180910390fd5b83600073ffffffffffffffffffffffffffffffffffffffff16600360008373ffffffffffffffffffffffffffffffffffffffff1673ffffffffffffffffffffffffffffffffffffffff16815260200190815260200160002060020160009054906101000a900473ffffffffffffffffffffffffffffffffffffffff1673ffffffffffffffffffffffffffffffffffffffff160361410a576040517f08c379a0000000000000000000000000000000000000000000000000000000008152600401614101906185e7565b60405180910390fd5b8073ffffffffffffffffffffffffffffffffffffffff16600360008373ffffffffffffffffffffffffffffffffffffffff1673ffffffffffffffffffffffffffffffffffffffff16815260200190815260200160002060020160009054906101000a900473ffffffffffffffffffffffffffffffffffffffff1673ffffffffffffffffffffffffffffffffffffffff16146141da576040517f08c379a00000000000000000000000000000000000000000000000000000000081526004016141d190618679565b60405180910390fd5b600060018111156141ee576141ed617636565b5b600360008373ffffffffffffffffffffffffffffffffffffffff1673ffffffffffffffffffffffffffffffffffffffff16815260200190815260200160002060040160029054906101000a900460ff1660018111156142505761424f617636565b5b14614290576040517f08c379a000000000000000000000000000000000000000000000000000000000815260040161428790618731565b60405180910390fd5b600061429c863361604e565b90506142a78161622b565b6142e6576040517f08c379a00000000000000000000000000000000000000000000000000000000081526004016142dd906190ff565b60405180910390fd5b600085156142f757600190506142fc565b600290505b8060078360405161430d9190618c87565b908152602001604051809103902060070160016101000a81548160ff021916908360028111156143405761433f617636565b5b0217905550846007836040516143569190618c87565b90815260200160405180910390206008019081614373919061895d565b507fa8dbf5117d5dedc3fd5ba8fe21e806ed427f7c6f59227fc077fc198f05a90fb3823389846040516143a99493929190618faf565b60405180910390a150505050505050565b33600073ffffffffffffffffffffffffffffffffffffffff168173ffffffffffffffffffffffffffffffffffffffff160361442a576040517f08c379a000000000000000000000000000000000000000000000000000000000815260040161442190618b53565b60405180910390fd5b600073ffffffffffffffffffffffffffffffffffffffff16600160008373ffffffffffffffffffffffffffffffffffffffff1673ffffffffffffffffffffffffffffffffffffffff16815260200190815260200160002060020160029054906101000a900473ffffffffffffffffffffffffffffffffffffffff1673ffffffffffffffffffffffffffffffffffffffff16036144fb576040517f08c379a00000000000000000000000000000000000000000000000000000000081526004016144f290618bbf565b60405180910390fd5b6145de600160008373ffffffffffffffffffffffffffffffffffffffff1673ffffffffffffffffffffffffffffffffffffffff168152602001908152602001600020600101805461454b90618780565b80601f016020809104026020016040519081016040528092919081815260200182805461457790618780565b80156145c45780601f10614599576101008083540402835291602001916145c4565b820191906000526020600020905b8154815290600101906020018083116145a757829003601f168201915b505050505060405180602001604052806000815250615c84565b1561461e576040517f08c379a000000000000000000000000000000000000000000000000000000000815260040161461590618c2b565b60405180910390fd5b614629848484616e5e565b83600660003373ffffffffffffffffffffffffffffffffffffffff1673ffffffffffffffffffffffffffffffffffffffff1681526020019081526020016000206000019081614678919061895d565b5082600660003373ffffffffffffffffffffffffffffffffffffffff1673ffffffffffffffffffffffffffffffffffffffff16815260200190815260200160002060010190816146c8919061895d565b5050505050565b33600073ffffffffffffffffffffffffffffffffffffffff16600360008373ffffffffffffffffffffffffffffffffffffffff1673ffffffffffffffffffffffffffffffffffffffff16815260200190815260200160002060020160009054906101000a900473ffffffffffffffffffffffffffffffffffffffff1673ffffffffffffffffffffffffffffffffffffffff16036147a1576040517f08c379a0000000000000000000000000000000000000000000000000000000008152600401614798906185e7565b60405180910390fd5b8073ffffffffffffffffffffffffffffffffffffffff16600360008373ffffffffffffffffffffffffffffffffffffffff1673ffffffffffffffffffffffffffffffffffffffff16815260200190815260200160002060020160009054906101000a900473ffffffffffffffffffffffffffffffffffffffff1673ffffffffffffffffffffffffffffffffffffffff1614614871576040517f08c379a000000000000000000000000000000000000000000000000000000000815260040161486890618679565b60405180910390fd5b6000600181111561488557614884617636565b5b600360008373ffffffffffffffffffffffffffffffffffffffff1673ffffffffffffffffffffffffffffffffffffffff16815260200190815260200160002060040160029054906101000a900460ff1660018111156148e7576148e6617636565b5b14614927576040517f08c379a000000000000000000000000000000000000000000000000000000000815260040161491e90618731565b60405180910390fd5b6000614933338661604e565b905061493e8161622b565b61497d576040517f08c379a00000000000000000000000000000000000000000000000000000000081526004016149749061916b565b60405180910390fd5b600084156149a0576001905061499233616f9b565b61499b86617088565b6149a5565b600290505b806007836040516149b69190618c87565b908152602001604051809103902060070160006101000a81548160ff021916908360028111156149e9576149e8617636565b5b0217905550836007836040516149ff9190618c87565b90815260200160405180910390206008019081614a1c919061895d565b507fd80f00259edeef8f2a1f23c33ab3a8e57577db0527ed9f04dd9a61e8917d293782873384604051614a52949392919061919a565b60405180910390a1505050505050565b600460009054906101000a900473ffffffffffffffffffffffffffffffffffffffff1673ffffffffffffffffffffffffffffffffffffffff163373ffffffffffffffffffffffffffffffffffffffff1614614af2576040517f08c379a0000000000000000000000000000000000000000000000000000000008152600401614ae990619232565b60405180910390fd5b565b60008073ffffffffffffffffffffffffffffffffffffffff16600360008573ffffffffffffffffffffffffffffffffffffffff1673ffffffffffffffffffffffffffffffffffffffff16815260200190815260200160002060020160009054906101000a900473ffffffffffffffffffffffffffffffffffffffff1673ffffffffffffffffffffffffffffffffffffffff1603614bc6576040517f08c379a0000000000000000000000000000000000000000000000000000000008152600401614bbd906192c4565b60405180910390fd5b818015614c455750600180811115614be157614be0617636565b5b600360008573ffffffffffffffffffffffffffffffffffffffff1673ffffffffffffffffffffffffffffffffffffffff16815260200190815260200160002060040160029054906101000a900460ff166001811115614c4357614c42617636565b5b145b15614d38576000600360008573ffffffffffffffffffffffffffffffffffffffff1673ffffffffffffffffffffffffffffffffffffffff16815260200190815260200160002060040160026101000a81548160ff02191690836001811115614cb057614caf617636565b5b02179055507feb08358b4ed3424dcaa050650ea22c135e76b9a05ec0766bd3c0d664bc2c169783600360008673ffffffffffffffffffffffffffffffffffffffff1673ffffffffffffffffffffffffffffffffffffffff168152602001908152602001600020600001604051614d279291906192e4565b60405180910390a160009050614eff565b81158015614db9575060006001811115614d5557614d54617636565b5b600360008573ffffffffffffffffffffffffffffffffffffffff1673ffffffffffffffffffffffffffffffffffffffff16815260200190815260200160002060040160029054906101000a900460ff166001811115614db757614db6617636565b5b145b15614eac576001600360008573ffffffffffffffffffffffffffffffffffffffff1673ffffffffffffffffffffffffffffffffffffffff16815260200190815260200160002060040160026101000a81548160ff02191690836001811115614e2457614e23617636565b5b02179055507fafdccd44091dde1f075ad1dc885589e840a8f844772be0e4ee0d2794e266122b83600360008673ffffffffffffffffffffffffffffffffffffffff1673ffffffffffffffffffffffffffffffffffffffff168152602001908152602001600020600001604051614e9b9291906192e4565b60405180910390a160019050614eff565b600360008473ffffffffffffffffffffffffffffffffffffffff1673ffffffffffffffffffffffffffffffffffffffff16815260200190815260200160002060040160029054906101000a900460ff1690505b92915050565b6000606060008411614f4c576040517f08c379a0000000000000000000000000000000000000000000000000000000008152600401614f4390619360565b60405180910390fd5b6000806000806150698888614f9f57600960003373ffffffffffffffffffffffffffffffffffffffff1673ffffffffffffffffffffffffffffffffffffffff168152602001908152602001600020614fdf565b600860003373ffffffffffffffffffffffffffffffffffffffff1673ffffffffffffffffffffffffffffffffffffffff1681526020019081526020016000205b80548060200260200160405190810160405280929190818152602001828054801561505f57602002820191906000526020600020905b8160009054906101000a900473ffffffffffffffffffffffffffffffffffffffff1673ffffffffffffffffffffffffffffffffffffffff1681526020019060010190808311615015575b505050505061717b565b935093509350935060008367ffffffffffffffff81111561508d5761508c6178b6565b5b6040519080825280602002602001820160405280156150c657816020015b6150b36172fb565b8152602001906001900390816150ab5790505b50905060008390505b828110156156695788615183576007615163600960003373ffffffffffffffffffffffffffffffffffffffff1673ffffffffffffffffffffffffffffffffffffffff168152602001908152602001600020838154811061513257615131618e7f565b5b9060005260206000200160009054906101000a900473ffffffffffffffffffffffffffffffffffffffff163361604e565b6040516151709190618c87565b9081526020016040518091039020615226565b600761520a33600860003373ffffffffffffffffffffffffffffffffffffffff1673ffffffffffffffffffffffffffffffffffffffff16815260200190815260200160002084815481106151da576151d9618e7f565b5b9060005260206000200160009054906101000a900473ffffffffffffffffffffffffffffffffffffffff1661604e565b6040516152179190618c87565b90815260200160405180910390205b6040518061014001604052908160008201805461524290618780565b80601f016020809104026020016040519081016040528092919081815260200182805461526e90618780565b80156152bb5780601f10615290576101008083540402835291602001916152bb565b820191906000526020600020905b81548152906001019060200180831161529e57829003601f168201915b505050505081526020016001820160009054906101000a900473ffffffffffffffffffffffffffffffffffffffff1673ffffffffffffffffffffffffffffffffffffffff1673ffffffffffffffffffffffffffffffffffffffff16815260200160028201805461532a90618780565b80601f016020809104026020016040519081016040528092919081815260200182805461535690618780565b80156153a35780601f10615378576101008083540402835291602001916153a3565b820191906000526020600020905b81548152906001019060200180831161538657829003601f168201915b505050505081526020016003820160009054906101000a900473ffffffffffffffffffffffffffffffffffffffff1673ffffffffffffffffffffffffffffffffffffffff1673ffffffffffffffffffffffffffffffffffffffff16815260200160048201805461541290618780565b80601f016020809104026020016040519081016040528092919081815260200182805461543e90618780565b801561548b5780601f106154605761010080835404028352916020019161548b565b820191906000526020600020905b81548152906001019060200180831161546e57829003601f168201915b505050505081526020016005820180546154a490618780565b80601f01602080910402602001604051908101604052809291908181526020018280546154d090618780565b801561551d5780601f106154f25761010080835404028352916020019161551d565b820191906000526020600020905b81548152906001019060200180831161550057829003601f168201915b50505050508152602001600682015481526020016007820160009054906101000a900460ff16600281111561555557615554617636565b5b600281111561556757615566617636565b5b81526020016007820160019054906101000a900460ff1660028111156155905761558f617636565b5b60028111156155a2576155a1617636565b5b81526020016008820180546155b690618780565b80601f01602080910402602001604051908101604052809291908181526020018280546155e290618780565b801561562f5780601f106156045761010080835404028352916020019161562f565b820191906000526020600020905b81548152906001019060200180831161561257829003601f168201915b50505050508152505082828151811061564b5761564a618e7f565b5b6020026020010181905250808061566190618edd565b9150506150cf565b5084819650965050505050509250929050565b600073ffffffffffffffffffffffffffffffffffffffff1660036000836040015173ffffffffffffffffffffffffffffffffffffffff1673ffffffffffffffffffffffffffffffffffffffff16815260200190815260200160002060020160009054906101000a900473ffffffffffffffffffffffffffffffffffffffff1673ffffffffffffffffffffffffffffffffffffffff1614615751576040517f08c379a0000000000000000000000000000000000000000000000000000000008152600401615748906193f2565b60405180910390fd5b600281604001519080600181540180825580915050600190039060005260206000200160009091909190916101000a81548173ffffffffffffffffffffffffffffffffffffffff021916908373ffffffffffffffffffffffffffffffffffffffff1602179055507f525fd5edcf782f6d6185cd349b4698e6d22dbd3c2a35aa6b58d07c68dac77e1881604001518260000151836020015184606001516040516157fd9493929190619412565b60405180910390a150565b600060606000831161584f576040517f08c379a000000000000000000000000000000000000000000000000000000000815260040161584690619360565b60405180910390fd5b6000806000806158e58760028054806020026020016040519081016040528092919081815260200182805480156158db57602002820191906000526020600020905b8160009054906101000a900473ffffffffffffffffffffffffffffffffffffffff1673ffffffffffffffffffffffffffffffffffffffff1681526020019060010190808311615891575b505050505061717b565b935093509350935060008367ffffffffffffffff811115615909576159086178b6565b5b60405190808252806020026020018201604052801561594257816020015b61592f61739e565b8152602001906001900390816159275790505b50905060008390505b82811015615c7357600360006002838154811061596b5761596a618e7f565b5b9060005260206000200160009054906101000a900473ffffffffffffffffffffffffffffffffffffffff1673ffffffffffffffffffffffffffffffffffffffff1673ffffffffffffffffffffffffffffffffffffffff1681526020019081526020016000206040518060c00160405290816000820180546159eb90618780565b80601f0160208091040260200160405190810160405280929190818152602001828054615a1790618780565b8015615a645780601f10615a3957610100808354040283529160200191615a64565b820191906000526020600020905b815481529060010190602001808311615a4757829003601f168201915b50505050508152602001600182018054615a7d90618780565b80601f0160208091040260200160405190810160405280929190818152602001828054615aa990618780565b8015615af65780601f10615acb57610100808354040283529160200191615af6565b820191906000526020600020905b815481529060010190602001808311615ad957829003601f168201915b505050505081526020016002820160009054906101000a900473ffffffffffffffffffffffffffffffffffffffff1673ffffffffffffffffffffffffffffffffffffffff1673ffffffffffffffffffffffffffffffffffffffff168152602001600382018054615b6590618780565b80601f0160208091040260200160405190810160405280929190818152602001828054615b9190618780565b8015615bde5780601f10615bb357610100808354040283529160200191615bde565b820191906000526020600020905b815481529060010190602001808311615bc157829003601f168201915b505050505081526020016004820160009054906101000a900461ffff1661ffff1661ffff1681526020016004820160029054906101000a900460ff166001811115615c2c57615c2b617636565b5b6001811115615c3e57615c3d617636565b5b81525050828281518110615c5557615c54618e7f565b5b60200260200101819052508080615c6b90618edd565b91505061594b565b508481965096505050505050915091565b600081604051602001615c979190618c87565b6040516020818303038152906040528051906020012083604051602001615cbe9190618c87565b6040516020818303038152906040528051906020012014905092915050565b6000615ce761728e565b6000615cf161728e565b60005b855181101561603e578673ffffffffffffffffffffffffffffffffffffffff16868281518110615d2757615d26618e7f565b5b602002602001015173ffffffffffffffffffffffffffffffffffffffff160361602b5760019250600160008873ffffffffffffffffffffffffffffffffffffffff1673ffffffffffffffffffffffffffffffffffffffff1681526020019081526020016000206040518060e0016040529081600082018054615da890618780565b80601f0160208091040260200160405190810160405280929190818152602001828054615dd490618780565b8015615e215780601f10615df657610100808354040283529160200191615e21565b820191906000526020600020905b815481529060010190602001808311615e0457829003601f168201915b50505050508152602001600182018054615e3a90618780565b80601f0160208091040260200160405190810160405280929190818152602001828054615e6690618780565b8015615eb35780601f10615e8857610100808354040283529160200191615eb3565b820191906000526020600020905b815481529060010190602001808311615e9657829003601f168201915b505050505081526020016002820160009054906101000a900461ffff1661ffff1661ffff1681526020016002820160029054906101000a900473ffffffffffffffffffffffffffffffffffffffff1673ffffffffffffffffffffffffffffffffffffffff1673ffffffffffffffffffffffffffffffffffffffff1681526020016003820160009054906101000a900473ffffffffffffffffffffffffffffffffffffffff1673ffffffffffffffffffffffffffffffffffffffff1673ffffffffffffffffffffffffffffffffffffffff168152602001600482018054615f9890618780565b80601f0160208091040260200160405190810160405280929190818152602001828054615fc490618780565b80156160115780601f10615fe657610100808354040283529160200191616011565b820191906000526020600020905b815481529060010190602001808311615ff457829003601f168201915b50505050508152602001600582015481525050915061603e565b808061603690618edd565b915050615cf4565b5081819350935050509250929050565b606082826040516020016160639291906194b4565b604051602081830303815290604052905092915050565b600073ffffffffffffffffffffffffffffffffffffffff16600360008573ffffffffffffffffffffffffffffffffffffffff1673ffffffffffffffffffffffffffffffffffffffff16815260200190815260200160002060020160009054906101000a900473ffffffffffffffffffffffffffffffffffffffff1673ffffffffffffffffffffffffffffffffffffffff160361614b576040517f08c379a0000000000000000000000000000000000000000000000000000000008152600401616142906192c4565b60405180910390fd5b80600360008573ffffffffffffffffffffffffffffffffffffffff1673ffffffffffffffffffffffffffffffffffffffff168152602001908152602001600020600001908161619a919061895d565b5081600360008573ffffffffffffffffffffffffffffffffffffffff1673ffffffffffffffffffffffffffffffffffffffff16815260200190815260200160002060010190816161ea919061895d565b507fb4cb25b08e4b645535d427082bc0cd9007bc58e01c068f627b44bd0ec489f39f83828460405161621e939291906194e0565b60405180910390a1505050565b60006162468260405180602001604052806000815250615c84565b15616286576040517f08c379a000000000000000000000000000000000000000000000000000000000815260040161627d90619571565b60405180910390fd5b6163396007836040516162999190618c87565b908152602001604051809103902060000180546162b590618780565b80601f01602080910402602001604051908101604052809291908181526020018280546162e190618780565b801561632e5780601f106163035761010080835404028352916020019161632e565b820191906000526020600020905b81548152906001019060200180831161631157829003601f168201915b505050505083615c84565b9050919050565b60008073ffffffffffffffffffffffffffffffffffffffff168273ffffffffffffffffffffffffffffffffffffffff16036163b0576040517f08c379a00000000000000000000000000000000000000000000000000000000081526004016163a7906195dd565b60405180910390fd5b600073ffffffffffffffffffffffffffffffffffffffff16600160008473ffffffffffffffffffffffffffffffffffffffff1673ffffffffffffffffffffffffffffffffffffffff16815260200190815260200160002060020160029054906101000a900473ffffffffffffffffffffffffffffffffffffffff1673ffffffffffffffffffffffffffffffffffffffff161415801561652f575061652d600160008473ffffffffffffffffffffffffffffffffffffffff1673ffffffffffffffffffffffffffffffffffffffff168152602001908152602001600020600101805461649a90618780565b80601f01602080910402602001604051908101604052809291908181526020018280546164c690618780565b80156165135780601f106164e857610100808354040283529160200191616513565b820191906000526020600020905b8154815290600101906020018083116164f657829003601f168201915b505050505060405180602001604052806000815250615c84565b155b1561653957600190505b919050565b61654661739e565b600073ffffffffffffffffffffffffffffffffffffffff168273ffffffffffffffffffffffffffffffffffffffff16036165b5576040517f08c379a00000000000000000000000000000000000000000000000000000000081526004016165ac90618b53565b60405180910390fd5b600360008373ffffffffffffffffffffffffffffffffffffffff1673ffffffffffffffffffffffffffffffffffffffff1681526020019081526020016000206040518060c001604052908160008201805461660f90618780565b80601f016020809104026020016040519081016040528092919081815260200182805461663b90618780565b80156166885780601f1061665d57610100808354040283529160200191616688565b820191906000526020600020905b81548152906001019060200180831161666b57829003601f168201915b505050505081526020016001820180546166a190618780565b80601f01602080910402602001604051908101604052809291908181526020018280546166cd90618780565b801561671a5780601f106166ef5761010080835404028352916020019161671a565b820191906000526020600020905b8154815290600101906020018083116166fd57829003601f168201915b505050505081526020016002820160009054906101000a900473ffffffffffffffffffffffffffffffffffffffff1673ffffffffffffffffffffffffffffffffffffffff1673ffffffffffffffffffffffffffffffffffffffff16815260200160038201805461678990618780565b80601f01602080910402602001604051908101604052809291908181526020018280546167b590618780565b80156168025780601f106167d757610100808354040283529160200191616802565b820191906000526020600020905b8154815290600101906020018083116167e557829003601f168201915b505050505081526020016004820160009054906101000a900461ffff1661ffff1661ffff1681526020016004820160029054906101000a900460ff1660018111156168505761684f617636565b5b600181111561686257616861617636565b5b815250509050919050565b61687561728e565b600160008373ffffffffffffffffffffffffffffffffffffffff1673ffffffffffffffffffffffffffffffffffffffff1681526020019081526020016000206040518060e00160405290816000820180546168cf90618780565b80601f01602080910402602001604051908101604052809291908181526020018280546168fb90618780565b80156169485780601f1061691d57610100808354040283529160200191616948565b820191906000526020600020905b81548152906001019060200180831161692b57829003601f168201915b5050505050815260200160018201805461696190618780565b80601f016020809104026020016040519081016040528092919081815260200182805461698d90618780565b80156169da5780601f106169af576101008083540402835291602001916169da565b820191906000526020600020905b8154815290600101906020018083116169bd57829003601f168201915b505050505081526020016002820160009054906101000a900461ffff1661ffff1661ffff1681526020016002820160029054906101000a900473ffffffffffffffffffffffffffffffffffffffff1673ffffffffffffffffffffffffffffffffffffffff1673ffffffffffffffffffffffffffffffffffffffff1681526020016003820160009054906101000a900473ffffffffffffffffffffffffffffffffffffffff1673ffffffffffffffffffffffffffffffffffffffff1673ffffffffffffffffffffffffffffffffffffffff168152602001600482018054616abf90618780565b80601f0160208091040260200160405190810160405280929190818152602001828054616aeb90618780565b8015616b385780601f10616b0d57610100808354040283529160200191616b38565b820191906000526020600020905b815481529060010190602001808311616b1b57829003601f168201915b505050505081526020016005820154815250509050919050565b81600160003373ffffffffffffffffffffffffffffffffffffffff1673ffffffffffffffffffffffffffffffffffffffff1681526020019081526020016000206004019081616ba1919061895d565b5080600160003373ffffffffffffffffffffffffffffffffffffffff1673ffffffffffffffffffffffffffffffffffffffff168152602001908152602001600020600501819055507fd19d4ad3ae69ce55a7b2abedbf945c905fb06fd10e10fd91cf7e206a45e7367333600160003373ffffffffffffffffffffffffffffffffffffffff1673ffffffffffffffffffffffffffffffffffffffff16815260200190815260200160002060000184604051616c5d939291906195fd565b60405180910390a15050565b8060016000836060015173ffffffffffffffffffffffffffffffffffffffff1673ffffffffffffffffffffffffffffffffffffffff1681526020019081526020016000206000820151816000019081616cc2919061895d565b506020820151816001019081616cd8919061895d565b5060408201518160020160006101000a81548161ffff021916908361ffff16021790555060608201518160020160026101000a81548173ffffffffffffffffffffffffffffffffffffffff021916908373ffffffffffffffffffffffffffffffffffffffff16021790555060808201518160030160006101000a81548173ffffffffffffffffffffffffffffffffffffffff021916908373ffffffffffffffffffffffffffffffffffffffff16021790555060a0820151816004019081616d9f919061895d565b5060c08201518160050155905050600081606001519080600181540180825580915050600190039060005260206000200160009091909190916101000a81548173ffffffffffffffffffffffffffffffffffffffff021916908373ffffffffffffffffffffffffffffffffffffffff1602179055507ffc753eff51ef9bc95cc7789cefef07d6f2b86de04834071141298e2cc3e5360f816060015182600001518360200151604051616e53939291906194e0565b60405180910390a150565b82600160003373ffffffffffffffffffffffffffffffffffffffff1673ffffffffffffffffffffffffffffffffffffffff1681526020019081526020016000206000019081616ead919061895d565b5081600160003373ffffffffffffffffffffffffffffffffffffffff1673ffffffffffffffffffffffffffffffffffffffff1681526020019081526020016000206001019081616efd919061895d565b5080600160003373ffffffffffffffffffffffffffffffffffffffff1673ffffffffffffffffffffffffffffffffffffffff16815260200190815260200160002060020160006101000a81548161ffff021916908361ffff1602179055507f6187a440bf69704d8832c067e5749fd4293c4398454c804cb395c24189a7dd82338484604051616f8e939291906194e0565b60405180910390a1505050565b600073ffffffffffffffffffffffffffffffffffffffff168173ffffffffffffffffffffffffffffffffffffffff160361700a576040517f08c379a0000000000000000000000000000000000000000000000000000000008152600401617001906196b4565b60405180910390fd5b600360008273ffffffffffffffffffffffffffffffffffffffff1673ffffffffffffffffffffffffffffffffffffffff168152602001908152602001600020600401600081819054906101000a900461ffff168092919061706a906196d4565b91906101000a81548161ffff021916908361ffff1602179055505050565b600073ffffffffffffffffffffffffffffffffffffffff168173ffffffffffffffffffffffffffffffffffffffff16036170f7576040517f08c379a00000000000000000000000000000000000000000000000000000000081526004016170ee9061974a565b60405180910390fd5b33600160008373ffffffffffffffffffffffffffffffffffffffff1673ffffffffffffffffffffffffffffffffffffffff16815260200190815260200160002060030160006101000a81548173ffffffffffffffffffffffffffffffffffffffff021916908373ffffffffffffffffffffffffffffffffffffffff16021790555050565b6000806000806000601486516171919190619799565b9050601486516171a191906197ca565b945060008111156171bb5784806171b790618edd565b9550505b601493506001876171cc91906197fb565b60146171d8919061982f565b92508660146171e7919061982f565b9150848711156171fe57600093506000915061721b565b848714801561720d5750600081115b1561721a57809350855191505b5b5092959194509250565b6040518060a001604052806060815260200160608152602001600073ffffffffffffffffffffffffffffffffffffffff1681526020016000600281111561726f5761726e617636565b5b81526020016000600181111561728857617287617636565b5b81525090565b6040518060e001604052806060815260200160608152602001600061ffff168152602001600073ffffffffffffffffffffffffffffffffffffffff168152602001600073ffffffffffffffffffffffffffffffffffffffff16815260200160608152602001600081525090565b60405180610140016040528060608152602001600073ffffffffffffffffffffffffffffffffffffffff16815260200160608152602001600073ffffffffffffffffffffffffffffffffffffffff1681526020016060815260200160608152602001600081526020016000600281111561737857617377617636565b5b81526020016000600281111561739157617390617636565b5b8152602001606081525090565b6040518060c001604052806060815260200160608152602001600073ffffffffffffffffffffffffffffffffffffffff16815260200160608152602001600061ffff168152602001600060018111156173fa576173f9617636565b5b81525090565b6000604051905090565b600080fd5b600080fd5b600073ffffffffffffffffffffffffffffffffffffffff82169050919050565b600061743f82617414565b9050919050565b61744f81617434565b811461745a57600080fd5b50565b60008135905061746c81617446565b92915050565b60008115159050919050565b61748781617472565b811461749257600080fd5b50565b6000813590506174a48161747e565b92915050565b600080604083850312156174c1576174c061740a565b5b60006174cf8582860161745d565b92505060206174e085828601617495565b9150509250929050565b6000819050919050565b6174fd816174ea565b811461750857600080fd5b50565b60008135905061751a816174f4565b92915050565b6000602082840312156175365761753561740a565b5b60006175448482850161750b565b91505092915050565b617556816174ea565b82525050565b600081519050919050565b600082825260208201905092915050565b6000819050602082019050919050565b600081519050919050565b600082825260208201905092915050565b60005b838110156175c25780820151818401526020810190506175a7565b60008484015250505050565b6000601f19601f8301169050919050565b60006175ea82617588565b6175f48185617593565b93506176048185602086016175a4565b61760d816175ce565b840191505092915050565b61762181617434565b82525050565b617630816174ea565b82525050565b7f4e487b7100000000000000000000000000000000000000000000000000000000600052602160045260246000fd5b6003811061767657617675617636565b5b50565b600081905061768782617665565b919050565b600061769782617679565b9050919050565b6176a78161768c565b82525050565b600381106176be576176bd617636565b5b50565b60008190506176cf826176ad565b919050565b60006176df826176c1565b9050919050565b6176ef816176d4565b82525050565b600061014083016000830151848203600086015261771382826175df565b91505060208301516177286020860182617618565b506040830151848203604086015261774082826175df565b91505060608301516177556060860182617618565b506080830151848203608086015261776d82826175df565b91505060a083015184820360a086015261778782826175df565b91505060c083015161779c60c0860182617627565b5060e08301516177af60e086018261769e565b506101008301516177c46101008601826176e6565b506101208301518482036101208601526177de82826175df565b9150508091505092915050565b60006177f783836176f5565b905092915050565b6000602082019050919050565b60006178178261755c565b6178218185617567565b93508360208202850161783385617578565b8060005b8581101561786f578484038952815161785085826177eb565b945061785b836177ff565b925060208a01995050600181019050617837565b50829750879550505050505092915050565b6000604082019050617896600083018561754d565b81810360208301526178a8818461780c565b90509392505050565b600080fd5b7f4e487b7100000000000000000000000000000000000000000000000000000000600052604160045260246000fd5b6178ee826175ce565b810181811067ffffffffffffffff8211171561790d5761790c6178b6565b5b80604052505050565b6000617920617400565b905061792c82826178e5565b919050565b600080fd5b600080fd5b600080fd5b600067ffffffffffffffff82111561795b5761795a6178b6565b5b617964826175ce565b9050602081019050919050565b82818337600083830152505050565b600061799361798e84617940565b617916565b9050828152602081018484840111156179af576179ae61793b565b5b6179ba848285617971565b509392505050565b600082601f8301126179d7576179d6617936565b5b81356179e7848260208601617980565b91505092915050565b600061ffff82169050919050565b617a07816179f0565b8114617a1257600080fd5b50565b600081359050617a24816179fe565b92915050565b60028110617a3757600080fd5b50565b600081359050617a4981617a2a565b92915050565b600060c08284031215617a6557617a646178b1565b5b617a6f60c0617916565b9050600082013567ffffffffffffffff811115617a8f57617a8e617931565b5b617a9b848285016179c2565b600083015250602082013567ffffffffffffffff811115617abf57617abe617931565b5b617acb848285016179c2565b6020830152506040617adf8482850161745d565b604083015250606082013567ffffffffffffffff811115617b0357617b02617931565b5b617b0f848285016179c2565b6060830152506080617b2384828501617a15565b60808301525060a0617b3784828501617a3a565b60a08301525092915050565b600060208284031215617b5957617b5861740a565b5b600082013567ffffffffffffffff811115617b7757617b7661740f565b5b617b8384828501617a4f565b91505092915050565b600081519050919050565b600082825260208201905092915050565b6000819050602082019050919050565b617bc1816179f0565b82525050565b60028110617bd857617bd7617636565b5b50565b6000819050617be982617bc7565b919050565b6000617bf982617bdb565b9050919050565b617c0981617bee565b82525050565b600060c0830160008301518482036000860152617c2c82826175df565b91505060208301518482036020860152617c4682826175df565b9150506040830151617c5b6040860182617618565b5060608301518482036060860152617c7382826175df565b9150506080830151617c886080860182617bb8565b5060a0830151617c9b60a0860182617c00565b508091505092915050565b6000617cb28383617c0f565b905092915050565b6000602082019050919050565b6000617cd282617b8c565b617cdc8185617b97565b935083602082028501617cee85617ba8565b8060005b85811015617d2a5784840389528151617d0b8582617ca6565b9450617d1683617cba565b925060208a01995050600181019050617cf2565b50829750879550505050505092915050565b6000604082019050617d51600083018561754d565b8181036020830152617d638184617cc7565b90509392505050565b60038110617d7d57617d7c617636565b5b50565b6000819050617d8e82617d6c565b919050565b6000617d9e82617d80565b9050919050565b617dae81617d93565b82525050565b600060a0830160008301518482036000860152617dd182826175df565b91505060208301518482036020860152617deb82826175df565b9150506040830151617e006040860182617618565b506060830151617e136060860182617da5565b506080830151617e266080860182617c00565b508091505092915050565b60006020820190508181036000830152617e4b8184617db4565b905092915050565b600060208284031215617e6957617e6861740a565b5b6000617e778482850161745d565b91505092915050565b617e8981617472565b82525050565b600060e0830160008301518482036000860152617eac82826175df565b91505060208301518482036020860152617ec682826175df565b9150506040830151617edb6040860182617bb8565b506060830151617eee6060860182617618565b506080830151617f016080860182617618565b5060a083015184820360a0860152617f1982826175df565b91505060c0830151617f2e60c0860182617627565b508091505092915050565b6000610140830160008301518482036000860152617f5782826175df565b9150506020830151617f6c6020860182617618565b5060408301518482036040860152617f8482826175df565b9150506060830151617f996060860182617618565b5060808301518482036080860152617fb182826175df565b91505060a083015184820360a0860152617fcb82826175df565b91505060c0830151617fe060c0860182617627565b5060e0830151617ff360e086018261769e565b506101008301516180086101008601826176e6565b5061012083015184820361012086015261802282826175df565b9150508091505092915050565b60006060820190506180446000830186617e80565b81810360208301526180568185617e8f565b9050818103604083015261806a8184617f39565b9050949350505050565b60008060006060848603121561808d5761808c61740a565b5b600061809b8682870161745d565b935050602084013567ffffffffffffffff8111156180bc576180bb61740f565b5b6180c8868287016179c2565b925050604084013567ffffffffffffffff8111156180e9576180e861740f565b5b6180f5868287016179c2565b9150509250925092565b600080604083850312156181165761811561740a565b5b60006181248582860161745d565b925050602083013567ffffffffffffffff8111156181455761814461740f565b5b618151858286016179c2565b9150509250929050565b600060c083016000830151848203600086015261817882826175df565b9150506020830151848203602086015261819282826175df565b91505060408301516181a76040860182617618565b50606083015184820360608601526181bf82826175df565b91505060808301516181d46080860182617bb8565b5060a08301516181e760a0860182617c00565b508091505092915050565b6000602082019050818103600083015261820c818461815b565b905092915050565b6000602082019050818103600083015261822e8184617e8f565b905092915050565b600060608201905061824b6000830186617e80565b818103602083015261825d818561815b565b905081810360408301526182718184617f39565b9050949350505050565b600080604083850312156182925761829161740a565b5b600083013567ffffffffffffffff8111156182b0576182af61740f565b5b6182bc858286016179c2565b92505060206182cd8582860161750b565b9150509250929050565b600060e082840312156182ed576182ec6178b1565b5b6182f760e0617916565b9050600082013567ffffffffffffffff81111561831757618316617931565b5b618323848285016179c2565b600083015250602082013567ffffffffffffffff81111561834757618346617931565b5b618353848285016179c2565b602083015250604061836784828501617a15565b604083015250606061837b8482850161745d565b606083015250608061838f8482850161745d565b60808301525060a082013567ffffffffffffffff8111156183b3576183b2617931565b5b6183bf848285016179c2565b60a08301525060c06183d38482850161750b565b60c08301525092915050565b6000806000606084860312156183f8576183f761740a565b5b600084013567ffffffffffffffff8111156184165761841561740f565b5b618422868287016182d7565b93505060206184338682870161750b565b925050604084013567ffffffffffffffff8111156184545761845361740f565b5b618460868287016179c2565b9150509250925092565b6000806000606084860312156184835761848261740a565b5b60006184918682870161745d565b93505060206184a286828701617495565b925050604084013567ffffffffffffffff8111156184c3576184c261740f565b5b6184cf868287016179c2565b9150509250925092565b6000806000606084860312156184f2576184f161740a565b5b600084013567ffffffffffffffff8111156185105761850f61740f565b5b61851c868287016179c2565b935050602084013567ffffffffffffffff81111561853d5761853c61740f565b5b618549868287016179c2565b925050604061855a86828701617a15565b9150509250925092565b600082825260208201905092915050565b7f546869732046696e616e6369616c20496e737469747574696f6e206973206e6f60008201527f7420666f756e6400000000000000000000000000000000000000000000000000602082015250565b60006185d1602783618564565b91506185dc82618575565b604082019050919050565b60006020820190508181036000830152618600816185c4565b9050919050565b7f546869732046696e616e6369616c20496e737469747574696f6e20686173206e60008201527f6f74206265656e20616464656400000000000000000000000000000000000000602082015250565b6000618663602d83618564565b915061866e82618607565b604082019050919050565b6000602082019050818103600083015261869281618656565b9050919050565b7f546869732046696e616e6369616c20496e737469747574696f6e206973206e6f60008201527f74206163746976652c20706c65736520636f6e746163742041646d696e69737460208201527f7261746f72000000000000000000000000000000000000000000000000000000604082015250565b600061871b604583618564565b915061872682618699565b606082019050919050565b6000602082019050818103600083015261874a8161870e565b9050919050565b7f4e487b7100000000000000000000000000000000000000000000000000000000600052602260045260246000fd5b6000600282049050600182168061879857607f821691505b6020821081036187ab576187aa618751565b5b50919050565b60008190508160005260206000209050919050565b60006020601f8301049050919050565b600082821b905092915050565b6000600883026188137fffffffffffffffffffffffffffffffffffffffffffffffffffffffffffffffff826187d6565b61881d86836187d6565b95508019841693508086168417925050509392505050565b6000819050919050565b600061885a618855618850846174ea565b618835565b6174ea565b9050919050565b6000819050919050565b6188748361883f565b61888861888082618861565b8484546187e3565b825550505050565b600090565b61889d618890565b6188a881848461886b565b505050565b5b818110156188cc576188c1600082618895565b6001810190506188ae565b5050565b601f821115618911576188e2816187b1565b6188eb846187c6565b810160208510156188fa578190505b61890e618906856187c6565b8301826188ad565b50505b505050565b600082821c905092915050565b600061893460001984600802618916565b1980831691505092915050565b600061894d8383618923565b9150826002028217905092915050565b61896682617588565b67ffffffffffffffff81111561897f5761897e6178b6565b5b6189898254618780565b6189948282856188d0565b600060209050601f8311600181146189c757600084156189b5578287015190505b6189bf8582618941565b865550618a27565b601f1984166189d5866187b1565b60005b828110156189fd578489015182556001820191506020850194506020810190506189d8565b86831015618a1a5784890151618a16601f891682618923565b8355505b6001600288020188555050505b505050505050565b7f53656e64657220494420456d7074790000000000000000000000000000000000600082015250565b6000618a65600f83618564565b9150618a7082618a2f565b602082019050919050565b60006020820190508181036000830152618a9481618a58565b9050919050565b7f5573657220494420456d70747900000000000000000000000000000000000000600082015250565b6000618ad1600d83618564565b9150618adc82618a9b565b602082019050919050565b60006020820190508181036000830152618b0081618ac4565b9050919050565b7f4944206973206e6f7420666f756e640000000000000000000000000000000000600082015250565b6000618b3d600f83618564565b9150618b4882618b07565b602082019050919050565b60006020820190508181036000830152618b6c81618b30565b9050919050565b7f55736572206973206e6f7420666f756e64000000000000000000000000000000600082015250565b6000618ba9601183618564565b9150618bb482618b73565b602082019050919050565b60006020820190508181036000830152618bd881618b9c565b9050919050565b7f456d61696c206973206e6f7420666f756e640000000000000000000000000000600082015250565b6000618c15601283618564565b9150618c2082618bdf565b602082019050919050565b60006020820190508181036000830152618c4481618c08565b9050919050565b600081905092915050565b6000618c6182617588565b618c6b8185618c4b565b9350618c7b8185602086016175a4565b80840191505092915050565b6000618c938284618c56565b915081905092915050565b7f4b594320686173206e6f7420666f756e64000000000000000000000000000000600082015250565b6000618cd4601183618564565b9150618cdf82618c9e565b602082019050919050565b60006020820190508181036000830152618d0381618cc7565b9050919050565b7f437573746f6d657220686173206e6f7420666f756e6400000000000000000000600082015250565b6000618d40601683618564565b9150618d4b82618d0a565b602082019050919050565b60006020820190508181036000830152618d6f81618d33565b9050919050565b6000618d8182617588565b618d8b8185618564565b9350618d9b8185602086016175a4565b618da4816175ce565b840191505092915050565b60008154618dbc81618780565b618dc68186618564565b94506001821660008114618de15760018114618df757618e2a565b60ff198316865281151560200286019350618e2a565b618e00856187b1565b60005b83811015618e2257815481890152600182019150602081019050618e03565b808801955050505b50505092915050565b60006060820190508181036000830152618e4d8186618d76565b90508181036020830152618e618185618daf565b90508181036040830152618e758184618daf565b9050949350505050565b7f4e487b7100000000000000000000000000000000000000000000000000000000600052603260045260246000fd5b7f4e487b7100000000000000000000000000000000000000000000000000000000600052601160045260246000fd5b6000618ee8826174ea565b91507fffffffffffffffffffffffffffffffffffffffffffffffffffffffffffffffff8203618f1a57618f19618eae565b5b600182019050919050565b7f5065726d697373696f6e20686173206e6f7420666f756e640000000000000000600082015250565b6000618f5b601883618564565b9150618f6682618f25565b602082019050919050565b60006020820190508181036000830152618f8a81618f4e565b9050919050565b618f9a81617434565b82525050565b618fa9816176d4565b82525050565b60006080820190508181036000830152618fc98187618d76565b9050618fd86020830186618f91565b618fe56040830185618f91565b618ff26060830184618fa0565b95945050505050565b7f557365722068616420726571756573746564204b594300000000000000000000600082015250565b6000619031601683618564565b915061903c82618ffb565b602082019050919050565b6000602082019050818103600083015261906081619024565b9050919050565b600060608201905081810360008301526190818186618d76565b905081810360208301526190958185618daf565b905081810360408301526190a98184618d76565b9050949350505050565b7f5573657220646f6573206e6f742068617665204b594320726571756573740000600082015250565b60006190e9601e83618564565b91506190f4826190b3565b602082019050919050565b60006020820190508181036000830152619118816190dc565b9050919050565b7f4b594320686173206e6f74206265656e20726571756972650000000000000000600082015250565b6000619155601883618564565b91506191608261911f565b602082019050919050565b6000602082019050818103600083015261918481619148565b9050919050565b6191948161768c565b82525050565b600060808201905081810360008301526191b48187618d76565b90506191c36020830186618f91565b6191d06040830185618f91565b6191dd606083018461918b565b95945050505050565b7f4f6e6c792061646d696e20697320616c6c6f7765640000000000000000000000600082015250565b600061921c601583618564565b9150619227826191e6565b602082019050919050565b6000602082019050818103600083015261924b8161920f565b9050919050565b7f546869732046696e616e6369616c20496e737469747574696f6e206973206e6f60008201527f7220666f756e6400000000000000000000000000000000000000000000000000602082015250565b60006192ae602783618564565b91506192b982619252565b604082019050919050565b600060208201905081810360008301526192dd816192a1565b9050919050565b60006040820190506192f96000830185618f91565b818103602083015261930b8184618daf565b90509392505050565b7f506167654e756d6265722073686f756c64206265203e20300000000000000000600082015250565b600061934a601883618564565b915061935582619314565b602082019050919050565b600060208201905081810360008301526193798161933d565b9050919050565b7f546869732046696e616e6369616c20496e737469747574696f6e20697320657860008201527f6973746564000000000000000000000000000000000000000000000000000000602082015250565b60006193dc602583618564565b91506193e782619380565b604082019050919050565b6000602082019050818103600083015261940b816193cf565b9050919050565b60006080820190506194276000830187618f91565b81810360208301526194398186618d76565b9050818103604083015261944d8185618d76565b905081810360608301526194618184618d76565b905095945050505050565b60008160601b9050919050565b60006194848261946c565b9050919050565b600061949682619479565b9050919050565b6194ae6194a982617434565b61948b565b82525050565b60006194c0828561949d565b6014820191506194d0828461949d565b6014820191508190509392505050565b60006060820190506194f56000830186618f91565b81810360208301526195078185618d76565b9050818103604083015261951b8184618d76565b9050949350505050565b7f52657175657374206973206e6f7420666f756e64000000000000000000000000600082015250565b600061955b601483618564565b915061956682619525565b602082019050919050565b6000602082019050818103600083015261958a8161954e565b9050919050565b7f494420686173206e6f7420666f756e6400000000000000000000000000000000600082015250565b60006195c7601083618564565b91506195d282619591565b602082019050919050565b600060208201905081810360008301526195f6816195ba565b9050919050565b60006060820190506196126000830186618f91565b81810360208301526196248185618daf565b905081810360408301526196388184618d76565b9050949350505050565b7f46696e616e6369616c20494e737469747574696f6e206973206e6f7420666f7560008201527f6e64000000000000000000000000000000000000000000000000000000000000602082015250565b600061969e602283618564565b91506196a982619642565b604082019050919050565b600060208201905081810360008301526196cd81619691565b9050919050565b60006196df826179f0565b915061ffff82036196f3576196f2618eae565b5b600182019050919050565b7f437573746f6d657220494420686173206e6f7420466f756e6400000000000000600082015250565b6000619734601983618564565b915061973f826196fe565b602082019050919050565b6000602082019050818103600083015261976381619727565b9050919050565b7f4e487b7100000000000000000000000000000000000000000000000000000000600052601260045260246000fd5b60006197a4826174ea565b91506197af836174ea565b9250826197bf576197be61976a565b5b828206905092915050565b60006197d5826174ea565b91506197e0836174ea565b9250826197f0576197ef61976a565b5b828204905092915050565b6000619806826174ea565b9150619811836174ea565b925082820390508181111561982957619828618eae565b5b92915050565b600061983a826174ea565b9150619845836174ea565b9250828202619853816174ea565b9150828204841483151761986a57619869618eae565b5b509291505056fea26469706673582212203dfd5af05390db5429990dcd155020cb90795657eab30ab36d38f5fa7d2c076c64736f6c63430008120033",
			"opcodes": "PUSH1 0x80 PUSH1 0x40 MSTORE CALLVALUE DUP1 ISZERO PUSH3 0x11 JUMPI PUSH1 0x0 DUP1 REVERT JUMPDEST POP PUSH1 0x40 MLOAD PUSH3 0xA107 CODESIZE SUB DUP1 PUSH3 0xA107 DUP4 CODECOPY DUP2 DUP2 ADD PUSH1 0x40 MSTORE DUP2 ADD SWAP1 PUSH3 0x37 SWAP2 SWAP1 PUSH3 0x46A JUMP JUMPDEST CALLER PUSH1 0x4 PUSH1 0x0 PUSH2 0x100 EXP DUP2 SLOAD DUP2 PUSH20 0xFFFFFFFFFFFFFFFFFFFFFFFFFFFFFFFFFFFFFFFF MUL NOT AND SWAP1 DUP4 PUSH20 0xFFFFFFFFFFFFFFFFFFFFFFFFFFFFFFFFFFFFFFFF AND MUL OR SWAP1 SSTORE POP PUSH1 0x0 PUSH1 0x40 MLOAD DUP1 PUSH1 0xA0 ADD PUSH1 0x40 MSTORE DUP1 DUP5 DUP2 MSTORE PUSH1 0x20 ADD DUP4 DUP2 MSTORE PUSH1 0x20 ADD PUSH1 0x4 PUSH1 0x0 SWAP1 SLOAD SWAP1 PUSH2 0x100 EXP SWAP1 DIV PUSH20 0xFFFFFFFFFFFFFFFFFFFFFFFFFFFFFFFFFFFFFFFF AND PUSH20 0xFFFFFFFFFFFFFFFFFFFFFFFFFFFFFFFFFFFFFFFF AND DUP2 MSTORE PUSH1 0x20 ADD PUSH1 0x0 PUSH1 0x2 DUP2 GT ISZERO PUSH3 0xE6 JUMPI PUSH3 0xE5 PUSH3 0x4EF JUMP JUMPDEST JUMPDEST DUP2 MSTORE PUSH1 0x20 ADD PUSH1 0x0 PUSH1 0x1 DUP2 GT ISZERO PUSH3 0x102 JUMPI PUSH3 0x101 PUSH3 0x4EF JUMP JUMPDEST JUMPDEST DUP2 MSTORE POP SWAP1 POP DUP1 PUSH1 0x6 PUSH1 0x0 PUSH1 0x4 PUSH1 0x0 SWAP1 SLOAD SWAP1 PUSH2 0x100 EXP SWAP1 DIV PUSH20 0xFFFFFFFFFFFFFFFFFFFFFFFFFFFFFFFFFFFFFFFF AND PUSH20 0xFFFFFFFFFFFFFFFFFFFFFFFFFFFFFFFFFFFFFFFF AND PUSH20 0xFFFFFFFFFFFFFFFFFFFFFFFFFFFFFFFFFFFFFFFF AND DUP2 MSTORE PUSH1 0x20 ADD SWAP1 DUP2 MSTORE PUSH1 0x20 ADD PUSH1 0x0 KECCAK256 PUSH1 0x0 DUP3 ADD MLOAD DUP2 PUSH1 0x0 ADD SWAP1 DUP2 PUSH3 0x180 SWAP2 SWAP1 PUSH3 0x769 JUMP JUMPDEST POP PUSH1 0x20 DUP3 ADD MLOAD DUP2 PUSH1 0x1 ADD SWAP1 DUP2 PUSH3 0x198 SWAP2 SWAP1 PUSH3 0x769 JUMP JUMPDEST POP PUSH1 0x40 DUP3 ADD MLOAD DUP2 PUSH1 0x2 ADD PUSH1 0x0 PUSH2 0x100 EXP DUP2 SLOAD DUP2 PUSH20 0xFFFFFFFFFFFFFFFFFFFFFFFFFFFFFFFFFFFFFFFF MUL NOT AND SWAP1 DUP4 PUSH20 0xFFFFFFFFFFFFFFFFFFFFFFFFFFFFFFFFFFFFFFFF AND MUL OR SWAP1 SSTORE POP PUSH1 0x60 DUP3 ADD MLOAD DUP2 PUSH1 0x2 ADD PUSH1 0x14 PUSH2 0x100 EXP DUP2 SLOAD DUP2 PUSH1 0xFF MUL NOT AND SWAP1 DUP4 PUSH1 0x2 DUP2 GT ISZERO PUSH3 0x20E JUMPI PUSH3 0x20D PUSH3 0x4EF JUMP JUMPDEST JUMPDEST MUL OR SWAP1 SSTORE POP PUSH1 0x80 DUP3 ADD MLOAD DUP2 PUSH1 0x2 ADD PUSH1 0x15 PUSH2 0x100 EXP DUP2 SLOAD DUP2 PUSH1 0xFF MUL NOT AND SWAP1 DUP4 PUSH1 0x1 DUP2 GT ISZERO PUSH3 0x241 JUMPI PUSH3 0x240 PUSH3 0x4EF JUMP JUMPDEST JUMPDEST MUL OR SWAP1 SSTORE POP SWAP1 POP POP PUSH1 0x5 PUSH1 0x4 PUSH1 0x0 SWAP1 SLOAD SWAP1 PUSH2 0x100 EXP SWAP1 DIV PUSH20 0xFFFFFFFFFFFFFFFFFFFFFFFFFFFFFFFFFFFFFFFF AND SWAP1 DUP1 PUSH1 0x1 DUP2 SLOAD ADD DUP1 DUP3 SSTORE DUP1 SWAP2 POP POP PUSH1 0x1 SWAP1 SUB SWAP1 PUSH1 0x0 MSTORE PUSH1 0x20 PUSH1 0x0 KECCAK256 ADD PUSH1 0x0 SWAP1 SWAP2 SWAP1 SWAP2 SWAP1 SWAP2 PUSH2 0x100 EXP DUP2 SLOAD DUP2 PUSH20 0xFFFFFFFFFFFFFFFFFFFFFFFFFFFFFFFFFFFFFFFF MUL NOT AND SWAP1 DUP4 PUSH20 0xFFFFFFFFFFFFFFFFFFFFFFFFFFFFFFFFFFFFFFFF AND MUL OR SWAP1 SSTORE POP POP POP POP PUSH3 0x850 JUMP JUMPDEST PUSH1 0x0 PUSH1 0x40 MLOAD SWAP1 POP SWAP1 JUMP JUMPDEST PUSH1 0x0 DUP1 REVERT JUMPDEST PUSH1 0x0 DUP1 REVERT JUMPDEST PUSH1 0x0 DUP1 REVERT JUMPDEST PUSH1 0x0 DUP1 REVERT JUMPDEST PUSH1 0x0 PUSH1 0x1F NOT PUSH1 0x1F DUP4 ADD AND SWAP1 POP SWAP2 SWAP1 POP JUMP JUMPDEST PUSH32 0x4E487B7100000000000000000000000000000000000000000000000000000000 PUSH1 0x0 MSTORE PUSH1 0x41 PUSH1 0x4 MSTORE PUSH1 0x24 PUSH1 0x0 REVERT JUMPDEST PUSH3 0x340 DUP3 PUSH3 0x2F5 JUMP JUMPDEST DUP2 ADD DUP2 DUP2 LT PUSH8 0xFFFFFFFFFFFFFFFF DUP3 GT OR ISZERO PUSH3 0x362 JUMPI PUSH3 0x361 PUSH3 0x306 JUMP JUMPDEST JUMPDEST DUP1 PUSH1 0x40 MSTORE POP POP POP JUMP JUMPDEST PUSH1 0x0 PUSH3 0x377 PUSH3 0x2D7 JUMP JUMPDEST SWAP1 POP PUSH3 0x385 DUP3 DUP3 PUSH3 0x335 JUMP JUMPDEST SWAP2 SWAP1 POP JUMP JUMPDEST PUSH1 0x0 PUSH8 0xFFFFFFFFFFFFFFFF DUP3 GT ISZERO PUSH3 0x3A8 JUMPI PUSH3 0x3A7 PUSH3 0x306 JUMP JUMPDEST JUMPDEST PUSH3 0x3B3 DUP3 PUSH3 0x2F5 JUMP JUMPDEST SWAP1 POP PUSH1 0x20 DUP2 ADD SWAP1 POP SWAP2 SWAP1 POP JUMP JUMPDEST PUSH1 0x0 JUMPDEST DUP4 DUP2 LT ISZERO PUSH3 0x3E0 JUMPI DUP1 DUP3 ADD MLOAD DUP2 DUP5 ADD MSTORE PUSH1 0x20 DUP2 ADD SWAP1 POP PUSH3 0x3C3 JUMP JUMPDEST PUSH1 0x0 DUP5 DUP5 ADD MSTORE POP POP POP POP JUMP JUMPDEST PUSH1 0x0 PUSH3 0x403 PUSH3 0x3FD DUP5 PUSH3 0x38A JUMP JUMPDEST PUSH3 0x36B JUMP JUMPDEST SWAP1 POP DUP3 DUP2 MSTORE PUSH1 0x20 DUP2 ADD DUP5 DUP5 DUP5 ADD GT ISZERO PUSH3 0x422 JUMPI PUSH3 0x421 PUSH3 0x2F0 JUMP JUMPDEST JUMPDEST PUSH3 0x42F DUP5 DUP3 DUP6 PUSH3 0x3C0 JUMP JUMPDEST POP SWAP4 SWAP3 POP POP POP JUMP JUMPDEST PUSH1 0x0 DUP3 PUSH1 0x1F DUP4 ADD SLT PUSH3 0x44F JUMPI PUSH3 0x44E PUSH3 0x2EB JUMP JUMPDEST JUMPDEST DUP2 MLOAD PUSH3 0x461 DUP5 DUP3 PUSH1 0x20 DUP7 ADD PUSH3 0x3EC JUMP JUMPDEST SWAP2 POP POP SWAP3 SWAP2 POP POP JUMP JUMPDEST PUSH1 0x0 DUP1 PUSH1 0x40 DUP4 DUP6 SUB SLT ISZERO PUSH3 0x484 JUMPI PUSH3 0x483 PUSH3 0x2E1 JUMP JUMPDEST JUMPDEST PUSH1 0x0 DUP4 ADD MLOAD PUSH8 0xFFFFFFFFFFFFFFFF DUP2 GT ISZERO PUSH3 0x4A5 JUMPI PUSH3 0x4A4 PUSH3 0x2E6 JUMP JUMPDEST JUMPDEST PUSH3 0x4B3 DUP6 DUP3 DUP7 ADD PUSH3 0x437 JUMP JUMPDEST SWAP3 POP POP PUSH1 0x20 DUP4 ADD MLOAD PUSH8 0xFFFFFFFFFFFFFFFF DUP2 GT ISZERO PUSH3 0x4D7 JUMPI PUSH3 0x4D6 PUSH3 0x2E6 JUMP JUMPDEST JUMPDEST PUSH3 0x4E5 DUP6 DUP3 DUP7 ADD PUSH3 0x437 JUMP JUMPDEST SWAP2 POP POP SWAP3 POP SWAP3 SWAP1 POP JUMP JUMPDEST PUSH32 0x4E487B7100000000000000000000000000000000000000000000000000000000 PUSH1 0x0 MSTORE PUSH1 0x21 PUSH1 0x4 MSTORE PUSH1 0x24 PUSH1 0x0 REVERT JUMPDEST PUSH1 0x0 DUP2 MLOAD SWAP1 POP SWAP2 SWAP1 POP JUMP JUMPDEST PUSH32 0x4E487B7100000000000000000000000000000000000000000000000000000000 PUSH1 0x0 MSTORE PUSH1 0x22 PUSH1 0x4 MSTORE PUSH1 0x24 PUSH1 0x0 REVERT JUMPDEST PUSH1 0x0 PUSH1 0x2 DUP3 DIV SWAP1 POP PUSH1 0x1 DUP3 AND DUP1 PUSH3 0x571 JUMPI PUSH1 0x7F DUP3 AND SWAP2 POP JUMPDEST PUSH1 0x20 DUP3 LT DUP2 SUB PUSH3 0x587 JUMPI PUSH3 0x586 PUSH3 0x529 JUMP JUMPDEST JUMPDEST POP SWAP2 SWAP1 POP JUMP JUMPDEST PUSH1 0x0 DUP2 SWAP1 POP DUP2 PUSH1 0x0 MSTORE PUSH1 0x20 PUSH1 0x0 KECCAK256 SWAP1 POP SWAP2 SWAP1 POP JUMP JUMPDEST PUSH1 0x0 PUSH1 0x20 PUSH1 0x1F DUP4 ADD DIV SWAP1 POP SWAP2 SWAP1 POP JUMP JUMPDEST PUSH1 0x0 DUP3 DUP3 SHL SWAP1 POP SWAP3 SWAP2 POP POP JUMP JUMPDEST PUSH1 0x0 PUSH1 0x8 DUP4 MUL PUSH3 0x5F1 PUSH32 0xFFFFFFFFFFFFFFFFFFFFFFFFFFFFFFFFFFFFFFFFFFFFFFFFFFFFFFFFFFFFFFFF DUP3 PUSH3 0x5B2 JUMP JUMPDEST PUSH3 0x5FD DUP7 DUP4 PUSH3 0x5B2 JUMP JUMPDEST SWAP6 POP DUP1 NOT DUP5 AND SWAP4 POP DUP1 DUP7 AND DUP5 OR SWAP3 POP POP POP SWAP4 SWAP3 POP POP POP JUMP JUMPDEST PUSH1 0x0 DUP2 SWAP1 POP SWAP2 SWAP1 POP JUMP JUMPDEST PUSH1 0x0 DUP2 SWAP1 POP SWAP2 SWAP1 POP JUMP JUMPDEST PUSH1 0x0 PUSH3 0x64A PUSH3 0x644 PUSH3 0x63E DUP5 PUSH3 0x615 JUMP JUMPDEST PUSH3 0x61F JUMP JUMPDEST PUSH3 0x615 JUMP JUMPDEST SWAP1 POP SWAP2 SWAP1 POP JUMP JUMPDEST PUSH1 0x0 DUP2 SWAP1 POP SWAP2 SWAP1 POP JUMP JUMPDEST PUSH3 0x666 DUP4 PUSH3 0x629 JUMP JUMPDEST PUSH3 0x67E PUSH3 0x675 DUP3 PUSH3 0x651 JUMP JUMPDEST DUP5 DUP5 SLOAD PUSH3 0x5BF JUMP JUMPDEST DUP3 SSTORE POP POP POP POP JUMP JUMPDEST PUSH1 0x0 SWAP1 JUMP JUMPDEST PUSH3 0x695 PUSH3 0x686 JUMP JUMPDEST PUSH3 0x6A2 DUP2 DUP5 DUP5 PUSH3 0x65B JUMP JUMPDEST POP POP POP JUMP JUMPDEST JUMPDEST DUP2 DUP2 LT ISZERO PUSH3 0x6CA JUMPI PUSH3 0x6BE PUSH1 0x0 DUP3 PUSH3 0x68B JUMP JUMPDEST PUSH1 0x1 DUP2 ADD SWAP1 POP PUSH3 0x6A8 JUMP JUMPDEST POP POP JUMP JUMPDEST PUSH1 0x1F DUP3 GT ISZERO PUSH3 0x719 JUMPI PUSH3 0x6E3 DUP2 PUSH3 0x58D JUMP JUMPDEST PUSH3 0x6EE DUP5 PUSH3 0x5A2 JUMP JUMPDEST DUP2 ADD PUSH1 0x20 DUP6 LT ISZERO PUSH3 0x6FE JUMPI DUP2 SWAP1 POP JUMPDEST PUSH3 0x716 PUSH3 0x70D DUP6 PUSH3 0x5A2 JUMP JUMPDEST DUP4 ADD DUP3 PUSH3 0x6A7 JUMP JUMPDEST POP POP JUMPDEST POP POP POP JUMP JUMPDEST PUSH1 0x0 DUP3 DUP3 SHR SWAP1 POP SWAP3 SWAP2 POP POP JUMP JUMPDEST PUSH1 0x0 PUSH3 0x73E PUSH1 0x0 NOT DUP5 PUSH1 0x8 MUL PUSH3 0x71E JUMP JUMPDEST NOT DUP1 DUP4 AND SWAP2 POP POP SWAP3 SWAP2 POP POP JUMP JUMPDEST PUSH1 0x0 PUSH3 0x759 DUP4 DUP4 PUSH3 0x72B JUMP JUMPDEST SWAP2 POP DUP3 PUSH1 0x2 MUL DUP3 OR SWAP1 POP SWAP3 SWAP2 POP POP JUMP JUMPDEST PUSH3 0x774 DUP3 PUSH3 0x51E JUMP JUMPDEST PUSH8 0xFFFFFFFFFFFFFFFF DUP2 GT ISZERO PUSH3 0x790 JUMPI PUSH3 0x78F PUSH3 0x306 JUMP JUMPDEST JUMPDEST PUSH3 0x79C DUP3 SLOAD PUSH3 0x558 JUMP JUMPDEST PUSH3 0x7A9 DUP3 DUP3 DUP6 PUSH3 0x6CE JUMP JUMPDEST PUSH1 0x0 PUSH1 0x20 SWAP1 POP PUSH1 0x1F DUP4 GT PUSH1 0x1 DUP2 EQ PUSH3 0x7E1 JUMPI PUSH1 0x0 DUP5 ISZERO PUSH3 0x7CC JUMPI DUP3 DUP8 ADD MLOAD SWAP1 POP JUMPDEST PUSH3 0x7D8 DUP6 DUP3 PUSH3 0x74B JUMP JUMPDEST DUP7 SSTORE POP PUSH3 0x848 JUMP JUMPDEST PUSH1 0x1F NOT DUP5 AND PUSH3 0x7F1 DUP7 PUSH3 0x58D JUMP JUMPDEST PUSH1 0x0 JUMPDEST DUP3 DUP2 LT ISZERO PUSH3 0x81B JUMPI DUP5 DUP10 ADD MLOAD DUP3 SSTORE PUSH1 0x1 DUP3 ADD SWAP2 POP PUSH1 0x20 DUP6 ADD SWAP5 POP PUSH1 0x20 DUP2 ADD SWAP1 POP PUSH3 0x7F4 JUMP JUMPDEST DUP7 DUP4 LT ISZERO PUSH3 0x83B JUMPI DUP5 DUP10 ADD MLOAD PUSH3 0x837 PUSH1 0x1F DUP10 AND DUP3 PUSH3 0x72B JUMP JUMPDEST DUP4 SSTORE POP JUMPDEST PUSH1 0x1 PUSH1 0x2 DUP9 MUL ADD DUP9 SSTORE POP POP POP JUMPDEST POP POP POP POP POP POP JUMP JUMPDEST PUSH2 0x98A7 DUP1 PUSH3 0x860 PUSH1 0x0 CODECOPY PUSH1 0x0 RETURN INVALID PUSH1 0x80 PUSH1 0x40 MSTORE CALLVALUE DUP1 ISZERO PUSH2 0x10 JUMPI PUSH1 0x0 DUP1 REVERT JUMPDEST POP PUSH1 0x4 CALLDATASIZE LT PUSH2 0x116 JUMPI PUSH1 0x0 CALLDATALOAD PUSH1 0xE0 SHR DUP1 PUSH4 0xAC157423 GT PUSH2 0xA2 JUMPI DUP1 PUSH4 0xBC3B3DDB GT PUSH2 0x71 JUMPI DUP1 PUSH4 0xBC3B3DDB EQ PUSH2 0x31C JUMPI DUP1 PUSH4 0xC2C3F244 EQ PUSH2 0x338 JUMPI DUP1 PUSH4 0xD5626B1F EQ PUSH2 0x354 JUMPI DUP1 PUSH4 0xEAE958A0 EQ PUSH2 0x370 JUMPI DUP1 PUSH4 0xFAC8D0B4 EQ PUSH2 0x38C JUMPI PUSH2 0x116 JUMP JUMPDEST DUP1 PUSH4 0xAC157423 EQ PUSH2 0x26D JUMPI DUP1 PUSH4 0xB3F32A41 EQ PUSH2 0x29D JUMPI DUP1 PUSH4 0xB69C469C EQ PUSH2 0x2CF JUMPI DUP1 PUSH4 0xB6C1B316 EQ PUSH2 0x2EB JUMPI PUSH2 0x116 JUMP JUMPDEST DUP1 PUSH4 0x5D676796 GT PUSH2 0xE9 JUMPI DUP1 PUSH4 0x5D676796 EQ PUSH2 0x1B5 JUMPI DUP1 PUSH4 0x7DB674B6 EQ PUSH2 0x1D3 JUMPI DUP1 PUSH4 0x8202CFBC EQ PUSH2 0x205 JUMPI DUP1 PUSH4 0x8E97E778 EQ PUSH2 0x221 JUMPI DUP1 PUSH4 0x9CEECFD6 EQ PUSH2 0x23D JUMPI PUSH2 0x116 JUMP JUMPDEST DUP1 PUSH4 0x173EB4DF EQ PUSH2 0x11B JUMPI DUP1 PUSH4 0x21C8FC5A EQ PUSH2 0x137 JUMPI DUP1 PUSH4 0x2A807F77 EQ PUSH2 0x168 JUMPI DUP1 PUSH4 0x3949D021 EQ PUSH2 0x184 JUMPI JUMPDEST PUSH1 0x0 DUP1 REVERT JUMPDEST PUSH2 0x135 PUSH1 0x4 DUP1 CALLDATASIZE SUB DUP2 ADD SWAP1 PUSH2 0x130 SWAP2 SWAP1 PUSH2 0x74AA JUMP JUMPDEST PUSH2 0x3A8 JUMP JUMPDEST STOP JUMPDEST PUSH2 0x151 PUSH1 0x4 DUP1 CALLDATASIZE SUB DUP2 ADD SWAP1 PUSH2 0x14C SWAP2 SWAP1 PUSH2 0x7520 JUMP JUMPDEST PUSH2 0x427 JUMP JUMPDEST PUSH1 0x40 MLOAD PUSH2 0x15F SWAP3 SWAP2 SWAP1 PUSH2 0x7881 JUMP JUMPDEST PUSH1 0x40 MLOAD DUP1 SWAP2 SUB SWAP1 RETURN JUMPDEST PUSH2 0x182 PUSH1 0x4 DUP1 CALLDATASIZE SUB DUP2 ADD SWAP1 PUSH2 0x17D SWAP2 SWAP1 PUSH2 0x7B43 JUMP JUMPDEST PUSH2 0x698 JUMP JUMPDEST STOP JUMPDEST PUSH2 0x19E PUSH1 0x4 DUP1 CALLDATASIZE SUB DUP2 ADD SWAP1 PUSH2 0x199 SWAP2 SWAP1 PUSH2 0x7520 JUMP JUMPDEST PUSH2 0x89B JUMP JUMPDEST PUSH1 0x40 MLOAD PUSH2 0x1AC SWAP3 SWAP2 SWAP1 PUSH2 0x7D3C JUMP JUMPDEST PUSH1 0x40 MLOAD DUP1 SWAP2 SUB SWAP1 RETURN JUMPDEST PUSH2 0x1BD PUSH2 0x8B9 JUMP JUMPDEST PUSH1 0x40 MLOAD PUSH2 0x1CA SWAP2 SWAP1 PUSH2 0x7E31 JUMP JUMPDEST PUSH1 0x40 MLOAD DUP1 SWAP2 SUB SWAP1 RETURN JUMPDEST PUSH2 0x1ED PUSH1 0x4 DUP1 CALLDATASIZE SUB DUP2 ADD SWAP1 PUSH2 0x1E8 SWAP2 SWAP1 PUSH2 0x7E53 JUMP JUMPDEST PUSH2 0xC40 JUMP JUMPDEST PUSH1 0x40 MLOAD PUSH2 0x1FC SWAP4 SWAP3 SWAP2 SWAP1 PUSH2 0x802F JUMP JUMPDEST PUSH1 0x40 MLOAD DUP1 SWAP2 SUB SWAP1 RETURN JUMPDEST PUSH2 0x21F PUSH1 0x4 DUP1 CALLDATASIZE SUB DUP2 ADD SWAP1 PUSH2 0x21A SWAP2 SWAP1 PUSH2 0x8074 JUMP JUMPDEST PUSH2 0x164C JUMP JUMPDEST STOP JUMPDEST PUSH2 0x23B PUSH1 0x4 DUP1 CALLDATASIZE SUB DUP2 ADD SWAP1 PUSH2 0x236 SWAP2 SWAP1 PUSH2 0x80FF JUMP JUMPDEST PUSH2 0x1704 JUMP JUMPDEST STOP JUMPDEST PUSH2 0x257 PUSH1 0x4 DUP1 CALLDATASIZE SUB DUP2 ADD SWAP1 PUSH2 0x252 SWAP2 SWAP1 PUSH2 0x7E53 JUMP JUMPDEST PUSH2 0x1B3E JUMP JUMPDEST PUSH1 0x40 MLOAD PUSH2 0x264 SWAP2 SWAP1 PUSH2 0x81F2 JUMP JUMPDEST PUSH1 0x40 MLOAD DUP1 SWAP2 SUB SWAP1 RETURN JUMPDEST PUSH2 0x287 PUSH1 0x4 DUP1 CALLDATASIZE SUB DUP2 ADD SWAP1 PUSH2 0x282 SWAP2 SWAP1 PUSH2 0x7E53 JUMP JUMPDEST PUSH2 0x1DAF JUMP JUMPDEST PUSH1 0x40 MLOAD PUSH2 0x294 SWAP2 SWAP1 PUSH2 0x8214 JUMP JUMPDEST PUSH1 0x40 MLOAD DUP1 SWAP2 SUB SWAP1 RETURN JUMPDEST PUSH2 0x2B7 PUSH1 0x4 DUP1 CALLDATASIZE SUB DUP2 ADD SWAP1 PUSH2 0x2B2 SWAP2 SWAP1 PUSH2 0x7E53 JUMP JUMPDEST PUSH2 0x202C JUMP JUMPDEST PUSH1 0x40 MLOAD PUSH2 0x2C6 SWAP4 SWAP3 SWAP2 SWAP1 PUSH2 0x8236 JUMP JUMPDEST PUSH1 0x40 MLOAD DUP1 SWAP2 SUB SWAP1 RETURN JUMPDEST PUSH2 0x2E9 PUSH1 0x4 DUP1 CALLDATASIZE SUB DUP2 ADD SWAP1 PUSH2 0x2E4 SWAP2 SWAP1 PUSH2 0x827B JUMP JUMPDEST PUSH2 0x2AA6 JUMP JUMPDEST STOP JUMPDEST PUSH2 0x305 PUSH1 0x4 DUP1 CALLDATASIZE SUB DUP2 ADD SWAP1 PUSH2 0x300 SWAP2 SWAP1 PUSH2 0x7520 JUMP JUMPDEST PUSH2 0x2F3D JUMP JUMPDEST PUSH1 0x40 MLOAD PUSH2 0x313 SWAP3 SWAP2 SWAP1 PUSH2 0x7881 JUMP JUMPDEST PUSH1 0x40 MLOAD DUP1 SWAP2 SUB SWAP1 RETURN JUMPDEST PUSH2 0x336 PUSH1 0x4 DUP1 CALLDATASIZE SUB DUP2 ADD SWAP1 PUSH2 0x331 SWAP2 SWAP1 PUSH2 0x80FF JUMP JUMPDEST PUSH2 0x31BA JUMP JUMPDEST STOP JUMPDEST PUSH2 0x352 PUSH1 0x4 DUP1 CALLDATASIZE SUB DUP2 ADD SWAP1 PUSH2 0x34D SWAP2 SWAP1 PUSH2 0x83DF JUMP JUMPDEST PUSH2 0x3531 JUMP JUMPDEST STOP JUMPDEST PUSH2 0x36E PUSH1 0x4 DUP1 CALLDATASIZE SUB DUP2 ADD SWAP1 PUSH2 0x369 SWAP2 SWAP1 PUSH2 0x846A JUMP JUMPDEST PUSH2 0x3DD4 JUMP JUMPDEST STOP JUMPDEST PUSH2 0x38A PUSH1 0x4 DUP1 CALLDATASIZE SUB DUP2 ADD SWAP1 PUSH2 0x385 SWAP2 SWAP1 PUSH2 0x84D9 JUMP JUMPDEST PUSH2 0x43BA JUMP JUMPDEST STOP JUMPDEST PUSH2 0x3A6 PUSH1 0x4 DUP1 CALLDATASIZE SUB DUP2 ADD SWAP1 PUSH2 0x3A1 SWAP2 SWAP1 PUSH2 0x846A JUMP JUMPDEST PUSH2 0x46CF JUMP JUMPDEST STOP JUMPDEST PUSH2 0x3B0 PUSH2 0x4A62 JUMP JUMPDEST PUSH2 0x3BA DUP3 DUP3 PUSH2 0x4AF4 JUMP JUMPDEST PUSH1 0x6 PUSH1 0x0 DUP5 PUSH20 0xFFFFFFFFFFFFFFFFFFFFFFFFFFFFFFFFFFFFFFFF AND PUSH20 0xFFFFFFFFFFFFFFFFFFFFFFFFFFFFFFFFFFFFFFFF AND DUP2 MSTORE PUSH1 0x20 ADD SWAP1 DUP2 MSTORE PUSH1 0x20 ADD PUSH1 0x0 KECCAK256 PUSH1 0x2 ADD PUSH1 0x15 PUSH2 0x100 EXP DUP2 SLOAD DUP2 PUSH1 0xFF MUL NOT AND SWAP1 DUP4 PUSH1 0x1 DUP2 GT ISZERO PUSH2 0x41E JUMPI PUSH2 0x41D PUSH2 0x7636 JUMP JUMPDEST JUMPDEST MUL OR SWAP1 SSTORE POP POP POP JUMP JUMPDEST PUSH1 0x0 PUSH1 0x60 CALLER PUSH1 0x0 PUSH20 0xFFFFFFFFFFFFFFFFFFFFFFFFFFFFFFFFFFFFFFFF AND PUSH1 0x3 PUSH1 0x0 DUP4 PUSH20 0xFFFFFFFFFFFFFFFFFFFFFFFFFFFFFFFFFFFFFFFF AND PUSH20 0xFFFFFFFFFFFFFFFFFFFFFFFFFFFFFFFFFFFFFFFF AND DUP2 MSTORE PUSH1 0x20 ADD SWAP1 DUP2 MSTORE PUSH1 0x20 ADD PUSH1 0x0 KECCAK256 PUSH1 0x2 ADD PUSH1 0x0 SWAP1 SLOAD SWAP1 PUSH2 0x100 EXP SWAP1 DIV PUSH20 0xFFFFFFFFFFFFFFFFFFFFFFFFFFFFFFFFFFFFFFFF AND PUSH20 0xFFFFFFFFFFFFFFFFFFFFFFFFFFFFFFFFFFFFFFFF AND SUB PUSH2 0x4FD JUMPI PUSH1 0x40 MLOAD PUSH32 0x8C379A000000000000000000000000000000000000000000000000000000000 DUP2 MSTORE PUSH1 0x4 ADD PUSH2 0x4F4 SWAP1 PUSH2 0x85E7 JUMP JUMPDEST PUSH1 0x40 MLOAD DUP1 SWAP2 SUB SWAP1 REVERT JUMPDEST DUP1 PUSH20 0xFFFFFFFFFFFFFFFFFFFFFFFFFFFFFFFFFFFFFFFF AND PUSH1 0x3 PUSH1 0x0 DUP4 PUSH20 0xFFFFFFFFFFFFFFFFFFFFFFFFFFFFFFFFFFFFFFFF AND PUSH20 0xFFFFFFFFFFFFFFFFFFFFFFFFFFFFFFFFFFFFFFFF AND DUP2 MSTORE PUSH1 0x20 ADD SWAP1 DUP2 MSTORE PUSH1 0x20 ADD PUSH1 0x0 KECCAK256 PUSH1 0x2 ADD PUSH1 0x0 SWAP1 SLOAD SWAP1 PUSH2 0x100 EXP SWAP1 DIV PUSH20 0xFFFFFFFFFFFFFFFFFFFFFFFFFFFFFFFFFFFFFFFF AND PUSH20 0xFFFFFFFFFFFFFFFFFFFFFFFFFFFFFFFFFFFFFFFF AND EQ PUSH2 0x5CD JUMPI PUSH1 0x40 MLOAD PUSH32 0x8C379A000000000000000000000000000000000000000000000000000000000 DUP2 MSTORE PUSH1 0x4 ADD PUSH2 0x5C4 SWAP1 PUSH2 0x8679 JUMP JUMPDEST PUSH1 0x40 MLOAD DUP1 SWAP2 SUB SWAP1 REVERT JUMPDEST PUSH1 0x0 PUSH1 0x1 DUP2 GT ISZERO PUSH2 0x5E1 JUMPI PUSH2 0x5E0 PUSH2 0x7636 JUMP JUMPDEST JUMPDEST PUSH1 0x3 PUSH1 0x0 DUP4 PUSH20 0xFFFFFFFFFFFFFFFFFFFFFFFFFFFFFFFFFFFFFFFF AND PUSH20 0xFFFFFFFFFFFFFFFFFFFFFFFFFFFFFFFFFFFFFFFF AND DUP2 MSTORE PUSH1 0x20 ADD SWAP1 DUP2 MSTORE PUSH1 0x20 ADD PUSH1 0x0 KECCAK256 PUSH1 0x4 ADD PUSH1 0x2 SWAP1 SLOAD SWAP1 PUSH2 0x100 EXP SWAP1 DIV PUSH1 0xFF AND PUSH1 0x1 DUP2 GT ISZERO PUSH2 0x643 JUMPI PUSH2 0x642 PUSH2 0x7636 JUMP JUMPDEST JUMPDEST EQ PUSH2 0x683 JUMPI PUSH1 0x40 MLOAD PUSH32 0x8C379A000000000000000000000000000000000000000000000000000000000 DUP2 MSTORE PUSH1 0x4 ADD PUSH2 0x67A SWAP1 PUSH2 0x8731 JUMP JUMPDEST PUSH1 0x40 MLOAD DUP1 SWAP2 SUB SWAP1 REVERT JUMPDEST PUSH2 0x68E DUP5 PUSH1 0x1 PUSH2 0x4F05 JUMP JUMPDEST SWAP3 POP SWAP3 POP POP SWAP2 POP SWAP2 JUMP JUMPDEST PUSH2 0x6A0 PUSH2 0x4A62 JUMP JUMPDEST PUSH2 0x6A9 DUP2 PUSH2 0x567C JUMP JUMPDEST PUSH1 0x40 MLOAD DUP1 PUSH1 0xA0 ADD PUSH1 0x40 MSTORE DUP1 DUP3 PUSH1 0x0 ADD MLOAD DUP2 MSTORE PUSH1 0x20 ADD DUP3 PUSH1 0x20 ADD MLOAD DUP2 MSTORE PUSH1 0x20 ADD DUP3 PUSH1 0x40 ADD MLOAD PUSH20 0xFFFFFFFFFFFFFFFFFFFFFFFFFFFFFFFFFFFFFFFF AND DUP2 MSTORE PUSH1 0x20 ADD PUSH1 0x1 PUSH1 0x2 DUP2 GT ISZERO PUSH2 0x6FC JUMPI PUSH2 0x6FB PUSH2 0x7636 JUMP JUMPDEST JUMPDEST DUP2 MSTORE PUSH1 0x20 ADD PUSH1 0x0 PUSH1 0x1 DUP2 GT ISZERO PUSH2 0x715 JUMPI PUSH2 0x714 PUSH2 0x7636 JUMP JUMPDEST JUMPDEST DUP2 MSTORE POP PUSH1 0x6 PUSH1 0x0 DUP4 PUSH1 0x40 ADD MLOAD PUSH20 0xFFFFFFFFFFFFFFFFFFFFFFFFFFFFFFFFFFFFFFFF AND PUSH20 0xFFFFFFFFFFFFFFFFFFFFFFFFFFFFFFFFFFFFFFFF AND DUP2 MSTORE PUSH1 0x20 ADD SWAP1 DUP2 MSTORE PUSH1 0x20 ADD PUSH1 0x0 KECCAK256 PUSH1 0x0 DUP3 ADD MLOAD DUP2 PUSH1 0x0 ADD SWAP1 DUP2 PUSH2 0x770 SWAP2 SWAP1 PUSH2 0x895D JUMP JUMPDEST POP PUSH1 0x20 DUP3 ADD MLOAD DUP2 PUSH1 0x1 ADD SWAP1 DUP2 PUSH2 0x786 SWAP2 SWAP1 PUSH2 0x895D JUMP JUMPDEST POP PUSH1 0x40 DUP3 ADD MLOAD DUP2 PUSH1 0x2 ADD PUSH1 0x0 PUSH2 0x100 EXP DUP2 SLOAD DUP2 PUSH20 0xFFFFFFFFFFFFFFFFFFFFFFFFFFFFFFFFFFFFFFFF MUL NOT AND SWAP1 DUP4 PUSH20 0xFFFFFFFFFFFFFFFFFFFFFFFFFFFFFFFFFFFFFFFF AND MUL OR SWAP1 SSTORE POP PUSH1 0x60 DUP3 ADD MLOAD DUP2 PUSH1 0x2 ADD PUSH1 0x14 PUSH2 0x100 EXP DUP2 SLOAD DUP2 PUSH1 0xFF MUL NOT AND SWAP1 DUP4 PUSH1 0x2 DUP2 GT ISZERO PUSH2 0x7F9 JUMPI PUSH2 0x7F8 PUSH2 0x7636 JUMP JUMPDEST JUMPDEST MUL OR SWAP1 SSTORE POP PUSH1 0x80 DUP3 ADD MLOAD DUP2 PUSH1 0x2 ADD PUSH1 0x15 PUSH2 0x100 EXP DUP2 SLOAD DUP2 PUSH1 0xFF MUL NOT AND SWAP1 DUP4 PUSH1 0x1 DUP2 GT ISZERO PUSH2 0x829 JUMPI PUSH2 0x828 PUSH2 0x7636 JUMP JUMPDEST JUMPDEST MUL OR SWAP1 SSTORE POP SWAP1 POP POP PUSH1 0x5 DUP2 PUSH1 0x40 ADD MLOAD SWAP1 DUP1 PUSH1 0x1 DUP2 SLOAD ADD DUP1 DUP3 SSTORE DUP1 SWAP2 POP POP PUSH1 0x1 SWAP1 SUB SWAP1 PUSH1 0x0 MSTORE PUSH1 0x20 PUSH1 0x0 KECCAK256 ADD PUSH1 0x0 SWAP1 SWAP2 SWAP1 SWAP2 SWAP1 SWAP2 PUSH2 0x100 EXP DUP2 SLOAD DUP2 PUSH20 0xFFFFFFFFFFFFFFFFFFFFFFFFFFFFFFFFFFFFFFFF MUL NOT AND SWAP1 DUP4 PUSH20 0xFFFFFFFFFFFFFFFFFFFFFFFFFFFFFFFFFFFFFFFF AND MUL OR SWAP1 SSTORE POP POP JUMP JUMPDEST PUSH1 0x0 PUSH1 0x60 PUSH2 0x8A7 PUSH2 0x4A62 JUMP JUMPDEST PUSH2 0x8B0 DUP4 PUSH2 0x5808 JUMP JUMPDEST SWAP2 POP SWAP2 POP SWAP2 POP SWAP2 JUMP JUMPDEST PUSH2 0x8C1 PUSH2 0x7225 JUMP JUMPDEST PUSH1 0x0 PUSH20 0xFFFFFFFFFFFFFFFFFFFFFFFFFFFFFFFFFFFFFFFF AND CALLER PUSH20 0xFFFFFFFFFFFFFFFFFFFFFFFFFFFFFFFFFFFFFFFF AND SUB PUSH2 0x930 JUMPI PUSH1 0x40 MLOAD PUSH32 0x8C379A000000000000000000000000000000000000000000000000000000000 DUP2 MSTORE PUSH1 0x4 ADD PUSH2 0x927 SWAP1 PUSH2 0x8A7B JUMP JUMPDEST PUSH1 0x40 MLOAD DUP1 SWAP2 SUB SWAP1 REVERT JUMPDEST PUSH1 0x0 PUSH20 0xFFFFFFFFFFFFFFFFFFFFFFFFFFFFFFFFFFFFFFFF AND PUSH1 0x6 PUSH1 0x0 CALLER PUSH20 0xFFFFFFFFFFFFFFFFFFFFFFFFFFFFFFFFFFFFFFFF AND PUSH20 0xFFFFFFFFFFFFFFFFFFFFFFFFFFFFFFFFFFFFFFFF AND DUP2 MSTORE PUSH1 0x20 ADD SWAP1 DUP2 MSTORE PUSH1 0x20 ADD PUSH1 0x0 KECCAK256 PUSH1 0x2 ADD PUSH1 0x0 SWAP1 SLOAD SWAP1 PUSH2 0x100 EXP SWAP1 DIV PUSH20 0xFFFFFFFFFFFFFFFFFFFFFFFFFFFFFFFFFFFFFFFF AND PUSH20 0xFFFFFFFFFFFFFFFFFFFFFFFFFFFFFFFFFFFFFFFF AND SUB PUSH2 0xA01 JUMPI PUSH1 0x40 MLOAD PUSH32 0x8C379A000000000000000000000000000000000000000000000000000000000 DUP2 MSTORE PUSH1 0x4 ADD PUSH2 0x9F8 SWAP1 PUSH2 0x8AE7 JUMP JUMPDEST PUSH1 0x40 MLOAD DUP1 SWAP2 SUB SWAP1 REVERT JUMPDEST PUSH1 0x6 PUSH1 0x0 CALLER PUSH20 0xFFFFFFFFFFFFFFFFFFFFFFFFFFFFFFFFFFFFFFFF AND PUSH20 0xFFFFFFFFFFFFFFFFFFFFFFFFFFFFFFFFFFFFFFFF AND DUP2 MSTORE PUSH1 0x20 ADD SWAP1 DUP2 MSTORE PUSH1 0x20 ADD PUSH1 0x0 KECCAK256 PUSH1 0x40 MLOAD DUP1 PUSH1 0xA0 ADD PUSH1 0x40 MSTORE SWAP1 DUP2 PUSH1 0x0 DUP3 ADD DUP1 SLOAD PUSH2 0xA5B SWAP1 PUSH2 0x8780 JUMP JUMPDEST DUP1 PUSH1 0x1F ADD PUSH1 0x20 DUP1 SWAP2 DIV MUL PUSH1 0x20 ADD PUSH1 0x40 MLOAD SWAP1 DUP2 ADD PUSH1 0x40 MSTORE DUP1 SWAP3 SWAP2 SWAP1 DUP2 DUP2 MSTORE PUSH1 0x20 ADD DUP3 DUP1 SLOAD PUSH2 0xA87 SWAP1 PUSH2 0x8780 JUMP JUMPDEST DUP1 ISZERO PUSH2 0xAD4 JUMPI DUP1 PUSH1 0x1F LT PUSH2 0xAA9 JUMPI PUSH2 0x100 DUP1 DUP4 SLOAD DIV MUL DUP4 MSTORE SWAP2 PUSH1 0x20 ADD SWAP2 PUSH2 0xAD4 JUMP JUMPDEST DUP3 ADD SWAP2 SWAP1 PUSH1 0x0 MSTORE PUSH1 0x20 PUSH1 0x0 KECCAK256 SWAP1 JUMPDEST DUP2 SLOAD DUP2 MSTORE SWAP1 PUSH1 0x1 ADD SWAP1 PUSH1 0x20 ADD DUP1 DUP4 GT PUSH2 0xAB7 JUMPI DUP3 SWAP1 SUB PUSH1 0x1F AND DUP3 ADD SWAP2 JUMPDEST POP POP POP POP POP DUP2 MSTORE PUSH1 0x20 ADD PUSH1 0x1 DUP3 ADD DUP1 SLOAD PUSH2 0xAED SWAP1 PUSH2 0x8780 JUMP JUMPDEST DUP1 PUSH1 0x1F ADD PUSH1 0x20 DUP1 SWAP2 DIV MUL PUSH1 0x20 ADD PUSH1 0x40 MLOAD SWAP1 DUP2 ADD PUSH1 0x40 MSTORE DUP1 SWAP3 SWAP2 SWAP1 DUP2 DUP2 MSTORE PUSH1 0x20 ADD DUP3 DUP1 SLOAD PUSH2 0xB19 SWAP1 PUSH2 0x8780 JUMP JUMPDEST DUP1 ISZERO PUSH2 0xB66 JUMPI DUP1 PUSH1 0x1F LT PUSH2 0xB3B JUMPI PUSH2 0x100 DUP1 DUP4 SLOAD DIV MUL DUP4 MSTORE SWAP2 PUSH1 0x20 ADD SWAP2 PUSH2 0xB66 JUMP JUMPDEST DUP3 ADD SWAP2 SWAP1 PUSH1 0x0 MSTORE PUSH1 0x20 PUSH1 0x0 KECCAK256 SWAP1 JUMPDEST DUP2 SLOAD DUP2 MSTORE SWAP1 PUSH1 0x1 ADD SWAP1 PUSH1 0x20 ADD DUP1 DUP4 GT PUSH2 0xB49 JUMPI DUP3 SWAP1 SUB PUSH1 0x1F AND DUP3 ADD SWAP2 JUMPDEST POP POP POP POP POP DUP2 MSTORE PUSH1 0x20 ADD PUSH1 0x2 DUP3 ADD PUSH1 0x0 SWAP1 SLOAD SWAP1 PUSH2 0x100 EXP SWAP1 DIV PUSH20 0xFFFFFFFFFFFFFFFFFFFFFFFFFFFFFFFFFFFFFFFF AND PUSH20 0xFFFFFFFFFFFFFFFFFFFFFFFFFFFFFFFFFFFFFFFF AND PUSH20 0xFFFFFFFFFFFFFFFFFFFFFFFFFFFFFFFFFFFFFFFF AND DUP2 MSTORE PUSH1 0x20 ADD PUSH1 0x2 DUP3 ADD PUSH1 0x14 SWAP1 SLOAD SWAP1 PUSH2 0x100 EXP SWAP1 DIV PUSH1 0xFF AND PUSH1 0x2 DUP2 GT ISZERO PUSH2 0xBEA JUMPI PUSH2 0xBE9 PUSH2 0x7636 JUMP JUMPDEST JUMPDEST PUSH1 0x2 DUP2 GT ISZERO PUSH2 0xBFC JUMPI PUSH2 0xBFB PUSH2 0x7636 JUMP JUMPDEST JUMPDEST DUP2 MSTORE PUSH1 0x20 ADD PUSH1 0x2 DUP3 ADD PUSH1 0x15 SWAP1 SLOAD SWAP1 PUSH2 0x100 EXP SWAP1 DIV PUSH1 0xFF AND PUSH1 0x1 DUP2 GT ISZERO PUSH2 0xC25 JUMPI PUSH2 0xC24 PUSH2 0x7636 JUMP JUMPDEST JUMPDEST PUSH1 0x1 DUP2 GT ISZERO PUSH2 0xC37 JUMPI PUSH2 0xC36 PUSH2 0x7636 JUMP JUMPDEST JUMPDEST DUP2 MSTORE POP POP SWAP1 POP SWAP1 JUMP JUMPDEST PUSH1 0x0 PUSH2 0xC4A PUSH2 0x728E JUMP JUMPDEST PUSH2 0xC52 PUSH2 0x72FB JUMP JUMPDEST DUP4 PUSH1 0x0 PUSH20 0xFFFFFFFFFFFFFFFFFFFFFFFFFFFFFFFFFFFFFFFF AND DUP2 PUSH20 0xFFFFFFFFFFFFFFFFFFFFFFFFFFFFFFFFFFFFFFFF AND SUB PUSH2 0xCC2 JUMPI PUSH1 0x40 MLOAD PUSH32 0x8C379A000000000000000000000000000000000000000000000000000000000 DUP2 MSTORE PUSH1 0x4 ADD PUSH2 0xCB9 SWAP1 PUSH2 0x8B53 JUMP JUMPDEST PUSH1 0x40 MLOAD DUP1 SWAP2 SUB SWAP1 REVERT JUMPDEST PUSH1 0x0 PUSH20 0xFFFFFFFFFFFFFFFFFFFFFFFFFFFFFFFFFFFFFFFF AND PUSH1 0x1 PUSH1 0x0 DUP4 PUSH20 0xFFFFFFFFFFFFFFFFFFFFFFFFFFFFFFFFFFFFFFFF AND PUSH20 0xFFFFFFFFFFFFFFFFFFFFFFFFFFFFFFFFFFFFFFFF AND DUP2 MSTORE PUSH1 0x20 ADD SWAP1 DUP2 MSTORE PUSH1 0x20 ADD PUSH1 0x0 KECCAK256 PUSH1 0x2 ADD PUSH1 0x2 SWAP1 SLOAD SWAP1 PUSH2 0x100 EXP SWAP1 DIV PUSH20 0xFFFFFFFFFFFFFFFFFFFFFFFFFFFFFFFFFFFFFFFF AND PUSH20 0xFFFFFFFFFFFFFFFFFFFFFFFFFFFFFFFFFFFFFFFF AND SUB PUSH2 0xD93 JUMPI PUSH1 0x40 MLOAD PUSH32 0x8C379A000000000000000000000000000000000000000000000000000000000 DUP2 MSTORE PUSH1 0x4 ADD PUSH2 0xD8A SWAP1 PUSH2 0x8BBF JUMP JUMPDEST PUSH1 0x40 MLOAD DUP1 SWAP2 SUB SWAP1 REVERT JUMPDEST PUSH2 0xE76 PUSH1 0x1 PUSH1 0x0 DUP4 PUSH20 0xFFFFFFFFFFFFFFFFFFFFFFFFFFFFFFFFFFFFFFFF AND PUSH20 0xFFFFFFFFFFFFFFFFFFFFFFFFFFFFFFFFFFFFFFFF AND DUP2 MSTORE PUSH1 0x20 ADD SWAP1 DUP2 MSTORE PUSH1 0x20 ADD PUSH1 0x0 KECCAK256 PUSH1 0x1 ADD DUP1 SLOAD PUSH2 0xDE3 SWAP1 PUSH2 0x8780 JUMP JUMPDEST DUP1 PUSH1 0x1F ADD PUSH1 0x20 DUP1 SWAP2 DIV MUL PUSH1 0x20 ADD PUSH1 0x40 MLOAD SWAP1 DUP2 ADD PUSH1 0x40 MSTORE DUP1 SWAP3 SWAP2 SWAP1 DUP2 DUP2 MSTORE PUSH1 0x20 ADD DUP3 DUP1 SLOAD PUSH2 0xE0F SWAP1 PUSH2 0x8780 JUMP JUMPDEST DUP1 ISZERO PUSH2 0xE5C JUMPI DUP1 PUSH1 0x1F LT PUSH2 0xE31 JUMPI PUSH2 0x100 DUP1 DUP4 SLOAD DIV MUL DUP4 MSTORE SWAP2 PUSH1 0x20 ADD SWAP2 PUSH2 0xE5C JUMP JUMPDEST DUP3 ADD SWAP2 SWAP1 PUSH1 0x0 MSTORE PUSH1 0x20 PUSH1 0x0 KECCAK256 SWAP1 JUMPDEST DUP2 SLOAD DUP2 MSTORE SWAP1 PUSH1 0x1 ADD SWAP1 PUSH1 0x20 ADD DUP1 DUP4 GT PUSH2 0xE3F JUMPI DUP3 SWAP1 SUB PUSH1 0x1F AND DUP3 ADD SWAP2 JUMPDEST POP POP POP POP POP PUSH1 0x40 MLOAD DUP1 PUSH1 0x20 ADD PUSH1 0x40 MSTORE DUP1 PUSH1 0x0 DUP2 MSTORE POP PUSH2 0x5C84 JUMP JUMPDEST ISZERO PUSH2 0xEB6 JUMPI PUSH1 0x40 MLOAD PUSH32 0x8C379A000000000000000000000000000000000000000000000000000000000 DUP2 MSTORE PUSH1 0x4 ADD PUSH2 0xEAD SWAP1 PUSH2 0x8C2B JUMP JUMPDEST PUSH1 0x40 MLOAD DUP1 SWAP2 SUB SWAP1 REVERT JUMPDEST CALLER PUSH1 0x0 PUSH20 0xFFFFFFFFFFFFFFFFFFFFFFFFFFFFFFFFFFFFFFFF AND PUSH1 0x3 PUSH1 0x0 DUP4 PUSH20 0xFFFFFFFFFFFFFFFFFFFFFFFFFFFFFFFFFFFFFFFF AND PUSH20 0xFFFFFFFFFFFFFFFFFFFFFFFFFFFFFFFFFFFFFFFF AND DUP2 MSTORE PUSH1 0x20 ADD SWAP1 DUP2 MSTORE PUSH1 0x20 ADD PUSH1 0x0 KECCAK256 PUSH1 0x2 ADD PUSH1 0x0 SWAP1 SLOAD SWAP1 PUSH2 0x100 EXP SWAP1 DIV PUSH20 0xFFFFFFFFFFFFFFFFFFFFFFFFFFFFFFFFFFFFFFFF AND PUSH20 0xFFFFFFFFFFFFFFFFFFFFFFFFFFFFFFFFFFFFFFFF AND SUB PUSH2 0xF88 JUMPI PUSH1 0x40 MLOAD PUSH32 0x8C379A000000000000000000000000000000000000000000000000000000000 DUP2 MSTORE PUSH1 0x4 ADD PUSH2 0xF7F SWAP1 PUSH2 0x85E7 JUMP JUMPDEST PUSH1 0x40 MLOAD DUP1 SWAP2 SUB SWAP1 REVERT JUMPDEST DUP1 PUSH20 0xFFFFFFFFFFFFFFFFFFFFFFFFFFFFFFFFFFFFFFFF AND PUSH1 0x3 PUSH1 0x0 DUP4 PUSH20 0xFFFFFFFFFFFFFFFFFFFFFFFFFFFFFFFFFFFFFFFF AND PUSH20 0xFFFFFFFFFFFFFFFFFFFFFFFFFFFFFFFFFFFFFFFF AND DUP2 MSTORE PUSH1 0x20 ADD SWAP1 DUP2 MSTORE PUSH1 0x20 ADD PUSH1 0x0 KECCAK256 PUSH1 0x2 ADD PUSH1 0x0 SWAP1 SLOAD SWAP1 PUSH2 0x100 EXP SWAP1 DIV PUSH20 0xFFFFFFFFFFFFFFFFFFFFFFFFFFFFFFFFFFFFFFFF AND PUSH20 0xFFFFFFFFFFFFFFFFFFFFFFFFFFFFFFFFFFFFFFFF AND EQ PUSH2 0x1058 JUMPI PUSH1 0x40 MLOAD PUSH32 0x8C379A000000000000000000000000000000000000000000000000000000000 DUP2 MSTORE PUSH1 0x4 ADD PUSH2 0x104F SWAP1 PUSH2 0x8679 JUMP JUMPDEST PUSH1 0x40 MLOAD DUP1 SWAP2 SUB SWAP1 REVERT JUMPDEST PUSH1 0x0 PUSH1 0x1 DUP2 GT ISZERO PUSH2 0x106C JUMPI PUSH2 0x106B PUSH2 0x7636 JUMP JUMPDEST JUMPDEST PUSH1 0x3 PUSH1 0x0 DUP4 PUSH20 0xFFFFFFFFFFFFFFFFFFFFFFFFFFFFFFFFFFFFFFFF AND PUSH20 0xFFFFFFFFFFFFFFFFFFFFFFFFFFFFFFFFFFFFFFFF AND DUP2 MSTORE PUSH1 0x20 ADD SWAP1 DUP2 MSTORE PUSH1 0x20 ADD PUSH1 0x0 KECCAK256 PUSH1 0x4 ADD PUSH1 0x2 SWAP1 SLOAD SWAP1 PUSH2 0x100 EXP SWAP1 DIV PUSH1 0xFF AND PUSH1 0x1 DUP2 GT ISZERO PUSH2 0x10CE JUMPI PUSH2 0x10CD PUSH2 0x7636 JUMP JUMPDEST JUMPDEST EQ PUSH2 0x110E JUMPI PUSH1 0x40 MLOAD PUSH32 0x8C379A000000000000000000000000000000000000000000000000000000000 DUP2 MSTORE PUSH1 0x4 ADD PUSH2 0x1105 SWAP1 PUSH2 0x8731 JUMP JUMPDEST PUSH1 0x40 MLOAD DUP1 SWAP2 SUB SWAP1 REVERT JUMPDEST PUSH1 0x0 PUSH2 0x1118 PUSH2 0x728E JUMP JUMPDEST PUSH2 0x1120 PUSH2 0x72FB JUMP JUMPDEST PUSH2 0x11ED DUP10 PUSH1 0x8 PUSH1 0x0 CALLER PUSH20 0xFFFFFFFFFFFFFFFFFFFFFFFFFFFFFFFFFFFFFFFF AND PUSH20 0xFFFFFFFFFFFFFFFFFFFFFFFFFFFFFFFFFFFFFFFF AND DUP2 MSTORE PUSH1 0x20 ADD SWAP1 DUP2 MSTORE PUSH1 0x20 ADD PUSH1 0x0 KECCAK256 DUP1 SLOAD DUP1 PUSH1 0x20 MUL PUSH1 0x20 ADD PUSH1 0x40 MLOAD SWAP1 DUP2 ADD PUSH1 0x40 MSTORE DUP1 SWAP3 SWAP2 SWAP1 DUP2 DUP2 MSTORE PUSH1 0x20 ADD DUP3 DUP1 SLOAD DUP1 ISZERO PUSH2 0x11E3 JUMPI PUSH1 0x20 MUL DUP3 ADD SWAP2 SWAP1 PUSH1 0x0 MSTORE PUSH1 0x20 PUSH1 0x0 KECCAK256 SWAP1 JUMPDEST DUP2 PUSH1 0x0 SWAP1 SLOAD SWAP1 PUSH2 0x100 EXP SWAP1 DIV PUSH20 0xFFFFFFFFFFFFFFFFFFFFFFFFFFFFFFFFFFFFFFFF AND PUSH20 0xFFFFFFFFFFFFFFFFFFFFFFFFFFFFFFFFFFFFFFFF AND DUP2 MSTORE PUSH1 0x20 ADD SWAP1 PUSH1 0x1 ADD SWAP1 DUP1 DUP4 GT PUSH2 0x1199 JUMPI JUMPDEST POP POP POP POP POP PUSH2 0x5CDD JUMP JUMPDEST DUP1 SWAP4 POP DUP2 SWAP5 POP POP POP DUP3 ISZERO PUSH2 0x1637 JUMPI PUSH1 0x7 PUSH2 0x1207 CALLER DUP12 PUSH2 0x604E JUMP JUMPDEST PUSH1 0x40 MLOAD PUSH2 0x1214 SWAP2 SWAP1 PUSH2 0x8C87 JUMP JUMPDEST SWAP1 DUP2 MSTORE PUSH1 0x20 ADD PUSH1 0x40 MLOAD DUP1 SWAP2 SUB SWAP1 KECCAK256 PUSH1 0x40 MLOAD DUP1 PUSH2 0x140 ADD PUSH1 0x40 MSTORE SWAP1 DUP2 PUSH1 0x0 DUP3 ADD DUP1 SLOAD PUSH2 0x123E SWAP1 PUSH2 0x8780 JUMP JUMPDEST DUP1 PUSH1 0x1F ADD PUSH1 0x20 DUP1 SWAP2 DIV MUL PUSH1 0x20 ADD PUSH1 0x40 MLOAD SWAP1 DUP2 ADD PUSH1 0x40 MSTORE DUP1 SWAP3 SWAP2 SWAP1 DUP2 DUP2 MSTORE PUSH1 0x20 ADD DUP3 DUP1 SLOAD PUSH2 0x126A SWAP1 PUSH2 0x8780 JUMP JUMPDEST DUP1 ISZERO PUSH2 0x12B7 JUMPI DUP1 PUSH1 0x1F LT PUSH2 0x128C JUMPI PUSH2 0x100 DUP1 DUP4 SLOAD DIV MUL DUP4 MSTORE SWAP2 PUSH1 0x20 ADD SWAP2 PUSH2 0x12B7 JUMP JUMPDEST DUP3 ADD SWAP2 SWAP1 PUSH1 0x0 MSTORE PUSH1 0x20 PUSH1 0x0 KECCAK256 SWAP1 JUMPDEST DUP2 SLOAD DUP2 MSTORE SWAP1 PUSH1 0x1 ADD SWAP1 PUSH1 0x20 ADD DUP1 DUP4 GT PUSH2 0x129A JUMPI DUP3 SWAP1 SUB PUSH1 0x1F AND DUP3 ADD SWAP2 JUMPDEST POP POP POP POP POP DUP2 MSTORE PUSH1 0x20 ADD PUSH1 0x1 DUP3 ADD PUSH1 0x0 SWAP1 SLOAD SWAP1 PUSH2 0x100 EXP SWAP1 DIV PUSH20 0xFFFFFFFFFFFFFFFFFFFFFFFFFFFFFFFFFFFFFFFF AND PUSH20 0xFFFFFFFFFFFFFFFFFFFFFFFFFFFFFFFFFFFFFFFF AND PUSH20 0xFFFFFFFFFFFFFFFFFFFFFFFFFFFFFFFFFFFFFFFF AND DUP2 MSTORE PUSH1 0x20 ADD PUSH1 0x2 DUP3 ADD DUP1 SLOAD PUSH2 0x1326 SWAP1 PUSH2 0x8780 JUMP JUMPDEST DUP1 PUSH1 0x1F ADD PUSH1 0x20 DUP1 SWAP2 DIV MUL PUSH1 0x20 ADD PUSH1 0x40 MLOAD SWAP1 DUP2 ADD PUSH1 0x40 MSTORE DUP1 SWAP3 SWAP2 SWAP1 DUP2 DUP2 MSTORE PUSH1 0x20 ADD DUP3 DUP1 SLOAD PUSH2 0x1352 SWAP1 PUSH2 0x8780 JUMP JUMPDEST DUP1 ISZERO PUSH2 0x139F JUMPI DUP1 PUSH1 0x1F LT PUSH2 0x1374 JUMPI PUSH2 0x100 DUP1 DUP4 SLOAD DIV MUL DUP4 MSTORE SWAP2 PUSH1 0x20 ADD SWAP2 PUSH2 0x139F JUMP JUMPDEST DUP3 ADD SWAP2 SWAP1 PUSH1 0x0 MSTORE PUSH1 0x20 PUSH1 0x0 KECCAK256 SWAP1 JUMPDEST DUP2 SLOAD DUP2 MSTORE SWAP1 PUSH1 0x1 ADD SWAP1 PUSH1 0x20 ADD DUP1 DUP4 GT PUSH2 0x1382 JUMPI DUP3 SWAP1 SUB PUSH1 0x1F AND DUP3 ADD SWAP2 JUMPDEST POP POP POP POP POP DUP2 MSTORE PUSH1 0x20 ADD PUSH1 0x3 DUP3 ADD PUSH1 0x0 SWAP1 SLOAD SWAP1 PUSH2 0x100 EXP SWAP1 DIV PUSH20 0xFFFFFFFFFFFFFFFFFFFFFFFFFFFFFFFFFFFFFFFF AND PUSH20 0xFFFFFFFFFFFFFFFFFFFFFFFFFFFFFFFFFFFFFFFF AND PUSH20 0xFFFFFFFFFFFFFFFFFFFFFFFFFFFFFFFFFFFFFFFF AND DUP2 MSTORE PUSH1 0x20 ADD PUSH1 0x4 DUP3 ADD DUP1 SLOAD PUSH2 0x140E SWAP1 PUSH2 0x8780 JUMP JUMPDEST DUP1 PUSH1 0x1F ADD PUSH1 0x20 DUP1 SWAP2 DIV MUL PUSH1 0x20 ADD PUSH1 0x40 MLOAD SWAP1 DUP2 ADD PUSH1 0x40 MSTORE DUP1 SWAP3 SWAP2 SWAP1 DUP2 DUP2 MSTORE PUSH1 0x20 ADD DUP3 DUP1 SLOAD PUSH2 0x143A SWAP1 PUSH2 0x8780 JUMP JUMPDEST DUP1 ISZERO PUSH2 0x1487 JUMPI DUP1 PUSH1 0x1F LT PUSH2 0x145C JUMPI PUSH2 0x100 DUP1 DUP4 SLOAD DIV MUL DUP4 MSTORE SWAP2 PUSH1 0x20 ADD SWAP2 PUSH2 0x1487 JUMP JUMPDEST DUP3 ADD SWAP2 SWAP1 PUSH1 0x0 MSTORE PUSH1 0x20 PUSH1 0x0 KECCAK256 SWAP1 JUMPDEST DUP2 SLOAD DUP2 MSTORE SWAP1 PUSH1 0x1 ADD SWAP1 PUSH1 0x20 ADD DUP1 DUP4 GT PUSH2 0x146A JUMPI DUP3 SWAP1 SUB PUSH1 0x1F AND DUP3 ADD SWAP2 JUMPDEST POP POP POP POP POP DUP2 MSTORE PUSH1 0x20 ADD PUSH1 0x5 DUP3 ADD DUP1 SLOAD PUSH2 0x14A0 SWAP1 PUSH2 0x8780 JUMP JUMPDEST DUP1 PUSH1 0x1F ADD PUSH1 0x20 DUP1 SWAP2 DIV MUL PUSH1 0x20 ADD PUSH1 0x40 MLOAD SWAP1 DUP2 ADD PUSH1 0x40 MSTORE DUP1 SWAP3 SWAP2 SWAP1 DUP2 DUP2 MSTORE PUSH1 0x20 ADD DUP3 DUP1 SLOAD PUSH2 0x14CC SWAP1 PUSH2 0x8780 JUMP JUMPDEST DUP1 ISZERO PUSH2 0x1519 JUMPI DUP1 PUSH1 0x1F LT PUSH2 0x14EE JUMPI PUSH2 0x100 DUP1 DUP4 SLOAD DIV MUL DUP4 MSTORE SWAP2 PUSH1 0x20 ADD SWAP2 PUSH2 0x1519 JUMP JUMPDEST DUP3 ADD SWAP2 SWAP1 PUSH1 0x0 MSTORE PUSH1 0x20 PUSH1 0x0 KECCAK256 SWAP1 JUMPDEST DUP2 SLOAD DUP2 MSTORE SWAP1 PUSH1 0x1 ADD SWAP1 PUSH1 0x20 ADD DUP1 DUP4 GT PUSH2 0x14FC JUMPI DUP3 SWAP1 SUB PUSH1 0x1F AND DUP3 ADD SWAP2 JUMPDEST POP POP POP POP POP DUP2 MSTORE PUSH1 0x20 ADD PUSH1 0x6 DUP3 ADD SLOAD DUP2 MSTORE PUSH1 0x20 ADD PUSH1 0x7 DUP3 ADD PUSH1 0x0 SWAP1 SLOAD SWAP1 PUSH2 0x100 EXP SWAP1 DIV PUSH1 0xFF AND PUSH1 0x2 DUP2 GT ISZERO PUSH2 0x1551 JUMPI PUSH2 0x1550 PUSH2 0x7636 JUMP JUMPDEST JUMPDEST PUSH1 0x2 DUP2 GT ISZERO PUSH2 0x1563 JUMPI PUSH2 0x1562 PUSH2 0x7636 JUMP JUMPDEST JUMPDEST DUP2 MSTORE PUSH1 0x20 ADD PUSH1 0x7 DUP3 ADD PUSH1 0x1 SWAP1 SLOAD SWAP1 PUSH2 0x100 EXP SWAP1 DIV PUSH1 0xFF AND PUSH1 0x2 DUP2 GT ISZERO PUSH2 0x158C JUMPI PUSH2 0x158B PUSH2 0x7636 JUMP JUMPDEST JUMPDEST PUSH1 0x2 DUP2 GT ISZERO PUSH2 0x159E JUMPI PUSH2 0x159D PUSH2 0x7636 JUMP JUMPDEST JUMPDEST DUP2 MSTORE PUSH1 0x20 ADD PUSH1 0x8 DUP3 ADD DUP1 SLOAD PUSH2 0x15B2 SWAP1 PUSH2 0x8780 JUMP JUMPDEST DUP1 PUSH1 0x1F ADD PUSH1 0x20 DUP1 SWAP2 DIV MUL PUSH1 0x20 ADD PUSH1 0x40 MLOAD SWAP1 DUP2 ADD PUSH1 0x40 MSTORE DUP1 SWAP3 SWAP2 SWAP1 DUP2 DUP2 MSTORE PUSH1 0x20 ADD DUP3 DUP1 SLOAD PUSH2 0x15DE SWAP1 PUSH2 0x8780 JUMP JUMPDEST DUP1 ISZERO PUSH2 0x162B JUMPI DUP1 PUSH1 0x1F LT PUSH2 0x1600 JUMPI PUSH2 0x100 DUP1 DUP4 SLOAD DIV MUL DUP4 MSTORE SWAP2 PUSH1 0x20 ADD SWAP2 PUSH2 0x162B JUMP JUMPDEST DUP3 ADD SWAP2 SWAP1 PUSH1 0x0 MSTORE PUSH1 0x20 PUSH1 0x0 KECCAK256 SWAP1 JUMPDEST DUP2 SLOAD DUP2 MSTORE SWAP1 PUSH1 0x1 ADD SWAP1 PUSH1 0x20 ADD DUP1 DUP4 GT PUSH2 0x160E JUMPI DUP3 SWAP1 SUB PUSH1 0x1F AND DUP3 ADD SWAP2 JUMPDEST POP POP POP POP POP DUP2 MSTORE POP POP SWAP1 POP JUMPDEST DUP3 DUP3 DUP3 SWAP8 POP SWAP8 POP SWAP8 POP POP POP POP POP POP SWAP2 SWAP4 SWAP1 SWAP3 POP JUMP JUMPDEST PUSH2 0x1654 PUSH2 0x4A62 JUMP JUMPDEST PUSH2 0x165F DUP4 DUP4 DUP4 PUSH2 0x607A JUMP JUMPDEST DUP1 PUSH1 0x6 PUSH1 0x0 DUP6 PUSH20 0xFFFFFFFFFFFFFFFFFFFFFFFFFFFFFFFFFFFFFFFF AND PUSH20 0xFFFFFFFFFFFFFFFFFFFFFFFFFFFFFFFFFFFFFFFF AND DUP2 MSTORE PUSH1 0x20 ADD SWAP1 DUP2 MSTORE PUSH1 0x20 ADD PUSH1 0x0 KECCAK256 PUSH1 0x0 ADD SWAP1 DUP2 PUSH2 0x16AE SWAP2 SWAP1 PUSH2 0x895D JUMP JUMPDEST POP DUP2 PUSH1 0x6 PUSH1 0x0 DUP6 PUSH20 0xFFFFFFFFFFFFFFFFFFFFFFFFFFFFFFFFFFFFFFFF AND PUSH20 0xFFFFFFFFFFFFFFFFFFFFFFFFFFFFFFFFFFFFFFFF AND DUP2 MSTORE PUSH1 0x20 ADD SWAP1 DUP2 MSTORE PUSH1 0x20 ADD PUSH1 0x0 KECCAK256 PUSH1 0x1 ADD SWAP1 DUP2 PUSH2 0x16FE SWAP2 SWAP1 PUSH2 0x895D JUMP JUMPDEST POP POP POP POP JUMP JUMPDEST CALLER PUSH1 0x0 PUSH20 0xFFFFFFFFFFFFFFFFFFFFFFFFFFFFFFFFFFFFFFFF AND PUSH1 0x3 PUSH1 0x0 DUP4 PUSH20 0xFFFFFFFFFFFFFFFFFFFFFFFFFFFFFFFFFFFFFFFF AND PUSH20 0xFFFFFFFFFFFFFFFFFFFFFFFFFFFFFFFFFFFFFFFF AND DUP2 MSTORE PUSH1 0x20 ADD SWAP1 DUP2 MSTORE PUSH1 0x20 ADD PUSH1 0x0 KECCAK256 PUSH1 0x2 ADD PUSH1 0x0 SWAP1 SLOAD SWAP1 PUSH2 0x100 EXP SWAP1 DIV PUSH20 0xFFFFFFFFFFFFFFFFFFFFFFFFFFFFFFFFFFFFFFFF AND PUSH20 0xFFFFFFFFFFFFFFFFFFFFFFFFFFFFFFFFFFFFFFFF AND SUB PUSH2 0x17D6 JUMPI PUSH1 0x40 MLOAD PUSH32 0x8C379A000000000000000000000000000000000000000000000000000000000 DUP2 MSTORE PUSH1 0x4 ADD PUSH2 0x17CD SWAP1 PUSH2 0x85E7 JUMP JUMPDEST PUSH1 0x40 MLOAD DUP1 SWAP2 SUB SWAP1 REVERT JUMPDEST DUP1 PUSH20 0xFFFFFFFFFFFFFFFFFFFFFFFFFFFFFFFFFFFFFFFF AND PUSH1 0x3 PUSH1 0x0 DUP4 PUSH20 0xFFFFFFFFFFFFFFFFFFFFFFFFFFFFFFFFFFFFFFFF AND PUSH20 0xFFFFFFFFFFFFFFFFFFFFFFFFFFFFFFFFFFFFFFFF AND DUP2 MSTORE PUSH1 0x20 ADD SWAP1 DUP2 MSTORE PUSH1 0x20 ADD PUSH1 0x0 KECCAK256 PUSH1 0x2 ADD PUSH1 0x0 SWAP1 SLOAD SWAP1 PUSH2 0x100 EXP SWAP1 DIV PUSH20 0xFFFFFFFFFFFFFFFFFFFFFFFFFFFFFFFFFFFFFFFF AND PUSH20 0xFFFFFFFFFFFFFFFFFFFFFFFFFFFFFFFFFFFFFFFF AND EQ PUSH2 0x18A6 JUMPI PUSH1 0x40 MLOAD PUSH32 0x8C379A000000000000000000000000000000000000000000000000000000000 DUP2 MSTORE PUSH1 0x4 ADD PUSH2 0x189D SWAP1 PUSH2 0x8679 JUMP JUMPDEST PUSH1 0x40 MLOAD DUP1 SWAP2 SUB SWAP1 REVERT JUMPDEST PUSH1 0x0 PUSH1 0x1 DUP2 GT ISZERO PUSH2 0x18BA JUMPI PUSH2 0x18B9 PUSH2 0x7636 JUMP JUMPDEST JUMPDEST PUSH1 0x3 PUSH1 0x0 DUP4 PUSH20 0xFFFFFFFFFFFFFFFFFFFFFFFFFFFFFFFFFFFFFFFF AND PUSH20 0xFFFFFFFFFFFFFFFFFFFFFFFFFFFFFFFFFFFFFFFF AND DUP2 MSTORE PUSH1 0x20 ADD SWAP1 DUP2 MSTORE PUSH1 0x20 ADD PUSH1 0x0 KECCAK256 PUSH1 0x4 ADD PUSH1 0x2 SWAP1 SLOAD SWAP1 PUSH2 0x100 EXP SWAP1 DIV PUSH1 0xFF AND PUSH1 0x1 DUP2 GT ISZERO PUSH2 0x191C JUMPI PUSH2 0x191B PUSH2 0x7636 JUMP JUMPDEST JUMPDEST EQ PUSH2 0x195C JUMPI PUSH1 0x40 MLOAD PUSH32 0x8C379A000000000000000000000000000000000000000000000000000000000 DUP2 MSTORE PUSH1 0x4 ADD PUSH2 0x1953 SWAP1 PUSH2 0x8731 JUMP JUMPDEST PUSH1 0x40 MLOAD DUP1 SWAP2 SUB SWAP1 REVERT JUMPDEST PUSH1 0x0 PUSH2 0x1968 CALLER DUP6 PUSH2 0x604E JUMP JUMPDEST SWAP1 POP PUSH2 0x1973 DUP2 PUSH2 0x622B JUMP JUMPDEST PUSH2 0x19B2 JUMPI PUSH1 0x40 MLOAD PUSH32 0x8C379A000000000000000000000000000000000000000000000000000000000 DUP2 MSTORE PUSH1 0x4 ADD PUSH2 0x19A9 SWAP1 PUSH2 0x8CEA JUMP JUMPDEST PUSH1 0x40 MLOAD DUP1 SWAP2 SUB SWAP1 REVERT JUMPDEST PUSH2 0x19BB DUP5 PUSH2 0x6340 JUMP JUMPDEST PUSH2 0x19FA JUMPI PUSH1 0x40 MLOAD PUSH32 0x8C379A000000000000000000000000000000000000000000000000000000000 DUP2 MSTORE PUSH1 0x4 ADD PUSH2 0x19F1 SWAP1 PUSH2 0x8D56 JUMP JUMPDEST PUSH1 0x40 MLOAD DUP1 SWAP2 SUB SWAP1 REVERT JUMPDEST PUSH1 0x0 PUSH1 0x7 DUP3 PUSH1 0x40 MLOAD PUSH2 0x1A0C SWAP2 SWAP1 PUSH2 0x8C87 JUMP JUMPDEST SWAP1 DUP2 MSTORE PUSH1 0x20 ADD PUSH1 0x40 MLOAD DUP1 SWAP2 SUB SWAP1 KECCAK256 PUSH1 0x7 ADD PUSH1 0x0 PUSH2 0x100 EXP DUP2 SLOAD DUP2 PUSH1 0xFF MUL NOT AND SWAP1 DUP4 PUSH1 0x2 DUP2 GT ISZERO PUSH2 0x1A3F JUMPI PUSH2 0x1A3E PUSH2 0x7636 JUMP JUMPDEST JUMPDEST MUL OR SWAP1 SSTORE POP PUSH1 0x0 PUSH1 0x7 DUP3 PUSH1 0x40 MLOAD PUSH2 0x1A56 SWAP2 SWAP1 PUSH2 0x8C87 JUMP JUMPDEST SWAP1 DUP2 MSTORE PUSH1 0x20 ADD PUSH1 0x40 MLOAD DUP1 SWAP2 SUB SWAP1 KECCAK256 PUSH1 0x7 ADD PUSH1 0x1 PUSH2 0x100 EXP DUP2 SLOAD DUP2 PUSH1 0xFF MUL NOT AND SWAP1 DUP4 PUSH1 0x2 DUP2 GT ISZERO PUSH2 0x1A89 JUMPI PUSH2 0x1A88 PUSH2 0x7636 JUMP JUMPDEST JUMPDEST MUL OR SWAP1 SSTORE POP DUP3 PUSH1 0x7 DUP3 PUSH1 0x40 MLOAD PUSH2 0x1A9F SWAP2 SWAP1 PUSH2 0x8C87 JUMP JUMPDEST SWAP1 DUP2 MSTORE PUSH1 0x20 ADD PUSH1 0x40 MLOAD DUP1 SWAP2 SUB SWAP1 KECCAK256 PUSH1 0x8 ADD SWAP1 DUP2 PUSH2 0x1ABC SWAP2 SWAP1 PUSH2 0x895D JUMP JUMPDEST POP PUSH32 0x354CCE7003647C7A26DFCEA100FA1E84602BC520067F5BFEF90677AA0CD4FF86 DUP2 PUSH1 0x7 DUP4 PUSH1 0x40 MLOAD PUSH2 0x1AEF SWAP2 SWAP1 PUSH2 0x8C87 JUMP JUMPDEST SWAP1 DUP2 MSTORE PUSH1 0x20 ADD PUSH1 0x40 MLOAD DUP1 SWAP2 SUB SWAP1 KECCAK256 PUSH1 0x4 ADD PUSH1 0x7 DUP5 PUSH1 0x40 MLOAD PUSH2 0x1B10 SWAP2 SWAP1 PUSH2 0x8C87 JUMP JUMPDEST SWAP1 DUP2 MSTORE PUSH1 0x20 ADD PUSH1 0x40 MLOAD DUP1 SWAP2 SUB SWAP1 KECCAK256 PUSH1 0x2 ADD PUSH1 0x40 MLOAD PUSH2 0x1B30 SWAP4 SWAP3 SWAP2 SWAP1 PUSH2 0x8E33 JUMP JUMPDEST PUSH1 0x40 MLOAD DUP1 SWAP2 SUB SWAP1 LOG1 POP POP POP POP JUMP JUMPDEST PUSH2 0x1B46 PUSH2 0x739E JUMP JUMPDEST DUP2 PUSH1 0x0 PUSH20 0xFFFFFFFFFFFFFFFFFFFFFFFFFFFFFFFFFFFFFFFF AND PUSH1 0x3 PUSH1 0x0 DUP4 PUSH20 0xFFFFFFFFFFFFFFFFFFFFFFFFFFFFFFFFFFFFFFFF AND PUSH20 0xFFFFFFFFFFFFFFFFFFFFFFFFFFFFFFFFFFFFFFFF AND DUP2 MSTORE PUSH1 0x20 ADD SWAP1 DUP2 MSTORE PUSH1 0x20 ADD PUSH1 0x0 KECCAK256 PUSH1 0x2 ADD PUSH1 0x0 SWAP1 SLOAD SWAP1 PUSH2 0x100 EXP SWAP1 DIV PUSH20 0xFFFFFFFFFFFFFFFFFFFFFFFFFFFFFFFFFFFFFFFF AND PUSH20 0xFFFFFFFFFFFFFFFFFFFFFFFFFFFFFFFFFFFFFFFF AND SUB PUSH2 0x1C18 JUMPI PUSH1 0x40 MLOAD PUSH32 0x8C379A000000000000000000000000000000000000000000000000000000000 DUP2 MSTORE PUSH1 0x4 ADD PUSH2 0x1C0F SWAP1 PUSH2 0x85E7 JUMP JUMPDEST PUSH1 0x40 MLOAD DUP1 SWAP2 SUB SWAP1 REVERT JUMPDEST DUP1 PUSH20 0xFFFFFFFFFFFFFFFFFFFFFFFFFFFFFFFFFFFFFFFF AND PUSH1 0x3 PUSH1 0x0 DUP4 PUSH20 0xFFFFFFFFFFFFFFFFFFFFFFFFFFFFFFFFFFFFFFFF AND PUSH20 0xFFFFFFFFFFFFFFFFFFFFFFFFFFFFFFFFFFFFFFFF AND DUP2 MSTORE PUSH1 0x20 ADD SWAP1 DUP2 MSTORE PUSH1 0x20 ADD PUSH1 0x0 KECCAK256 PUSH1 0x2 ADD PUSH1 0x0 SWAP1 SLOAD SWAP1 PUSH2 0x100 EXP SWAP1 DIV PUSH20 0xFFFFFFFFFFFFFFFFFFFFFFFFFFFFFFFFFFFFFFFF AND PUSH20 0xFFFFFFFFFFFFFFFFFFFFFFFFFFFFFFFFFFFFFFFF AND EQ PUSH2 0x1CE8 JUMPI PUSH1 0x40 MLOAD PUSH32 0x8C379A000000000000000000000000000000000000000000000000000000000 DUP2 MSTORE PUSH1 0x4 ADD PUSH2 0x1CDF SWAP1 PUSH2 0x8679 JUMP JUMPDEST PUSH1 0x40 MLOAD DUP1 SWAP2 SUB SWAP1 REVERT JUMPDEST PUSH1 0x0 PUSH1 0x1 DUP2 GT ISZERO PUSH2 0x1CFC JUMPI PUSH2 0x1CFB PUSH2 0x7636 JUMP JUMPDEST JUMPDEST PUSH1 0x3 PUSH1 0x0 DUP4 PUSH20 0xFFFFFFFFFFFFFFFFFFFFFFFFFFFFFFFFFFFFFFFF AND PUSH20 0xFFFFFFFFFFFFFFFFFFFFFFFFFFFFFFFFFFFFFFFF AND DUP2 MSTORE PUSH1 0x20 ADD SWAP1 DUP2 MSTORE PUSH1 0x20 ADD PUSH1 0x0 KECCAK256 PUSH1 0x4 ADD PUSH1 0x2 SWAP1 SLOAD SWAP1 PUSH2 0x100 EXP SWAP1 DIV PUSH1 0xFF AND PUSH1 0x1 DUP2 GT ISZERO PUSH2 0x1D5E JUMPI PUSH2 0x1D5D PUSH2 0x7636 JUMP JUMPDEST JUMPDEST EQ PUSH2 0x1D9E JUMPI PUSH1 0x40 MLOAD PUSH32 0x8C379A000000000000000000000000000000000000000000000000000000000 DUP2 MSTORE PUSH1 0x4 ADD PUSH2 0x1D95 SWAP1 PUSH2 0x8731 JUMP JUMPDEST PUSH1 0x40 MLOAD DUP1 SWAP2 SUB SWAP1 REVERT JUMPDEST PUSH2 0x1DA7 DUP4 PUSH2 0x653E JUMP JUMPDEST SWAP2 POP POP SWAP2 SWAP1 POP JUMP JUMPDEST PUSH2 0x1DB7 PUSH2 0x728E JUMP JUMPDEST DUP2 PUSH1 0x0 PUSH20 0xFFFFFFFFFFFFFFFFFFFFFFFFFFFFFFFFFFFFFFFF AND DUP2 PUSH20 0xFFFFFFFFFFFFFFFFFFFFFFFFFFFFFFFFFFFFFFFF AND SUB PUSH2 0x1E27 JUMPI PUSH1 0x40 MLOAD PUSH32 0x8C379A000000000000000000000000000000000000000000000000000000000 DUP2 MSTORE PUSH1 0x4 ADD PUSH2 0x1E1E SWAP1 PUSH2 0x8B53 JUMP JUMPDEST PUSH1 0x40 MLOAD DUP1 SWAP2 SUB SWAP1 REVERT JUMPDEST PUSH1 0x0 PUSH20 0xFFFFFFFFFFFFFFFFFFFFFFFFFFFFFFFFFFFFFFFF AND PUSH1 0x1 PUSH1 0x0 DUP4 PUSH20 0xFFFFFFFFFFFFFFFFFFFFFFFFFFFFFFFFFFFFFFFF AND PUSH20 0xFFFFFFFFFFFFFFFFFFFFFFFFFFFFFFFFFFFFFFFF AND DUP2 MSTORE PUSH1 0x20 ADD SWAP1 DUP2 MSTORE PUSH1 0x20 ADD PUSH1 0x0 KECCAK256 PUSH1 0x2 ADD PUSH1 0x2 SWAP1 SLOAD SWAP1 PUSH2 0x100 EXP SWAP1 DIV PUSH20 0xFFFFFFFFFFFFFFFFFFFFFFFFFFFFFFFFFFFFFFFF AND PUSH20 0xFFFFFFFFFFFFFFFFFFFFFFFFFFFFFFFFFFFFFFFF AND SUB PUSH2 0x1EF8 JUMPI PUSH1 0x40 MLOAD PUSH32 0x8C379A000000000000000000000000000000000000000000000000000000000 DUP2 MSTORE PUSH1 0x4 ADD PUSH2 0x1EEF SWAP1 PUSH2 0x8BBF JUMP JUMPDEST PUSH1 0x40 MLOAD DUP1 SWAP2 SUB SWAP1 REVERT JUMPDEST PUSH2 0x1FDB PUSH1 0x1 PUSH1 0x0 DUP4 PUSH20 0xFFFFFFFFFFFFFFFFFFFFFFFFFFFFFFFFFFFFFFFF AND PUSH20 0xFFFFFFFFFFFFFFFFFFFFFFFFFFFFFFFFFFFFFFFF AND DUP2 MSTORE PUSH1 0x20 ADD SWAP1 DUP2 MSTORE PUSH1 0x20 ADD PUSH1 0x0 KECCAK256 PUSH1 0x1 ADD DUP1 SLOAD PUSH2 0x1F48 SWAP1 PUSH2 0x8780 JUMP JUMPDEST DUP1 PUSH1 0x1F ADD PUSH1 0x20 DUP1 SWAP2 DIV MUL PUSH1 0x20 ADD PUSH1 0x40 MLOAD SWAP1 DUP2 ADD PUSH1 0x40 MSTORE DUP1 SWAP3 SWAP2 SWAP1 DUP2 DUP2 MSTORE PUSH1 0x20 ADD DUP3 DUP1 SLOAD PUSH2 0x1F74 SWAP1 PUSH2 0x8780 JUMP JUMPDEST DUP1 ISZERO PUSH2 0x1FC1 JUMPI DUP1 PUSH1 0x1F LT PUSH2 0x1F96 JUMPI PUSH2 0x100 DUP1 DUP4 SLOAD DIV MUL DUP4 MSTORE SWAP2 PUSH1 0x20 ADD SWAP2 PUSH2 0x1FC1 JUMP JUMPDEST DUP3 ADD SWAP2 SWAP1 PUSH1 0x0 MSTORE PUSH1 0x20 PUSH1 0x0 KECCAK256 SWAP1 JUMPDEST DUP2 SLOAD DUP2 MSTORE SWAP1 PUSH1 0x1 ADD SWAP1 PUSH1 0x20 ADD DUP1 DUP4 GT PUSH2 0x1FA4 JUMPI DUP3 SWAP1 SUB PUSH1 0x1F AND DUP3 ADD SWAP2 JUMPDEST POP POP POP POP POP PUSH1 0x40 MLOAD DUP1 PUSH1 0x20 ADD PUSH1 0x40 MSTORE DUP1 PUSH1 0x0 DUP2 MSTORE POP PUSH2 0x5C84 JUMP JUMPDEST ISZERO PUSH2 0x201B JUMPI PUSH1 0x40 MLOAD PUSH32 0x8C379A000000000000000000000000000000000000000000000000000000000 DUP2 MSTORE PUSH1 0x4 ADD PUSH2 0x2012 SWAP1 PUSH2 0x8C2B JUMP JUMPDEST PUSH1 0x40 MLOAD DUP1 SWAP2 SUB SWAP1 REVERT JUMPDEST PUSH2 0x2024 DUP4 PUSH2 0x686D JUMP JUMPDEST SWAP2 POP POP SWAP2 SWAP1 POP JUMP JUMPDEST PUSH1 0x0 PUSH2 0x2036 PUSH2 0x739E JUMP JUMPDEST PUSH2 0x203E PUSH2 0x72FB JUMP JUMPDEST CALLER PUSH1 0x0 PUSH20 0xFFFFFFFFFFFFFFFFFFFFFFFFFFFFFFFFFFFFFFFF AND DUP2 PUSH20 0xFFFFFFFFFFFFFFFFFFFFFFFFFFFFFFFFFFFFFFFF AND SUB PUSH2 0x20AE JUMPI PUSH1 0x40 MLOAD PUSH32 0x8C379A000000000000000000000000000000000000000000000000000000000 DUP2 MSTORE PUSH1 0x4 ADD PUSH2 0x20A5 SWAP1 PUSH2 0x8B53 JUMP JUMPDEST PUSH1 0x40 MLOAD DUP1 SWAP2 SUB SWAP1 REVERT JUMPDEST PUSH1 0x0 PUSH20 0xFFFFFFFFFFFFFFFFFFFFFFFFFFFFFFFFFFFFFFFF AND PUSH1 0x1 PUSH1 0x0 DUP4 PUSH20 0xFFFFFFFFFFFFFFFFFFFFFFFFFFFFFFFFFFFFFFFF AND PUSH20 0xFFFFFFFFFFFFFFFFFFFFFFFFFFFFFFFFFFFFFFFF AND DUP2 MSTORE PUSH1 0x20 ADD SWAP1 DUP2 MSTORE PUSH1 0x20 ADD PUSH1 0x0 KECCAK256 PUSH1 0x2 ADD PUSH1 0x2 SWAP1 SLOAD SWAP1 PUSH2 0x100 EXP SWAP1 DIV PUSH20 0xFFFFFFFFFFFFFFFFFFFFFFFFFFFFFFFFFFFFFFFF AND PUSH20 0xFFFFFFFFFFFFFFFFFFFFFFFFFFFFFFFFFFFFFFFF AND SUB PUSH2 0x217F JUMPI PUSH1 0x40 MLOAD PUSH32 0x8C379A000000000000000000000000000000000000000000000000000000000 DUP2 MSTORE PUSH1 0x4 ADD PUSH2 0x2176 SWAP1 PUSH2 0x8BBF JUMP JUMPDEST PUSH1 0x40 MLOAD DUP1 SWAP2 SUB SWAP1 REVERT JUMPDEST PUSH2 0x2262 PUSH1 0x1 PUSH1 0x0 DUP4 PUSH20 0xFFFFFFFFFFFFFFFFFFFFFFFFFFFFFFFFFFFFFFFF AND PUSH20 0xFFFFFFFFFFFFFFFFFFFFFFFFFFFFFFFFFFFFFFFF AND DUP2 MSTORE PUSH1 0x20 ADD SWAP1 DUP2 MSTORE PUSH1 0x20 ADD PUSH1 0x0 KECCAK256 PUSH1 0x1 ADD DUP1 SLOAD PUSH2 0x21CF SWAP1 PUSH2 0x8780 JUMP JUMPDEST DUP1 PUSH1 0x1F ADD PUSH1 0x20 DUP1 SWAP2 DIV MUL PUSH1 0x20 ADD PUSH1 0x40 MLOAD SWAP1 DUP2 ADD PUSH1 0x40 MSTORE DUP1 SWAP3 SWAP2 SWAP1 DUP2 DUP2 MSTORE PUSH1 0x20 ADD DUP3 DUP1 SLOAD PUSH2 0x21FB SWAP1 PUSH2 0x8780 JUMP JUMPDEST DUP1 ISZERO PUSH2 0x2248 JUMPI DUP1 PUSH1 0x1F LT PUSH2 0x221D JUMPI PUSH2 0x100 DUP1 DUP4 SLOAD DIV MUL DUP4 MSTORE SWAP2 PUSH1 0x20 ADD SWAP2 PUSH2 0x2248 JUMP JUMPDEST DUP3 ADD SWAP2 SWAP1 PUSH1 0x0 MSTORE PUSH1 0x20 PUSH1 0x0 KECCAK256 SWAP1 JUMPDEST DUP2 SLOAD DUP2 MSTORE SWAP1 PUSH1 0x1 ADD SWAP1 PUSH1 0x20 ADD DUP1 DUP4 GT PUSH2 0x222B JUMPI DUP3 SWAP1 SUB PUSH1 0x1F AND DUP3 ADD SWAP2 JUMPDEST POP POP POP POP POP PUSH1 0x40 MLOAD DUP1 PUSH1 0x20 ADD PUSH1 0x40 MSTORE DUP1 PUSH1 0x0 DUP2 MSTORE POP PUSH2 0x5C84 JUMP JUMPDEST ISZERO PUSH2 0x22A2 JUMPI PUSH1 0x40 MLOAD PUSH32 0x8C379A000000000000000000000000000000000000000000000000000000000 DUP2 MSTORE PUSH1 0x4 ADD PUSH2 0x2299 SWAP1 PUSH2 0x8C2B JUMP JUMPDEST PUSH1 0x40 MLOAD DUP1 SWAP2 SUB SWAP1 REVERT JUMPDEST DUP5 PUSH1 0x0 PUSH20 0xFFFFFFFFFFFFFFFFFFFFFFFFFFFFFFFFFFFFFFFF AND PUSH1 0x3 PUSH1 0x0 DUP4 PUSH20 0xFFFFFFFFFFFFFFFFFFFFFFFFFFFFFFFFFFFFFFFF AND PUSH20 0xFFFFFFFFFFFFFFFFFFFFFFFFFFFFFFFFFFFFFFFF AND DUP2 MSTORE PUSH1 0x20 ADD SWAP1 DUP2 MSTORE PUSH1 0x20 ADD PUSH1 0x0 KECCAK256 PUSH1 0x2 ADD PUSH1 0x0 SWAP1 SLOAD SWAP1 PUSH2 0x100 EXP SWAP1 DIV PUSH20 0xFFFFFFFFFFFFFFFFFFFFFFFFFFFFFFFFFFFFFFFF AND PUSH20 0xFFFFFFFFFFFFFFFFFFFFFFFFFFFFFFFFFFFFFFFF AND SUB PUSH2 0x2374 JUMPI PUSH1 0x40 MLOAD PUSH32 0x8C379A000000000000000000000000000000000000000000000000000000000 DUP2 MSTORE PUSH1 0x4 ADD PUSH2 0x236B SWAP1 PUSH2 0x85E7 JUMP JUMPDEST PUSH1 0x40 MLOAD DUP1 SWAP2 SUB SWAP1 REVERT JUMPDEST DUP1 PUSH20 0xFFFFFFFFFFFFFFFFFFFFFFFFFFFFFFFFFFFFFFFF AND PUSH1 0x3 PUSH1 0x0 DUP4 PUSH20 0xFFFFFFFFFFFFFFFFFFFFFFFFFFFFFFFFFFFFFFFF AND PUSH20 0xFFFFFFFFFFFFFFFFFFFFFFFFFFFFFFFFFFFFFFFF AND DUP2 MSTORE PUSH1 0x20 ADD SWAP1 DUP2 MSTORE PUSH1 0x20 ADD PUSH1 0x0 KECCAK256 PUSH1 0x2 ADD PUSH1 0x0 SWAP1 SLOAD SWAP1 PUSH2 0x100 EXP SWAP1 DIV PUSH20 0xFFFFFFFFFFFFFFFFFFFFFFFFFFFFFFFFFFFFFFFF AND PUSH20 0xFFFFFFFFFFFFFFFFFFFFFFFFFFFFFFFFFFFFFFFF AND EQ PUSH2 0x2444 JUMPI PUSH1 0x40 MLOAD PUSH32 0x8C379A000000000000000000000000000000000000000000000000000000000 DUP2 MSTORE PUSH1 0x4 ADD PUSH2 0x243B SWAP1 PUSH2 0x8679 JUMP JUMPDEST PUSH1 0x40 MLOAD DUP1 SWAP2 SUB SWAP1 REVERT JUMPDEST PUSH1 0x0 PUSH1 0x1 DUP2 GT ISZERO PUSH2 0x2458 JUMPI PUSH2 0x2457 PUSH2 0x7636 JUMP JUMPDEST JUMPDEST PUSH1 0x3 PUSH1 0x0 DUP4 PUSH20 0xFFFFFFFFFFFFFFFFFFFFFFFFFFFFFFFFFFFFFFFF AND PUSH20 0xFFFFFFFFFFFFFFFFFFFFFFFFFFFFFFFFFFFFFFFF AND DUP2 MSTORE PUSH1 0x20 ADD SWAP1 DUP2 MSTORE PUSH1 0x20 ADD PUSH1 0x0 KECCAK256 PUSH1 0x4 ADD PUSH1 0x2 SWAP1 SLOAD SWAP1 PUSH2 0x100 EXP SWAP1 DIV PUSH1 0xFF AND PUSH1 0x1 DUP2 GT ISZERO PUSH2 0x24BA JUMPI PUSH2 0x24B9 PUSH2 0x7636 JUMP JUMPDEST JUMPDEST EQ PUSH2 0x24FA JUMPI PUSH1 0x40 MLOAD PUSH32 0x8C379A000000000000000000000000000000000000000000000000000000000 DUP2 MSTORE PUSH1 0x4 ADD PUSH2 0x24F1 SWAP1 PUSH2 0x8731 JUMP JUMPDEST PUSH1 0x40 MLOAD DUP1 SWAP2 SUB SWAP1 REVERT JUMPDEST PUSH1 0x0 PUSH2 0x2504 PUSH2 0x739E JUMP JUMPDEST PUSH2 0x250C PUSH2 0x72FB JUMP JUMPDEST PUSH1 0x0 PUSH1 0x9 PUSH1 0x0 CALLER PUSH20 0xFFFFFFFFFFFFFFFFFFFFFFFFFFFFFFFFFFFFFFFF AND PUSH20 0xFFFFFFFFFFFFFFFFFFFFFFFFFFFFFFFFFFFFFFFF AND DUP2 MSTORE PUSH1 0x20 ADD SWAP1 DUP2 MSTORE PUSH1 0x20 ADD PUSH1 0x0 KECCAK256 DUP1 SLOAD DUP1 PUSH1 0x20 MUL PUSH1 0x20 ADD PUSH1 0x40 MLOAD SWAP1 DUP2 ADD PUSH1 0x40 MSTORE DUP1 SWAP3 SWAP2 SWAP1 DUP2 DUP2 MSTORE PUSH1 0x20 ADD DUP3 DUP1 SLOAD DUP1 ISZERO PUSH2 0x25CD JUMPI PUSH1 0x20 MUL DUP3 ADD SWAP2 SWAP1 PUSH1 0x0 MSTORE PUSH1 0x20 PUSH1 0x0 KECCAK256 SWAP1 JUMPDEST DUP2 PUSH1 0x0 SWAP1 SLOAD SWAP1 PUSH2 0x100 EXP SWAP1 DIV PUSH20 0xFFFFFFFFFFFFFFFFFFFFFFFFFFFFFFFFFFFFFFFF AND PUSH20 0xFFFFFFFFFFFFFFFFFFFFFFFFFFFFFFFFFFFFFFFF AND DUP2 MSTORE PUSH1 0x20 ADD SWAP1 PUSH1 0x1 ADD SWAP1 DUP1 DUP4 GT PUSH2 0x2583 JUMPI JUMPDEST POP POP POP POP POP SWAP1 POP PUSH1 0x0 JUMPDEST DUP2 MLOAD DUP2 LT ISZERO PUSH2 0x2A8F JUMPI DUP11 PUSH20 0xFFFFFFFFFFFFFFFFFFFFFFFFFFFFFFFFFFFFFFFF AND DUP3 DUP3 DUP2 MLOAD DUP2 LT PUSH2 0x260A JUMPI PUSH2 0x2609 PUSH2 0x8E7F JUMP JUMPDEST JUMPDEST PUSH1 0x20 MUL PUSH1 0x20 ADD ADD MLOAD PUSH20 0xFFFFFFFFFFFFFFFFFFFFFFFFFFFFFFFFFFFFFFFF AND SUB PUSH2 0x2A7C JUMPI PUSH1 0x1 SWAP5 POP PUSH2 0x263A DUP12 PUSH2 0x653E JUMP JUMPDEST SWAP4 POP PUSH1 0x7 PUSH2 0x2648 DUP13 CALLER PUSH2 0x604E JUMP JUMPDEST PUSH1 0x40 MLOAD PUSH2 0x2655 SWAP2 SWAP1 PUSH2 0x8C87 JUMP JUMPDEST SWAP1 DUP2 MSTORE PUSH1 0x20 ADD PUSH1 0x40 MLOAD DUP1 SWAP2 SUB SWAP1 KECCAK256 PUSH1 0x40 MLOAD DUP1 PUSH2 0x140 ADD PUSH1 0x40 MSTORE SWAP1 DUP2 PUSH1 0x0 DUP3 ADD DUP1 SLOAD PUSH2 0x267F SWAP1 PUSH2 0x8780 JUMP JUMPDEST DUP1 PUSH1 0x1F ADD PUSH1 0x20 DUP1 SWAP2 DIV MUL PUSH1 0x20 ADD PUSH1 0x40 MLOAD SWAP1 DUP2 ADD PUSH1 0x40 MSTORE DUP1 SWAP3 SWAP2 SWAP1 DUP2 DUP2 MSTORE PUSH1 0x20 ADD DUP3 DUP1 SLOAD PUSH2 0x26AB SWAP1 PUSH2 0x8780 JUMP JUMPDEST DUP1 ISZERO PUSH2 0x26F8 JUMPI DUP1 PUSH1 0x1F LT PUSH2 0x26CD JUMPI PUSH2 0x100 DUP1 DUP4 SLOAD DIV MUL DUP4 MSTORE SWAP2 PUSH1 0x20 ADD SWAP2 PUSH2 0x26F8 JUMP JUMPDEST DUP3 ADD SWAP2 SWAP1 PUSH1 0x0 MSTORE PUSH1 0x20 PUSH1 0x0 KECCAK256 SWAP1 JUMPDEST DUP2 SLOAD DUP2 MSTORE SWAP1 PUSH1 0x1 ADD SWAP1 PUSH1 0x20 ADD DUP1 DUP4 GT PUSH2 0x26DB JUMPI DUP3 SWAP1 SUB PUSH1 0x1F AND DUP3 ADD SWAP2 JUMPDEST POP POP POP POP POP DUP2 MSTORE PUSH1 0x20 ADD PUSH1 0x1 DUP3 ADD PUSH1 0x0 SWAP1 SLOAD SWAP1 PUSH2 0x100 EXP SWAP1 DIV PUSH20 0xFFFFFFFFFFFFFFFFFFFFFFFFFFFFFFFFFFFFFFFF AND PUSH20 0xFFFFFFFFFFFFFFFFFFFFFFFFFFFFFFFFFFFFFFFF AND PUSH20 0xFFFFFFFFFFFFFFFFFFFFFFFFFFFFFFFFFFFFFFFF AND DUP2 MSTORE PUSH1 0x20 ADD PUSH1 0x2 DUP3 ADD DUP1 SLOAD PUSH2 0x2767 SWAP1 PUSH2 0x8780 JUMP JUMPDEST DUP1 PUSH1 0x1F ADD PUSH1 0x20 DUP1 SWAP2 DIV MUL PUSH1 0x20 ADD PUSH1 0x40 MLOAD SWAP1 DUP2 ADD PUSH1 0x40 MSTORE DUP1 SWAP3 SWAP2 SWAP1 DUP2 DUP2 MSTORE PUSH1 0x20 ADD DUP3 DUP1 SLOAD PUSH2 0x2793 SWAP1 PUSH2 0x8780 JUMP JUMPDEST DUP1 ISZERO PUSH2 0x27E0 JUMPI DUP1 PUSH1 0x1F LT PUSH2 0x27B5 JUMPI PUSH2 0x100 DUP1 DUP4 SLOAD DIV MUL DUP4 MSTORE SWAP2 PUSH1 0x20 ADD SWAP2 PUSH2 0x27E0 JUMP JUMPDEST DUP3 ADD SWAP2 SWAP1 PUSH1 0x0 MSTORE PUSH1 0x20 PUSH1 0x0 KECCAK256 SWAP1 JUMPDEST DUP2 SLOAD DUP2 MSTORE SWAP1 PUSH1 0x1 ADD SWAP1 PUSH1 0x20 ADD DUP1 DUP4 GT PUSH2 0x27C3 JUMPI DUP3 SWAP1 SUB PUSH1 0x1F AND DUP3 ADD SWAP2 JUMPDEST POP POP POP POP POP DUP2 MSTORE PUSH1 0x20 ADD PUSH1 0x3 DUP3 ADD PUSH1 0x0 SWAP1 SLOAD SWAP1 PUSH2 0x100 EXP SWAP1 DIV PUSH20 0xFFFFFFFFFFFFFFFFFFFFFFFFFFFFFFFFFFFFFFFF AND PUSH20 0xFFFFFFFFFFFFFFFFFFFFFFFFFFFFFFFFFFFFFFFF AND PUSH20 0xFFFFFFFFFFFFFFFFFFFFFFFFFFFFFFFFFFFFFFFF AND DUP2 MSTORE PUSH1 0x20 ADD PUSH1 0x4 DUP3 ADD DUP1 SLOAD PUSH2 0x284F SWAP1 PUSH2 0x8780 JUMP JUMPDEST DUP1 PUSH1 0x1F ADD PUSH1 0x20 DUP1 SWAP2 DIV MUL PUSH1 0x20 ADD PUSH1 0x40 MLOAD SWAP1 DUP2 ADD PUSH1 0x40 MSTORE DUP1 SWAP3 SWAP2 SWAP1 DUP2 DUP2 MSTORE PUSH1 0x20 ADD DUP3 DUP1 SLOAD PUSH2 0x287B SWAP1 PUSH2 0x8780 JUMP JUMPDEST DUP1 ISZERO PUSH2 0x28C8 JUMPI DUP1 PUSH1 0x1F LT PUSH2 0x289D JUMPI PUSH2 0x100 DUP1 DUP4 SLOAD DIV MUL DUP4 MSTORE SWAP2 PUSH1 0x20 ADD SWAP2 PUSH2 0x28C8 JUMP JUMPDEST DUP3 ADD SWAP2 SWAP1 PUSH1 0x0 MSTORE PUSH1 0x20 PUSH1 0x0 KECCAK256 SWAP1 JUMPDEST DUP2 SLOAD DUP2 MSTORE SWAP1 PUSH1 0x1 ADD SWAP1 PUSH1 0x20 ADD DUP1 DUP4 GT PUSH2 0x28AB JUMPI DUP3 SWAP1 SUB PUSH1 0x1F AND DUP3 ADD SWAP2 JUMPDEST POP POP POP POP POP DUP2 MSTORE PUSH1 0x20 ADD PUSH1 0x5 DUP3 ADD DUP1 SLOAD PUSH2 0x28E1 SWAP1 PUSH2 0x8780 JUMP JUMPDEST DUP1 PUSH1 0x1F ADD PUSH1 0x20 DUP1 SWAP2 DIV MUL PUSH1 0x20 ADD PUSH1 0x40 MLOAD SWAP1 DUP2 ADD PUSH1 0x40 MSTORE DUP1 SWAP3 SWAP2 SWAP1 DUP2 DUP2 MSTORE PUSH1 0x20 ADD DUP3 DUP1 SLOAD PUSH2 0x290D SWAP1 PUSH2 0x8780 JUMP JUMPDEST DUP1 ISZERO PUSH2 0x295A JUMPI DUP1 PUSH1 0x1F LT PUSH2 0x292F JUMPI PUSH2 0x100 DUP1 DUP4 SLOAD DIV MUL DUP4 MSTORE SWAP2 PUSH1 0x20 ADD SWAP2 PUSH2 0x295A JUMP JUMPDEST DUP3 ADD SWAP2 SWAP1 PUSH1 0x0 MSTORE PUSH1 0x20 PUSH1 0x0 KECCAK256 SWAP1 JUMPDEST DUP2 SLOAD DUP2 MSTORE SWAP1 PUSH1 0x1 ADD SWAP1 PUSH1 0x20 ADD DUP1 DUP4 GT PUSH2 0x293D JUMPI DUP3 SWAP1 SUB PUSH1 0x1F AND DUP3 ADD SWAP2 JUMPDEST POP POP POP POP POP DUP2 MSTORE PUSH1 0x20 ADD PUSH1 0x6 DUP3 ADD SLOAD DUP2 MSTORE PUSH1 0x20 ADD PUSH1 0x7 DUP3 ADD PUSH1 0x0 SWAP1 SLOAD SWAP1 PUSH2 0x100 EXP SWAP1 DIV PUSH1 0xFF AND PUSH1 0x2 DUP2 GT ISZERO PUSH2 0x2992 JUMPI PUSH2 0x2991 PUSH2 0x7636 JUMP JUMPDEST JUMPDEST PUSH1 0x2 DUP2 GT ISZERO PUSH2 0x29A4 JUMPI PUSH2 0x29A3 PUSH2 0x7636 JUMP JUMPDEST JUMPDEST DUP2 MSTORE PUSH1 0x20 ADD PUSH1 0x7 DUP3 ADD PUSH1 0x1 SWAP1 SLOAD SWAP1 PUSH2 0x100 EXP SWAP1 DIV PUSH1 0xFF AND PUSH1 0x2 DUP2 GT ISZERO PUSH2 0x29CD JUMPI PUSH2 0x29CC PUSH2 0x7636 JUMP JUMPDEST JUMPDEST PUSH1 0x2 DUP2 GT ISZERO PUSH2 0x29DF JUMPI PUSH2 0x29DE PUSH2 0x7636 JUMP JUMPDEST JUMPDEST DUP2 MSTORE PUSH1 0x20 ADD PUSH1 0x8 DUP3 ADD DUP1 SLOAD PUSH2 0x29F3 SWAP1 PUSH2 0x8780 JUMP JUMPDEST DUP1 PUSH1 0x1F ADD PUSH1 0x20 DUP1 SWAP2 DIV MUL PUSH1 0x20 ADD PUSH1 0x40 MLOAD SWAP1 DUP2 ADD PUSH1 0x40 MSTORE DUP1 SWAP3 SWAP2 SWAP1 DUP2 DUP2 MSTORE PUSH1 0x20 ADD DUP3 DUP1 SLOAD PUSH2 0x2A1F SWAP1 PUSH2 0x8780 JUMP JUMPDEST DUP1 ISZERO PUSH2 0x2A6C JUMPI DUP1 PUSH1 0x1F LT PUSH2 0x2A41 JUMPI PUSH2 0x100 DUP1 DUP4 SLOAD DIV MUL DUP4 MSTORE SWAP2 PUSH1 0x20 ADD SWAP2 PUSH2 0x2A6C JUMP JUMPDEST DUP3 ADD SWAP2 SWAP1 PUSH1 0x0 MSTORE PUSH1 0x20 PUSH1 0x0 KECCAK256 SWAP1 JUMPDEST DUP2 SLOAD DUP2 MSTORE SWAP1 PUSH1 0x1 ADD SWAP1 PUSH1 0x20 ADD DUP1 DUP4 GT PUSH2 0x2A4F JUMPI DUP3 SWAP1 SUB PUSH1 0x1F AND DUP3 ADD SWAP2 JUMPDEST POP POP POP POP POP DUP2 MSTORE POP POP SWAP3 POP PUSH2 0x2A8F JUMP JUMPDEST DUP1 DUP1 PUSH2 0x2A87 SWAP1 PUSH2 0x8EDD JUMP JUMPDEST SWAP2 POP POP PUSH2 0x25D7 JUMP JUMPDEST POP DUP4 DUP4 DUP4 SWAP9 POP SWAP9 POP SWAP9 POP POP POP POP POP POP POP SWAP2 SWAP4 SWAP1 SWAP3 POP JUMP JUMPDEST CALLER PUSH1 0x0 PUSH20 0xFFFFFFFFFFFFFFFFFFFFFFFFFFFFFFFFFFFFFFFF AND DUP2 PUSH20 0xFFFFFFFFFFFFFFFFFFFFFFFFFFFFFFFFFFFFFFFF AND SUB PUSH2 0x2B16 JUMPI PUSH1 0x40 MLOAD PUSH32 0x8C379A000000000000000000000000000000000000000000000000000000000 DUP2 MSTORE PUSH1 0x4 ADD PUSH2 0x2B0D SWAP1 PUSH2 0x8B53 JUMP JUMPDEST PUSH1 0x40 MLOAD DUP1 SWAP2 SUB SWAP1 REVERT JUMPDEST PUSH1 0x0 PUSH20 0xFFFFFFFFFFFFFFFFFFFFFFFFFFFFFFFFFFFFFFFF AND PUSH1 0x1 PUSH1 0x0 DUP4 PUSH20 0xFFFFFFFFFFFFFFFFFFFFFFFFFFFFFFFFFFFFFFFF AND PUSH20 0xFFFFFFFFFFFFFFFFFFFFFFFFFFFFFFFFFFFFFFFF AND DUP2 MSTORE PUSH1 0x20 ADD SWAP1 DUP2 MSTORE PUSH1 0x20 ADD PUSH1 0x0 KECCAK256 PUSH1 0x2 ADD PUSH1 0x2 SWAP1 SLOAD SWAP1 PUSH2 0x100 EXP SWAP1 DIV PUSH20 0xFFFFFFFFFFFFFFFFFFFFFFFFFFFFFFFFFFFFFFFF AND PUSH20 0xFFFFFFFFFFFFFFFFFFFFFFFFFFFFFFFFFFFFFFFF AND SUB PUSH2 0x2BE7 JUMPI PUSH1 0x40 MLOAD PUSH32 0x8C379A000000000000000000000000000000000000000000000000000000000 DUP2 MSTORE PUSH1 0x4 ADD PUSH2 0x2BDE SWAP1 PUSH2 0x8BBF JUMP JUMPDEST PUSH1 0x40 MLOAD DUP1 SWAP2 SUB SWAP1 REVERT JUMPDEST PUSH2 0x2CCA PUSH1 0x1 PUSH1 0x0 DUP4 PUSH20 0xFFFFFFFFFFFFFFFFFFFFFFFFFFFFFFFFFFFFFFFF AND PUSH20 0xFFFFFFFFFFFFFFFFFFFFFFFFFFFFFFFFFFFFFFFF AND DUP2 MSTORE PUSH1 0x20 ADD SWAP1 DUP2 MSTORE PUSH1 0x20 ADD PUSH1 0x0 KECCAK256 PUSH1 0x1 ADD DUP1 SLOAD PUSH2 0x2C37 SWAP1 PUSH2 0x8780 JUMP JUMPDEST DUP1 PUSH1 0x1F ADD PUSH1 0x20 DUP1 SWAP2 DIV MUL PUSH1 0x20 ADD PUSH1 0x40 MLOAD SWAP1 DUP2 ADD PUSH1 0x40 MSTORE DUP1 SWAP3 SWAP2 SWAP1 DUP2 DUP2 MSTORE PUSH1 0x20 ADD DUP3 DUP1 SLOAD PUSH2 0x2C63 SWAP1 PUSH2 0x8780 JUMP JUMPDEST DUP1 ISZERO PUSH2 0x2CB0 JUMPI DUP1 PUSH1 0x1F LT PUSH2 0x2C85 JUMPI PUSH2 0x100 DUP1 DUP4 SLOAD DIV MUL DUP4 MSTORE SWAP2 PUSH1 0x20 ADD SWAP2 PUSH2 0x2CB0 JUMP JUMPDEST DUP3 ADD SWAP2 SWAP1 PUSH1 0x0 MSTORE PUSH1 0x20 PUSH1 0x0 KECCAK256 SWAP1 JUMPDEST DUP2 SLOAD DUP2 MSTORE SWAP1 PUSH1 0x1 ADD SWAP1 PUSH1 0x20 ADD DUP1 DUP4 GT PUSH2 0x2C93 JUMPI DUP3 SWAP1 SUB PUSH1 0x1F AND DUP3 ADD SWAP2 JUMPDEST POP POP POP POP POP PUSH1 0x40 MLOAD DUP1 PUSH1 0x20 ADD PUSH1 0x40 MSTORE DUP1 PUSH1 0x0 DUP2 MSTORE POP PUSH2 0x5C84 JUMP JUMPDEST ISZERO PUSH2 0x2D0A JUMPI PUSH1 0x40 MLOAD PUSH32 0x8C379A000000000000000000000000000000000000000000000000000000000 DUP2 MSTORE PUSH1 0x4 ADD PUSH2 0x2D01 SWAP1 PUSH2 0x8C2B JUMP JUMPDEST PUSH1 0x40 MLOAD DUP1 SWAP2 SUB SWAP1 REVERT JUMPDEST PUSH2 0x2D14 DUP4 DUP4 PUSH2 0x6B52 JUMP JUMPDEST PUSH1 0x0 PUSH1 0x9 PUSH1 0x0 CALLER PUSH20 0xFFFFFFFFFFFFFFFFFFFFFFFFFFFFFFFFFFFFFFFF AND PUSH20 0xFFFFFFFFFFFFFFFFFFFFFFFFFFFFFFFFFFFFFFFF AND DUP2 MSTORE PUSH1 0x20 ADD SWAP1 DUP2 MSTORE PUSH1 0x20 ADD PUSH1 0x0 KECCAK256 DUP1 SLOAD DUP1 PUSH1 0x20 MUL PUSH1 0x20 ADD PUSH1 0x40 MLOAD SWAP1 DUP2 ADD PUSH1 0x40 MSTORE DUP1 SWAP3 SWAP2 SWAP1 DUP2 DUP2 MSTORE PUSH1 0x20 ADD DUP3 DUP1 SLOAD DUP1 ISZERO PUSH2 0x2DD5 JUMPI PUSH1 0x20 MUL DUP3 ADD SWAP2 SWAP1 PUSH1 0x0 MSTORE PUSH1 0x20 PUSH1 0x0 KECCAK256 SWAP1 JUMPDEST DUP2 PUSH1 0x0 SWAP1 SLOAD SWAP1 PUSH2 0x100 EXP SWAP1 DIV PUSH20 0xFFFFFFFFFFFFFFFFFFFFFFFFFFFFFFFFFFFFFFFF AND PUSH20 0xFFFFFFFFFFFFFFFFFFFFFFFFFFFFFFFFFFFFFFFF AND DUP2 MSTORE PUSH1 0x20 ADD SWAP1 PUSH1 0x1 ADD SWAP1 DUP1 DUP4 GT PUSH2 0x2D8B JUMPI JUMPDEST POP POP POP POP POP SWAP1 POP PUSH1 0x0 JUMPDEST DUP2 MLOAD DUP2 LT ISZERO PUSH2 0x2F36 JUMPI PUSH1 0x0 PUSH2 0x2E0E DUP4 DUP4 DUP2 MLOAD DUP2 LT PUSH2 0x2E00 JUMPI PUSH2 0x2DFF PUSH2 0x8E7F JUMP JUMPDEST JUMPDEST PUSH1 0x20 MUL PUSH1 0x20 ADD ADD MLOAD CALLER PUSH2 0x604E JUMP JUMPDEST SWAP1 POP PUSH2 0x2E19 DUP2 PUSH2 0x622B JUMP JUMPDEST ISZERO PUSH2 0x2F22 JUMPI DUP6 PUSH1 0x7 DUP3 PUSH1 0x40 MLOAD PUSH2 0x2E2F SWAP2 SWAP1 PUSH2 0x8C87 JUMP JUMPDEST SWAP1 DUP2 MSTORE PUSH1 0x20 ADD PUSH1 0x40 MLOAD DUP1 SWAP2 SUB SWAP1 KECCAK256 PUSH1 0x5 ADD SWAP1 DUP2 PUSH2 0x2E4C SWAP2 SWAP1 PUSH2 0x895D JUMP JUMPDEST POP DUP5 PUSH1 0x7 DUP3 PUSH1 0x40 MLOAD PUSH2 0x2E5E SWAP2 SWAP1 PUSH2 0x8C87 JUMP JUMPDEST SWAP1 DUP2 MSTORE PUSH1 0x20 ADD PUSH1 0x40 MLOAD DUP1 SWAP2 SUB SWAP1 KECCAK256 PUSH1 0x6 ADD DUP2 SWAP1 SSTORE POP PUSH1 0x0 PUSH1 0x7 DUP3 PUSH1 0x40 MLOAD PUSH2 0x2E85 SWAP2 SWAP1 PUSH2 0x8C87 JUMP JUMPDEST SWAP1 DUP2 MSTORE PUSH1 0x20 ADD PUSH1 0x40 MLOAD DUP1 SWAP2 SUB SWAP1 KECCAK256 PUSH1 0x7 ADD PUSH1 0x0 PUSH2 0x100 EXP DUP2 SLOAD DUP2 PUSH1 0xFF MUL NOT AND SWAP1 DUP4 PUSH1 0x2 DUP2 GT ISZERO PUSH2 0x2EB8 JUMPI PUSH2 0x2EB7 PUSH2 0x7636 JUMP JUMPDEST JUMPDEST MUL OR SWAP1 SSTORE POP PUSH1 0x40 MLOAD DUP1 PUSH1 0x40 ADD PUSH1 0x40 MSTORE DUP1 PUSH1 0x17 DUP2 MSTORE PUSH1 0x20 ADD PUSH32 0x55706461746520616C6C206D7920646F63756D656E7473000000000000000000 DUP2 MSTORE POP PUSH1 0x7 DUP3 PUSH1 0x40 MLOAD PUSH2 0x2F03 SWAP2 SWAP1 PUSH2 0x8C87 JUMP JUMPDEST SWAP1 DUP2 MSTORE PUSH1 0x20 ADD PUSH1 0x40 MLOAD DUP1 SWAP2 SUB SWAP1 KECCAK256 PUSH1 0x8 ADD SWAP1 DUP2 PUSH2 0x2F20 SWAP2 SWAP1 PUSH2 0x895D JUMP JUMPDEST POP JUMPDEST POP DUP1 DUP1 PUSH2 0x2F2E SWAP1 PUSH2 0x8EDD JUMP JUMPDEST SWAP2 POP POP PUSH2 0x2DDF JUMP JUMPDEST POP POP POP POP POP JUMP JUMPDEST PUSH1 0x0 PUSH1 0x60 CALLER PUSH1 0x0 PUSH20 0xFFFFFFFFFFFFFFFFFFFFFFFFFFFFFFFFFFFFFFFF AND DUP2 PUSH20 0xFFFFFFFFFFFFFFFFFFFFFFFFFFFFFFFFFFFFFFFF AND SUB PUSH2 0x2FB1 JUMPI PUSH1 0x40 MLOAD PUSH32 0x8C379A000000000000000000000000000000000000000000000000000000000 DUP2 MSTORE PUSH1 0x4 ADD PUSH2 0x2FA8 SWAP1 PUSH2 0x8B53 JUMP JUMPDEST PUSH1 0x40 MLOAD DUP1 SWAP2 SUB SWAP1 REVERT JUMPDEST PUSH1 0x0 PUSH20 0xFFFFFFFFFFFFFFFFFFFFFFFFFFFFFFFFFFFFFFFF AND PUSH1 0x1 PUSH1 0x0 DUP4 PUSH20 0xFFFFFFFFFFFFFFFFFFFFFFFFFFFFFFFFFFFFFFFF AND PUSH20 0xFFFFFFFFFFFFFFFFFFFFFFFFFFFFFFFFFFFFFFFF AND DUP2 MSTORE PUSH1 0x20 ADD SWAP1 DUP2 MSTORE PUSH1 0x20 ADD PUSH1 0x0 KECCAK256 PUSH1 0x2 ADD PUSH1 0x2 SWAP1 SLOAD SWAP1 PUSH2 0x100 EXP SWAP1 DIV PUSH20 0xFFFFFFFFFFFFFFFFFFFFFFFFFFFFFFFFFFFFFFFF AND PUSH20 0xFFFFFFFFFFFFFFFFFFFFFFFFFFFFFFFFFFFFFFFF AND SUB PUSH2 0x3082 JUMPI PUSH1 0x40 MLOAD PUSH32 0x8C379A000000000000000000000000000000000000000000000000000000000 DUP2 MSTORE PUSH1 0x4 ADD PUSH2 0x3079 SWAP1 PUSH2 0x8BBF JUMP JUMPDEST PUSH1 0x40 MLOAD DUP1 SWAP2 SUB SWAP1 REVERT JUMPDEST PUSH2 0x3165 PUSH1 0x1 PUSH1 0x0 DUP4 PUSH20 0xFFFFFFFFFFFFFFFFFFFFFFFFFFFFFFFFFFFFFFFF AND PUSH20 0xFFFFFFFFFFFFFFFFFFFFFFFFFFFFFFFFFFFFFFFF AND DUP2 MSTORE PUSH1 0x20 ADD SWAP1 DUP2 MSTORE PUSH1 0x20 ADD PUSH1 0x0 KECCAK256 PUSH1 0x1 ADD DUP1 SLOAD PUSH2 0x30D2 SWAP1 PUSH2 0x8780 JUMP JUMPDEST DUP1 PUSH1 0x1F ADD PUSH1 0x20 DUP1 SWAP2 DIV MUL PUSH1 0x20 ADD PUSH1 0x40 MLOAD SWAP1 DUP2 ADD PUSH1 0x40 MSTORE DUP1 SWAP3 SWAP2 SWAP1 DUP2 DUP2 MSTORE PUSH1 0x20 ADD DUP3 DUP1 SLOAD PUSH2 0x30FE SWAP1 PUSH2 0x8780 JUMP JUMPDEST DUP1 ISZERO PUSH2 0x314B JUMPI DUP1 PUSH1 0x1F LT PUSH2 0x3120 JUMPI PUSH2 0x100 DUP1 DUP4 SLOAD DIV MUL DUP4 MSTORE SWAP2 PUSH1 0x20 ADD SWAP2 PUSH2 0x314B JUMP JUMPDEST DUP3 ADD SWAP2 SWAP1 PUSH1 0x0 MSTORE PUSH1 0x20 PUSH1 0x0 KECCAK256 SWAP1 JUMPDEST DUP2 SLOAD DUP2 MSTORE SWAP1 PUSH1 0x1 ADD SWAP1 PUSH1 0x20 ADD DUP1 DUP4 GT PUSH2 0x312E JUMPI DUP3 SWAP1 SUB PUSH1 0x1F AND DUP3 ADD SWAP2 JUMPDEST POP POP POP POP POP PUSH1 0x40 MLOAD DUP1 PUSH1 0x20 ADD PUSH1 0x40 MSTORE DUP1 PUSH1 0x0 DUP2 MSTORE POP PUSH2 0x5C84 JUMP JUMPDEST ISZERO PUSH2 0x31A5 JUMPI PUSH1 0x40 MLOAD PUSH32 0x8C379A000000000000000000000000000000000000000000000000000000000 DUP2 MSTORE PUSH1 0x4 ADD PUSH2 0x319C SWAP1 PUSH2 0x8C2B JUMP JUMPDEST PUSH1 0x40 MLOAD DUP1 SWAP2 SUB SWAP1 REVERT JUMPDEST PUSH2 0x31B0 DUP5 PUSH1 0x0 PUSH2 0x4F05 JUMP JUMPDEST SWAP3 POP SWAP3 POP POP SWAP2 POP SWAP2 JUMP JUMPDEST CALLER PUSH1 0x0 PUSH20 0xFFFFFFFFFFFFFFFFFFFFFFFFFFFFFFFFFFFFFFFF AND DUP2 PUSH20 0xFFFFFFFFFFFFFFFFFFFFFFFFFFFFFFFFFFFFFFFF AND SUB PUSH2 0x322A JUMPI PUSH1 0x40 MLOAD PUSH32 0x8C379A000000000000000000000000000000000000000000000000000000000 DUP2 MSTORE PUSH1 0x4 ADD PUSH2 0x3221 SWAP1 PUSH2 0x8B53 JUMP JUMPDEST PUSH1 0x40 MLOAD DUP1 SWAP2 SUB SWAP1 REVERT JUMPDEST PUSH1 0x0 PUSH20 0xFFFFFFFFFFFFFFFFFFFFFFFFFFFFFFFFFFFFFFFF AND PUSH1 0x1 PUSH1 0x0 DUP4 PUSH20 0xFFFFFFFFFFFFFFFFFFFFFFFFFFFFFFFFFFFFFFFF AND PUSH20 0xFFFFFFFFFFFFFFFFFFFFFFFFFFFFFFFFFFFFFFFF AND DUP2 MSTORE PUSH1 0x20 ADD SWAP1 DUP2 MSTORE PUSH1 0x20 ADD PUSH1 0x0 KECCAK256 PUSH1 0x2 ADD PUSH1 0x2 SWAP1 SLOAD SWAP1 PUSH2 0x100 EXP SWAP1 DIV PUSH20 0xFFFFFFFFFFFFFFFFFFFFFFFFFFFFFFFFFFFFFFFF AND PUSH20 0xFFFFFFFFFFFFFFFFFFFFFFFFFFFFFFFFFFFFFFFF AND SUB PUSH2 0x32FB JUMPI PUSH1 0x40 MLOAD PUSH32 0x8C379A000000000000000000000000000000000000000000000000000000000 DUP2 MSTORE PUSH1 0x4 ADD PUSH2 0x32F2 SWAP1 PUSH2 0x8BBF JUMP JUMPDEST PUSH1 0x40 MLOAD DUP1 SWAP2 SUB SWAP1 REVERT JUMPDEST PUSH2 0x33DE PUSH1 0x1 PUSH1 0x0 DUP4 PUSH20 0xFFFFFFFFFFFFFFFFFFFFFFFFFFFFFFFFFFFFFFFF AND PUSH20 0xFFFFFFFFFFFFFFFFFFFFFFFFFFFFFFFFFFFFFFFF AND DUP2 MSTORE PUSH1 0x20 ADD SWAP1 DUP2 MSTORE PUSH1 0x20 ADD PUSH1 0x0 KECCAK256 PUSH1 0x1 ADD DUP1 SLOAD PUSH2 0x334B SWAP1 PUSH2 0x8780 JUMP JUMPDEST DUP1 PUSH1 0x1F ADD PUSH1 0x20 DUP1 SWAP2 DIV MUL PUSH1 0x20 ADD PUSH1 0x40 MLOAD SWAP1 DUP2 ADD PUSH1 0x40 MSTORE DUP1 SWAP3 SWAP2 SWAP1 DUP2 DUP2 MSTORE PUSH1 0x20 ADD DUP3 DUP1 SLOAD PUSH2 0x3377 SWAP1 PUSH2 0x8780 JUMP JUMPDEST DUP1 ISZERO PUSH2 0x33C4 JUMPI DUP1 PUSH1 0x1F LT PUSH2 0x3399 JUMPI PUSH2 0x100 DUP1 DUP4 SLOAD DIV MUL DUP4 MSTORE SWAP2 PUSH1 0x20 ADD SWAP2 PUSH2 0x33C4 JUMP JUMPDEST DUP3 ADD SWAP2 SWAP1 PUSH1 0x0 MSTORE PUSH1 0x20 PUSH1 0x0 KECCAK256 SWAP1 JUMPDEST DUP2 SLOAD DUP2 MSTORE SWAP1 PUSH1 0x1 ADD SWAP1 PUSH1 0x20 ADD DUP1 DUP4 GT PUSH2 0x33A7 JUMPI DUP3 SWAP1 SUB PUSH1 0x1F AND DUP3 ADD SWAP2 JUMPDEST POP POP POP POP POP PUSH1 0x40 MLOAD DUP1 PUSH1 0x20 ADD PUSH1 0x40 MSTORE DUP1 PUSH1 0x0 DUP2 MSTORE POP PUSH2 0x5C84 JUMP JUMPDEST ISZERO PUSH2 0x341E JUMPI PUSH1 0x40 MLOAD PUSH32 0x8C379A000000000000000000000000000000000000000000000000000000000 DUP2 MSTORE PUSH1 0x4 ADD PUSH2 0x3415 SWAP1 PUSH2 0x8C2B JUMP JUMPDEST PUSH1 0x40 MLOAD DUP1 SWAP2 SUB SWAP1 REVERT JUMPDEST PUSH1 0x0 PUSH2 0x342A DUP5 CALLER PUSH2 0x604E JUMP JUMPDEST SWAP1 POP PUSH2 0x3435 DUP2 PUSH2 0x622B JUMP JUMPDEST PUSH2 0x3474 JUMPI PUSH1 0x40 MLOAD PUSH32 0x8C379A000000000000000000000000000000000000000000000000000000000 DUP2 MSTORE PUSH1 0x4 ADD PUSH2 0x346B SWAP1 PUSH2 0x8F71 JUMP JUMPDEST PUSH1 0x40 MLOAD DUP1 SWAP2 SUB SWAP1 REVERT JUMPDEST PUSH1 0x2 PUSH1 0x7 DUP3 PUSH1 0x40 MLOAD PUSH2 0x3486 SWAP2 SWAP1 PUSH2 0x8C87 JUMP JUMPDEST SWAP1 DUP2 MSTORE PUSH1 0x20 ADD PUSH1 0x40 MLOAD DUP1 SWAP2 SUB SWAP1 KECCAK256 PUSH1 0x7 ADD PUSH1 0x1 PUSH2 0x100 EXP DUP2 SLOAD DUP2 PUSH1 0xFF MUL NOT AND SWAP1 DUP4 PUSH1 0x2 DUP2 GT ISZERO PUSH2 0x34B9 JUMPI PUSH2 0x34B8 PUSH2 0x7636 JUMP JUMPDEST JUMPDEST MUL OR SWAP1 SSTORE POP DUP3 PUSH1 0x7 DUP3 PUSH1 0x40 MLOAD PUSH2 0x34CF SWAP2 SWAP1 PUSH2 0x8C87 JUMP JUMPDEST SWAP1 DUP2 MSTORE PUSH1 0x20 ADD PUSH1 0x40 MLOAD DUP1 SWAP2 SUB SWAP1 KECCAK256 PUSH1 0x8 ADD SWAP1 DUP2 PUSH2 0x34EC SWAP2 SWAP1 PUSH2 0x895D JUMP JUMPDEST POP PUSH32 0xA8DBF5117D5DEDC3FD5BA8FE21E806ED427F7C6F59227FC077FC198F05A90FB3 DUP2 CALLER DUP7 PUSH1 0x2 PUSH1 0x40 MLOAD PUSH2 0x3523 SWAP5 SWAP4 SWAP3 SWAP2 SWAP1 PUSH2 0x8FAF JUMP JUMPDEST PUSH1 0x40 MLOAD DUP1 SWAP2 SUB SWAP1 LOG1 POP POP POP POP JUMP JUMPDEST CALLER PUSH1 0x0 PUSH20 0xFFFFFFFFFFFFFFFFFFFFFFFFFFFFFFFFFFFFFFFF AND PUSH1 0x3 PUSH1 0x0 DUP4 PUSH20 0xFFFFFFFFFFFFFFFFFFFFFFFFFFFFFFFFFFFFFFFF AND PUSH20 0xFFFFFFFFFFFFFFFFFFFFFFFFFFFFFFFFFFFFFFFF AND DUP2 MSTORE PUSH1 0x20 ADD SWAP1 DUP2 MSTORE PUSH1 0x20 ADD PUSH1 0x0 KECCAK256 PUSH1 0x2 ADD PUSH1 0x0 SWAP1 SLOAD SWAP1 PUSH2 0x100 EXP SWAP1 DIV PUSH20 0xFFFFFFFFFFFFFFFFFFFFFFFFFFFFFFFFFFFFFFFF AND PUSH20 0xFFFFFFFFFFFFFFFFFFFFFFFFFFFFFFFFFFFFFFFF AND SUB PUSH2 0x3603 JUMPI PUSH1 0x40 MLOAD PUSH32 0x8C379A000000000000000000000000000000000000000000000000000000000 DUP2 MSTORE PUSH1 0x4 ADD PUSH2 0x35FA SWAP1 PUSH2 0x85E7 JUMP JUMPDEST PUSH1 0x40 MLOAD DUP1 SWAP2 SUB SWAP1 REVERT JUMPDEST DUP1 PUSH20 0xFFFFFFFFFFFFFFFFFFFFFFFFFFFFFFFFFFFFFFFF AND PUSH1 0x3 PUSH1 0x0 DUP4 PUSH20 0xFFFFFFFFFFFFFFFFFFFFFFFFFFFFFFFFFFFFFFFF AND PUSH20 0xFFFFFFFFFFFFFFFFFFFFFFFFFFFFFFFFFFFFFFFF AND DUP2 MSTORE PUSH1 0x20 ADD SWAP1 DUP2 MSTORE PUSH1 0x20 ADD PUSH1 0x0 KECCAK256 PUSH1 0x2 ADD PUSH1 0x0 SWAP1 SLOAD SWAP1 PUSH2 0x100 EXP SWAP1 DIV PUSH20 0xFFFFFFFFFFFFFFFFFFFFFFFFFFFFFFFFFFFFFFFF AND PUSH20 0xFFFFFFFFFFFFFFFFFFFFFFFFFFFFFFFFFFFFFFFF AND EQ PUSH2 0x36D3 JUMPI PUSH1 0x40 MLOAD PUSH32 0x8C379A000000000000000000000000000000000000000000000000000000000 DUP2 MSTORE PUSH1 0x4 ADD PUSH2 0x36CA SWAP1 PUSH2 0x8679 JUMP JUMPDEST PUSH1 0x40 MLOAD DUP1 SWAP2 SUB SWAP1 REVERT JUMPDEST PUSH1 0x0 PUSH1 0x1 DUP2 GT ISZERO PUSH2 0x36E7 JUMPI PUSH2 0x36E6 PUSH2 0x7636 JUMP JUMPDEST JUMPDEST PUSH1 0x3 PUSH1 0x0 DUP4 PUSH20 0xFFFFFFFFFFFFFFFFFFFFFFFFFFFFFFFFFFFFFFFF AND PUSH20 0xFFFFFFFFFFFFFFFFFFFFFFFFFFFFFFFFFFFFFFFF AND DUP2 MSTORE PUSH1 0x20 ADD SWAP1 DUP2 MSTORE PUSH1 0x20 ADD PUSH1 0x0 KECCAK256 PUSH1 0x4 ADD PUSH1 0x2 SWAP1 SLOAD SWAP1 PUSH2 0x100 EXP SWAP1 DIV PUSH1 0xFF AND PUSH1 0x1 DUP2 GT ISZERO PUSH2 0x3749 JUMPI PUSH2 0x3748 PUSH2 0x7636 JUMP JUMPDEST JUMPDEST EQ PUSH2 0x3789 JUMPI PUSH1 0x40 MLOAD PUSH32 0x8C379A000000000000000000000000000000000000000000000000000000000 DUP2 MSTORE PUSH1 0x4 ADD PUSH2 0x3780 SWAP1 PUSH2 0x8731 JUMP JUMPDEST PUSH1 0x40 MLOAD DUP1 SWAP2 SUB SWAP1 REVERT JUMPDEST PUSH1 0x0 PUSH2 0x3799 CALLER DUP7 PUSH1 0x60 ADD MLOAD PUSH2 0x604E JUMP JUMPDEST SWAP1 POP PUSH2 0x37A4 DUP2 PUSH2 0x622B JUMP JUMPDEST ISZERO PUSH2 0x37E4 JUMPI PUSH1 0x40 MLOAD PUSH32 0x8C379A000000000000000000000000000000000000000000000000000000000 DUP2 MSTORE PUSH1 0x4 ADD PUSH2 0x37DB SWAP1 PUSH2 0x9047 JUMP JUMPDEST PUSH1 0x40 MLOAD DUP1 SWAP2 SUB SWAP1 REVERT JUMPDEST PUSH1 0x40 MLOAD DUP1 PUSH2 0x140 ADD PUSH1 0x40 MSTORE DUP1 DUP3 DUP2 MSTORE PUSH1 0x20 ADD DUP7 PUSH1 0x60 ADD MLOAD PUSH20 0xFFFFFFFFFFFFFFFFFFFFFFFFFFFFFFFFFFFFFFFF AND DUP2 MSTORE PUSH1 0x20 ADD DUP7 PUSH1 0x0 ADD MLOAD DUP2 MSTORE PUSH1 0x20 ADD CALLER PUSH20 0xFFFFFFFFFFFFFFFFFFFFFFFFFFFFFFFFFFFFFFFF AND DUP2 MSTORE PUSH1 0x20 ADD PUSH2 0x3845 CALLER PUSH2 0x653E JUMP JUMPDEST PUSH1 0x0 ADD MLOAD DUP2 MSTORE PUSH1 0x20 ADD DUP7 PUSH1 0xA0 ADD MLOAD DUP2 MSTORE PUSH1 0x20 ADD DUP6 DUP2 MSTORE PUSH1 0x20 ADD PUSH1 0x0 PUSH1 0x2 DUP2 GT ISZERO PUSH2 0x3872 JUMPI PUSH2 0x3871 PUSH2 0x7636 JUMP JUMPDEST JUMPDEST DUP2 MSTORE PUSH1 0x20 ADD PUSH1 0x0 PUSH1 0x2 DUP2 GT ISZERO PUSH2 0x388B JUMPI PUSH2 0x388A PUSH2 0x7636 JUMP JUMPDEST JUMPDEST DUP2 MSTORE PUSH1 0x20 ADD DUP5 DUP2 MSTORE POP PUSH1 0x7 DUP3 PUSH1 0x40 MLOAD PUSH2 0x38A4 SWAP2 SWAP1 PUSH2 0x8C87 JUMP JUMPDEST SWAP1 DUP2 MSTORE PUSH1 0x20 ADD PUSH1 0x40 MLOAD DUP1 SWAP2 SUB SWAP1 KECCAK256 PUSH1 0x0 DUP3 ADD MLOAD DUP2 PUSH1 0x0 ADD SWAP1 DUP2 PUSH2 0x38C7 SWAP2 SWAP1 PUSH2 0x895D JUMP JUMPDEST POP PUSH1 0x20 DUP3 ADD MLOAD DUP2 PUSH1 0x1 ADD PUSH1 0x0 PUSH2 0x100 EXP DUP2 SLOAD DUP2 PUSH20 0xFFFFFFFFFFFFFFFFFFFFFFFFFFFFFFFFFFFFFFFF MUL NOT AND SWAP1 DUP4 PUSH20 0xFFFFFFFFFFFFFFFFFFFFFFFFFFFFFFFFFFFFFFFF AND MUL OR SWAP1 SSTORE POP PUSH1 0x40 DUP3 ADD MLOAD DUP2 PUSH1 0x2 ADD SWAP1 DUP2 PUSH2 0x3924 SWAP2 SWAP1 PUSH2 0x895D JUMP JUMPDEST POP PUSH1 0x60 DUP3 ADD MLOAD DUP2 PUSH1 0x3 ADD PUSH1 0x0 PUSH2 0x100 EXP DUP2 SLOAD DUP2 PUSH20 0xFFFFFFFFFFFFFFFFFFFFFFFFFFFFFFFFFFFFFFFF MUL NOT AND SWAP1 DUP4 PUSH20 0xFFFFFFFFFFFFFFFFFFFFFFFFFFFFFFFFFFFFFFFF AND MUL OR SWAP1 SSTORE POP PUSH1 0x80 DUP3 ADD MLOAD DUP2 PUSH1 0x4 ADD SWAP1 DUP2 PUSH2 0x3981 SWAP2 SWAP1 PUSH2 0x895D JUMP JUMPDEST POP PUSH1 0xA0 DUP3 ADD MLOAD DUP2 PUSH1 0x5 ADD SWAP1 DUP2 PUSH2 0x3997 SWAP2 SWAP1 PUSH2 0x895D JUMP JUMPDEST POP PUSH1 0xC0 DUP3 ADD MLOAD DUP2 PUSH1 0x6 ADD SSTORE PUSH1 0xE0 DUP3 ADD MLOAD DUP2 PUSH1 0x7 ADD PUSH1 0x0 PUSH2 0x100 EXP DUP2 SLOAD DUP2 PUSH1 0xFF MUL NOT AND SWAP1 DUP4 PUSH1 0x2 DUP2 GT ISZERO PUSH2 0x39CD JUMPI PUSH2 0x39CC PUSH2 0x7636 JUMP JUMPDEST JUMPDEST MUL OR SWAP1 SSTORE POP PUSH2 0x100 DUP3 ADD MLOAD DUP2 PUSH1 0x7 ADD PUSH1 0x1 PUSH2 0x100 EXP DUP2 SLOAD DUP2 PUSH1 0xFF MUL NOT AND SWAP1 DUP4 PUSH1 0x2 DUP2 GT ISZERO PUSH2 0x39FE JUMPI PUSH2 0x39FD PUSH2 0x7636 JUMP JUMPDEST JUMPDEST MUL OR SWAP1 SSTORE POP PUSH2 0x120 DUP3 ADD MLOAD DUP2 PUSH1 0x8 ADD SWAP1 DUP2 PUSH2 0x3A19 SWAP2 SWAP1 PUSH2 0x895D JUMP JUMPDEST POP SWAP1 POP POP PUSH1 0x8 PUSH1 0x0 CALLER PUSH20 0xFFFFFFFFFFFFFFFFFFFFFFFFFFFFFFFFFFFFFFFF AND PUSH20 0xFFFFFFFFFFFFFFFFFFFFFFFFFFFFFFFFFFFFFFFF AND DUP2 MSTORE PUSH1 0x20 ADD SWAP1 DUP2 MSTORE PUSH1 0x20 ADD PUSH1 0x0 KECCAK256 DUP6 PUSH1 0x60 ADD MLOAD SWAP1 DUP1 PUSH1 0x1 DUP2 SLOAD ADD DUP1 DUP3 SSTORE DUP1 SWAP2 POP POP PUSH1 0x1 SWAP1 SUB SWAP1 PUSH1 0x0 MSTORE PUSH1 0x20 PUSH1 0x0 KECCAK256 ADD PUSH1 0x0 SWAP1 SWAP2 SWAP1 SWAP2 SWAP1 SWAP2 PUSH2 0x100 EXP DUP2 SLOAD DUP2 PUSH20 0xFFFFFFFFFFFFFFFFFFFFFFFFFFFFFFFFFFFFFFFF MUL NOT AND SWAP1 DUP4 PUSH20 0xFFFFFFFFFFFFFFFFFFFFFFFFFFFFFFFFFFFFFFFF AND MUL OR SWAP1 SSTORE POP PUSH1 0x9 PUSH1 0x0 DUP7 PUSH1 0x60 ADD MLOAD PUSH20 0xFFFFFFFFFFFFFFFFFFFFFFFFFFFFFFFFFFFFFFFF AND PUSH20 0xFFFFFFFFFFFFFFFFFFFFFFFFFFFFFFFFFFFFFFFF AND DUP2 MSTORE PUSH1 0x20 ADD SWAP1 DUP2 MSTORE PUSH1 0x20 ADD PUSH1 0x0 KECCAK256 CALLER SWAP1 DUP1 PUSH1 0x1 DUP2 SLOAD ADD DUP1 DUP3 SSTORE DUP1 SWAP2 POP POP PUSH1 0x1 SWAP1 SUB SWAP1 PUSH1 0x0 MSTORE PUSH1 0x20 PUSH1 0x0 KECCAK256 ADD PUSH1 0x0 SWAP1 SWAP2 SWAP1 SWAP2 SWAP1 SWAP2 PUSH2 0x100 EXP DUP2 SLOAD DUP2 PUSH20 0xFFFFFFFFFFFFFFFFFFFFFFFFFFFFFFFFFFFFFFFF MUL NOT AND SWAP1 DUP4 PUSH20 0xFFFFFFFFFFFFFFFFFFFFFFFFFFFFFFFFFFFFFFFF AND MUL OR SWAP1 SSTORE POP PUSH32 0x4124A335861F44EE2E2C6DB4204FA6E9AF4802EE84175ABE9223185A21167D3C DUP2 PUSH1 0x7 DUP4 PUSH1 0x40 MLOAD PUSH2 0x3B97 SWAP2 SWAP1 PUSH2 0x8C87 JUMP JUMPDEST SWAP1 DUP2 MSTORE PUSH1 0x20 ADD PUSH1 0x40 MLOAD DUP1 SWAP2 SUB SWAP1 KECCAK256 PUSH1 0x4 ADD DUP8 PUSH1 0x0 ADD MLOAD PUSH1 0x40 MLOAD PUSH2 0x3BBC SWAP4 SWAP3 SWAP2 SWAP1 PUSH2 0x9067 JUMP JUMPDEST PUSH1 0x40 MLOAD DUP1 SWAP2 SUB SWAP1 LOG1 PUSH2 0x3BD1 DUP6 PUSH1 0x60 ADD MLOAD PUSH2 0x6340 JUMP JUMPDEST PUSH2 0x3DCD JUMPI PUSH2 0x3BDE DUP6 PUSH2 0x6C69 JUMP JUMPDEST PUSH1 0x40 MLOAD DUP1 PUSH1 0xA0 ADD PUSH1 0x40 MSTORE DUP1 DUP7 PUSH1 0x0 ADD MLOAD DUP2 MSTORE PUSH1 0x20 ADD DUP7 PUSH1 0x20 ADD MLOAD DUP2 MSTORE PUSH1 0x20 ADD DUP7 PUSH1 0x60 ADD MLOAD PUSH20 0xFFFFFFFFFFFFFFFFFFFFFFFFFFFFFFFFFFFFFFFF AND DUP2 MSTORE PUSH1 0x20 ADD PUSH1 0x2 DUP1 DUP2 GT ISZERO PUSH2 0x3C30 JUMPI PUSH2 0x3C2F PUSH2 0x7636 JUMP JUMPDEST JUMPDEST DUP2 MSTORE PUSH1 0x20 ADD PUSH1 0x0 PUSH1 0x1 DUP2 GT ISZERO PUSH2 0x3C49 JUMPI PUSH2 0x3C48 PUSH2 0x7636 JUMP JUMPDEST JUMPDEST DUP2 MSTORE POP PUSH1 0x6 PUSH1 0x0 DUP8 PUSH1 0x60 ADD MLOAD PUSH20 0xFFFFFFFFFFFFFFFFFFFFFFFFFFFFFFFFFFFFFFFF AND PUSH20 0xFFFFFFFFFFFFFFFFFFFFFFFFFFFFFFFFFFFFFFFF AND DUP2 MSTORE PUSH1 0x20 ADD SWAP1 DUP2 MSTORE PUSH1 0x20 ADD PUSH1 0x0 KECCAK256 PUSH1 0x0 DUP3 ADD MLOAD DUP2 PUSH1 0x0 ADD SWAP1 DUP2 PUSH2 0x3CA4 SWAP2 SWAP1 PUSH2 0x895D JUMP JUMPDEST POP PUSH1 0x20 DUP3 ADD MLOAD DUP2 PUSH1 0x1 ADD SWAP1 DUP2 PUSH2 0x3CBA SWAP2 SWAP1 PUSH2 0x895D JUMP JUMPDEST POP PUSH1 0x40 DUP3 ADD MLOAD DUP2 PUSH1 0x2 ADD PUSH1 0x0 PUSH2 0x100 EXP DUP2 SLOAD DUP2 PUSH20 0xFFFFFFFFFFFFFFFFFFFFFFFFFFFFFFFFFFFFFFFF MUL NOT AND SWAP1 DUP4 PUSH20 0xFFFFFFFFFFFFFFFFFFFFFFFFFFFFFFFFFFFFFFFF AND MUL OR SWAP1 SSTORE POP PUSH1 0x60 DUP3 ADD MLOAD DUP2 PUSH1 0x2 ADD PUSH1 0x14 PUSH2 0x100 EXP DUP2 SLOAD DUP2 PUSH1 0xFF MUL NOT AND SWAP1 DUP4 PUSH1 0x2 DUP2 GT ISZERO PUSH2 0x3D2D JUMPI PUSH2 0x3D2C PUSH2 0x7636 JUMP JUMPDEST JUMPDEST MUL OR SWAP1 SSTORE POP PUSH1 0x80 DUP3 ADD MLOAD DUP2 PUSH1 0x2 ADD PUSH1 0x15 PUSH2 0x100 EXP DUP2 SLOAD DUP2 PUSH1 0xFF MUL NOT AND SWAP1 DUP4 PUSH1 0x1 DUP2 GT ISZERO PUSH2 0x3D5D JUMPI PUSH2 0x3D5C PUSH2 0x7636 JUMP JUMPDEST JUMPDEST MUL OR SWAP1 SSTORE POP SWAP1 POP POP PUSH1 0x5 DUP6 PUSH1 0x60 ADD MLOAD SWAP1 DUP1 PUSH1 0x1 DUP2 SLOAD ADD DUP1 DUP3 SSTORE DUP1 SWAP2 POP POP PUSH1 0x1 SWAP1 SUB SWAP1 PUSH1 0x0 MSTORE PUSH1 0x20 PUSH1 0x0 KECCAK256 ADD PUSH1 0x0 SWAP1 SWAP2 SWAP1 SWAP2 SWAP1 SWAP2 PUSH2 0x100 EXP DUP2 SLOAD DUP2 PUSH20 0xFFFFFFFFFFFFFFFFFFFFFFFFFFFFFFFFFFFFFFFF MUL NOT AND SWAP1 DUP4 PUSH20 0xFFFFFFFFFFFFFFFFFFFFFFFFFFFFFFFFFFFFFFFF AND MUL OR SWAP1 SSTORE POP JUMPDEST POP POP POP POP POP JUMP JUMPDEST CALLER PUSH1 0x0 PUSH20 0xFFFFFFFFFFFFFFFFFFFFFFFFFFFFFFFFFFFFFFFF AND DUP2 PUSH20 0xFFFFFFFFFFFFFFFFFFFFFFFFFFFFFFFFFFFFFFFF AND SUB PUSH2 0x3E44 JUMPI PUSH1 0x40 MLOAD PUSH32 0x8C379A000000000000000000000000000000000000000000000000000000000 DUP2 MSTORE PUSH1 0x4 ADD PUSH2 0x3E3B SWAP1 PUSH2 0x8B53 JUMP JUMPDEST PUSH1 0x40 MLOAD DUP1 SWAP2 SUB SWAP1 REVERT JUMPDEST PUSH1 0x0 PUSH20 0xFFFFFFFFFFFFFFFFFFFFFFFFFFFFFFFFFFFFFFFF AND PUSH1 0x1 PUSH1 0x0 DUP4 PUSH20 0xFFFFFFFFFFFFFFFFFFFFFFFFFFFFFFFFFFFFFFFF AND PUSH20 0xFFFFFFFFFFFFFFFFFFFFFFFFFFFFFFFFFFFFFFFF AND DUP2 MSTORE PUSH1 0x20 ADD SWAP1 DUP2 MSTORE PUSH1 0x20 ADD PUSH1 0x0 KECCAK256 PUSH1 0x2 ADD PUSH1 0x2 SWAP1 SLOAD SWAP1 PUSH2 0x100 EXP SWAP1 DIV PUSH20 0xFFFFFFFFFFFFFFFFFFFFFFFFFFFFFFFFFFFFFFFF AND PUSH20 0xFFFFFFFFFFFFFFFFFFFFFFFFFFFFFFFFFFFFFFFF AND SUB PUSH2 0x3F15 JUMPI PUSH1 0x40 MLOAD PUSH32 0x8C379A000000000000000000000000000000000000000000000000000000000 DUP2 MSTORE PUSH1 0x4 ADD PUSH2 0x3F0C SWAP1 PUSH2 0x8BBF JUMP JUMPDEST PUSH1 0x40 MLOAD DUP1 SWAP2 SUB SWAP1 REVERT JUMPDEST PUSH2 0x3FF8 PUSH1 0x1 PUSH1 0x0 DUP4 PUSH20 0xFFFFFFFFFFFFFFFFFFFFFFFFFFFFFFFFFFFFFFFF AND PUSH20 0xFFFFFFFFFFFFFFFFFFFFFFFFFFFFFFFFFFFFFFFF AND DUP2 MSTORE PUSH1 0x20 ADD SWAP1 DUP2 MSTORE PUSH1 0x20 ADD PUSH1 0x0 KECCAK256 PUSH1 0x1 ADD DUP1 SLOAD PUSH2 0x3F65 SWAP1 PUSH2 0x8780 JUMP JUMPDEST DUP1 PUSH1 0x1F ADD PUSH1 0x20 DUP1 SWAP2 DIV MUL PUSH1 0x20 ADD PUSH1 0x40 MLOAD SWAP1 DUP2 ADD PUSH1 0x40 MSTORE DUP1 SWAP3 SWAP2 SWAP1 DUP2 DUP2 MSTORE PUSH1 0x20 ADD DUP3 DUP1 SLOAD PUSH2 0x3F91 SWAP1 PUSH2 0x8780 JUMP JUMPDEST DUP1 ISZERO PUSH2 0x3FDE JUMPI DUP1 PUSH1 0x1F LT PUSH2 0x3FB3 JUMPI PUSH2 0x100 DUP1 DUP4 SLOAD DIV MUL DUP4 MSTORE SWAP2 PUSH1 0x20 ADD SWAP2 PUSH2 0x3FDE JUMP JUMPDEST DUP3 ADD SWAP2 SWAP1 PUSH1 0x0 MSTORE PUSH1 0x20 PUSH1 0x0 KECCAK256 SWAP1 JUMPDEST DUP2 SLOAD DUP2 MSTORE SWAP1 PUSH1 0x1 ADD SWAP1 PUSH1 0x20 ADD DUP1 DUP4 GT PUSH2 0x3FC1 JUMPI DUP3 SWAP1 SUB PUSH1 0x1F AND DUP3 ADD SWAP2 JUMPDEST POP POP POP POP POP PUSH1 0x40 MLOAD DUP1 PUSH1 0x20 ADD PUSH1 0x40 MSTORE DUP1 PUSH1 0x0 DUP2 MSTORE POP PUSH2 0x5C84 JUMP JUMPDEST ISZERO PUSH2 0x4038 JUMPI PUSH1 0x40 MLOAD PUSH32 0x8C379A000000000000000000000000000000000000000000000000000000000 DUP2 MSTORE PUSH1 0x4 ADD PUSH2 0x402F SWAP1 PUSH2 0x8C2B JUMP JUMPDEST PUSH1 0x40 MLOAD DUP1 SWAP2 SUB SWAP1 REVERT JUMPDEST DUP4 PUSH1 0x0 PUSH20 0xFFFFFFFFFFFFFFFFFFFFFFFFFFFFFFFFFFFFFFFF AND PUSH1 0x3 PUSH1 0x0 DUP4 PUSH20 0xFFFFFFFFFFFFFFFFFFFFFFFFFFFFFFFFFFFFFFFF AND PUSH20 0xFFFFFFFFFFFFFFFFFFFFFFFFFFFFFFFFFFFFFFFF AND DUP2 MSTORE PUSH1 0x20 ADD SWAP1 DUP2 MSTORE PUSH1 0x20 ADD PUSH1 0x0 KECCAK256 PUSH1 0x2 ADD PUSH1 0x0 SWAP1 SLOAD SWAP1 PUSH2 0x100 EXP SWAP1 DIV PUSH20 0xFFFFFFFFFFFFFFFFFFFFFFFFFFFFFFFFFFFFFFFF AND PUSH20 0xFFFFFFFFFFFFFFFFFFFFFFFFFFFFFFFFFFFFFFFF AND SUB PUSH2 0x410A JUMPI PUSH1 0x40 MLOAD PUSH32 0x8C379A000000000000000000000000000000000000000000000000000000000 DUP2 MSTORE PUSH1 0x4 ADD PUSH2 0x4101 SWAP1 PUSH2 0x85E7 JUMP JUMPDEST PUSH1 0x40 MLOAD DUP1 SWAP2 SUB SWAP1 REVERT JUMPDEST DUP1 PUSH20 0xFFFFFFFFFFFFFFFFFFFFFFFFFFFFFFFFFFFFFFFF AND PUSH1 0x3 PUSH1 0x0 DUP4 PUSH20 0xFFFFFFFFFFFFFFFFFFFFFFFFFFFFFFFFFFFFFFFF AND PUSH20 0xFFFFFFFFFFFFFFFFFFFFFFFFFFFFFFFFFFFFFFFF AND DUP2 MSTORE PUSH1 0x20 ADD SWAP1 DUP2 MSTORE PUSH1 0x20 ADD PUSH1 0x0 KECCAK256 PUSH1 0x2 ADD PUSH1 0x0 SWAP1 SLOAD SWAP1 PUSH2 0x100 EXP SWAP1 DIV PUSH20 0xFFFFFFFFFFFFFFFFFFFFFFFFFFFFFFFFFFFFFFFF AND PUSH20 0xFFFFFFFFFFFFFFFFFFFFFFFFFFFFFFFFFFFFFFFF AND EQ PUSH2 0x41DA JUMPI PUSH1 0x40 MLOAD PUSH32 0x8C379A000000000000000000000000000000000000000000000000000000000 DUP2 MSTORE PUSH1 0x4 ADD PUSH2 0x41D1 SWAP1 PUSH2 0x8679 JUMP JUMPDEST PUSH1 0x40 MLOAD DUP1 SWAP2 SUB SWAP1 REVERT JUMPDEST PUSH1 0x0 PUSH1 0x1 DUP2 GT ISZERO PUSH2 0x41EE JUMPI PUSH2 0x41ED PUSH2 0x7636 JUMP JUMPDEST JUMPDEST PUSH1 0x3 PUSH1 0x0 DUP4 PUSH20 0xFFFFFFFFFFFFFFFFFFFFFFFFFFFFFFFFFFFFFFFF AND PUSH20 0xFFFFFFFFFFFFFFFFFFFFFFFFFFFFFFFFFFFFFFFF AND DUP2 MSTORE PUSH1 0x20 ADD SWAP1 DUP2 MSTORE PUSH1 0x20 ADD PUSH1 0x0 KECCAK256 PUSH1 0x4 ADD PUSH1 0x2 SWAP1 SLOAD SWAP1 PUSH2 0x100 EXP SWAP1 DIV PUSH1 0xFF AND PUSH1 0x1 DUP2 GT ISZERO PUSH2 0x4250 JUMPI PUSH2 0x424F PUSH2 0x7636 JUMP JUMPDEST JUMPDEST EQ PUSH2 0x4290 JUMPI PUSH1 0x40 MLOAD PUSH32 0x8C379A000000000000000000000000000000000000000000000000000000000 DUP2 MSTORE PUSH1 0x4 ADD PUSH2 0x4287 SWAP1 PUSH2 0x8731 JUMP JUMPDEST PUSH1 0x40 MLOAD DUP1 SWAP2 SUB SWAP1 REVERT JUMPDEST PUSH1 0x0 PUSH2 0x429C DUP7 CALLER PUSH2 0x604E JUMP JUMPDEST SWAP1 POP PUSH2 0x42A7 DUP2 PUSH2 0x622B JUMP JUMPDEST PUSH2 0x42E6 JUMPI PUSH1 0x40 MLOAD PUSH32 0x8C379A000000000000000000000000000000000000000000000000000000000 DUP2 MSTORE PUSH1 0x4 ADD PUSH2 0x42DD SWAP1 PUSH2 0x90FF JUMP JUMPDEST PUSH1 0x40 MLOAD DUP1 SWAP2 SUB SWAP1 REVERT JUMPDEST PUSH1 0x0 DUP6 ISZERO PUSH2 0x42F7 JUMPI PUSH1 0x1 SWAP1 POP PUSH2 0x42FC JUMP JUMPDEST PUSH1 0x2 SWAP1 POP JUMPDEST DUP1 PUSH1 0x7 DUP4 PUSH1 0x40 MLOAD PUSH2 0x430D SWAP2 SWAP1 PUSH2 0x8C87 JUMP JUMPDEST SWAP1 DUP2 MSTORE PUSH1 0x20 ADD PUSH1 0x40 MLOAD DUP1 SWAP2 SUB SWAP1 KECCAK256 PUSH1 0x7 ADD PUSH1 0x1 PUSH2 0x100 EXP DUP2 SLOAD DUP2 PUSH1 0xFF MUL NOT AND SWAP1 DUP4 PUSH1 0x2 DUP2 GT ISZERO PUSH2 0x4340 JUMPI PUSH2 0x433F PUSH2 0x7636 JUMP JUMPDEST JUMPDEST MUL OR SWAP1 SSTORE POP DUP5 PUSH1 0x7 DUP4 PUSH1 0x40 MLOAD PUSH2 0x4356 SWAP2 SWAP1 PUSH2 0x8C87 JUMP JUMPDEST SWAP1 DUP2 MSTORE PUSH1 0x20 ADD PUSH1 0x40 MLOAD DUP1 SWAP2 SUB SWAP1 KECCAK256 PUSH1 0x8 ADD SWAP1 DUP2 PUSH2 0x4373 SWAP2 SWAP1 PUSH2 0x895D JUMP JUMPDEST POP PUSH32 0xA8DBF5117D5DEDC3FD5BA8FE21E806ED427F7C6F59227FC077FC198F05A90FB3 DUP3 CALLER DUP10 DUP5 PUSH1 0x40 MLOAD PUSH2 0x43A9 SWAP5 SWAP4 SWAP3 SWAP2 SWAP1 PUSH2 0x8FAF JUMP JUMPDEST PUSH1 0x40 MLOAD DUP1 SWAP2 SUB SWAP1 LOG1 POP POP POP POP POP POP POP JUMP JUMPDEST CALLER PUSH1 0x0 PUSH20 0xFFFFFFFFFFFFFFFFFFFFFFFFFFFFFFFFFFFFFFFF AND DUP2 PUSH20 0xFFFFFFFFFFFFFFFFFFFFFFFFFFFFFFFFFFFFFFFF AND SUB PUSH2 0x442A JUMPI PUSH1 0x40 MLOAD PUSH32 0x8C379A000000000000000000000000000000000000000000000000000000000 DUP2 MSTORE PUSH1 0x4 ADD PUSH2 0x4421 SWAP1 PUSH2 0x8B53 JUMP JUMPDEST PUSH1 0x40 MLOAD DUP1 SWAP2 SUB SWAP1 REVERT JUMPDEST PUSH1 0x0 PUSH20 0xFFFFFFFFFFFFFFFFFFFFFFFFFFFFFFFFFFFFFFFF AND PUSH1 0x1 PUSH1 0x0 DUP4 PUSH20 0xFFFFFFFFFFFFFFFFFFFFFFFFFFFFFFFFFFFFFFFF AND PUSH20 0xFFFFFFFFFFFFFFFFFFFFFFFFFFFFFFFFFFFFFFFF AND DUP2 MSTORE PUSH1 0x20 ADD SWAP1 DUP2 MSTORE PUSH1 0x20 ADD PUSH1 0x0 KECCAK256 PUSH1 0x2 ADD PUSH1 0x2 SWAP1 SLOAD SWAP1 PUSH2 0x100 EXP SWAP1 DIV PUSH20 0xFFFFFFFFFFFFFFFFFFFFFFFFFFFFFFFFFFFFFFFF AND PUSH20 0xFFFFFFFFFFFFFFFFFFFFFFFFFFFFFFFFFFFFFFFF AND SUB PUSH2 0x44FB JUMPI PUSH1 0x40 MLOAD PUSH32 0x8C379A000000000000000000000000000000000000000000000000000000000 DUP2 MSTORE PUSH1 0x4 ADD PUSH2 0x44F2 SWAP1 PUSH2 0x8BBF JUMP JUMPDEST PUSH1 0x40 MLOAD DUP1 SWAP2 SUB SWAP1 REVERT JUMPDEST PUSH2 0x45DE PUSH1 0x1 PUSH1 0x0 DUP4 PUSH20 0xFFFFFFFFFFFFFFFFFFFFFFFFFFFFFFFFFFFFFFFF AND PUSH20 0xFFFFFFFFFFFFFFFFFFFFFFFFFFFFFFFFFFFFFFFF AND DUP2 MSTORE PUSH1 0x20 ADD SWAP1 DUP2 MSTORE PUSH1 0x20 ADD PUSH1 0x0 KECCAK256 PUSH1 0x1 ADD DUP1 SLOAD PUSH2 0x454B SWAP1 PUSH2 0x8780 JUMP JUMPDEST DUP1 PUSH1 0x1F ADD PUSH1 0x20 DUP1 SWAP2 DIV MUL PUSH1 0x20 ADD PUSH1 0x40 MLOAD SWAP1 DUP2 ADD PUSH1 0x40 MSTORE DUP1 SWAP3 SWAP2 SWAP1 DUP2 DUP2 MSTORE PUSH1 0x20 ADD DUP3 DUP1 SLOAD PUSH2 0x4577 SWAP1 PUSH2 0x8780 JUMP JUMPDEST DUP1 ISZERO PUSH2 0x45C4 JUMPI DUP1 PUSH1 0x1F LT PUSH2 0x4599 JUMPI PUSH2 0x100 DUP1 DUP4 SLOAD DIV MUL DUP4 MSTORE SWAP2 PUSH1 0x20 ADD SWAP2 PUSH2 0x45C4 JUMP JUMPDEST DUP3 ADD SWAP2 SWAP1 PUSH1 0x0 MSTORE PUSH1 0x20 PUSH1 0x0 KECCAK256 SWAP1 JUMPDEST DUP2 SLOAD DUP2 MSTORE SWAP1 PUSH1 0x1 ADD SWAP1 PUSH1 0x20 ADD DUP1 DUP4 GT PUSH2 0x45A7 JUMPI DUP3 SWAP1 SUB PUSH1 0x1F AND DUP3 ADD SWAP2 JUMPDEST POP POP POP POP POP PUSH1 0x40 MLOAD DUP1 PUSH1 0x20 ADD PUSH1 0x40 MSTORE DUP1 PUSH1 0x0 DUP2 MSTORE POP PUSH2 0x5C84 JUMP JUMPDEST ISZERO PUSH2 0x461E JUMPI PUSH1 0x40 MLOAD PUSH32 0x8C379A000000000000000000000000000000000000000000000000000000000 DUP2 MSTORE PUSH1 0x4 ADD PUSH2 0x4615 SWAP1 PUSH2 0x8C2B JUMP JUMPDEST PUSH1 0x40 MLOAD DUP1 SWAP2 SUB SWAP1 REVERT JUMPDEST PUSH2 0x4629 DUP5 DUP5 DUP5 PUSH2 0x6E5E JUMP JUMPDEST DUP4 PUSH1 0x6 PUSH1 0x0 CALLER PUSH20 0xFFFFFFFFFFFFFFFFFFFFFFFFFFFFFFFFFFFFFFFF AND PUSH20 0xFFFFFFFFFFFFFFFFFFFFFFFFFFFFFFFFFFFFFFFF AND DUP2 MSTORE PUSH1 0x20 ADD SWAP1 DUP2 MSTORE PUSH1 0x20 ADD PUSH1 0x0 KECCAK256 PUSH1 0x0 ADD SWAP1 DUP2 PUSH2 0x4678 SWAP2 SWAP1 PUSH2 0x895D JUMP JUMPDEST POP DUP3 PUSH1 0x6 PUSH1 0x0 CALLER PUSH20 0xFFFFFFFFFFFFFFFFFFFFFFFFFFFFFFFFFFFFFFFF AND PUSH20 0xFFFFFFFFFFFFFFFFFFFFFFFFFFFFFFFFFFFFFFFF AND DUP2 MSTORE PUSH1 0x20 ADD SWAP1 DUP2 MSTORE PUSH1 0x20 ADD PUSH1 0x0 KECCAK256 PUSH1 0x1 ADD SWAP1 DUP2 PUSH2 0x46C8 SWAP2 SWAP1 PUSH2 0x895D JUMP JUMPDEST POP POP POP POP POP JUMP JUMPDEST CALLER PUSH1 0x0 PUSH20 0xFFFFFFFFFFFFFFFFFFFFFFFFFFFFFFFFFFFFFFFF AND PUSH1 0x3 PUSH1 0x0 DUP4 PUSH20 0xFFFFFFFFFFFFFFFFFFFFFFFFFFFFFFFFFFFFFFFF AND PUSH20 0xFFFFFFFFFFFFFFFFFFFFFFFFFFFFFFFFFFFFFFFF AND DUP2 MSTORE PUSH1 0x20 ADD SWAP1 DUP2 MSTORE PUSH1 0x20 ADD PUSH1 0x0 KECCAK256 PUSH1 0x2 ADD PUSH1 0x0 SWAP1 SLOAD SWAP1 PUSH2 0x100 EXP SWAP1 DIV PUSH20 0xFFFFFFFFFFFFFFFFFFFFFFFFFFFFFFFFFFFFFFFF AND PUSH20 0xFFFFFFFFFFFFFFFFFFFFFFFFFFFFFFFFFFFFFFFF AND SUB PUSH2 0x47A1 JUMPI PUSH1 0x40 MLOAD PUSH32 0x8C379A000000000000000000000000000000000000000000000000000000000 DUP2 MSTORE PUSH1 0x4 ADD PUSH2 0x4798 SWAP1 PUSH2 0x85E7 JUMP JUMPDEST PUSH1 0x40 MLOAD DUP1 SWAP2 SUB SWAP1 REVERT JUMPDEST DUP1 PUSH20 0xFFFFFFFFFFFFFFFFFFFFFFFFFFFFFFFFFFFFFFFF AND PUSH1 0x3 PUSH1 0x0 DUP4 PUSH20 0xFFFFFFFFFFFFFFFFFFFFFFFFFFFFFFFFFFFFFFFF AND PUSH20 0xFFFFFFFFFFFFFFFFFFFFFFFFFFFFFFFFFFFFFFFF AND DUP2 MSTORE PUSH1 0x20 ADD SWAP1 DUP2 MSTORE PUSH1 0x20 ADD PUSH1 0x0 KECCAK256 PUSH1 0x2 ADD PUSH1 0x0 SWAP1 SLOAD SWAP1 PUSH2 0x100 EXP SWAP1 DIV PUSH20 0xFFFFFFFFFFFFFFFFFFFFFFFFFFFFFFFFFFFFFFFF AND PUSH20 0xFFFFFFFFFFFFFFFFFFFFFFFFFFFFFFFFFFFFFFFF AND EQ PUSH2 0x4871 JUMPI PUSH1 0x40 MLOAD PUSH32 0x8C379A000000000000000000000000000000000000000000000000000000000 DUP2 MSTORE PUSH1 0x4 ADD PUSH2 0x4868 SWAP1 PUSH2 0x8679 JUMP JUMPDEST PUSH1 0x40 MLOAD DUP1 SWAP2 SUB SWAP1 REVERT JUMPDEST PUSH1 0x0 PUSH1 0x1 DUP2 GT ISZERO PUSH2 0x4885 JUMPI PUSH2 0x4884 PUSH2 0x7636 JUMP JUMPDEST JUMPDEST PUSH1 0x3 PUSH1 0x0 DUP4 PUSH20 0xFFFFFFFFFFFFFFFFFFFFFFFFFFFFFFFFFFFFFFFF AND PUSH20 0xFFFFFFFFFFFFFFFFFFFFFFFFFFFFFFFFFFFFFFFF AND DUP2 MSTORE PUSH1 0x20 ADD SWAP1 DUP2 MSTORE PUSH1 0x20 ADD PUSH1 0x0 KECCAK256 PUSH1 0x4 ADD PUSH1 0x2 SWAP1 SLOAD SWAP1 PUSH2 0x100 EXP SWAP1 DIV PUSH1 0xFF AND PUSH1 0x1 DUP2 GT ISZERO PUSH2 0x48E7 JUMPI PUSH2 0x48E6 PUSH2 0x7636 JUMP JUMPDEST JUMPDEST EQ PUSH2 0x4927 JUMPI PUSH1 0x40 MLOAD PUSH32 0x8C379A000000000000000000000000000000000000000000000000000000000 DUP2 MSTORE PUSH1 0x4 ADD PUSH2 0x491E SWAP1 PUSH2 0x8731 JUMP JUMPDEST PUSH1 0x40 MLOAD DUP1 SWAP2 SUB SWAP1 REVERT JUMPDEST PUSH1 0x0 PUSH2 0x4933 CALLER DUP7 PUSH2 0x604E JUMP JUMPDEST SWAP1 POP PUSH2 0x493E DUP2 PUSH2 0x622B JUMP JUMPDEST PUSH2 0x497D JUMPI PUSH1 0x40 MLOAD PUSH32 0x8C379A000000000000000000000000000000000000000000000000000000000 DUP2 MSTORE PUSH1 0x4 ADD PUSH2 0x4974 SWAP1 PUSH2 0x916B JUMP JUMPDEST PUSH1 0x40 MLOAD DUP1 SWAP2 SUB SWAP1 REVERT JUMPDEST PUSH1 0x0 DUP5 ISZERO PUSH2 0x49A0 JUMPI PUSH1 0x1 SWAP1 POP PUSH2 0x4992 CALLER PUSH2 0x6F9B JUMP JUMPDEST PUSH2 0x499B DUP7 PUSH2 0x7088 JUMP JUMPDEST PUSH2 0x49A5 JUMP JUMPDEST PUSH1 0x2 SWAP1 POP JUMPDEST DUP1 PUSH1 0x7 DUP4 PUSH1 0x40 MLOAD PUSH2 0x49B6 SWAP2 SWAP1 PUSH2 0x8C87 JUMP JUMPDEST SWAP1 DUP2 MSTORE PUSH1 0x20 ADD PUSH1 0x40 MLOAD DUP1 SWAP2 SUB SWAP1 KECCAK256 PUSH1 0x7 ADD PUSH1 0x0 PUSH2 0x100 EXP DUP2 SLOAD DUP2 PUSH1 0xFF MUL NOT AND SWAP1 DUP4 PUSH1 0x2 DUP2 GT ISZERO PUSH2 0x49E9 JUMPI PUSH2 0x49E8 PUSH2 0x7636 JUMP JUMPDEST JUMPDEST MUL OR SWAP1 SSTORE POP DUP4 PUSH1 0x7 DUP4 PUSH1 0x40 MLOAD PUSH2 0x49FF SWAP2 SWAP1 PUSH2 0x8C87 JUMP JUMPDEST SWAP1 DUP2 MSTORE PUSH1 0x20 ADD PUSH1 0x40 MLOAD DUP1 SWAP2 SUB SWAP1 KECCAK256 PUSH1 0x8 ADD SWAP1 DUP2 PUSH2 0x4A1C SWAP2 SWAP1 PUSH2 0x895D JUMP JUMPDEST POP PUSH32 0xD80F00259EDEEF8F2A1F23C33AB3A8E57577DB0527ED9F04DD9A61E8917D2937 DUP3 DUP8 CALLER DUP5 PUSH1 0x40 MLOAD PUSH2 0x4A52 SWAP5 SWAP4 SWAP3 SWAP2 SWAP1 PUSH2 0x919A JUMP JUMPDEST PUSH1 0x40 MLOAD DUP1 SWAP2 SUB SWAP1 LOG1 POP POP POP POP POP POP JUMP JUMPDEST PUSH1 0x4 PUSH1 0x0 SWAP1 SLOAD SWAP1 PUSH2 0x100 EXP SWAP1 DIV PUSH20 0xFFFFFFFFFFFFFFFFFFFFFFFFFFFFFFFFFFFFFFFF AND PUSH20 0xFFFFFFFFFFFFFFFFFFFFFFFFFFFFFFFFFFFFFFFF AND CALLER PUSH20 0xFFFFFFFFFFFFFFFFFFFFFFFFFFFFFFFFFFFFFFFF AND EQ PUSH2 0x4AF2 JUMPI PUSH1 0x40 MLOAD PUSH32 0x8C379A000000000000000000000000000000000000000000000000000000000 DUP2 MSTORE PUSH1 0x4 ADD PUSH2 0x4AE9 SWAP1 PUSH2 0x9232 JUMP JUMPDEST PUSH1 0x40 MLOAD DUP1 SWAP2 SUB SWAP1 REVERT JUMPDEST JUMP JUMPDEST PUSH1 0x0 DUP1 PUSH20 0xFFFFFFFFFFFFFFFFFFFFFFFFFFFFFFFFFFFFFFFF AND PUSH1 0x3 PUSH1 0x0 DUP6 PUSH20 0xFFFFFFFFFFFFFFFFFFFFFFFFFFFFFFFFFFFFFFFF AND PUSH20 0xFFFFFFFFFFFFFFFFFFFFFFFFFFFFFFFFFFFFFFFF AND DUP2 MSTORE PUSH1 0x20 ADD SWAP1 DUP2 MSTORE PUSH1 0x20 ADD PUSH1 0x0 KECCAK256 PUSH1 0x2 ADD PUSH1 0x0 SWAP1 SLOAD SWAP1 PUSH2 0x100 EXP SWAP1 DIV PUSH20 0xFFFFFFFFFFFFFFFFFFFFFFFFFFFFFFFFFFFFFFFF AND PUSH20 0xFFFFFFFFFFFFFFFFFFFFFFFFFFFFFFFFFFFFFFFF AND SUB PUSH2 0x4BC6 JUMPI PUSH1 0x40 MLOAD PUSH32 0x8C379A000000000000000000000000000000000000000000000000000000000 DUP2 MSTORE PUSH1 0x4 ADD PUSH2 0x4BBD SWAP1 PUSH2 0x92C4 JUMP JUMPDEST PUSH1 0x40 MLOAD DUP1 SWAP2 SUB SWAP1 REVERT JUMPDEST DUP2 DUP1 ISZERO PUSH2 0x4C45 JUMPI POP PUSH1 0x1 DUP1 DUP2 GT ISZERO PUSH2 0x4BE1 JUMPI PUSH2 0x4BE0 PUSH2 0x7636 JUMP JUMPDEST JUMPDEST PUSH1 0x3 PUSH1 0x0 DUP6 PUSH20 0xFFFFFFFFFFFFFFFFFFFFFFFFFFFFFFFFFFFFFFFF AND PUSH20 0xFFFFFFFFFFFFFFFFFFFFFFFFFFFFFFFFFFFFFFFF AND DUP2 MSTORE PUSH1 0x20 ADD SWAP1 DUP2 MSTORE PUSH1 0x20 ADD PUSH1 0x0 KECCAK256 PUSH1 0x4 ADD PUSH1 0x2 SWAP1 SLOAD SWAP1 PUSH2 0x100 EXP SWAP1 DIV PUSH1 0xFF AND PUSH1 0x1 DUP2 GT ISZERO PUSH2 0x4C43 JUMPI PUSH2 0x4C42 PUSH2 0x7636 JUMP JUMPDEST JUMPDEST EQ JUMPDEST ISZERO PUSH2 0x4D38 JUMPI PUSH1 0x0 PUSH1 0x3 PUSH1 0x0 DUP6 PUSH20 0xFFFFFFFFFFFFFFFFFFFFFFFFFFFFFFFFFFFFFFFF AND PUSH20 0xFFFFFFFFFFFFFFFFFFFFFFFFFFFFFFFFFFFFFFFF AND DUP2 MSTORE PUSH1 0x20 ADD SWAP1 DUP2 MSTORE PUSH1 0x20 ADD PUSH1 0x0 KECCAK256 PUSH1 0x4 ADD PUSH1 0x2 PUSH2 0x100 EXP DUP2 SLOAD DUP2 PUSH1 0xFF MUL NOT AND SWAP1 DUP4 PUSH1 0x1 DUP2 GT ISZERO PUSH2 0x4CB0 JUMPI PUSH2 0x4CAF PUSH2 0x7636 JUMP JUMPDEST JUMPDEST MUL OR SWAP1 SSTORE POP PUSH32 0xEB08358B4ED3424DCAA050650EA22C135E76B9A05EC0766BD3C0D664BC2C1697 DUP4 PUSH1 0x3 PUSH1 0x0 DUP7 PUSH20 0xFFFFFFFFFFFFFFFFFFFFFFFFFFFFFFFFFFFFFFFF AND PUSH20 0xFFFFFFFFFFFFFFFFFFFFFFFFFFFFFFFFFFFFFFFF AND DUP2 MSTORE PUSH1 0x20 ADD SWAP1 DUP2 MSTORE PUSH1 0x20 ADD PUSH1 0x0 KECCAK256 PUSH1 0x0 ADD PUSH1 0x40 MLOAD PUSH2 0x4D27 SWAP3 SWAP2 SWAP1 PUSH2 0x92E4 JUMP JUMPDEST PUSH1 0x40 MLOAD DUP1 SWAP2 SUB SWAP1 LOG1 PUSH1 0x0 SWAP1 POP PUSH2 0x4EFF JUMP JUMPDEST DUP2 ISZERO DUP1 ISZERO PUSH2 0x4DB9 JUMPI POP PUSH1 0x0 PUSH1 0x1 DUP2 GT ISZERO PUSH2 0x4D55 JUMPI PUSH2 0x4D54 PUSH2 0x7636 JUMP JUMPDEST JUMPDEST PUSH1 0x3 PUSH1 0x0 DUP6 PUSH20 0xFFFFFFFFFFFFFFFFFFFFFFFFFFFFFFFFFFFFFFFF AND PUSH20 0xFFFFFFFFFFFFFFFFFFFFFFFFFFFFFFFFFFFFFFFF AND DUP2 MSTORE PUSH1 0x20 ADD SWAP1 DUP2 MSTORE PUSH1 0x20 ADD PUSH1 0x0 KECCAK256 PUSH1 0x4 ADD PUSH1 0x2 SWAP1 SLOAD SWAP1 PUSH2 0x100 EXP SWAP1 DIV PUSH1 0xFF AND PUSH1 0x1 DUP2 GT ISZERO PUSH2 0x4DB7 JUMPI PUSH2 0x4DB6 PUSH2 0x7636 JUMP JUMPDEST JUMPDEST EQ JUMPDEST ISZERO PUSH2 0x4EAC JUMPI PUSH1 0x1 PUSH1 0x3 PUSH1 0x0 DUP6 PUSH20 0xFFFFFFFFFFFFFFFFFFFFFFFFFFFFFFFFFFFFFFFF AND PUSH20 0xFFFFFFFFFFFFFFFFFFFFFFFFFFFFFFFFFFFFFFFF AND DUP2 MSTORE PUSH1 0x20 ADD SWAP1 DUP2 MSTORE PUSH1 0x20 ADD PUSH1 0x0 KECCAK256 PUSH1 0x4 ADD PUSH1 0x2 PUSH2 0x100 EXP DUP2 SLOAD DUP2 PUSH1 0xFF MUL NOT AND SWAP1 DUP4 PUSH1 0x1 DUP2 GT ISZERO PUSH2 0x4E24 JUMPI PUSH2 0x4E23 PUSH2 0x7636 JUMP JUMPDEST JUMPDEST MUL OR SWAP1 SSTORE POP PUSH32 0xAFDCCD44091DDE1F075AD1DC885589E840A8F844772BE0E4EE0D2794E266122B DUP4 PUSH1 0x3 PUSH1 0x0 DUP7 PUSH20 0xFFFFFFFFFFFFFFFFFFFFFFFFFFFFFFFFFFFFFFFF AND PUSH20 0xFFFFFFFFFFFFFFFFFFFFFFFFFFFFFFFFFFFFFFFF AND DUP2 MSTORE PUSH1 0x20 ADD SWAP1 DUP2 MSTORE PUSH1 0x20 ADD PUSH1 0x0 KECCAK256 PUSH1 0x0 ADD PUSH1 0x40 MLOAD PUSH2 0x4E9B SWAP3 SWAP2 SWAP1 PUSH2 0x92E4 JUMP JUMPDEST PUSH1 0x40 MLOAD DUP1 SWAP2 SUB SWAP1 LOG1 PUSH1 0x1 SWAP1 POP PUSH2 0x4EFF JUMP JUMPDEST PUSH1 0x3 PUSH1 0x0 DUP5 PUSH20 0xFFFFFFFFFFFFFFFFFFFFFFFFFFFFFFFFFFFFFFFF AND PUSH20 0xFFFFFFFFFFFFFFFFFFFFFFFFFFFFFFFFFFFFFFFF AND DUP2 MSTORE PUSH1 0x20 ADD SWAP1 DUP2 MSTORE PUSH1 0x20 ADD PUSH1 0x0 KECCAK256 PUSH1 0x4 ADD PUSH1 0x2 SWAP1 SLOAD SWAP1 PUSH2 0x100 EXP SWAP1 DIV PUSH1 0xFF AND SWAP1 POP JUMPDEST SWAP3 SWAP2 POP POP JUMP JUMPDEST PUSH1 0x0 PUSH1 0x60 PUSH1 0x0 DUP5 GT PUSH2 0x4F4C JUMPI PUSH1 0x40 MLOAD PUSH32 0x8C379A000000000000000000000000000000000000000000000000000000000 DUP2 MSTORE PUSH1 0x4 ADD PUSH2 0x4F43 SWAP1 PUSH2 0x9360 JUMP JUMPDEST PUSH1 0x40 MLOAD DUP1 SWAP2 SUB SWAP1 REVERT JUMPDEST PUSH1 0x0 DUP1 PUSH1 0x0 DUP1 PUSH2 0x5069 DUP9 DUP9 PUSH2 0x4F9F JUMPI PUSH1 0x9 PUSH1 0x0 CALLER PUSH20 0xFFFFFFFFFFFFFFFFFFFFFFFFFFFFFFFFFFFFFFFF AND PUSH20 0xFFFFFFFFFFFFFFFFFFFFFFFFFFFFFFFFFFFFFFFF AND DUP2 MSTORE PUSH1 0x20 ADD SWAP1 DUP2 MSTORE PUSH1 0x20 ADD PUSH1 0x0 KECCAK256 PUSH2 0x4FDF JUMP JUMPDEST PUSH1 0x8 PUSH1 0x0 CALLER PUSH20 0xFFFFFFFFFFFFFFFFFFFFFFFFFFFFFFFFFFFFFFFF AND PUSH20 0xFFFFFFFFFFFFFFFFFFFFFFFFFFFFFFFFFFFFFFFF AND DUP2 MSTORE PUSH1 0x20 ADD SWAP1 DUP2 MSTORE PUSH1 0x20 ADD PUSH1 0x0 KECCAK256 JUMPDEST DUP1 SLOAD DUP1 PUSH1 0x20 MUL PUSH1 0x20 ADD PUSH1 0x40 MLOAD SWAP1 DUP2 ADD PUSH1 0x40 MSTORE DUP1 SWAP3 SWAP2 SWAP1 DUP2 DUP2 MSTORE PUSH1 0x20 ADD DUP3 DUP1 SLOAD DUP1 ISZERO PUSH2 0x505F JUMPI PUSH1 0x20 MUL DUP3 ADD SWAP2 SWAP1 PUSH1 0x0 MSTORE PUSH1 0x20 PUSH1 0x0 KECCAK256 SWAP1 JUMPDEST DUP2 PUSH1 0x0 SWAP1 SLOAD SWAP1 PUSH2 0x100 EXP SWAP1 DIV PUSH20 0xFFFFFFFFFFFFFFFFFFFFFFFFFFFFFFFFFFFFFFFF AND PUSH20 0xFFFFFFFFFFFFFFFFFFFFFFFFFFFFFFFFFFFFFFFF AND DUP2 MSTORE PUSH1 0x20 ADD SWAP1 PUSH1 0x1 ADD SWAP1 DUP1 DUP4 GT PUSH2 0x5015 JUMPI JUMPDEST POP POP POP POP POP PUSH2 0x717B JUMP JUMPDEST SWAP4 POP SWAP4 POP SWAP4 POP SWAP4 POP PUSH1 0x0 DUP4 PUSH8 0xFFFFFFFFFFFFFFFF DUP2 GT ISZERO PUSH2 0x508D JUMPI PUSH2 0x508C PUSH2 0x78B6 JUMP JUMPDEST JUMPDEST PUSH1 0x40 MLOAD SWAP1 DUP1 DUP3 MSTORE DUP1 PUSH1 0x20 MUL PUSH1 0x20 ADD DUP3 ADD PUSH1 0x40 MSTORE DUP1 ISZERO PUSH2 0x50C6 JUMPI DUP2 PUSH1 0x20 ADD JUMPDEST PUSH2 0x50B3 PUSH2 0x72FB JUMP JUMPDEST DUP2 MSTORE PUSH1 0x20 ADD SWAP1 PUSH1 0x1 SWAP1 SUB SWAP1 DUP2 PUSH2 0x50AB JUMPI SWAP1 POP JUMPDEST POP SWAP1 POP PUSH1 0x0 DUP4 SWAP1 POP JUMPDEST DUP3 DUP2 LT ISZERO PUSH2 0x5669 JUMPI DUP9 PUSH2 0x5183 JUMPI PUSH1 0x7 PUSH2 0x5163 PUSH1 0x9 PUSH1 0x0 CALLER PUSH20 0xFFFFFFFFFFFFFFFFFFFFFFFFFFFFFFFFFFFFFFFF AND PUSH20 0xFFFFFFFFFFFFFFFFFFFFFFFFFFFFFFFFFFFFFFFF AND DUP2 MSTORE PUSH1 0x20 ADD SWAP1 DUP2 MSTORE PUSH1 0x20 ADD PUSH1 0x0 KECCAK256 DUP4 DUP2 SLOAD DUP2 LT PUSH2 0x5132 JUMPI PUSH2 0x5131 PUSH2 0x8E7F JUMP JUMPDEST JUMPDEST SWAP1 PUSH1 0x0 MSTORE PUSH1 0x20 PUSH1 0x0 KECCAK256 ADD PUSH1 0x0 SWAP1 SLOAD SWAP1 PUSH2 0x100 EXP SWAP1 DIV PUSH20 0xFFFFFFFFFFFFFFFFFFFFFFFFFFFFFFFFFFFFFFFF AND CALLER PUSH2 0x604E JUMP JUMPDEST PUSH1 0x40 MLOAD PUSH2 0x5170 SWAP2 SWAP1 PUSH2 0x8C87 JUMP JUMPDEST SWAP1 DUP2 MSTORE PUSH1 0x20 ADD PUSH1 0x40 MLOAD DUP1 SWAP2 SUB SWAP1 KECCAK256 PUSH2 0x5226 JUMP JUMPDEST PUSH1 0x7 PUSH2 0x520A CALLER PUSH1 0x8 PUSH1 0x0 CALLER PUSH20 0xFFFFFFFFFFFFFFFFFFFFFFFFFFFFFFFFFFFFFFFF AND PUSH20 0xFFFFFFFFFFFFFFFFFFFFFFFFFFFFFFFFFFFFFFFF AND DUP2 MSTORE PUSH1 0x20 ADD SWAP1 DUP2 MSTORE PUSH1 0x20 ADD PUSH1 0x0 KECCAK256 DUP5 DUP2 SLOAD DUP2 LT PUSH2 0x51DA JUMPI PUSH2 0x51D9 PUSH2 0x8E7F JUMP JUMPDEST JUMPDEST SWAP1 PUSH1 0x0 MSTORE PUSH1 0x20 PUSH1 0x0 KECCAK256 ADD PUSH1 0x0 SWAP1 SLOAD SWAP1 PUSH2 0x100 EXP SWAP1 DIV PUSH20 0xFFFFFFFFFFFFFFFFFFFFFFFFFFFFFFFFFFFFFFFF AND PUSH2 0x604E JUMP JUMPDEST PUSH1 0x40 MLOAD PUSH2 0x5217 SWAP2 SWAP1 PUSH2 0x8C87 JUMP JUMPDEST SWAP1 DUP2 MSTORE PUSH1 0x20 ADD PUSH1 0x40 MLOAD DUP1 SWAP2 SUB SWAP1 KECCAK256 JUMPDEST PUSH1 0x40 MLOAD DUP1 PUSH2 0x140 ADD PUSH1 0x40 MSTORE SWAP1 DUP2 PUSH1 0x0 DUP3 ADD DUP1 SLOAD PUSH2 0x5242 SWAP1 PUSH2 0x8780 JUMP JUMPDEST DUP1 PUSH1 0x1F ADD PUSH1 0x20 DUP1 SWAP2 DIV MUL PUSH1 0x20 ADD PUSH1 0x40 MLOAD SWAP1 DUP2 ADD PUSH1 0x40 MSTORE DUP1 SWAP3 SWAP2 SWAP1 DUP2 DUP2 MSTORE PUSH1 0x20 ADD DUP3 DUP1 SLOAD PUSH2 0x526E SWAP1 PUSH2 0x8780 JUMP JUMPDEST DUP1 ISZERO PUSH2 0x52BB JUMPI DUP1 PUSH1 0x1F LT PUSH2 0x5290 JUMPI PUSH2 0x100 DUP1 DUP4 SLOAD DIV MUL DUP4 MSTORE SWAP2 PUSH1 0x20 ADD SWAP2 PUSH2 0x52BB JUMP JUMPDEST DUP3 ADD SWAP2 SWAP1 PUSH1 0x0 MSTORE PUSH1 0x20 PUSH1 0x0 KECCAK256 SWAP1 JUMPDEST DUP2 SLOAD DUP2 MSTORE SWAP1 PUSH1 0x1 ADD SWAP1 PUSH1 0x20 ADD DUP1 DUP4 GT PUSH2 0x529E JUMPI DUP3 SWAP1 SUB PUSH1 0x1F AND DUP3 ADD SWAP2 JUMPDEST POP POP POP POP POP DUP2 MSTORE PUSH1 0x20 ADD PUSH1 0x1 DUP3 ADD PUSH1 0x0 SWAP1 SLOAD SWAP1 PUSH2 0x100 EXP SWAP1 DIV PUSH20 0xFFFFFFFFFFFFFFFFFFFFFFFFFFFFFFFFFFFFFFFF AND PUSH20 0xFFFFFFFFFFFFFFFFFFFFFFFFFFFFFFFFFFFFFFFF AND PUSH20 0xFFFFFFFFFFFFFFFFFFFFFFFFFFFFFFFFFFFFFFFF AND DUP2 MSTORE PUSH1 0x20 ADD PUSH1 0x2 DUP3 ADD DUP1 SLOAD PUSH2 0x532A SWAP1 PUSH2 0x8780 JUMP JUMPDEST DUP1 PUSH1 0x1F ADD PUSH1 0x20 DUP1 SWAP2 DIV MUL PUSH1 0x20 ADD PUSH1 0x40 MLOAD SWAP1 DUP2 ADD PUSH1 0x40 MSTORE DUP1 SWAP3 SWAP2 SWAP1 DUP2 DUP2 MSTORE PUSH1 0x20 ADD DUP3 DUP1 SLOAD PUSH2 0x5356 SWAP1 PUSH2 0x8780 JUMP JUMPDEST DUP1 ISZERO PUSH2 0x53A3 JUMPI DUP1 PUSH1 0x1F LT PUSH2 0x5378 JUMPI PUSH2 0x100 DUP1 DUP4 SLOAD DIV MUL DUP4 MSTORE SWAP2 PUSH1 0x20 ADD SWAP2 PUSH2 0x53A3 JUMP JUMPDEST DUP3 ADD SWAP2 SWAP1 PUSH1 0x0 MSTORE PUSH1 0x20 PUSH1 0x0 KECCAK256 SWAP1 JUMPDEST DUP2 SLOAD DUP2 MSTORE SWAP1 PUSH1 0x1 ADD SWAP1 PUSH1 0x20 ADD DUP1 DUP4 GT PUSH2 0x5386 JUMPI DUP3 SWAP1 SUB PUSH1 0x1F AND DUP3 ADD SWAP2 JUMPDEST POP POP POP POP POP DUP2 MSTORE PUSH1 0x20 ADD PUSH1 0x3 DUP3 ADD PUSH1 0x0 SWAP1 SLOAD SWAP1 PUSH2 0x100 EXP SWAP1 DIV PUSH20 0xFFFFFFFFFFFFFFFFFFFFFFFFFFFFFFFFFFFFFFFF AND PUSH20 0xFFFFFFFFFFFFFFFFFFFFFFFFFFFFFFFFFFFFFFFF AND PUSH20 0xFFFFFFFFFFFFFFFFFFFFFFFFFFFFFFFFFFFFFFFF AND DUP2 MSTORE PUSH1 0x20 ADD PUSH1 0x4 DUP3 ADD DUP1 SLOAD PUSH2 0x5412 SWAP1 PUSH2 0x8780 JUMP JUMPDEST DUP1 PUSH1 0x1F ADD PUSH1 0x20 DUP1 SWAP2 DIV MUL PUSH1 0x20 ADD PUSH1 0x40 MLOAD SWAP1 DUP2 ADD PUSH1 0x40 MSTORE DUP1 SWAP3 SWAP2 SWAP1 DUP2 DUP2 MSTORE PUSH1 0x20 ADD DUP3 DUP1 SLOAD PUSH2 0x543E SWAP1 PUSH2 0x8780 JUMP JUMPDEST DUP1 ISZERO PUSH2 0x548B JUMPI DUP1 PUSH1 0x1F LT PUSH2 0x5460 JUMPI PUSH2 0x100 DUP1 DUP4 SLOAD DIV MUL DUP4 MSTORE SWAP2 PUSH1 0x20 ADD SWAP2 PUSH2 0x548B JUMP JUMPDEST DUP3 ADD SWAP2 SWAP1 PUSH1 0x0 MSTORE PUSH1 0x20 PUSH1 0x0 KECCAK256 SWAP1 JUMPDEST DUP2 SLOAD DUP2 MSTORE SWAP1 PUSH1 0x1 ADD SWAP1 PUSH1 0x20 ADD DUP1 DUP4 GT PUSH2 0x546E JUMPI DUP3 SWAP1 SUB PUSH1 0x1F AND DUP3 ADD SWAP2 JUMPDEST POP POP POP POP POP DUP2 MSTORE PUSH1 0x20 ADD PUSH1 0x5 DUP3 ADD DUP1 SLOAD PUSH2 0x54A4 SWAP1 PUSH2 0x8780 JUMP JUMPDEST DUP1 PUSH1 0x1F ADD PUSH1 0x20 DUP1 SWAP2 DIV MUL PUSH1 0x20 ADD PUSH1 0x40 MLOAD SWAP1 DUP2 ADD PUSH1 0x40 MSTORE DUP1 SWAP3 SWAP2 SWAP1 DUP2 DUP2 MSTORE PUSH1 0x20 ADD DUP3 DUP1 SLOAD PUSH2 0x54D0 SWAP1 PUSH2 0x8780 JUMP JUMPDEST DUP1 ISZERO PUSH2 0x551D JUMPI DUP1 PUSH1 0x1F LT PUSH2 0x54F2 JUMPI PUSH2 0x100 DUP1 DUP4 SLOAD DIV MUL DUP4 MSTORE SWAP2 PUSH1 0x20 ADD SWAP2 PUSH2 0x551D JUMP JUMPDEST DUP3 ADD SWAP2 SWAP1 PUSH1 0x0 MSTORE PUSH1 0x20 PUSH1 0x0 KECCAK256 SWAP1 JUMPDEST DUP2 SLOAD DUP2 MSTORE SWAP1 PUSH1 0x1 ADD SWAP1 PUSH1 0x20 ADD DUP1 DUP4 GT PUSH2 0x5500 JUMPI DUP3 SWAP1 SUB PUSH1 0x1F AND DUP3 ADD SWAP2 JUMPDEST POP POP POP POP POP DUP2 MSTORE PUSH1 0x20 ADD PUSH1 0x6 DUP3 ADD SLOAD DUP2 MSTORE PUSH1 0x20 ADD PUSH1 0x7 DUP3 ADD PUSH1 0x0 SWAP1 SLOAD SWAP1 PUSH2 0x100 EXP SWAP1 DIV PUSH1 0xFF AND PUSH1 0x2 DUP2 GT ISZERO PUSH2 0x5555 JUMPI PUSH2 0x5554 PUSH2 0x7636 JUMP JUMPDEST JUMPDEST PUSH1 0x2 DUP2 GT ISZERO PUSH2 0x5567 JUMPI PUSH2 0x5566 PUSH2 0x7636 JUMP JUMPDEST JUMPDEST DUP2 MSTORE PUSH1 0x20 ADD PUSH1 0x7 DUP3 ADD PUSH1 0x1 SWAP1 SLOAD SWAP1 PUSH2 0x100 EXP SWAP1 DIV PUSH1 0xFF AND PUSH1 0x2 DUP2 GT ISZERO PUSH2 0x5590 JUMPI PUSH2 0x558F PUSH2 0x7636 JUMP JUMPDEST JUMPDEST PUSH1 0x2 DUP2 GT ISZERO PUSH2 0x55A2 JUMPI PUSH2 0x55A1 PUSH2 0x7636 JUMP JUMPDEST JUMPDEST DUP2 MSTORE PUSH1 0x20 ADD PUSH1 0x8 DUP3 ADD DUP1 SLOAD PUSH2 0x55B6 SWAP1 PUSH2 0x8780 JUMP JUMPDEST DUP1 PUSH1 0x1F ADD PUSH1 0x20 DUP1 SWAP2 DIV MUL PUSH1 0x20 ADD PUSH1 0x40 MLOAD SWAP1 DUP2 ADD PUSH1 0x40 MSTORE DUP1 SWAP3 SWAP2 SWAP1 DUP2 DUP2 MSTORE PUSH1 0x20 ADD DUP3 DUP1 SLOAD PUSH2 0x55E2 SWAP1 PUSH2 0x8780 JUMP JUMPDEST DUP1 ISZERO PUSH2 0x562F JUMPI DUP1 PUSH1 0x1F LT PUSH2 0x5604 JUMPI PUSH2 0x100 DUP1 DUP4 SLOAD DIV MUL DUP4 MSTORE SWAP2 PUSH1 0x20 ADD SWAP2 PUSH2 0x562F JUMP JUMPDEST DUP3 ADD SWAP2 SWAP1 PUSH1 0x0 MSTORE PUSH1 0x20 PUSH1 0x0 KECCAK256 SWAP1 JUMPDEST DUP2 SLOAD DUP2 MSTORE SWAP1 PUSH1 0x1 ADD SWAP1 PUSH1 0x20 ADD DUP1 DUP4 GT PUSH2 0x5612 JUMPI DUP3 SWAP1 SUB PUSH1 0x1F AND DUP3 ADD SWAP2 JUMPDEST POP POP POP POP POP DUP2 MSTORE POP POP DUP3 DUP3 DUP2 MLOAD DUP2 LT PUSH2 0x564B JUMPI PUSH2 0x564A PUSH2 0x8E7F JUMP JUMPDEST JUMPDEST PUSH1 0x20 MUL PUSH1 0x20 ADD ADD DUP2 SWAP1 MSTORE POP DUP1 DUP1 PUSH2 0x5661 SWAP1 PUSH2 0x8EDD JUMP JUMPDEST SWAP2 POP POP PUSH2 0x50CF JUMP JUMPDEST POP DUP5 DUP2 SWAP7 POP SWAP7 POP POP POP POP POP POP SWAP3 POP SWAP3 SWAP1 POP JUMP JUMPDEST PUSH1 0x0 PUSH20 0xFFFFFFFFFFFFFFFFFFFFFFFFFFFFFFFFFFFFFFFF AND PUSH1 0x3 PUSH1 0x0 DUP4 PUSH1 0x40 ADD MLOAD PUSH20 0xFFFFFFFFFFFFFFFFFFFFFFFFFFFFFFFFFFFFFFFF AND PUSH20 0xFFFFFFFFFFFFFFFFFFFFFFFFFFFFFFFFFFFFFFFF AND DUP2 MSTORE PUSH1 0x20 ADD SWAP1 DUP2 MSTORE PUSH1 0x20 ADD PUSH1 0x0 KECCAK256 PUSH1 0x2 ADD PUSH1 0x0 SWAP1 SLOAD SWAP1 PUSH2 0x100 EXP SWAP1 DIV PUSH20 0xFFFFFFFFFFFFFFFFFFFFFFFFFFFFFFFFFFFFFFFF AND PUSH20 0xFFFFFFFFFFFFFFFFFFFFFFFFFFFFFFFFFFFFFFFF AND EQ PUSH2 0x5751 JUMPI PUSH1 0x40 MLOAD PUSH32 0x8C379A000000000000000000000000000000000000000000000000000000000 DUP2 MSTORE PUSH1 0x4 ADD PUSH2 0x5748 SWAP1 PUSH2 0x93F2 JUMP JUMPDEST PUSH1 0x40 MLOAD DUP1 SWAP2 SUB SWAP1 REVERT JUMPDEST PUSH1 0x2 DUP2 PUSH1 0x40 ADD MLOAD SWAP1 DUP1 PUSH1 0x1 DUP2 SLOAD ADD DUP1 DUP3 SSTORE DUP1 SWAP2 POP POP PUSH1 0x1 SWAP1 SUB SWAP1 PUSH1 0x0 MSTORE PUSH1 0x20 PUSH1 0x0 KECCAK256 ADD PUSH1 0x0 SWAP1 SWAP2 SWAP1 SWAP2 SWAP1 SWAP2 PUSH2 0x100 EXP DUP2 SLOAD DUP2 PUSH20 0xFFFFFFFFFFFFFFFFFFFFFFFFFFFFFFFFFFFFFFFF MUL NOT AND SWAP1 DUP4 PUSH20 0xFFFFFFFFFFFFFFFFFFFFFFFFFFFFFFFFFFFFFFFF AND MUL OR SWAP1 SSTORE POP PUSH32 0x525FD5EDCF782F6D6185CD349B4698E6D22DBD3C2A35AA6B58D07C68DAC77E18 DUP2 PUSH1 0x40 ADD MLOAD DUP3 PUSH1 0x0 ADD MLOAD DUP4 PUSH1 0x20 ADD MLOAD DUP5 PUSH1 0x60 ADD MLOAD PUSH1 0x40 MLOAD PUSH2 0x57FD SWAP5 SWAP4 SWAP3 SWAP2 SWAP1 PUSH2 0x9412 JUMP JUMPDEST PUSH1 0x40 MLOAD DUP1 SWAP2 SUB SWAP1 LOG1 POP JUMP JUMPDEST PUSH1 0x0 PUSH1 0x60 PUSH1 0x0 DUP4 GT PUSH2 0x584F JUMPI PUSH1 0x40 MLOAD PUSH32 0x8C379A000000000000000000000000000000000000000000000000000000000 DUP2 MSTORE PUSH1 0x4 ADD PUSH2 0x5846 SWAP1 PUSH2 0x9360 JUMP JUMPDEST PUSH1 0x40 MLOAD DUP1 SWAP2 SUB SWAP1 REVERT JUMPDEST PUSH1 0x0 DUP1 PUSH1 0x0 DUP1 PUSH2 0x58E5 DUP8 PUSH1 0x2 DUP1 SLOAD DUP1 PUSH1 0x20 MUL PUSH1 0x20 ADD PUSH1 0x40 MLOAD SWAP1 DUP2 ADD PUSH1 0x40 MSTORE DUP1 SWAP3 SWAP2 SWAP1 DUP2 DUP2 MSTORE PUSH1 0x20 ADD DUP3 DUP1 SLOAD DUP1 ISZERO PUSH2 0x58DB JUMPI PUSH1 0x20 MUL DUP3 ADD SWAP2 SWAP1 PUSH1 0x0 MSTORE PUSH1 0x20 PUSH1 0x0 KECCAK256 SWAP1 JUMPDEST DUP2 PUSH1 0x0 SWAP1 SLOAD SWAP1 PUSH2 0x100 EXP SWAP1 DIV PUSH20 0xFFFFFFFFFFFFFFFFFFFFFFFFFFFFFFFFFFFFFFFF AND PUSH20 0xFFFFFFFFFFFFFFFFFFFFFFFFFFFFFFFFFFFFFFFF AND DUP2 MSTORE PUSH1 0x20 ADD SWAP1 PUSH1 0x1 ADD SWAP1 DUP1 DUP4 GT PUSH2 0x5891 JUMPI JUMPDEST POP POP POP POP POP PUSH2 0x717B JUMP JUMPDEST SWAP4 POP SWAP4 POP SWAP4 POP SWAP4 POP PUSH1 0x0 DUP4 PUSH8 0xFFFFFFFFFFFFFFFF DUP2 GT ISZERO PUSH2 0x5909 JUMPI PUSH2 0x5908 PUSH2 0x78B6 JUMP JUMPDEST JUMPDEST PUSH1 0x40 MLOAD SWAP1 DUP1 DUP3 MSTORE DUP1 PUSH1 0x20 MUL PUSH1 0x20 ADD DUP3 ADD PUSH1 0x40 MSTORE DUP1 ISZERO PUSH2 0x5942 JUMPI DUP2 PUSH1 0x20 ADD JUMPDEST PUSH2 0x592F PUSH2 0x739E JUMP JUMPDEST DUP2 MSTORE PUSH1 0x20 ADD SWAP1 PUSH1 0x1 SWAP1 SUB SWAP1 DUP2 PUSH2 0x5927 JUMPI SWAP1 POP JUMPDEST POP SWAP1 POP PUSH1 0x0 DUP4 SWAP1 POP JUMPDEST DUP3 DUP2 LT ISZERO PUSH2 0x5C73 JUMPI PUSH1 0x3 PUSH1 0x0 PUSH1 0x2 DUP4 DUP2 SLOAD DUP2 LT PUSH2 0x596B JUMPI PUSH2 0x596A PUSH2 0x8E7F JUMP JUMPDEST JUMPDEST SWAP1 PUSH1 0x0 MSTORE PUSH1 0x20 PUSH1 0x0 KECCAK256 ADD PUSH1 0x0 SWAP1 SLOAD SWAP1 PUSH2 0x100 EXP SWAP1 DIV PUSH20 0xFFFFFFFFFFFFFFFFFFFFFFFFFFFFFFFFFFFFFFFF AND PUSH20 0xFFFFFFFFFFFFFFFFFFFFFFFFFFFFFFFFFFFFFFFF AND PUSH20 0xFFFFFFFFFFFFFFFFFFFFFFFFFFFFFFFFFFFFFFFF AND DUP2 MSTORE PUSH1 0x20 ADD SWAP1 DUP2 MSTORE PUSH1 0x20 ADD PUSH1 0x0 KECCAK256 PUSH1 0x40 MLOAD DUP1 PUSH1 0xC0 ADD PUSH1 0x40 MSTORE SWAP1 DUP2 PUSH1 0x0 DUP3 ADD DUP1 SLOAD PUSH2 0x59EB SWAP1 PUSH2 0x8780 JUMP JUMPDEST DUP1 PUSH1 0x1F ADD PUSH1 0x20 DUP1 SWAP2 DIV MUL PUSH1 0x20 ADD PUSH1 0x40 MLOAD SWAP1 DUP2 ADD PUSH1 0x40 MSTORE DUP1 SWAP3 SWAP2 SWAP1 DUP2 DUP2 MSTORE PUSH1 0x20 ADD DUP3 DUP1 SLOAD PUSH2 0x5A17 SWAP1 PUSH2 0x8780 JUMP JUMPDEST DUP1 ISZERO PUSH2 0x5A64 JUMPI DUP1 PUSH1 0x1F LT PUSH2 0x5A39 JUMPI PUSH2 0x100 DUP1 DUP4 SLOAD DIV MUL DUP4 MSTORE SWAP2 PUSH1 0x20 ADD SWAP2 PUSH2 0x5A64 JUMP JUMPDEST DUP3 ADD SWAP2 SWAP1 PUSH1 0x0 MSTORE PUSH1 0x20 PUSH1 0x0 KECCAK256 SWAP1 JUMPDEST DUP2 SLOAD DUP2 MSTORE SWAP1 PUSH1 0x1 ADD SWAP1 PUSH1 0x20 ADD DUP1 DUP4 GT PUSH2 0x5A47 JUMPI DUP3 SWAP1 SUB PUSH1 0x1F AND DUP3 ADD SWAP2 JUMPDEST POP POP POP POP POP DUP2 MSTORE PUSH1 0x20 ADD PUSH1 0x1 DUP3 ADD DUP1 SLOAD PUSH2 0x5A7D SWAP1 PUSH2 0x8780 JUMP JUMPDEST DUP1 PUSH1 0x1F ADD PUSH1 0x20 DUP1 SWAP2 DIV MUL PUSH1 0x20 ADD PUSH1 0x40 MLOAD SWAP1 DUP2 ADD PUSH1 0x40 MSTORE DUP1 SWAP3 SWAP2 SWAP1 DUP2 DUP2 MSTORE PUSH1 0x20 ADD DUP3 DUP1 SLOAD PUSH2 0x5AA9 SWAP1 PUSH2 0x8780 JUMP JUMPDEST DUP1 ISZERO PUSH2 0x5AF6 JUMPI DUP1 PUSH1 0x1F LT PUSH2 0x5ACB JUMPI PUSH2 0x100 DUP1 DUP4 SLOAD DIV MUL DUP4 MSTORE SWAP2 PUSH1 0x20 ADD SWAP2 PUSH2 0x5AF6 JUMP JUMPDEST DUP3 ADD SWAP2 SWAP1 PUSH1 0x0 MSTORE PUSH1 0x20 PUSH1 0x0 KECCAK256 SWAP1 JUMPDEST DUP2 SLOAD DUP2 MSTORE SWAP1 PUSH1 0x1 ADD SWAP1 PUSH1 0x20 ADD DUP1 DUP4 GT PUSH2 0x5AD9 JUMPI DUP3 SWAP1 SUB PUSH1 0x1F AND DUP3 ADD SWAP2 JUMPDEST POP POP POP POP POP DUP2 MSTORE PUSH1 0x20 ADD PUSH1 0x2 DUP3 ADD PUSH1 0x0 SWAP1 SLOAD SWAP1 PUSH2 0x100 EXP SWAP1 DIV PUSH20 0xFFFFFFFFFFFFFFFFFFFFFFFFFFFFFFFFFFFFFFFF AND PUSH20 0xFFFFFFFFFFFFFFFFFFFFFFFFFFFFFFFFFFFFFFFF AND PUSH20 0xFFFFFFFFFFFFFFFFFFFFFFFFFFFFFFFFFFFFFFFF AND DUP2 MSTORE PUSH1 0x20 ADD PUSH1 0x3 DUP3 ADD DUP1 SLOAD PUSH2 0x5B65 SWAP1 PUSH2 0x8780 JUMP JUMPDEST DUP1 PUSH1 0x1F ADD PUSH1 0x20 DUP1 SWAP2 DIV MUL PUSH1 0x20 ADD PUSH1 0x40 MLOAD SWAP1 DUP2 ADD PUSH1 0x40 MSTORE DUP1 SWAP3 SWAP2 SWAP1 DUP2 DUP2 MSTORE PUSH1 0x20 ADD DUP3 DUP1 SLOAD PUSH2 0x5B91 SWAP1 PUSH2 0x8780 JUMP JUMPDEST DUP1 ISZERO PUSH2 0x5BDE JUMPI DUP1 PUSH1 0x1F LT PUSH2 0x5BB3 JUMPI PUSH2 0x100 DUP1 DUP4 SLOAD DIV MUL DUP4 MSTORE SWAP2 PUSH1 0x20 ADD SWAP2 PUSH2 0x5BDE JUMP JUMPDEST DUP3 ADD SWAP2 SWAP1 PUSH1 0x0 MSTORE PUSH1 0x20 PUSH1 0x0 KECCAK256 SWAP1 JUMPDEST DUP2 SLOAD DUP2 MSTORE SWAP1 PUSH1 0x1 ADD SWAP1 PUSH1 0x20 ADD DUP1 DUP4 GT PUSH2 0x5BC1 JUMPI DUP3 SWAP1 SUB PUSH1 0x1F AND DUP3 ADD SWAP2 JUMPDEST POP POP POP POP POP DUP2 MSTORE PUSH1 0x20 ADD PUSH1 0x4 DUP3 ADD PUSH1 0x0 SWAP1 SLOAD SWAP1 PUSH2 0x100 EXP SWAP1 DIV PUSH2 0xFFFF AND PUSH2 0xFFFF AND PUSH2 0xFFFF AND DUP2 MSTORE PUSH1 0x20 ADD PUSH1 0x4 DUP3 ADD PUSH1 0x2 SWAP1 SLOAD SWAP1 PUSH2 0x100 EXP SWAP1 DIV PUSH1 0xFF AND PUSH1 0x1 DUP2 GT ISZERO PUSH2 0x5C2C JUMPI PUSH2 0x5C2B PUSH2 0x7636 JUMP JUMPDEST JUMPDEST PUSH1 0x1 DUP2 GT ISZERO PUSH2 0x5C3E JUMPI PUSH2 0x5C3D PUSH2 0x7636 JUMP JUMPDEST JUMPDEST DUP2 MSTORE POP POP DUP3 DUP3 DUP2 MLOAD DUP2 LT PUSH2 0x5C55 JUMPI PUSH2 0x5C54 PUSH2 0x8E7F JUMP JUMPDEST JUMPDEST PUSH1 0x20 MUL PUSH1 0x20 ADD ADD DUP2 SWAP1 MSTORE POP DUP1 DUP1 PUSH2 0x5C6B SWAP1 PUSH2 0x8EDD JUMP JUMPDEST SWAP2 POP POP PUSH2 0x594B JUMP JUMPDEST POP DUP5 DUP2 SWAP7 POP SWAP7 POP POP POP POP POP POP SWAP2 POP SWAP2 JUMP JUMPDEST PUSH1 0x0 DUP2 PUSH1 0x40 MLOAD PUSH1 0x20 ADD PUSH2 0x5C97 SWAP2 SWAP1 PUSH2 0x8C87 JUMP JUMPDEST PUSH1 0x40 MLOAD PUSH1 0x20 DUP2 DUP4 SUB SUB DUP2 MSTORE SWAP1 PUSH1 0x40 MSTORE DUP1 MLOAD SWAP1 PUSH1 0x20 ADD KECCAK256 DUP4 PUSH1 0x40 MLOAD PUSH1 0x20 ADD PUSH2 0x5CBE SWAP2 SWAP1 PUSH2 0x8C87 JUMP JUMPDEST PUSH1 0x40 MLOAD PUSH1 0x20 DUP2 DUP4 SUB SUB DUP2 MSTORE SWAP1 PUSH1 0x40 MSTORE DUP1 MLOAD SWAP1 PUSH1 0x20 ADD KECCAK256 EQ SWAP1 POP SWAP3 SWAP2 POP POP JUMP JUMPDEST PUSH1 0x0 PUSH2 0x5CE7 PUSH2 0x728E JUMP JUMPDEST PUSH1 0x0 PUSH2 0x5CF1 PUSH2 0x728E JUMP JUMPDEST PUSH1 0x0 JUMPDEST DUP6 MLOAD DUP2 LT ISZERO PUSH2 0x603E JUMPI DUP7 PUSH20 0xFFFFFFFFFFFFFFFFFFFFFFFFFFFFFFFFFFFFFFFF AND DUP7 DUP3 DUP2 MLOAD DUP2 LT PUSH2 0x5D27 JUMPI PUSH2 0x5D26 PUSH2 0x8E7F JUMP JUMPDEST JUMPDEST PUSH1 0x20 MUL PUSH1 0x20 ADD ADD MLOAD PUSH20 0xFFFFFFFFFFFFFFFFFFFFFFFFFFFFFFFFFFFFFFFF AND SUB PUSH2 0x602B JUMPI PUSH1 0x1 SWAP3 POP PUSH1 0x1 PUSH1 0x0 DUP9 PUSH20 0xFFFFFFFFFFFFFFFFFFFFFFFFFFFFFFFFFFFFFFFF AND PUSH20 0xFFFFFFFFFFFFFFFFFFFFFFFFFFFFFFFFFFFFFFFF AND DUP2 MSTORE PUSH1 0x20 ADD SWAP1 DUP2 MSTORE PUSH1 0x20 ADD PUSH1 0x0 KECCAK256 PUSH1 0x40 MLOAD DUP1 PUSH1 0xE0 ADD PUSH1 0x40 MSTORE SWAP1 DUP2 PUSH1 0x0 DUP3 ADD DUP1 SLOAD PUSH2 0x5DA8 SWAP1 PUSH2 0x8780 JUMP JUMPDEST DUP1 PUSH1 0x1F ADD PUSH1 0x20 DUP1 SWAP2 DIV MUL PUSH1 0x20 ADD PUSH1 0x40 MLOAD SWAP1 DUP2 ADD PUSH1 0x40 MSTORE DUP1 SWAP3 SWAP2 SWAP1 DUP2 DUP2 MSTORE PUSH1 0x20 ADD DUP3 DUP1 SLOAD PUSH2 0x5DD4 SWAP1 PUSH2 0x8780 JUMP JUMPDEST DUP1 ISZERO PUSH2 0x5E21 JUMPI DUP1 PUSH1 0x1F LT PUSH2 0x5DF6 JUMPI PUSH2 0x100 DUP1 DUP4 SLOAD DIV MUL DUP4 MSTORE SWAP2 PUSH1 0x20 ADD SWAP2 PUSH2 0x5E21 JUMP JUMPDEST DUP3 ADD SWAP2 SWAP1 PUSH1 0x0 MSTORE PUSH1 0x20 PUSH1 0x0 KECCAK256 SWAP1 JUMPDEST DUP2 SLOAD DUP2 MSTORE SWAP1 PUSH1 0x1 ADD SWAP1 PUSH1 0x20 ADD DUP1 DUP4 GT PUSH2 0x5E04 JUMPI DUP3 SWAP1 SUB PUSH1 0x1F AND DUP3 ADD SWAP2 JUMPDEST POP POP POP POP POP DUP2 MSTORE PUSH1 0x20 ADD PUSH1 0x1 DUP3 ADD DUP1 SLOAD PUSH2 0x5E3A SWAP1 PUSH2 0x8780 JUMP JUMPDEST DUP1 PUSH1 0x1F ADD PUSH1 0x20 DUP1 SWAP2 DIV MUL PUSH1 0x20 ADD PUSH1 0x40 MLOAD SWAP1 DUP2 ADD PUSH1 0x40 MSTORE DUP1 SWAP3 SWAP2 SWAP1 DUP2 DUP2 MSTORE PUSH1 0x20 ADD DUP3 DUP1 SLOAD PUSH2 0x5E66 SWAP1 PUSH2 0x8780 JUMP JUMPDEST DUP1 ISZERO PUSH2 0x5EB3 JUMPI DUP1 PUSH1 0x1F LT PUSH2 0x5E88 JUMPI PUSH2 0x100 DUP1 DUP4 SLOAD DIV MUL DUP4 MSTORE SWAP2 PUSH1 0x20 ADD SWAP2 PUSH2 0x5EB3 JUMP JUMPDEST DUP3 ADD SWAP2 SWAP1 PUSH1 0x0 MSTORE PUSH1 0x20 PUSH1 0x0 KECCAK256 SWAP1 JUMPDEST DUP2 SLOAD DUP2 MSTORE SWAP1 PUSH1 0x1 ADD SWAP1 PUSH1 0x20 ADD DUP1 DUP4 GT PUSH2 0x5E96 JUMPI DUP3 SWAP1 SUB PUSH1 0x1F AND DUP3 ADD SWAP2 JUMPDEST POP POP POP POP POP DUP2 MSTORE PUSH1 0x20 ADD PUSH1 0x2 DUP3 ADD PUSH1 0x0 SWAP1 SLOAD SWAP1 PUSH2 0x100 EXP SWAP1 DIV PUSH2 0xFFFF AND PUSH2 0xFFFF AND PUSH2 0xFFFF AND DUP2 MSTORE PUSH1 0x20 ADD PUSH1 0x2 DUP3 ADD PUSH1 0x2 SWAP1 SLOAD SWAP1 PUSH2 0x100 EXP SWAP1 DIV PUSH20 0xFFFFFFFFFFFFFFFFFFFFFFFFFFFFFFFFFFFFFFFF AND PUSH20 0xFFFFFFFFFFFFFFFFFFFFFFFFFFFFFFFFFFFFFFFF AND PUSH20 0xFFFFFFFFFFFFFFFFFFFFFFFFFFFFFFFFFFFFFFFF AND DUP2 MSTORE PUSH1 0x20 ADD PUSH1 0x3 DUP3 ADD PUSH1 0x0 SWAP1 SLOAD SWAP1 PUSH2 0x100 EXP SWAP1 DIV PUSH20 0xFFFFFFFFFFFFFFFFFFFFFFFFFFFFFFFFFFFFFFFF AND PUSH20 0xFFFFFFFFFFFFFFFFFFFFFFFFFFFFFFFFFFFFFFFF AND PUSH20 0xFFFFFFFFFFFFFFFFFFFFFFFFFFFFFFFFFFFFFFFF AND DUP2 MSTORE PUSH1 0x20 ADD PUSH1 0x4 DUP3 ADD DUP1 SLOAD PUSH2 0x5F98 SWAP1 PUSH2 0x8780 JUMP JUMPDEST DUP1 PUSH1 0x1F ADD PUSH1 0x20 DUP1 SWAP2 DIV MUL PUSH1 0x20 ADD PUSH1 0x40 MLOAD SWAP1 DUP2 ADD PUSH1 0x40 MSTORE DUP1 SWAP3 SWAP2 SWAP1 DUP2 DUP2 MSTORE PUSH1 0x20 ADD DUP3 DUP1 SLOAD PUSH2 0x5FC4 SWAP1 PUSH2 0x8780 JUMP JUMPDEST DUP1 ISZERO PUSH2 0x6011 JUMPI DUP1 PUSH1 0x1F LT PUSH2 0x5FE6 JUMPI PUSH2 0x100 DUP1 DUP4 SLOAD DIV MUL DUP4 MSTORE SWAP2 PUSH1 0x20 ADD SWAP2 PUSH2 0x6011 JUMP JUMPDEST DUP3 ADD SWAP2 SWAP1 PUSH1 0x0 MSTORE PUSH1 0x20 PUSH1 0x0 KECCAK256 SWAP1 JUMPDEST DUP2 SLOAD DUP2 MSTORE SWAP1 PUSH1 0x1 ADD SWAP1 PUSH1 0x20 ADD DUP1 DUP4 GT PUSH2 0x5FF4 JUMPI DUP3 SWAP1 SUB PUSH1 0x1F AND DUP3 ADD SWAP2 JUMPDEST POP POP POP POP POP DUP2 MSTORE PUSH1 0x20 ADD PUSH1 0x5 DUP3 ADD SLOAD DUP2 MSTORE POP POP SWAP2 POP PUSH2 0x603E JUMP JUMPDEST DUP1 DUP1 PUSH2 0x6036 SWAP1 PUSH2 0x8EDD JUMP JUMPDEST SWAP2 POP POP PUSH2 0x5CF4 JUMP JUMPDEST POP DUP2 DUP2 SWAP4 POP SWAP4 POP POP POP SWAP3 POP SWAP3 SWAP1 POP JUMP JUMPDEST PUSH1 0x60 DUP3 DUP3 PUSH1 0x40 MLOAD PUSH1 0x20 ADD PUSH2 0x6063 SWAP3 SWAP2 SWAP1 PUSH2 0x94B4 JUMP JUMPDEST PUSH1 0x40 MLOAD PUSH1 0x20 DUP2 DUP4 SUB SUB DUP2 MSTORE SWAP1 PUSH1 0x40 MSTORE SWAP1 POP SWAP3 SWAP2 POP POP JUMP JUMPDEST PUSH1 0x0 PUSH20 0xFFFFFFFFFFFFFFFFFFFFFFFFFFFFFFFFFFFFFFFF AND PUSH1 0x3 PUSH1 0x0 DUP6 PUSH20 0xFFFFFFFFFFFFFFFFFFFFFFFFFFFFFFFFFFFFFFFF AND PUSH20 0xFFFFFFFFFFFFFFFFFFFFFFFFFFFFFFFFFFFFFFFF AND DUP2 MSTORE PUSH1 0x20 ADD SWAP1 DUP2 MSTORE PUSH1 0x20 ADD PUSH1 0x0 KECCAK256 PUSH1 0x2 ADD PUSH1 0x0 SWAP1 SLOAD SWAP1 PUSH2 0x100 EXP SWAP1 DIV PUSH20 0xFFFFFFFFFFFFFFFFFFFFFFFFFFFFFFFFFFFFFFFF AND PUSH20 0xFFFFFFFFFFFFFFFFFFFFFFFFFFFFFFFFFFFFFFFF AND SUB PUSH2 0x614B JUMPI PUSH1 0x40 MLOAD PUSH32 0x8C379A000000000000000000000000000000000000000000000000000000000 DUP2 MSTORE PUSH1 0x4 ADD PUSH2 0x6142 SWAP1 PUSH2 0x92C4 JUMP JUMPDEST PUSH1 0x40 MLOAD DUP1 SWAP2 SUB SWAP1 REVERT JUMPDEST DUP1 PUSH1 0x3 PUSH1 0x0 DUP6 PUSH20 0xFFFFFFFFFFFFFFFFFFFFFFFFFFFFFFFFFFFFFFFF AND PUSH20 0xFFFFFFFFFFFFFFFFFFFFFFFFFFFFFFFFFFFFFFFF AND DUP2 MSTORE PUSH1 0x20 ADD SWAP1 DUP2 MSTORE PUSH1 0x20 ADD PUSH1 0x0 KECCAK256 PUSH1 0x0 ADD SWAP1 DUP2 PUSH2 0x619A SWAP2 SWAP1 PUSH2 0x895D JUMP JUMPDEST POP DUP2 PUSH1 0x3 PUSH1 0x0 DUP6 PUSH20 0xFFFFFFFFFFFFFFFFFFFFFFFFFFFFFFFFFFFFFFFF AND PUSH20 0xFFFFFFFFFFFFFFFFFFFFFFFFFFFFFFFFFFFFFFFF AND DUP2 MSTORE PUSH1 0x20 ADD SWAP1 DUP2 MSTORE PUSH1 0x20 ADD PUSH1 0x0 KECCAK256 PUSH1 0x1 ADD SWAP1 DUP2 PUSH2 0x61EA SWAP2 SWAP1 PUSH2 0x895D JUMP JUMPDEST POP PUSH32 0xB4CB25B08E4B645535D427082BC0CD9007BC58E01C068F627B44BD0EC489F39F DUP4 DUP3 DUP5 PUSH1 0x40 MLOAD PUSH2 0x621E SWAP4 SWAP3 SWAP2 SWAP1 PUSH2 0x94E0 JUMP JUMPDEST PUSH1 0x40 MLOAD DUP1 SWAP2 SUB SWAP1 LOG1 POP POP POP JUMP JUMPDEST PUSH1 0x0 PUSH2 0x6246 DUP3 PUSH1 0x40 MLOAD DUP1 PUSH1 0x20 ADD PUSH1 0x40 MSTORE DUP1 PUSH1 0x0 DUP2 MSTORE POP PUSH2 0x5C84 JUMP JUMPDEST ISZERO PUSH2 0x6286 JUMPI PUSH1 0x40 MLOAD PUSH32 0x8C379A000000000000000000000000000000000000000000000000000000000 DUP2 MSTORE PUSH1 0x4 ADD PUSH2 0x627D SWAP1 PUSH2 0x9571 JUMP JUMPDEST PUSH1 0x40 MLOAD DUP1 SWAP2 SUB SWAP1 REVERT JUMPDEST PUSH2 0x6339 PUSH1 0x7 DUP4 PUSH1 0x40 MLOAD PUSH2 0x6299 SWAP2 SWAP1 PUSH2 0x8C87 JUMP JUMPDEST SWAP1 DUP2 MSTORE PUSH1 0x20 ADD PUSH1 0x40 MLOAD DUP1 SWAP2 SUB SWAP1 KECCAK256 PUSH1 0x0 ADD DUP1 SLOAD PUSH2 0x62B5 SWAP1 PUSH2 0x8780 JUMP JUMPDEST DUP1 PUSH1 0x1F ADD PUSH1 0x20 DUP1 SWAP2 DIV MUL PUSH1 0x20 ADD PUSH1 0x40 MLOAD SWAP1 DUP2 ADD PUSH1 0x40 MSTORE DUP1 SWAP3 SWAP2 SWAP1 DUP2 DUP2 MSTORE PUSH1 0x20 ADD DUP3 DUP1 SLOAD PUSH2 0x62E1 SWAP1 PUSH2 0x8780 JUMP JUMPDEST DUP1 ISZERO PUSH2 0x632E JUMPI DUP1 PUSH1 0x1F LT PUSH2 0x6303 JUMPI PUSH2 0x100 DUP1 DUP4 SLOAD DIV MUL DUP4 MSTORE SWAP2 PUSH1 0x20 ADD SWAP2 PUSH2 0x632E JUMP JUMPDEST DUP3 ADD SWAP2 SWAP1 PUSH1 0x0 MSTORE PUSH1 0x20 PUSH1 0x0 KECCAK256 SWAP1 JUMPDEST DUP2 SLOAD DUP2 MSTORE SWAP1 PUSH1 0x1 ADD SWAP1 PUSH1 0x20 ADD DUP1 DUP4 GT PUSH2 0x6311 JUMPI DUP3 SWAP1 SUB PUSH1 0x1F AND DUP3 ADD SWAP2 JUMPDEST POP POP POP POP POP DUP4 PUSH2 0x5C84 JUMP JUMPDEST SWAP1 POP SWAP2 SWAP1 POP JUMP JUMPDEST PUSH1 0x0 DUP1 PUSH20 0xFFFFFFFFFFFFFFFFFFFFFFFFFFFFFFFFFFFFFFFF AND DUP3 PUSH20 0xFFFFFFFFFFFFFFFFFFFFFFFFFFFFFFFFFFFFFFFF AND SUB PUSH2 0x63B0 JUMPI PUSH1 0x40 MLOAD PUSH32 0x8C379A000000000000000000000000000000000000000000000000000000000 DUP2 MSTORE PUSH1 0x4 ADD PUSH2 0x63A7 SWAP1 PUSH2 0x95DD JUMP JUMPDEST PUSH1 0x40 MLOAD DUP1 SWAP2 SUB SWAP1 REVERT JUMPDEST PUSH1 0x0 PUSH20 0xFFFFFFFFFFFFFFFFFFFFFFFFFFFFFFFFFFFFFFFF AND PUSH1 0x1 PUSH1 0x0 DUP5 PUSH20 0xFFFFFFFFFFFFFFFFFFFFFFFFFFFFFFFFFFFFFFFF AND PUSH20 0xFFFFFFFFFFFFFFFFFFFFFFFFFFFFFFFFFFFFFFFF AND DUP2 MSTORE PUSH1 0x20 ADD SWAP1 DUP2 MSTORE PUSH1 0x20 ADD PUSH1 0x0 KECCAK256 PUSH1 0x2 ADD PUSH1 0x2 SWAP1 SLOAD SWAP1 PUSH2 0x100 EXP SWAP1 DIV PUSH20 0xFFFFFFFFFFFFFFFFFFFFFFFFFFFFFFFFFFFFFFFF AND PUSH20 0xFFFFFFFFFFFFFFFFFFFFFFFFFFFFFFFFFFFFFFFF AND EQ ISZERO DUP1 ISZERO PUSH2 0x652F JUMPI POP PUSH2 0x652D PUSH1 0x1 PUSH1 0x0 DUP5 PUSH20 0xFFFFFFFFFFFFFFFFFFFFFFFFFFFFFFFFFFFFFFFF AND PUSH20 0xFFFFFFFFFFFFFFFFFFFFFFFFFFFFFFFFFFFFFFFF AND DUP2 MSTORE PUSH1 0x20 ADD SWAP1 DUP2 MSTORE PUSH1 0x20 ADD PUSH1 0x0 KECCAK256 PUSH1 0x1 ADD DUP1 SLOAD PUSH2 0x649A SWAP1 PUSH2 0x8780 JUMP JUMPDEST DUP1 PUSH1 0x1F ADD PUSH1 0x20 DUP1 SWAP2 DIV MUL PUSH1 0x20 ADD PUSH1 0x40 MLOAD SWAP1 DUP2 ADD PUSH1 0x40 MSTORE DUP1 SWAP3 SWAP2 SWAP1 DUP2 DUP2 MSTORE PUSH1 0x20 ADD DUP3 DUP1 SLOAD PUSH2 0x64C6 SWAP1 PUSH2 0x8780 JUMP JUMPDEST DUP1 ISZERO PUSH2 0x6513 JUMPI DUP1 PUSH1 0x1F LT PUSH2 0x64E8 JUMPI PUSH2 0x100 DUP1 DUP4 SLOAD DIV MUL DUP4 MSTORE SWAP2 PUSH1 0x20 ADD SWAP2 PUSH2 0x6513 JUMP JUMPDEST DUP3 ADD SWAP2 SWAP1 PUSH1 0x0 MSTORE PUSH1 0x20 PUSH1 0x0 KECCAK256 SWAP1 JUMPDEST DUP2 SLOAD DUP2 MSTORE SWAP1 PUSH1 0x1 ADD SWAP1 PUSH1 0x20 ADD DUP1 DUP4 GT PUSH2 0x64F6 JUMPI DUP3 SWAP1 SUB PUSH1 0x1F AND DUP3 ADD SWAP2 JUMPDEST POP POP POP POP POP PUSH1 0x40 MLOAD DUP1 PUSH1 0x20 ADD PUSH1 0x40 MSTORE DUP1 PUSH1 0x0 DUP2 MSTORE POP PUSH2 0x5C84 JUMP JUMPDEST ISZERO JUMPDEST ISZERO PUSH2 0x6539 JUMPI PUSH1 0x1 SWAP1 POP JUMPDEST SWAP2 SWAP1 POP JUMP JUMPDEST PUSH2 0x6546 PUSH2 0x739E JUMP JUMPDEST PUSH1 0x0 PUSH20 0xFFFFFFFFFFFFFFFFFFFFFFFFFFFFFFFFFFFFFFFF AND DUP3 PUSH20 0xFFFFFFFFFFFFFFFFFFFFFFFFFFFFFFFFFFFFFFFF AND SUB PUSH2 0x65B5 JUMPI PUSH1 0x40 MLOAD PUSH32 0x8C379A000000000000000000000000000000000000000000000000000000000 DUP2 MSTORE PUSH1 0x4 ADD PUSH2 0x65AC SWAP1 PUSH2 0x8B53 JUMP JUMPDEST PUSH1 0x40 MLOAD DUP1 SWAP2 SUB SWAP1 REVERT JUMPDEST PUSH1 0x3 PUSH1 0x0 DUP4 PUSH20 0xFFFFFFFFFFFFFFFFFFFFFFFFFFFFFFFFFFFFFFFF AND PUSH20 0xFFFFFFFFFFFFFFFFFFFFFFFFFFFFFFFFFFFFFFFF AND DUP2 MSTORE PUSH1 0x20 ADD SWAP1 DUP2 MSTORE PUSH1 0x20 ADD PUSH1 0x0 KECCAK256 PUSH1 0x40 MLOAD DUP1 PUSH1 0xC0 ADD PUSH1 0x40 MSTORE SWAP1 DUP2 PUSH1 0x0 DUP3 ADD DUP1 SLOAD PUSH2 0x660F SWAP1 PUSH2 0x8780 JUMP JUMPDEST DUP1 PUSH1 0x1F ADD PUSH1 0x20 DUP1 SWAP2 DIV MUL PUSH1 0x20 ADD PUSH1 0x40 MLOAD SWAP1 DUP2 ADD PUSH1 0x40 MSTORE DUP1 SWAP3 SWAP2 SWAP1 DUP2 DUP2 MSTORE PUSH1 0x20 ADD DUP3 DUP1 SLOAD PUSH2 0x663B SWAP1 PUSH2 0x8780 JUMP JUMPDEST DUP1 ISZERO PUSH2 0x6688 JUMPI DUP1 PUSH1 0x1F LT PUSH2 0x665D JUMPI PUSH2 0x100 DUP1 DUP4 SLOAD DIV MUL DUP4 MSTORE SWAP2 PUSH1 0x20 ADD SWAP2 PUSH2 0x6688 JUMP JUMPDEST DUP3 ADD SWAP2 SWAP1 PUSH1 0x0 MSTORE PUSH1 0x20 PUSH1 0x0 KECCAK256 SWAP1 JUMPDEST DUP2 SLOAD DUP2 MSTORE SWAP1 PUSH1 0x1 ADD SWAP1 PUSH1 0x20 ADD DUP1 DUP4 GT PUSH2 0x666B JUMPI DUP3 SWAP1 SUB PUSH1 0x1F AND DUP3 ADD SWAP2 JUMPDEST POP POP POP POP POP DUP2 MSTORE PUSH1 0x20 ADD PUSH1 0x1 DUP3 ADD DUP1 SLOAD PUSH2 0x66A1 SWAP1 PUSH2 0x8780 JUMP JUMPDEST DUP1 PUSH1 0x1F ADD PUSH1 0x20 DUP1 SWAP2 DIV MUL PUSH1 0x20 ADD PUSH1 0x40 MLOAD SWAP1 DUP2 ADD PUSH1 0x40 MSTORE DUP1 SWAP3 SWAP2 SWAP1 DUP2 DUP2 MSTORE PUSH1 0x20 ADD DUP3 DUP1 SLOAD PUSH2 0x66CD SWAP1 PUSH2 0x8780 JUMP JUMPDEST DUP1 ISZERO PUSH2 0x671A JUMPI DUP1 PUSH1 0x1F LT PUSH2 0x66EF JUMPI PUSH2 0x100 DUP1 DUP4 SLOAD DIV MUL DUP4 MSTORE SWAP2 PUSH1 0x20 ADD SWAP2 PUSH2 0x671A JUMP JUMPDEST DUP3 ADD SWAP2 SWAP1 PUSH1 0x0 MSTORE PUSH1 0x20 PUSH1 0x0 KECCAK256 SWAP1 JUMPDEST DUP2 SLOAD DUP2 MSTORE SWAP1 PUSH1 0x1 ADD SWAP1 PUSH1 0x20 ADD DUP1 DUP4 GT PUSH2 0x66FD JUMPI DUP3 SWAP1 SUB PUSH1 0x1F AND DUP3 ADD SWAP2 JUMPDEST POP POP POP POP POP DUP2 MSTORE PUSH1 0x20 ADD PUSH1 0x2 DUP3 ADD PUSH1 0x0 SWAP1 SLOAD SWAP1 PUSH2 0x100 EXP SWAP1 DIV PUSH20 0xFFFFFFFFFFFFFFFFFFFFFFFFFFFFFFFFFFFFFFFF AND PUSH20 0xFFFFFFFFFFFFFFFFFFFFFFFFFFFFFFFFFFFFFFFF AND PUSH20 0xFFFFFFFFFFFFFFFFFFFFFFFFFFFFFFFFFFFFFFFF AND DUP2 MSTORE PUSH1 0x20 ADD PUSH1 0x3 DUP3 ADD DUP1 SLOAD PUSH2 0x6789 SWAP1 PUSH2 0x8780 JUMP JUMPDEST DUP1 PUSH1 0x1F ADD PUSH1 0x20 DUP1 SWAP2 DIV MUL PUSH1 0x20 ADD PUSH1 0x40 MLOAD SWAP1 DUP2 ADD PUSH1 0x40 MSTORE DUP1 SWAP3 SWAP2 SWAP1 DUP2 DUP2 MSTORE PUSH1 0x20 ADD DUP3 DUP1 SLOAD PUSH2 0x67B5 SWAP1 PUSH2 0x8780 JUMP JUMPDEST DUP1 ISZERO PUSH2 0x6802 JUMPI DUP1 PUSH1 0x1F LT PUSH2 0x67D7 JUMPI PUSH2 0x100 DUP1 DUP4 SLOAD DIV MUL DUP4 MSTORE SWAP2 PUSH1 0x20 ADD SWAP2 PUSH2 0x6802 JUMP JUMPDEST DUP3 ADD SWAP2 SWAP1 PUSH1 0x0 MSTORE PUSH1 0x20 PUSH1 0x0 KECCAK256 SWAP1 JUMPDEST DUP2 SLOAD DUP2 MSTORE SWAP1 PUSH1 0x1 ADD SWAP1 PUSH1 0x20 ADD DUP1 DUP4 GT PUSH2 0x67E5 JUMPI DUP3 SWAP1 SUB PUSH1 0x1F AND DUP3 ADD SWAP2 JUMPDEST POP POP POP POP POP DUP2 MSTORE PUSH1 0x20 ADD PUSH1 0x4 DUP3 ADD PUSH1 0x0 SWAP1 SLOAD SWAP1 PUSH2 0x100 EXP SWAP1 DIV PUSH2 0xFFFF AND PUSH2 0xFFFF AND PUSH2 0xFFFF AND DUP2 MSTORE PUSH1 0x20 ADD PUSH1 0x4 DUP3 ADD PUSH1 0x2 SWAP1 SLOAD SWAP1 PUSH2 0x100 EXP SWAP1 DIV PUSH1 0xFF AND PUSH1 0x1 DUP2 GT ISZERO PUSH2 0x6850 JUMPI PUSH2 0x684F PUSH2 0x7636 JUMP JUMPDEST JUMPDEST PUSH1 0x1 DUP2 GT ISZERO PUSH2 0x6862 JUMPI PUSH2 0x6861 PUSH2 0x7636 JUMP JUMPDEST JUMPDEST DUP2 MSTORE POP POP SWAP1 POP SWAP2 SWAP1 POP JUMP JUMPDEST PUSH2 0x6875 PUSH2 0x728E JUMP JUMPDEST PUSH1 0x1 PUSH1 0x0 DUP4 PUSH20 0xFFFFFFFFFFFFFFFFFFFFFFFFFFFFFFFFFFFFFFFF AND PUSH20 0xFFFFFFFFFFFFFFFFFFFFFFFFFFFFFFFFFFFFFFFF AND DUP2 MSTORE PUSH1 0x20 ADD SWAP1 DUP2 MSTORE PUSH1 0x20 ADD PUSH1 0x0 KECCAK256 PUSH1 0x40 MLOAD DUP1 PUSH1 0xE0 ADD PUSH1 0x40 MSTORE SWAP1 DUP2 PUSH1 0x0 DUP3 ADD DUP1 SLOAD PUSH2 0x68CF SWAP1 PUSH2 0x8780 JUMP JUMPDEST DUP1 PUSH1 0x1F ADD PUSH1 0x20 DUP1 SWAP2 DIV MUL PUSH1 0x20 ADD PUSH1 0x40 MLOAD SWAP1 DUP2 ADD PUSH1 0x40 MSTORE DUP1 SWAP3 SWAP2 SWAP1 DUP2 DUP2 MSTORE PUSH1 0x20 ADD DUP3 DUP1 SLOAD PUSH2 0x68FB SWAP1 PUSH2 0x8780 JUMP JUMPDEST DUP1 ISZERO PUSH2 0x6948 JUMPI DUP1 PUSH1 0x1F LT PUSH2 0x691D JUMPI PUSH2 0x100 DUP1 DUP4 SLOAD DIV MUL DUP4 MSTORE SWAP2 PUSH1 0x20 ADD SWAP2 PUSH2 0x6948 JUMP JUMPDEST DUP3 ADD SWAP2 SWAP1 PUSH1 0x0 MSTORE PUSH1 0x20 PUSH1 0x0 KECCAK256 SWAP1 JUMPDEST DUP2 SLOAD DUP2 MSTORE SWAP1 PUSH1 0x1 ADD SWAP1 PUSH1 0x20 ADD DUP1 DUP4 GT PUSH2 0x692B JUMPI DUP3 SWAP1 SUB PUSH1 0x1F AND DUP3 ADD SWAP2 JUMPDEST POP POP POP POP POP DUP2 MSTORE PUSH1 0x20 ADD PUSH1 0x1 DUP3 ADD DUP1 SLOAD PUSH2 0x6961 SWAP1 PUSH2 0x8780 JUMP JUMPDEST DUP1 PUSH1 0x1F ADD PUSH1 0x20 DUP1 SWAP2 DIV MUL PUSH1 0x20 ADD PUSH1 0x40 MLOAD SWAP1 DUP2 ADD PUSH1 0x40 MSTORE DUP1 SWAP3 SWAP2 SWAP1 DUP2 DUP2 MSTORE PUSH1 0x20 ADD DUP3 DUP1 SLOAD PUSH2 0x698D SWAP1 PUSH2 0x8780 JUMP JUMPDEST DUP1 ISZERO PUSH2 0x69DA JUMPI DUP1 PUSH1 0x1F LT PUSH2 0x69AF JUMPI PUSH2 0x100 DUP1 DUP4 SLOAD DIV MUL DUP4 MSTORE SWAP2 PUSH1 0x20 ADD SWAP2 PUSH2 0x69DA JUMP JUMPDEST DUP3 ADD SWAP2 SWAP1 PUSH1 0x0 MSTORE PUSH1 0x20 PUSH1 0x0 KECCAK256 SWAP1 JUMPDEST DUP2 SLOAD DUP2 MSTORE SWAP1 PUSH1 0x1 ADD SWAP1 PUSH1 0x20 ADD DUP1 DUP4 GT PUSH2 0x69BD JUMPI DUP3 SWAP1 SUB PUSH1 0x1F AND DUP3 ADD SWAP2 JUMPDEST POP POP POP POP POP DUP2 MSTORE PUSH1 0x20 ADD PUSH1 0x2 DUP3 ADD PUSH1 0x0 SWAP1 SLOAD SWAP1 PUSH2 0x100 EXP SWAP1 DIV PUSH2 0xFFFF AND PUSH2 0xFFFF AND PUSH2 0xFFFF AND DUP2 MSTORE PUSH1 0x20 ADD PUSH1 0x2 DUP3 ADD PUSH1 0x2 SWAP1 SLOAD SWAP1 PUSH2 0x100 EXP SWAP1 DIV PUSH20 0xFFFFFFFFFFFFFFFFFFFFFFFFFFFFFFFFFFFFFFFF AND PUSH20 0xFFFFFFFFFFFFFFFFFFFFFFFFFFFFFFFFFFFFFFFF AND PUSH20 0xFFFFFFFFFFFFFFFFFFFFFFFFFFFFFFFFFFFFFFFF AND DUP2 MSTORE PUSH1 0x20 ADD PUSH1 0x3 DUP3 ADD PUSH1 0x0 SWAP1 SLOAD SWAP1 PUSH2 0x100 EXP SWAP1 DIV PUSH20 0xFFFFFFFFFFFFFFFFFFFFFFFFFFFFFFFFFFFFFFFF AND PUSH20 0xFFFFFFFFFFFFFFFFFFFFFFFFFFFFFFFFFFFFFFFF AND PUSH20 0xFFFFFFFFFFFFFFFFFFFFFFFFFFFFFFFFFFFFFFFF AND DUP2 MSTORE PUSH1 0x20 ADD PUSH1 0x4 DUP3 ADD DUP1 SLOAD PUSH2 0x6ABF SWAP1 PUSH2 0x8780 JUMP JUMPDEST DUP1 PUSH1 0x1F ADD PUSH1 0x20 DUP1 SWAP2 DIV MUL PUSH1 0x20 ADD PUSH1 0x40 MLOAD SWAP1 DUP2 ADD PUSH1 0x40 MSTORE DUP1 SWAP3 SWAP2 SWAP1 DUP2 DUP2 MSTORE PUSH1 0x20 ADD DUP3 DUP1 SLOAD PUSH2 0x6AEB SWAP1 PUSH2 0x8780 JUMP JUMPDEST DUP1 ISZERO PUSH2 0x6B38 JUMPI DUP1 PUSH1 0x1F LT PUSH2 0x6B0D JUMPI PUSH2 0x100 DUP1 DUP4 SLOAD DIV MUL DUP4 MSTORE SWAP2 PUSH1 0x20 ADD SWAP2 PUSH2 0x6B38 JUMP JUMPDEST DUP3 ADD SWAP2 SWAP1 PUSH1 0x0 MSTORE PUSH1 0x20 PUSH1 0x0 KECCAK256 SWAP1 JUMPDEST DUP2 SLOAD DUP2 MSTORE SWAP1 PUSH1 0x1 ADD SWAP1 PUSH1 0x20 ADD DUP1 DUP4 GT PUSH2 0x6B1B JUMPI DUP3 SWAP1 SUB PUSH1 0x1F AND DUP3 ADD SWAP2 JUMPDEST POP POP POP POP POP DUP2 MSTORE PUSH1 0x20 ADD PUSH1 0x5 DUP3 ADD SLOAD DUP2 MSTORE POP POP SWAP1 POP SWAP2 SWAP1 POP JUMP JUMPDEST DUP2 PUSH1 0x1 PUSH1 0x0 CALLER PUSH20 0xFFFFFFFFFFFFFFFFFFFFFFFFFFFFFFFFFFFFFFFF AND PUSH20 0xFFFFFFFFFFFFFFFFFFFFFFFFFFFFFFFFFFFFFFFF AND DUP2 MSTORE PUSH1 0x20 ADD SWAP1 DUP2 MSTORE PUSH1 0x20 ADD PUSH1 0x0 KECCAK256 PUSH1 0x4 ADD SWAP1 DUP2 PUSH2 0x6BA1 SWAP2 SWAP1 PUSH2 0x895D JUMP JUMPDEST POP DUP1 PUSH1 0x1 PUSH1 0x0 CALLER PUSH20 0xFFFFFFFFFFFFFFFFFFFFFFFFFFFFFFFFFFFFFFFF AND PUSH20 0xFFFFFFFFFFFFFFFFFFFFFFFFFFFFFFFFFFFFFFFF AND DUP2 MSTORE PUSH1 0x20 ADD SWAP1 DUP2 MSTORE PUSH1 0x20 ADD PUSH1 0x0 KECCAK256 PUSH1 0x5 ADD DUP2 SWAP1 SSTORE POP PUSH32 0xD19D4AD3AE69CE55A7B2ABEDBF945C905FB06FD10E10FD91CF7E206A45E73673 CALLER PUSH1 0x1 PUSH1 0x0 CALLER PUSH20 0xFFFFFFFFFFFFFFFFFFFFFFFFFFFFFFFFFFFFFFFF AND PUSH20 0xFFFFFFFFFFFFFFFFFFFFFFFFFFFFFFFFFFFFFFFF AND DUP2 MSTORE PUSH1 0x20 ADD SWAP1 DUP2 MSTORE PUSH1 0x20 ADD PUSH1 0x0 KECCAK256 PUSH1 0x0 ADD DUP5 PUSH1 0x40 MLOAD PUSH2 0x6C5D SWAP4 SWAP3 SWAP2 SWAP1 PUSH2 0x95FD JUMP JUMPDEST PUSH1 0x40 MLOAD DUP1 SWAP2 SUB SWAP1 LOG1 POP POP JUMP JUMPDEST DUP1 PUSH1 0x1 PUSH1 0x0 DUP4 PUSH1 0x60 ADD MLOAD PUSH20 0xFFFFFFFFFFFFFFFFFFFFFFFFFFFFFFFFFFFFFFFF AND PUSH20 0xFFFFFFFFFFFFFFFFFFFFFFFFFFFFFFFFFFFFFFFF AND DUP2 MSTORE PUSH1 0x20 ADD SWAP1 DUP2 MSTORE PUSH1 0x20 ADD PUSH1 0x0 KECCAK256 PUSH1 0x0 DUP3 ADD MLOAD DUP2 PUSH1 0x0 ADD SWAP1 DUP2 PUSH2 0x6CC2 SWAP2 SWAP1 PUSH2 0x895D JUMP JUMPDEST POP PUSH1 0x20 DUP3 ADD MLOAD DUP2 PUSH1 0x1 ADD SWAP1 DUP2 PUSH2 0x6CD8 SWAP2 SWAP1 PUSH2 0x895D JUMP JUMPDEST POP PUSH1 0x40 DUP3 ADD MLOAD DUP2 PUSH1 0x2 ADD PUSH1 0x0 PUSH2 0x100 EXP DUP2 SLOAD DUP2 PUSH2 0xFFFF MUL NOT AND SWAP1 DUP4 PUSH2 0xFFFF AND MUL OR SWAP1 SSTORE POP PUSH1 0x60 DUP3 ADD MLOAD DUP2 PUSH1 0x2 ADD PUSH1 0x2 PUSH2 0x100 EXP DUP2 SLOAD DUP2 PUSH20 0xFFFFFFFFFFFFFFFFFFFFFFFFFFFFFFFFFFFFFFFF MUL NOT AND SWAP1 DUP4 PUSH20 0xFFFFFFFFFFFFFFFFFFFFFFFFFFFFFFFFFFFFFFFF AND MUL OR SWAP1 SSTORE POP PUSH1 0x80 DUP3 ADD MLOAD DUP2 PUSH1 0x3 ADD PUSH1 0x0 PUSH2 0x100 EXP DUP2 SLOAD DUP2 PUSH20 0xFFFFFFFFFFFFFFFFFFFFFFFFFFFFFFFFFFFFFFFF MUL NOT AND SWAP1 DUP4 PUSH20 0xFFFFFFFFFFFFFFFFFFFFFFFFFFFFFFFFFFFFFFFF AND MUL OR SWAP1 SSTORE POP PUSH1 0xA0 DUP3 ADD MLOAD DUP2 PUSH1 0x4 ADD SWAP1 DUP2 PUSH2 0x6D9F SWAP2 SWAP1 PUSH2 0x895D JUMP JUMPDEST POP PUSH1 0xC0 DUP3 ADD MLOAD DUP2 PUSH1 0x5 ADD SSTORE SWAP1 POP POP PUSH1 0x0 DUP2 PUSH1 0x60 ADD MLOAD SWAP1 DUP1 PUSH1 0x1 DUP2 SLOAD ADD DUP1 DUP3 SSTORE DUP1 SWAP2 POP POP PUSH1 0x1 SWAP1 SUB SWAP1 PUSH1 0x0 MSTORE PUSH1 0x20 PUSH1 0x0 KECCAK256 ADD PUSH1 0x0 SWAP1 SWAP2 SWAP1 SWAP2 SWAP1 SWAP2 PUSH2 0x100 EXP DUP2 SLOAD DUP2 PUSH20 0xFFFFFFFFFFFFFFFFFFFFFFFFFFFFFFFFFFFFFFFF MUL NOT AND SWAP1 DUP4 PUSH20 0xFFFFFFFFFFFFFFFFFFFFFFFFFFFFFFFFFFFFFFFF AND MUL OR SWAP1 SSTORE POP PUSH32 0xFC753EFF51EF9BC95CC7789CEFEF07D6F2B86DE04834071141298E2CC3E5360F DUP2 PUSH1 0x60 ADD MLOAD DUP3 PUSH1 0x0 ADD MLOAD DUP4 PUSH1 0x20 ADD MLOAD PUSH1 0x40 MLOAD PUSH2 0x6E53 SWAP4 SWAP3 SWAP2 SWAP1 PUSH2 0x94E0 JUMP JUMPDEST PUSH1 0x40 MLOAD DUP1 SWAP2 SUB SWAP1 LOG1 POP JUMP JUMPDEST DUP3 PUSH1 0x1 PUSH1 0x0 CALLER PUSH20 0xFFFFFFFFFFFFFFFFFFFFFFFFFFFFFFFFFFFFFFFF AND PUSH20 0xFFFFFFFFFFFFFFFFFFFFFFFFFFFFFFFFFFFFFFFF AND DUP2 MSTORE PUSH1 0x20 ADD SWAP1 DUP2 MSTORE PUSH1 0x20 ADD PUSH1 0x0 KECCAK256 PUSH1 0x0 ADD SWAP1 DUP2 PUSH2 0x6EAD SWAP2 SWAP1 PUSH2 0x895D JUMP JUMPDEST POP DUP2 PUSH1 0x1 PUSH1 0x0 CALLER PUSH20 0xFFFFFFFFFFFFFFFFFFFFFFFFFFFFFFFFFFFFFFFF AND PUSH20 0xFFFFFFFFFFFFFFFFFFFFFFFFFFFFFFFFFFFFFFFF AND DUP2 MSTORE PUSH1 0x20 ADD SWAP1 DUP2 MSTORE PUSH1 0x20 ADD PUSH1 0x0 KECCAK256 PUSH1 0x1 ADD SWAP1 DUP2 PUSH2 0x6EFD SWAP2 SWAP1 PUSH2 0x895D JUMP JUMPDEST POP DUP1 PUSH1 0x1 PUSH1 0x0 CALLER PUSH20 0xFFFFFFFFFFFFFFFFFFFFFFFFFFFFFFFFFFFFFFFF AND PUSH20 0xFFFFFFFFFFFFFFFFFFFFFFFFFFFFFFFFFFFFFFFF AND DUP2 MSTORE PUSH1 0x20 ADD SWAP1 DUP2 MSTORE PUSH1 0x20 ADD PUSH1 0x0 KECCAK256 PUSH1 0x2 ADD PUSH1 0x0 PUSH2 0x100 EXP DUP2 SLOAD DUP2 PUSH2 0xFFFF MUL NOT AND SWAP1 DUP4 PUSH2 0xFFFF AND MUL OR SWAP1 SSTORE POP PUSH32 0x6187A440BF69704D8832C067E5749FD4293C4398454C804CB395C24189A7DD82 CALLER DUP5 DUP5 PUSH1 0x40 MLOAD PUSH2 0x6F8E SWAP4 SWAP3 SWAP2 SWAP1 PUSH2 0x94E0 JUMP JUMPDEST PUSH1 0x40 MLOAD DUP1 SWAP2 SUB SWAP1 LOG1 POP POP POP JUMP JUMPDEST PUSH1 0x0 PUSH20 0xFFFFFFFFFFFFFFFFFFFFFFFFFFFFFFFFFFFFFFFF AND DUP2 PUSH20 0xFFFFFFFFFFFFFFFFFFFFFFFFFFFFFFFFFFFFFFFF AND SUB PUSH2 0x700A JUMPI PUSH1 0x40 MLOAD PUSH32 0x8C379A000000000000000000000000000000000000000000000000000000000 DUP2 MSTORE PUSH1 0x4 ADD PUSH2 0x7001 SWAP1 PUSH2 0x96B4 JUMP JUMPDEST PUSH1 0x40 MLOAD DUP1 SWAP2 SUB SWAP1 REVERT JUMPDEST PUSH1 0x3 PUSH1 0x0 DUP3 PUSH20 0xFFFFFFFFFFFFFFFFFFFFFFFFFFFFFFFFFFFFFFFF AND PUSH20 0xFFFFFFFFFFFFFFFFFFFFFFFFFFFFFFFFFFFFFFFF AND DUP2 MSTORE PUSH1 0x20 ADD SWAP1 DUP2 MSTORE PUSH1 0x20 ADD PUSH1 0x0 KECCAK256 PUSH1 0x4 ADD PUSH1 0x0 DUP2 DUP2 SWAP1 SLOAD SWAP1 PUSH2 0x100 EXP SWAP1 DIV PUSH2 0xFFFF AND DUP1 SWAP3 SWAP2 SWAP1 PUSH2 0x706A SWAP1 PUSH2 0x96D4 JUMP JUMPDEST SWAP2 SWAP1 PUSH2 0x100 EXP DUP2 SLOAD DUP2 PUSH2 0xFFFF MUL NOT AND SWAP1 DUP4 PUSH2 0xFFFF AND MUL OR SWAP1 SSTORE POP POP POP JUMP JUMPDEST PUSH1 0x0 PUSH20 0xFFFFFFFFFFFFFFFFFFFFFFFFFFFFFFFFFFFFFFFF AND DUP2 PUSH20 0xFFFFFFFFFFFFFFFFFFFFFFFFFFFFFFFFFFFFFFFF AND SUB PUSH2 0x70F7 JUMPI PUSH1 0x40 MLOAD PUSH32 0x8C379A000000000000000000000000000000000000000000000000000000000 DUP2 MSTORE PUSH1 0x4 ADD PUSH2 0x70EE SWAP1 PUSH2 0x974A JUMP JUMPDEST PUSH1 0x40 MLOAD DUP1 SWAP2 SUB SWAP1 REVERT JUMPDEST CALLER PUSH1 0x1 PUSH1 0x0 DUP4 PUSH20 0xFFFFFFFFFFFFFFFFFFFFFFFFFFFFFFFFFFFFFFFF AND PUSH20 0xFFFFFFFFFFFFFFFFFFFFFFFFFFFFFFFFFFFFFFFF AND DUP2 MSTORE PUSH1 0x20 ADD SWAP1 DUP2 MSTORE PUSH1 0x20 ADD PUSH1 0x0 KECCAK256 PUSH1 0x3 ADD PUSH1 0x0 PUSH2 0x100 EXP DUP2 SLOAD DUP2 PUSH20 0xFFFFFFFFFFFFFFFFFFFFFFFFFFFFFFFFFFFFFFFF MUL NOT AND SWAP1 DUP4 PUSH20 0xFFFFFFFFFFFFFFFFFFFFFFFFFFFFFFFFFFFFFFFF AND MUL OR SWAP1 SSTORE POP POP JUMP JUMPDEST PUSH1 0x0 DUP1 PUSH1 0x0 DUP1 PUSH1 0x0 PUSH1 0x14 DUP7 MLOAD PUSH2 0x7191 SWAP2 SWAP1 PUSH2 0x9799 JUMP JUMPDEST SWAP1 POP PUSH1 0x14 DUP7 MLOAD PUSH2 0x71A1 SWAP2 SWAP1 PUSH2 0x97CA JUMP JUMPDEST SWAP5 POP PUSH1 0x0 DUP2 GT ISZERO PUSH2 0x71BB JUMPI DUP5 DUP1 PUSH2 0x71B7 SWAP1 PUSH2 0x8EDD JUMP JUMPDEST SWAP6 POP POP JUMPDEST PUSH1 0x14 SWAP4 POP PUSH1 0x1 DUP8 PUSH2 0x71CC SWAP2 SWAP1 PUSH2 0x97FB JUMP JUMPDEST PUSH1 0x14 PUSH2 0x71D8 SWAP2 SWAP1 PUSH2 0x982F JUMP JUMPDEST SWAP3 POP DUP7 PUSH1 0x14 PUSH2 0x71E7 SWAP2 SWAP1 PUSH2 0x982F JUMP JUMPDEST SWAP2 POP DUP5 DUP8 GT ISZERO PUSH2 0x71FE JUMPI PUSH1 0x0 SWAP4 POP PUSH1 0x0 SWAP2 POP PUSH2 0x721B JUMP JUMPDEST DUP5 DUP8 EQ DUP1 ISZERO PUSH2 0x720D JUMPI POP PUSH1 0x0 DUP2 GT JUMPDEST ISZERO PUSH2 0x721A JUMPI DUP1 SWAP4 POP DUP6 MLOAD SWAP2 POP JUMPDEST JUMPDEST POP SWAP3 SWAP6 SWAP2 SWAP5 POP SWAP3 POP JUMP JUMPDEST PUSH1 0x40 MLOAD DUP1 PUSH1 0xA0 ADD PUSH1 0x40 MSTORE DUP1 PUSH1 0x60 DUP2 MSTORE PUSH1 0x20 ADD PUSH1 0x60 DUP2 MSTORE PUSH1 0x20 ADD PUSH1 0x0 PUSH20 0xFFFFFFFFFFFFFFFFFFFFFFFFFFFFFFFFFFFFFFFF AND DUP2 MSTORE PUSH1 0x20 ADD PUSH1 0x0 PUSH1 0x2 DUP2 GT ISZERO PUSH2 0x726F JUMPI PUSH2 0x726E PUSH2 0x7636 JUMP JUMPDEST JUMPDEST DUP2 MSTORE PUSH1 0x20 ADD PUSH1 0x0 PUSH1 0x1 DUP2 GT ISZERO PUSH2 0x7288 JUMPI PUSH2 0x7287 PUSH2 0x7636 JUMP JUMPDEST JUMPDEST DUP2 MSTORE POP SWAP1 JUMP JUMPDEST PUSH1 0x40 MLOAD DUP1 PUSH1 0xE0 ADD PUSH1 0x40 MSTORE DUP1 PUSH1 0x60 DUP2 MSTORE PUSH1 0x20 ADD PUSH1 0x60 DUP2 MSTORE PUSH1 0x20 ADD PUSH1 0x0 PUSH2 0xFFFF AND DUP2 MSTORE PUSH1 0x20 ADD PUSH1 0x0 PUSH20 0xFFFFFFFFFFFFFFFFFFFFFFFFFFFFFFFFFFFFFFFF AND DUP2 MSTORE PUSH1 0x20 ADD PUSH1 0x0 PUSH20 0xFFFFFFFFFFFFFFFFFFFFFFFFFFFFFFFFFFFFFFFF AND DUP2 MSTORE PUSH1 0x20 ADD PUSH1 0x60 DUP2 MSTORE PUSH1 0x20 ADD PUSH1 0x0 DUP2 MSTORE POP SWAP1 JUMP JUMPDEST PUSH1 0x40 MLOAD DUP1 PUSH2 0x140 ADD PUSH1 0x40 MSTORE DUP1 PUSH1 0x60 DUP2 MSTORE PUSH1 0x20 ADD PUSH1 0x0 PUSH20 0xFFFFFFFFFFFFFFFFFFFFFFFFFFFFFFFFFFFFFFFF AND DUP2 MSTORE PUSH1 0x20 ADD PUSH1 0x60 DUP2 MSTORE PUSH1 0x20 ADD PUSH1 0x0 PUSH20 0xFFFFFFFFFFFFFFFFFFFFFFFFFFFFFFFFFFFFFFFF AND DUP2 MSTORE PUSH1 0x20 ADD PUSH1 0x60 DUP2 MSTORE PUSH1 0x20 ADD PUSH1 0x60 DUP2 MSTORE PUSH1 0x20 ADD PUSH1 0x0 DUP2 MSTORE PUSH1 0x20 ADD PUSH1 0x0 PUSH1 0x2 DUP2 GT ISZERO PUSH2 0x7378 JUMPI PUSH2 0x7377 PUSH2 0x7636 JUMP JUMPDEST JUMPDEST DUP2 MSTORE PUSH1 0x20 ADD PUSH1 0x0 PUSH1 0x2 DUP2 GT ISZERO PUSH2 0x7391 JUMPI PUSH2 0x7390 PUSH2 0x7636 JUMP JUMPDEST JUMPDEST DUP2 MSTORE PUSH1 0x20 ADD PUSH1 0x60 DUP2 MSTORE POP SWAP1 JUMP JUMPDEST PUSH1 0x40 MLOAD DUP1 PUSH1 0xC0 ADD PUSH1 0x40 MSTORE DUP1 PUSH1 0x60 DUP2 MSTORE PUSH1 0x20 ADD PUSH1 0x60 DUP2 MSTORE PUSH1 0x20 ADD PUSH1 0x0 PUSH20 0xFFFFFFFFFFFFFFFFFFFFFFFFFFFFFFFFFFFFFFFF AND DUP2 MSTORE PUSH1 0x20 ADD PUSH1 0x60 DUP2 MSTORE PUSH1 0x20 ADD PUSH1 0x0 PUSH2 0xFFFF AND DUP2 MSTORE PUSH1 0x20 ADD PUSH1 0x0 PUSH1 0x1 DUP2 GT ISZERO PUSH2 0x73FA JUMPI PUSH2 0x73F9 PUSH2 0x7636 JUMP JUMPDEST JUMPDEST DUP2 MSTORE POP SWAP1 JUMP JUMPDEST PUSH1 0x0 PUSH1 0x40 MLOAD SWAP1 POP SWAP1 JUMP JUMPDEST PUSH1 0x0 DUP1 REVERT JUMPDEST PUSH1 0x0 DUP1 REVERT JUMPDEST PUSH1 0x0 PUSH20 0xFFFFFFFFFFFFFFFFFFFFFFFFFFFFFFFFFFFFFFFF DUP3 AND SWAP1 POP SWAP2 SWAP1 POP JUMP JUMPDEST PUSH1 0x0 PUSH2 0x743F DUP3 PUSH2 0x7414 JUMP JUMPDEST SWAP1 POP SWAP2 SWAP1 POP JUMP JUMPDEST PUSH2 0x744F DUP2 PUSH2 0x7434 JUMP JUMPDEST DUP2 EQ PUSH2 0x745A JUMPI PUSH1 0x0 DUP1 REVERT JUMPDEST POP JUMP JUMPDEST PUSH1 0x0 DUP2 CALLDATALOAD SWAP1 POP PUSH2 0x746C DUP2 PUSH2 0x7446 JUMP JUMPDEST SWAP3 SWAP2 POP POP JUMP JUMPDEST PUSH1 0x0 DUP2 ISZERO ISZERO SWAP1 POP SWAP2 SWAP1 POP JUMP JUMPDEST PUSH2 0x7487 DUP2 PUSH2 0x7472 JUMP JUMPDEST DUP2 EQ PUSH2 0x7492 JUMPI PUSH1 0x0 DUP1 REVERT JUMPDEST POP JUMP JUMPDEST PUSH1 0x0 DUP2 CALLDATALOAD SWAP1 POP PUSH2 0x74A4 DUP2 PUSH2 0x747E JUMP JUMPDEST SWAP3 SWAP2 POP POP JUMP JUMPDEST PUSH1 0x0 DUP1 PUSH1 0x40 DUP4 DUP6 SUB SLT ISZERO PUSH2 0x74C1 JUMPI PUSH2 0x74C0 PUSH2 0x740A JUMP JUMPDEST JUMPDEST PUSH1 0x0 PUSH2 0x74CF DUP6 DUP3 DUP7 ADD PUSH2 0x745D JUMP JUMPDEST SWAP3 POP POP PUSH1 0x20 PUSH2 0x74E0 DUP6 DUP3 DUP7 ADD PUSH2 0x7495 JUMP JUMPDEST SWAP2 POP POP SWAP3 POP SWAP3 SWAP1 POP JUMP JUMPDEST PUSH1 0x0 DUP2 SWAP1 POP SWAP2 SWAP1 POP JUMP JUMPDEST PUSH2 0x74FD DUP2 PUSH2 0x74EA JUMP JUMPDEST DUP2 EQ PUSH2 0x7508 JUMPI PUSH1 0x0 DUP1 REVERT JUMPDEST POP JUMP JUMPDEST PUSH1 0x0 DUP2 CALLDATALOAD SWAP1 POP PUSH2 0x751A DUP2 PUSH2 0x74F4 JUMP JUMPDEST SWAP3 SWAP2 POP POP JUMP JUMPDEST PUSH1 0x0 PUSH1 0x20 DUP3 DUP5 SUB SLT ISZERO PUSH2 0x7536 JUMPI PUSH2 0x7535 PUSH2 0x740A JUMP JUMPDEST JUMPDEST PUSH1 0x0 PUSH2 0x7544 DUP5 DUP3 DUP6 ADD PUSH2 0x750B JUMP JUMPDEST SWAP2 POP POP SWAP3 SWAP2 POP POP JUMP JUMPDEST PUSH2 0x7556 DUP2 PUSH2 0x74EA JUMP JUMPDEST DUP3 MSTORE POP POP JUMP JUMPDEST PUSH1 0x0 DUP2 MLOAD SWAP1 POP SWAP2 SWAP1 POP JUMP JUMPDEST PUSH1 0x0 DUP3 DUP3 MSTORE PUSH1 0x20 DUP3 ADD SWAP1 POP SWAP3 SWAP2 POP POP JUMP JUMPDEST PUSH1 0x0 DUP2 SWAP1 POP PUSH1 0x20 DUP3 ADD SWAP1 POP SWAP2 SWAP1 POP JUMP JUMPDEST PUSH1 0x0 DUP2 MLOAD SWAP1 POP SWAP2 SWAP1 POP JUMP JUMPDEST PUSH1 0x0 DUP3 DUP3 MSTORE PUSH1 0x20 DUP3 ADD SWAP1 POP SWAP3 SWAP2 POP POP JUMP JUMPDEST PUSH1 0x0 JUMPDEST DUP4 DUP2 LT ISZERO PUSH2 0x75C2 JUMPI DUP1 DUP3 ADD MLOAD DUP2 DUP5 ADD MSTORE PUSH1 0x20 DUP2 ADD SWAP1 POP PUSH2 0x75A7 JUMP JUMPDEST PUSH1 0x0 DUP5 DUP5 ADD MSTORE POP POP POP POP JUMP JUMPDEST PUSH1 0x0 PUSH1 0x1F NOT PUSH1 0x1F DUP4 ADD AND SWAP1 POP SWAP2 SWAP1 POP JUMP JUMPDEST PUSH1 0x0 PUSH2 0x75EA DUP3 PUSH2 0x7588 JUMP JUMPDEST PUSH2 0x75F4 DUP2 DUP6 PUSH2 0x7593 JUMP JUMPDEST SWAP4 POP PUSH2 0x7604 DUP2 DUP6 PUSH1 0x20 DUP7 ADD PUSH2 0x75A4 JUMP JUMPDEST PUSH2 0x760D DUP2 PUSH2 0x75CE JUMP JUMPDEST DUP5 ADD SWAP2 POP POP SWAP3 SWAP2 POP POP JUMP JUMPDEST PUSH2 0x7621 DUP2 PUSH2 0x7434 JUMP JUMPDEST DUP3 MSTORE POP POP JUMP JUMPDEST PUSH2 0x7630 DUP2 PUSH2 0x74EA JUMP JUMPDEST DUP3 MSTORE POP POP JUMP JUMPDEST PUSH32 0x4E487B7100000000000000000000000000000000000000000000000000000000 PUSH1 0x0 MSTORE PUSH1 0x21 PUSH1 0x4 MSTORE PUSH1 0x24 PUSH1 0x0 REVERT JUMPDEST PUSH1 0x3 DUP2 LT PUSH2 0x7676 JUMPI PUSH2 0x7675 PUSH2 0x7636 JUMP JUMPDEST JUMPDEST POP JUMP JUMPDEST PUSH1 0x0 DUP2 SWAP1 POP PUSH2 0x7687 DUP3 PUSH2 0x7665 JUMP JUMPDEST SWAP2 SWAP1 POP JUMP JUMPDEST PUSH1 0x0 PUSH2 0x7697 DUP3 PUSH2 0x7679 JUMP JUMPDEST SWAP1 POP SWAP2 SWAP1 POP JUMP JUMPDEST PUSH2 0x76A7 DUP2 PUSH2 0x768C JUMP JUMPDEST DUP3 MSTORE POP POP JUMP JUMPDEST PUSH1 0x3 DUP2 LT PUSH2 0x76BE JUMPI PUSH2 0x76BD PUSH2 0x7636 JUMP JUMPDEST JUMPDEST POP JUMP JUMPDEST PUSH1 0x0 DUP2 SWAP1 POP PUSH2 0x76CF DUP3 PUSH2 0x76AD JUMP JUMPDEST SWAP2 SWAP1 POP JUMP JUMPDEST PUSH1 0x0 PUSH2 0x76DF DUP3 PUSH2 0x76C1 JUMP JUMPDEST SWAP1 POP SWAP2 SWAP1 POP JUMP JUMPDEST PUSH2 0x76EF DUP2 PUSH2 0x76D4 JUMP JUMPDEST DUP3 MSTORE POP POP JUMP JUMPDEST PUSH1 0x0 PUSH2 0x140 DUP4 ADD PUSH1 0x0 DUP4 ADD MLOAD DUP5 DUP3 SUB PUSH1 0x0 DUP7 ADD MSTORE PUSH2 0x7713 DUP3 DUP3 PUSH2 0x75DF JUMP JUMPDEST SWAP2 POP POP PUSH1 0x20 DUP4 ADD MLOAD PUSH2 0x7728 PUSH1 0x20 DUP7 ADD DUP3 PUSH2 0x7618 JUMP JUMPDEST POP PUSH1 0x40 DUP4 ADD MLOAD DUP5 DUP3 SUB PUSH1 0x40 DUP7 ADD MSTORE PUSH2 0x7740 DUP3 DUP3 PUSH2 0x75DF JUMP JUMPDEST SWAP2 POP POP PUSH1 0x60 DUP4 ADD MLOAD PUSH2 0x7755 PUSH1 0x60 DUP7 ADD DUP3 PUSH2 0x7618 JUMP JUMPDEST POP PUSH1 0x80 DUP4 ADD MLOAD DUP5 DUP3 SUB PUSH1 0x80 DUP7 ADD MSTORE PUSH2 0x776D DUP3 DUP3 PUSH2 0x75DF JUMP JUMPDEST SWAP2 POP POP PUSH1 0xA0 DUP4 ADD MLOAD DUP5 DUP3 SUB PUSH1 0xA0 DUP7 ADD MSTORE PUSH2 0x7787 DUP3 DUP3 PUSH2 0x75DF JUMP JUMPDEST SWAP2 POP POP PUSH1 0xC0 DUP4 ADD MLOAD PUSH2 0x779C PUSH1 0xC0 DUP7 ADD DUP3 PUSH2 0x7627 JUMP JUMPDEST POP PUSH1 0xE0 DUP4 ADD MLOAD PUSH2 0x77AF PUSH1 0xE0 DUP7 ADD DUP3 PUSH2 0x769E JUMP JUMPDEST POP PUSH2 0x100 DUP4 ADD MLOAD PUSH2 0x77C4 PUSH2 0x100 DUP7 ADD DUP3 PUSH2 0x76E6 JUMP JUMPDEST POP PUSH2 0x120 DUP4 ADD MLOAD DUP5 DUP3 SUB PUSH2 0x120 DUP7 ADD MSTORE PUSH2 0x77DE DUP3 DUP3 PUSH2 0x75DF JUMP JUMPDEST SWAP2 POP POP DUP1 SWAP2 POP POP SWAP3 SWAP2 POP POP JUMP JUMPDEST PUSH1 0x0 PUSH2 0x77F7 DUP4 DUP4 PUSH2 0x76F5 JUMP JUMPDEST SWAP1 POP SWAP3 SWAP2 POP POP JUMP JUMPDEST PUSH1 0x0 PUSH1 0x20 DUP3 ADD SWAP1 POP SWAP2 SWAP1 POP JUMP JUMPDEST PUSH1 0x0 PUSH2 0x7817 DUP3 PUSH2 0x755C JUMP JUMPDEST PUSH2 0x7821 DUP2 DUP6 PUSH2 0x7567 JUMP JUMPDEST SWAP4 POP DUP4 PUSH1 0x20 DUP3 MUL DUP6 ADD PUSH2 0x7833 DUP6 PUSH2 0x7578 JUMP JUMPDEST DUP1 PUSH1 0x0 JUMPDEST DUP6 DUP2 LT ISZERO PUSH2 0x786F JUMPI DUP5 DUP5 SUB DUP10 MSTORE DUP2 MLOAD PUSH2 0x7850 DUP6 DUP3 PUSH2 0x77EB JUMP JUMPDEST SWAP5 POP PUSH2 0x785B DUP4 PUSH2 0x77FF JUMP JUMPDEST SWAP3 POP PUSH1 0x20 DUP11 ADD SWAP10 POP POP PUSH1 0x1 DUP2 ADD SWAP1 POP PUSH2 0x7837 JUMP JUMPDEST POP DUP3 SWAP8 POP DUP8 SWAP6 POP POP POP POP POP POP SWAP3 SWAP2 POP POP JUMP JUMPDEST PUSH1 0x0 PUSH1 0x40 DUP3 ADD SWAP1 POP PUSH2 0x7896 PUSH1 0x0 DUP4 ADD DUP6 PUSH2 0x754D JUMP JUMPDEST DUP2 DUP2 SUB PUSH1 0x20 DUP4 ADD MSTORE PUSH2 0x78A8 DUP2 DUP5 PUSH2 0x780C JUMP JUMPDEST SWAP1 POP SWAP4 SWAP3 POP POP POP JUMP JUMPDEST PUSH1 0x0 DUP1 REVERT JUMPDEST PUSH32 0x4E487B7100000000000000000000000000000000000000000000000000000000 PUSH1 0x0 MSTORE PUSH1 0x41 PUSH1 0x4 MSTORE PUSH1 0x24 PUSH1 0x0 REVERT JUMPDEST PUSH2 0x78EE DUP3 PUSH2 0x75CE JUMP JUMPDEST DUP2 ADD DUP2 DUP2 LT PUSH8 0xFFFFFFFFFFFFFFFF DUP3 GT OR ISZERO PUSH2 0x790D JUMPI PUSH2 0x790C PUSH2 0x78B6 JUMP JUMPDEST JUMPDEST DUP1 PUSH1 0x40 MSTORE POP POP POP JUMP JUMPDEST PUSH1 0x0 PUSH2 0x7920 PUSH2 0x7400 JUMP JUMPDEST SWAP1 POP PUSH2 0x792C DUP3 DUP3 PUSH2 0x78E5 JUMP JUMPDEST SWAP2 SWAP1 POP JUMP JUMPDEST PUSH1 0x0 DUP1 REVERT JUMPDEST PUSH1 0x0 DUP1 REVERT JUMPDEST PUSH1 0x0 DUP1 REVERT JUMPDEST PUSH1 0x0 PUSH8 0xFFFFFFFFFFFFFFFF DUP3 GT ISZERO PUSH2 0x795B JUMPI PUSH2 0x795A PUSH2 0x78B6 JUMP JUMPDEST JUMPDEST PUSH2 0x7964 DUP3 PUSH2 0x75CE JUMP JUMPDEST SWAP1 POP PUSH1 0x20 DUP2 ADD SWAP1 POP SWAP2 SWAP1 POP JUMP JUMPDEST DUP3 DUP2 DUP4 CALLDATACOPY PUSH1 0x0 DUP4 DUP4 ADD MSTORE POP POP POP JUMP JUMPDEST PUSH1 0x0 PUSH2 0x7993 PUSH2 0x798E DUP5 PUSH2 0x7940 JUMP JUMPDEST PUSH2 0x7916 JUMP JUMPDEST SWAP1 POP DUP3 DUP2 MSTORE PUSH1 0x20 DUP2 ADD DUP5 DUP5 DUP5 ADD GT ISZERO PUSH2 0x79AF JUMPI PUSH2 0x79AE PUSH2 0x793B JUMP JUMPDEST JUMPDEST PUSH2 0x79BA DUP5 DUP3 DUP6 PUSH2 0x7971 JUMP JUMPDEST POP SWAP4 SWAP3 POP POP POP JUMP JUMPDEST PUSH1 0x0 DUP3 PUSH1 0x1F DUP4 ADD SLT PUSH2 0x79D7 JUMPI PUSH2 0x79D6 PUSH2 0x7936 JUMP JUMPDEST JUMPDEST DUP2 CALLDATALOAD PUSH2 0x79E7 DUP5 DUP3 PUSH1 0x20 DUP7 ADD PUSH2 0x7980 JUMP JUMPDEST SWAP2 POP POP SWAP3 SWAP2 POP POP JUMP JUMPDEST PUSH1 0x0 PUSH2 0xFFFF DUP3 AND SWAP1 POP SWAP2 SWAP1 POP JUMP JUMPDEST PUSH2 0x7A07 DUP2 PUSH2 0x79F0 JUMP JUMPDEST DUP2 EQ PUSH2 0x7A12 JUMPI PUSH1 0x0 DUP1 REVERT JUMPDEST POP JUMP JUMPDEST PUSH1 0x0 DUP2 CALLDATALOAD SWAP1 POP PUSH2 0x7A24 DUP2 PUSH2 0x79FE JUMP JUMPDEST SWAP3 SWAP2 POP POP JUMP JUMPDEST PUSH1 0x2 DUP2 LT PUSH2 0x7A37 JUMPI PUSH1 0x0 DUP1 REVERT JUMPDEST POP JUMP JUMPDEST PUSH1 0x0 DUP2 CALLDATALOAD SWAP1 POP PUSH2 0x7A49 DUP2 PUSH2 0x7A2A JUMP JUMPDEST SWAP3 SWAP2 POP POP JUMP JUMPDEST PUSH1 0x0 PUSH1 0xC0 DUP3 DUP5 SUB SLT ISZERO PUSH2 0x7A65 JUMPI PUSH2 0x7A64 PUSH2 0x78B1 JUMP JUMPDEST JUMPDEST PUSH2 0x7A6F PUSH1 0xC0 PUSH2 0x7916 JUMP JUMPDEST SWAP1 POP PUSH1 0x0 DUP3 ADD CALLDATALOAD PUSH8 0xFFFFFFFFFFFFFFFF DUP2 GT ISZERO PUSH2 0x7A8F JUMPI PUSH2 0x7A8E PUSH2 0x7931 JUMP JUMPDEST JUMPDEST PUSH2 0x7A9B DUP5 DUP3 DUP6 ADD PUSH2 0x79C2 JUMP JUMPDEST PUSH1 0x0 DUP4 ADD MSTORE POP PUSH1 0x20 DUP3 ADD CALLDATALOAD PUSH8 0xFFFFFFFFFFFFFFFF DUP2 GT ISZERO PUSH2 0x7ABF JUMPI PUSH2 0x7ABE PUSH2 0x7931 JUMP JUMPDEST JUMPDEST PUSH2 0x7ACB DUP5 DUP3 DUP6 ADD PUSH2 0x79C2 JUMP JUMPDEST PUSH1 0x20 DUP4 ADD MSTORE POP PUSH1 0x40 PUSH2 0x7ADF DUP5 DUP3 DUP6 ADD PUSH2 0x745D JUMP JUMPDEST PUSH1 0x40 DUP4 ADD MSTORE POP PUSH1 0x60 DUP3 ADD CALLDATALOAD PUSH8 0xFFFFFFFFFFFFFFFF DUP2 GT ISZERO PUSH2 0x7B03 JUMPI PUSH2 0x7B02 PUSH2 0x7931 JUMP JUMPDEST JUMPDEST PUSH2 0x7B0F DUP5 DUP3 DUP6 ADD PUSH2 0x79C2 JUMP JUMPDEST PUSH1 0x60 DUP4 ADD MSTORE POP PUSH1 0x80 PUSH2 0x7B23 DUP5 DUP3 DUP6 ADD PUSH2 0x7A15 JUMP JUMPDEST PUSH1 0x80 DUP4 ADD MSTORE POP PUSH1 0xA0 PUSH2 0x7B37 DUP5 DUP3 DUP6 ADD PUSH2 0x7A3A JUMP JUMPDEST PUSH1 0xA0 DUP4 ADD MSTORE POP SWAP3 SWAP2 POP POP JUMP JUMPDEST PUSH1 0x0 PUSH1 0x20 DUP3 DUP5 SUB SLT ISZERO PUSH2 0x7B59 JUMPI PUSH2 0x7B58 PUSH2 0x740A JUMP JUMPDEST JUMPDEST PUSH1 0x0 DUP3 ADD CALLDATALOAD PUSH8 0xFFFFFFFFFFFFFFFF DUP2 GT ISZERO PUSH2 0x7B77 JUMPI PUSH2 0x7B76 PUSH2 0x740F JUMP JUMPDEST JUMPDEST PUSH2 0x7B83 DUP5 DUP3 DUP6 ADD PUSH2 0x7A4F JUMP JUMPDEST SWAP2 POP POP SWAP3 SWAP2 POP POP JUMP JUMPDEST PUSH1 0x0 DUP2 MLOAD SWAP1 POP SWAP2 SWAP1 POP JUMP JUMPDEST PUSH1 0x0 DUP3 DUP3 MSTORE PUSH1 0x20 DUP3 ADD SWAP1 POP SWAP3 SWAP2 POP POP JUMP JUMPDEST PUSH1 0x0 DUP2 SWAP1 POP PUSH1 0x20 DUP3 ADD SWAP1 POP SWAP2 SWAP1 POP JUMP JUMPDEST PUSH2 0x7BC1 DUP2 PUSH2 0x79F0 JUMP JUMPDEST DUP3 MSTORE POP POP JUMP JUMPDEST PUSH1 0x2 DUP2 LT PUSH2 0x7BD8 JUMPI PUSH2 0x7BD7 PUSH2 0x7636 JUMP JUMPDEST JUMPDEST POP JUMP JUMPDEST PUSH1 0x0 DUP2 SWAP1 POP PUSH2 0x7BE9 DUP3 PUSH2 0x7BC7 JUMP JUMPDEST SWAP2 SWAP1 POP JUMP JUMPDEST PUSH1 0x0 PUSH2 0x7BF9 DUP3 PUSH2 0x7BDB JUMP JUMPDEST SWAP1 POP SWAP2 SWAP1 POP JUMP JUMPDEST PUSH2 0x7C09 DUP2 PUSH2 0x7BEE JUMP JUMPDEST DUP3 MSTORE POP POP JUMP JUMPDEST PUSH1 0x0 PUSH1 0xC0 DUP4 ADD PUSH1 0x0 DUP4 ADD MLOAD DUP5 DUP3 SUB PUSH1 0x0 DUP7 ADD MSTORE PUSH2 0x7C2C DUP3 DUP3 PUSH2 0x75DF JUMP JUMPDEST SWAP2 POP POP PUSH1 0x20 DUP4 ADD MLOAD DUP5 DUP3 SUB PUSH1 0x20 DUP7 ADD MSTORE PUSH2 0x7C46 DUP3 DUP3 PUSH2 0x75DF JUMP JUMPDEST SWAP2 POP POP PUSH1 0x40 DUP4 ADD MLOAD PUSH2 0x7C5B PUSH1 0x40 DUP7 ADD DUP3 PUSH2 0x7618 JUMP JUMPDEST POP PUSH1 0x60 DUP4 ADD MLOAD DUP5 DUP3 SUB PUSH1 0x60 DUP7 ADD MSTORE PUSH2 0x7C73 DUP3 DUP3 PUSH2 0x75DF JUMP JUMPDEST SWAP2 POP POP PUSH1 0x80 DUP4 ADD MLOAD PUSH2 0x7C88 PUSH1 0x80 DUP7 ADD DUP3 PUSH2 0x7BB8 JUMP JUMPDEST POP PUSH1 0xA0 DUP4 ADD MLOAD PUSH2 0x7C9B PUSH1 0xA0 DUP7 ADD DUP3 PUSH2 0x7C00 JUMP JUMPDEST POP DUP1 SWAP2 POP POP SWAP3 SWAP2 POP POP JUMP JUMPDEST PUSH1 0x0 PUSH2 0x7CB2 DUP4 DUP4 PUSH2 0x7C0F JUMP JUMPDEST SWAP1 POP SWAP3 SWAP2 POP POP JUMP JUMPDEST PUSH1 0x0 PUSH1 0x20 DUP3 ADD SWAP1 POP SWAP2 SWAP1 POP JUMP JUMPDEST PUSH1 0x0 PUSH2 0x7CD2 DUP3 PUSH2 0x7B8C JUMP JUMPDEST PUSH2 0x7CDC DUP2 DUP6 PUSH2 0x7B97 JUMP JUMPDEST SWAP4 POP DUP4 PUSH1 0x20 DUP3 MUL DUP6 ADD PUSH2 0x7CEE DUP6 PUSH2 0x7BA8 JUMP JUMPDEST DUP1 PUSH1 0x0 JUMPDEST DUP6 DUP2 LT ISZERO PUSH2 0x7D2A JUMPI DUP5 DUP5 SUB DUP10 MSTORE DUP2 MLOAD PUSH2 0x7D0B DUP6 DUP3 PUSH2 0x7CA6 JUMP JUMPDEST SWAP5 POP PUSH2 0x7D16 DUP4 PUSH2 0x7CBA JUMP JUMPDEST SWAP3 POP PUSH1 0x20 DUP11 ADD SWAP10 POP POP PUSH1 0x1 DUP2 ADD SWAP1 POP PUSH2 0x7CF2 JUMP JUMPDEST POP DUP3 SWAP8 POP DUP8 SWAP6 POP POP POP POP POP POP SWAP3 SWAP2 POP POP JUMP JUMPDEST PUSH1 0x0 PUSH1 0x40 DUP3 ADD SWAP1 POP PUSH2 0x7D51 PUSH1 0x0 DUP4 ADD DUP6 PUSH2 0x754D JUMP JUMPDEST DUP2 DUP2 SUB PUSH1 0x20 DUP4 ADD MSTORE PUSH2 0x7D63 DUP2 DUP5 PUSH2 0x7CC7 JUMP JUMPDEST SWAP1 POP SWAP4 SWAP3 POP POP POP JUMP JUMPDEST PUSH1 0x3 DUP2 LT PUSH2 0x7D7D JUMPI PUSH2 0x7D7C PUSH2 0x7636 JUMP JUMPDEST JUMPDEST POP JUMP JUMPDEST PUSH1 0x0 DUP2 SWAP1 POP PUSH2 0x7D8E DUP3 PUSH2 0x7D6C JUMP JUMPDEST SWAP2 SWAP1 POP JUMP JUMPDEST PUSH1 0x0 PUSH2 0x7D9E DUP3 PUSH2 0x7D80 JUMP JUMPDEST SWAP1 POP SWAP2 SWAP1 POP JUMP JUMPDEST PUSH2 0x7DAE DUP2 PUSH2 0x7D93 JUMP JUMPDEST DUP3 MSTORE POP POP JUMP JUMPDEST PUSH1 0x0 PUSH1 0xA0 DUP4 ADD PUSH1 0x0 DUP4 ADD MLOAD DUP5 DUP3 SUB PUSH1 0x0 DUP7 ADD MSTORE PUSH2 0x7DD1 DUP3 DUP3 PUSH2 0x75DF JUMP JUMPDEST SWAP2 POP POP PUSH1 0x20 DUP4 ADD MLOAD DUP5 DUP3 SUB PUSH1 0x20 DUP7 ADD MSTORE PUSH2 0x7DEB DUP3 DUP3 PUSH2 0x75DF JUMP JUMPDEST SWAP2 POP POP PUSH1 0x40 DUP4 ADD MLOAD PUSH2 0x7E00 PUSH1 0x40 DUP7 ADD DUP3 PUSH2 0x7618 JUMP JUMPDEST POP PUSH1 0x60 DUP4 ADD MLOAD PUSH2 0x7E13 PUSH1 0x60 DUP7 ADD DUP3 PUSH2 0x7DA5 JUMP JUMPDEST POP PUSH1 0x80 DUP4 ADD MLOAD PUSH2 0x7E26 PUSH1 0x80 DUP7 ADD DUP3 PUSH2 0x7C00 JUMP JUMPDEST POP DUP1 SWAP2 POP POP SWAP3 SWAP2 POP POP JUMP JUMPDEST PUSH1 0x0 PUSH1 0x20 DUP3 ADD SWAP1 POP DUP2 DUP2 SUB PUSH1 0x0 DUP4 ADD MSTORE PUSH2 0x7E4B DUP2 DUP5 PUSH2 0x7DB4 JUMP JUMPDEST SWAP1 POP SWAP3 SWAP2 POP POP JUMP JUMPDEST PUSH1 0x0 PUSH1 0x20 DUP3 DUP5 SUB SLT ISZERO PUSH2 0x7E69 JUMPI PUSH2 0x7E68 PUSH2 0x740A JUMP JUMPDEST JUMPDEST PUSH1 0x0 PUSH2 0x7E77 DUP5 DUP3 DUP6 ADD PUSH2 0x745D JUMP JUMPDEST SWAP2 POP POP SWAP3 SWAP2 POP POP JUMP JUMPDEST PUSH2 0x7E89 DUP2 PUSH2 0x7472 JUMP JUMPDEST DUP3 MSTORE POP POP JUMP JUMPDEST PUSH1 0x0 PUSH1 0xE0 DUP4 ADD PUSH1 0x0 DUP4 ADD MLOAD DUP5 DUP3 SUB PUSH1 0x0 DUP7 ADD MSTORE PUSH2 0x7EAC DUP3 DUP3 PUSH2 0x75DF JUMP JUMPDEST SWAP2 POP POP PUSH1 0x20 DUP4 ADD MLOAD DUP5 DUP3 SUB PUSH1 0x20 DUP7 ADD MSTORE PUSH2 0x7EC6 DUP3 DUP3 PUSH2 0x75DF JUMP JUMPDEST SWAP2 POP POP PUSH1 0x40 DUP4 ADD MLOAD PUSH2 0x7EDB PUSH1 0x40 DUP7 ADD DUP3 PUSH2 0x7BB8 JUMP JUMPDEST POP PUSH1 0x60 DUP4 ADD MLOAD PUSH2 0x7EEE PUSH1 0x60 DUP7 ADD DUP3 PUSH2 0x7618 JUMP JUMPDEST POP PUSH1 0x80 DUP4 ADD MLOAD PUSH2 0x7F01 PUSH1 0x80 DUP7 ADD DUP3 PUSH2 0x7618 JUMP JUMPDEST POP PUSH1 0xA0 DUP4 ADD MLOAD DUP5 DUP3 SUB PUSH1 0xA0 DUP7 ADD MSTORE PUSH2 0x7F19 DUP3 DUP3 PUSH2 0x75DF JUMP JUMPDEST SWAP2 POP POP PUSH1 0xC0 DUP4 ADD MLOAD PUSH2 0x7F2E PUSH1 0xC0 DUP7 ADD DUP3 PUSH2 0x7627 JUMP JUMPDEST POP DUP1 SWAP2 POP POP SWAP3 SWAP2 POP POP JUMP JUMPDEST PUSH1 0x0 PUSH2 0x140 DUP4 ADD PUSH1 0x0 DUP4 ADD MLOAD DUP5 DUP3 SUB PUSH1 0x0 DUP7 ADD MSTORE PUSH2 0x7F57 DUP3 DUP3 PUSH2 0x75DF JUMP JUMPDEST SWAP2 POP POP PUSH1 0x20 DUP4 ADD MLOAD PUSH2 0x7F6C PUSH1 0x20 DUP7 ADD DUP3 PUSH2 0x7618 JUMP JUMPDEST POP PUSH1 0x40 DUP4 ADD MLOAD DUP5 DUP3 SUB PUSH1 0x40 DUP7 ADD MSTORE PUSH2 0x7F84 DUP3 DUP3 PUSH2 0x75DF JUMP JUMPDEST SWAP2 POP POP PUSH1 0x60 DUP4 ADD MLOAD PUSH2 0x7F99 PUSH1 0x60 DUP7 ADD DUP3 PUSH2 0x7618 JUMP JUMPDEST POP PUSH1 0x80 DUP4 ADD MLOAD DUP5 DUP3 SUB PUSH1 0x80 DUP7 ADD MSTORE PUSH2 0x7FB1 DUP3 DUP3 PUSH2 0x75DF JUMP JUMPDEST SWAP2 POP POP PUSH1 0xA0 DUP4 ADD MLOAD DUP5 DUP3 SUB PUSH1 0xA0 DUP7 ADD MSTORE PUSH2 0x7FCB DUP3 DUP3 PUSH2 0x75DF JUMP JUMPDEST SWAP2 POP POP PUSH1 0xC0 DUP4 ADD MLOAD PUSH2 0x7FE0 PUSH1 0xC0 DUP7 ADD DUP3 PUSH2 0x7627 JUMP JUMPDEST POP PUSH1 0xE0 DUP4 ADD MLOAD PUSH2 0x7FF3 PUSH1 0xE0 DUP7 ADD DUP3 PUSH2 0x769E JUMP JUMPDEST POP PUSH2 0x100 DUP4 ADD MLOAD PUSH2 0x8008 PUSH2 0x100 DUP7 ADD DUP3 PUSH2 0x76E6 JUMP JUMPDEST POP PUSH2 0x120 DUP4 ADD MLOAD DUP5 DUP3 SUB PUSH2 0x120 DUP7 ADD MSTORE PUSH2 0x8022 DUP3 DUP3 PUSH2 0x75DF JUMP JUMPDEST SWAP2 POP POP DUP1 SWAP2 POP POP SWAP3 SWAP2 POP POP JUMP JUMPDEST PUSH1 0x0 PUSH1 0x60 DUP3 ADD SWAP1 POP PUSH2 0x8044 PUSH1 0x0 DUP4 ADD DUP7 PUSH2 0x7E80 JUMP JUMPDEST DUP2 DUP2 SUB PUSH1 0x20 DUP4 ADD MSTORE PUSH2 0x8056 DUP2 DUP6 PUSH2 0x7E8F JUMP JUMPDEST SWAP1 POP DUP2 DUP2 SUB PUSH1 0x40 DUP4 ADD MSTORE PUSH2 0x806A DUP2 DUP5 PUSH2 0x7F39 JUMP JUMPDEST SWAP1 POP SWAP5 SWAP4 POP POP POP POP JUMP JUMPDEST PUSH1 0x0 DUP1 PUSH1 0x0 PUSH1 0x60 DUP5 DUP7 SUB SLT ISZERO PUSH2 0x808D JUMPI PUSH2 0x808C PUSH2 0x740A JUMP JUMPDEST JUMPDEST PUSH1 0x0 PUSH2 0x809B DUP7 DUP3 DUP8 ADD PUSH2 0x745D JUMP JUMPDEST SWAP4 POP POP PUSH1 0x20 DUP5 ADD CALLDATALOAD PUSH8 0xFFFFFFFFFFFFFFFF DUP2 GT ISZERO PUSH2 0x80BC JUMPI PUSH2 0x80BB PUSH2 0x740F JUMP JUMPDEST JUMPDEST PUSH2 0x80C8 DUP7 DUP3 DUP8 ADD PUSH2 0x79C2 JUMP JUMPDEST SWAP3 POP POP PUSH1 0x40 DUP5 ADD CALLDATALOAD PUSH8 0xFFFFFFFFFFFFFFFF DUP2 GT ISZERO PUSH2 0x80E9 JUMPI PUSH2 0x80E8 PUSH2 0x740F JUMP JUMPDEST JUMPDEST PUSH2 0x80F5 DUP7 DUP3 DUP8 ADD PUSH2 0x79C2 JUMP JUMPDEST SWAP2 POP POP SWAP3 POP SWAP3 POP SWAP3 JUMP JUMPDEST PUSH1 0x0 DUP1 PUSH1 0x40 DUP4 DUP6 SUB SLT ISZERO PUSH2 0x8116 JUMPI PUSH2 0x8115 PUSH2 0x740A JUMP JUMPDEST JUMPDEST PUSH1 0x0 PUSH2 0x8124 DUP6 DUP3 DUP7 ADD PUSH2 0x745D JUMP JUMPDEST SWAP3 POP POP PUSH1 0x20 DUP4 ADD CALLDATALOAD PUSH8 0xFFFFFFFFFFFFFFFF DUP2 GT ISZERO PUSH2 0x8145 JUMPI PUSH2 0x8144 PUSH2 0x740F JUMP JUMPDEST JUMPDEST PUSH2 0x8151 DUP6 DUP3 DUP7 ADD PUSH2 0x79C2 JUMP JUMPDEST SWAP2 POP POP SWAP3 POP SWAP3 SWAP1 POP JUMP JUMPDEST PUSH1 0x0 PUSH1 0xC0 DUP4 ADD PUSH1 0x0 DUP4 ADD MLOAD DUP5 DUP3 SUB PUSH1 0x0 DUP7 ADD MSTORE PUSH2 0x8178 DUP3 DUP3 PUSH2 0x75DF JUMP JUMPDEST SWAP2 POP POP PUSH1 0x20 DUP4 ADD MLOAD DUP5 DUP3 SUB PUSH1 0x20 DUP7 ADD MSTORE PUSH2 0x8192 DUP3 DUP3 PUSH2 0x75DF JUMP JUMPDEST SWAP2 POP POP PUSH1 0x40 DUP4 ADD MLOAD PUSH2 0x81A7 PUSH1 0x40 DUP7 ADD DUP3 PUSH2 0x7618 JUMP JUMPDEST POP PUSH1 0x60 DUP4 ADD MLOAD DUP5 DUP3 SUB PUSH1 0x60 DUP7 ADD MSTORE PUSH2 0x81BF DUP3 DUP3 PUSH2 0x75DF JUMP JUMPDEST SWAP2 POP POP PUSH1 0x80 DUP4 ADD MLOAD PUSH2 0x81D4 PUSH1 0x80 DUP7 ADD DUP3 PUSH2 0x7BB8 JUMP JUMPDEST POP PUSH1 0xA0 DUP4 ADD MLOAD PUSH2 0x81E7 PUSH1 0xA0 DUP7 ADD DUP3 PUSH2 0x7C00 JUMP JUMPDEST POP DUP1 SWAP2 POP POP SWAP3 SWAP2 POP POP JUMP JUMPDEST PUSH1 0x0 PUSH1 0x20 DUP3 ADD SWAP1 POP DUP2 DUP2 SUB PUSH1 0x0 DUP4 ADD MSTORE PUSH2 0x820C DUP2 DUP5 PUSH2 0x815B JUMP JUMPDEST SWAP1 POP SWAP3 SWAP2 POP POP JUMP JUMPDEST PUSH1 0x0 PUSH1 0x20 DUP3 ADD SWAP1 POP DUP2 DUP2 SUB PUSH1 0x0 DUP4 ADD MSTORE PUSH2 0x822E DUP2 DUP5 PUSH2 0x7E8F JUMP JUMPDEST SWAP1 POP SWAP3 SWAP2 POP POP JUMP JUMPDEST PUSH1 0x0 PUSH1 0x60 DUP3 ADD SWAP1 POP PUSH2 0x824B PUSH1 0x0 DUP4 ADD DUP7 PUSH2 0x7E80 JUMP JUMPDEST DUP2 DUP2 SUB PUSH1 0x20 DUP4 ADD MSTORE PUSH2 0x825D DUP2 DUP6 PUSH2 0x815B JUMP JUMPDEST SWAP1 POP DUP2 DUP2 SUB PUSH1 0x40 DUP4 ADD MSTORE PUSH2 0x8271 DUP2 DUP5 PUSH2 0x7F39 JUMP JUMPDEST SWAP1 POP SWAP5 SWAP4 POP POP POP POP JUMP JUMPDEST PUSH1 0x0 DUP1 PUSH1 0x40 DUP4 DUP6 SUB SLT ISZERO PUSH2 0x8292 JUMPI PUSH2 0x8291 PUSH2 0x740A JUMP JUMPDEST JUMPDEST PUSH1 0x0 DUP4 ADD CALLDATALOAD PUSH8 0xFFFFFFFFFFFFFFFF DUP2 GT ISZERO PUSH2 0x82B0 JUMPI PUSH2 0x82AF PUSH2 0x740F JUMP JUMPDEST JUMPDEST PUSH2 0x82BC DUP6 DUP3 DUP7 ADD PUSH2 0x79C2 JUMP JUMPDEST SWAP3 POP POP PUSH1 0x20 PUSH2 0x82CD DUP6 DUP3 DUP7 ADD PUSH2 0x750B JUMP JUMPDEST SWAP2 POP POP SWAP3 POP SWAP3 SWAP1 POP JUMP JUMPDEST PUSH1 0x0 PUSH1 0xE0 DUP3 DUP5 SUB SLT ISZERO PUSH2 0x82ED JUMPI PUSH2 0x82EC PUSH2 0x78B1 JUMP JUMPDEST JUMPDEST PUSH2 0x82F7 PUSH1 0xE0 PUSH2 0x7916 JUMP JUMPDEST SWAP1 POP PUSH1 0x0 DUP3 ADD CALLDATALOAD PUSH8 0xFFFFFFFFFFFFFFFF DUP2 GT ISZERO PUSH2 0x8317 JUMPI PUSH2 0x8316 PUSH2 0x7931 JUMP JUMPDEST JUMPDEST PUSH2 0x8323 DUP5 DUP3 DUP6 ADD PUSH2 0x79C2 JUMP JUMPDEST PUSH1 0x0 DUP4 ADD MSTORE POP PUSH1 0x20 DUP3 ADD CALLDATALOAD PUSH8 0xFFFFFFFFFFFFFFFF DUP2 GT ISZERO PUSH2 0x8347 JUMPI PUSH2 0x8346 PUSH2 0x7931 JUMP JUMPDEST JUMPDEST PUSH2 0x8353 DUP5 DUP3 DUP6 ADD PUSH2 0x79C2 JUMP JUMPDEST PUSH1 0x20 DUP4 ADD MSTORE POP PUSH1 0x40 PUSH2 0x8367 DUP5 DUP3 DUP6 ADD PUSH2 0x7A15 JUMP JUMPDEST PUSH1 0x40 DUP4 ADD MSTORE POP PUSH1 0x60 PUSH2 0x837B DUP5 DUP3 DUP6 ADD PUSH2 0x745D JUMP JUMPDEST PUSH1 0x60 DUP4 ADD MSTORE POP PUSH1 0x80 PUSH2 0x838F DUP5 DUP3 DUP6 ADD PUSH2 0x745D JUMP JUMPDEST PUSH1 0x80 DUP4 ADD MSTORE POP PUSH1 0xA0 DUP3 ADD CALLDATALOAD PUSH8 0xFFFFFFFFFFFFFFFF DUP2 GT ISZERO PUSH2 0x83B3 JUMPI PUSH2 0x83B2 PUSH2 0x7931 JUMP JUMPDEST JUMPDEST PUSH2 0x83BF DUP5 DUP3 DUP6 ADD PUSH2 0x79C2 JUMP JUMPDEST PUSH1 0xA0 DUP4 ADD MSTORE POP PUSH1 0xC0 PUSH2 0x83D3 DUP5 DUP3 DUP6 ADD PUSH2 0x750B JUMP JUMPDEST PUSH1 0xC0 DUP4 ADD MSTORE POP SWAP3 SWAP2 POP POP JUMP JUMPDEST PUSH1 0x0 DUP1 PUSH1 0x0 PUSH1 0x60 DUP5 DUP7 SUB SLT ISZERO PUSH2 0x83F8 JUMPI PUSH2 0x83F7 PUSH2 0x740A JUMP JUMPDEST JUMPDEST PUSH1 0x0 DUP5 ADD CALLDATALOAD PUSH8 0xFFFFFFFFFFFFFFFF DUP2 GT ISZERO PUSH2 0x8416 JUMPI PUSH2 0x8415 PUSH2 0x740F JUMP JUMPDEST JUMPDEST PUSH2 0x8422 DUP7 DUP3 DUP8 ADD PUSH2 0x82D7 JUMP JUMPDEST SWAP4 POP POP PUSH1 0x20 PUSH2 0x8433 DUP7 DUP3 DUP8 ADD PUSH2 0x750B JUMP JUMPDEST SWAP3 POP POP PUSH1 0x40 DUP5 ADD CALLDATALOAD PUSH8 0xFFFFFFFFFFFFFFFF DUP2 GT ISZERO PUSH2 0x8454 JUMPI PUSH2 0x8453 PUSH2 0x740F JUMP JUMPDEST JUMPDEST PUSH2 0x8460 DUP7 DUP3 DUP8 ADD PUSH2 0x79C2 JUMP JUMPDEST SWAP2 POP POP SWAP3 POP SWAP3 POP SWAP3 JUMP JUMPDEST PUSH1 0x0 DUP1 PUSH1 0x0 PUSH1 0x60 DUP5 DUP7 SUB SLT ISZERO PUSH2 0x8483 JUMPI PUSH2 0x8482 PUSH2 0x740A JUMP JUMPDEST JUMPDEST PUSH1 0x0 PUSH2 0x8491 DUP7 DUP3 DUP8 ADD PUSH2 0x745D JUMP JUMPDEST SWAP4 POP POP PUSH1 0x20 PUSH2 0x84A2 DUP7 DUP3 DUP8 ADD PUSH2 0x7495 JUMP JUMPDEST SWAP3 POP POP PUSH1 0x40 DUP5 ADD CALLDATALOAD PUSH8 0xFFFFFFFFFFFFFFFF DUP2 GT ISZERO PUSH2 0x84C3 JUMPI PUSH2 0x84C2 PUSH2 0x740F JUMP JUMPDEST JUMPDEST PUSH2 0x84CF DUP7 DUP3 DUP8 ADD PUSH2 0x79C2 JUMP JUMPDEST SWAP2 POP POP SWAP3 POP SWAP3 POP SWAP3 JUMP JUMPDEST PUSH1 0x0 DUP1 PUSH1 0x0 PUSH1 0x60 DUP5 DUP7 SUB SLT ISZERO PUSH2 0x84F2 JUMPI PUSH2 0x84F1 PUSH2 0x740A JUMP JUMPDEST JUMPDEST PUSH1 0x0 DUP5 ADD CALLDATALOAD PUSH8 0xFFFFFFFFFFFFFFFF DUP2 GT ISZERO PUSH2 0x8510 JUMPI PUSH2 0x850F PUSH2 0x740F JUMP JUMPDEST JUMPDEST PUSH2 0x851C DUP7 DUP3 DUP8 ADD PUSH2 0x79C2 JUMP JUMPDEST SWAP4 POP POP PUSH1 0x20 DUP5 ADD CALLDATALOAD PUSH8 0xFFFFFFFFFFFFFFFF DUP2 GT ISZERO PUSH2 0x853D JUMPI PUSH2 0x853C PUSH2 0x740F JUMP JUMPDEST JUMPDEST PUSH2 0x8549 DUP7 DUP3 DUP8 ADD PUSH2 0x79C2 JUMP JUMPDEST SWAP3 POP POP PUSH1 0x40 PUSH2 0x855A DUP7 DUP3 DUP8 ADD PUSH2 0x7A15 JUMP JUMPDEST SWAP2 POP POP SWAP3 POP SWAP3 POP SWAP3 JUMP JUMPDEST PUSH1 0x0 DUP3 DUP3 MSTORE PUSH1 0x20 DUP3 ADD SWAP1 POP SWAP3 SWAP2 POP POP JUMP JUMPDEST PUSH32 0x546869732046696E616E6369616C20496E737469747574696F6E206973206E6F PUSH1 0x0 DUP3 ADD MSTORE PUSH32 0x7420666F756E6400000000000000000000000000000000000000000000000000 PUSH1 0x20 DUP3 ADD MSTORE POP JUMP JUMPDEST PUSH1 0x0 PUSH2 0x85D1 PUSH1 0x27 DUP4 PUSH2 0x8564 JUMP JUMPDEST SWAP2 POP PUSH2 0x85DC DUP3 PUSH2 0x8575 JUMP JUMPDEST PUSH1 0x40 DUP3 ADD SWAP1 POP SWAP2 SWAP1 POP JUMP JUMPDEST PUSH1 0x0 PUSH1 0x20 DUP3 ADD SWAP1 POP DUP2 DUP2 SUB PUSH1 0x0 DUP4 ADD MSTORE PUSH2 0x8600 DUP2 PUSH2 0x85C4 JUMP JUMPDEST SWAP1 POP SWAP2 SWAP1 POP JUMP JUMPDEST PUSH32 0x546869732046696E616E6369616C20496E737469747574696F6E20686173206E PUSH1 0x0 DUP3 ADD MSTORE PUSH32 0x6F74206265656E20616464656400000000000000000000000000000000000000 PUSH1 0x20 DUP3 ADD MSTORE POP JUMP JUMPDEST PUSH1 0x0 PUSH2 0x8663 PUSH1 0x2D DUP4 PUSH2 0x8564 JUMP JUMPDEST SWAP2 POP PUSH2 0x866E DUP3 PUSH2 0x8607 JUMP JUMPDEST PUSH1 0x40 DUP3 ADD SWAP1 POP SWAP2 SWAP1 POP JUMP JUMPDEST PUSH1 0x0 PUSH1 0x20 DUP3 ADD SWAP1 POP DUP2 DUP2 SUB PUSH1 0x0 DUP4 ADD MSTORE PUSH2 0x8692 DUP2 PUSH2 0x8656 JUMP JUMPDEST SWAP1 POP SWAP2 SWAP1 POP JUMP JUMPDEST PUSH32 0x546869732046696E616E6369616C20496E737469747574696F6E206973206E6F PUSH1 0x0 DUP3 ADD MSTORE PUSH32 0x74206163746976652C20706C65736520636F6E746163742041646D696E697374 PUSH1 0x20 DUP3 ADD MSTORE PUSH32 0x7261746F72000000000000000000000000000000000000000000000000000000 PUSH1 0x40 DUP3 ADD MSTORE POP JUMP JUMPDEST PUSH1 0x0 PUSH2 0x871B PUSH1 0x45 DUP4 PUSH2 0x8564 JUMP JUMPDEST SWAP2 POP PUSH2 0x8726 DUP3 PUSH2 0x8699 JUMP JUMPDEST PUSH1 0x60 DUP3 ADD SWAP1 POP SWAP2 SWAP1 POP JUMP JUMPDEST PUSH1 0x0 PUSH1 0x20 DUP3 ADD SWAP1 POP DUP2 DUP2 SUB PUSH1 0x0 DUP4 ADD MSTORE PUSH2 0x874A DUP2 PUSH2 0x870E JUMP JUMPDEST SWAP1 POP SWAP2 SWAP1 POP JUMP JUMPDEST PUSH32 0x4E487B7100000000000000000000000000000000000000000000000000000000 PUSH1 0x0 MSTORE PUSH1 0x22 PUSH1 0x4 MSTORE PUSH1 0x24 PUSH1 0x0 REVERT JUMPDEST PUSH1 0x0 PUSH1 0x2 DUP3 DIV SWAP1 POP PUSH1 0x1 DUP3 AND DUP1 PUSH2 0x8798 JUMPI PUSH1 0x7F DUP3 AND SWAP2 POP JUMPDEST PUSH1 0x20 DUP3 LT DUP2 SUB PUSH2 0x87AB JUMPI PUSH2 0x87AA PUSH2 0x8751 JUMP JUMPDEST JUMPDEST POP SWAP2 SWAP1 POP JUMP JUMPDEST PUSH1 0x0 DUP2 SWAP1 POP DUP2 PUSH1 0x0 MSTORE PUSH1 0x20 PUSH1 0x0 KECCAK256 SWAP1 POP SWAP2 SWAP1 POP JUMP JUMPDEST PUSH1 0x0 PUSH1 0x20 PUSH1 0x1F DUP4 ADD DIV SWAP1 POP SWAP2 SWAP1 POP JUMP JUMPDEST PUSH1 0x0 DUP3 DUP3 SHL SWAP1 POP SWAP3 SWAP2 POP POP JUMP JUMPDEST PUSH1 0x0 PUSH1 0x8 DUP4 MUL PUSH2 0x8813 PUSH32 0xFFFFFFFFFFFFFFFFFFFFFFFFFFFFFFFFFFFFFFFFFFFFFFFFFFFFFFFFFFFFFFFF DUP3 PUSH2 0x87D6 JUMP JUMPDEST PUSH2 0x881D DUP7 DUP4 PUSH2 0x87D6 JUMP JUMPDEST SWAP6 POP DUP1 NOT DUP5 AND SWAP4 POP DUP1 DUP7 AND DUP5 OR SWAP3 POP POP POP SWAP4 SWAP3 POP POP POP JUMP JUMPDEST PUSH1 0x0 DUP2 SWAP1 POP SWAP2 SWAP1 POP JUMP JUMPDEST PUSH1 0x0 PUSH2 0x885A PUSH2 0x8855 PUSH2 0x8850 DUP5 PUSH2 0x74EA JUMP JUMPDEST PUSH2 0x8835 JUMP JUMPDEST PUSH2 0x74EA JUMP JUMPDEST SWAP1 POP SWAP2 SWAP1 POP JUMP JUMPDEST PUSH1 0x0 DUP2 SWAP1 POP SWAP2 SWAP1 POP JUMP JUMPDEST PUSH2 0x8874 DUP4 PUSH2 0x883F JUMP JUMPDEST PUSH2 0x8888 PUSH2 0x8880 DUP3 PUSH2 0x8861 JUMP JUMPDEST DUP5 DUP5 SLOAD PUSH2 0x87E3 JUMP JUMPDEST DUP3 SSTORE POP POP POP POP JUMP JUMPDEST PUSH1 0x0 SWAP1 JUMP JUMPDEST PUSH2 0x889D PUSH2 0x8890 JUMP JUMPDEST PUSH2 0x88A8 DUP2 DUP5 DUP5 PUSH2 0x886B JUMP JUMPDEST POP POP POP JUMP JUMPDEST JUMPDEST DUP2 DUP2 LT ISZERO PUSH2 0x88CC JUMPI PUSH2 0x88C1 PUSH1 0x0 DUP3 PUSH2 0x8895 JUMP JUMPDEST PUSH1 0x1 DUP2 ADD SWAP1 POP PUSH2 0x88AE JUMP JUMPDEST POP POP JUMP JUMPDEST PUSH1 0x1F DUP3 GT ISZERO PUSH2 0x8911 JUMPI PUSH2 0x88E2 DUP2 PUSH2 0x87B1 JUMP JUMPDEST PUSH2 0x88EB DUP5 PUSH2 0x87C6 JUMP JUMPDEST DUP2 ADD PUSH1 0x20 DUP6 LT ISZERO PUSH2 0x88FA JUMPI DUP2 SWAP1 POP JUMPDEST PUSH2 0x890E PUSH2 0x8906 DUP6 PUSH2 0x87C6 JUMP JUMPDEST DUP4 ADD DUP3 PUSH2 0x88AD JUMP JUMPDEST POP POP JUMPDEST POP POP POP JUMP JUMPDEST PUSH1 0x0 DUP3 DUP3 SHR SWAP1 POP SWAP3 SWAP2 POP POP JUMP JUMPDEST PUSH1 0x0 PUSH2 0x8934 PUSH1 0x0 NOT DUP5 PUSH1 0x8 MUL PUSH2 0x8916 JUMP JUMPDEST NOT DUP1 DUP4 AND SWAP2 POP POP SWAP3 SWAP2 POP POP JUMP JUMPDEST PUSH1 0x0 PUSH2 0x894D DUP4 DUP4 PUSH2 0x8923 JUMP JUMPDEST SWAP2 POP DUP3 PUSH1 0x2 MUL DUP3 OR SWAP1 POP SWAP3 SWAP2 POP POP JUMP JUMPDEST PUSH2 0x8966 DUP3 PUSH2 0x7588 JUMP JUMPDEST PUSH8 0xFFFFFFFFFFFFFFFF DUP2 GT ISZERO PUSH2 0x897F JUMPI PUSH2 0x897E PUSH2 0x78B6 JUMP JUMPDEST JUMPDEST PUSH2 0x8989 DUP3 SLOAD PUSH2 0x8780 JUMP JUMPDEST PUSH2 0x8994 DUP3 DUP3 DUP6 PUSH2 0x88D0 JUMP JUMPDEST PUSH1 0x0 PUSH1 0x20 SWAP1 POP PUSH1 0x1F DUP4 GT PUSH1 0x1 DUP2 EQ PUSH2 0x89C7 JUMPI PUSH1 0x0 DUP5 ISZERO PUSH2 0x89B5 JUMPI DUP3 DUP8 ADD MLOAD SWAP1 POP JUMPDEST PUSH2 0x89BF DUP6 DUP3 PUSH2 0x8941 JUMP JUMPDEST DUP7 SSTORE POP PUSH2 0x8A27 JUMP JUMPDEST PUSH1 0x1F NOT DUP5 AND PUSH2 0x89D5 DUP7 PUSH2 0x87B1 JUMP JUMPDEST PUSH1 0x0 JUMPDEST DUP3 DUP2 LT ISZERO PUSH2 0x89FD JUMPI DUP5 DUP10 ADD MLOAD DUP3 SSTORE PUSH1 0x1 DUP3 ADD SWAP2 POP PUSH1 0x20 DUP6 ADD SWAP5 POP PUSH1 0x20 DUP2 ADD SWAP1 POP PUSH2 0x89D8 JUMP JUMPDEST DUP7 DUP4 LT ISZERO PUSH2 0x8A1A JUMPI DUP5 DUP10 ADD MLOAD PUSH2 0x8A16 PUSH1 0x1F DUP10 AND DUP3 PUSH2 0x8923 JUMP JUMPDEST DUP4 SSTORE POP JUMPDEST PUSH1 0x1 PUSH1 0x2 DUP9 MUL ADD DUP9 SSTORE POP POP POP JUMPDEST POP POP POP POP POP POP JUMP JUMPDEST PUSH32 0x53656E64657220494420456D7074790000000000000000000000000000000000 PUSH1 0x0 DUP3 ADD MSTORE POP JUMP JUMPDEST PUSH1 0x0 PUSH2 0x8A65 PUSH1 0xF DUP4 PUSH2 0x8564 JUMP JUMPDEST SWAP2 POP PUSH2 0x8A70 DUP3 PUSH2 0x8A2F JUMP JUMPDEST PUSH1 0x20 DUP3 ADD SWAP1 POP SWAP2 SWAP1 POP JUMP JUMPDEST PUSH1 0x0 PUSH1 0x20 DUP3 ADD SWAP1 POP DUP2 DUP2 SUB PUSH1 0x0 DUP4 ADD MSTORE PUSH2 0x8A94 DUP2 PUSH2 0x8A58 JUMP JUMPDEST SWAP1 POP SWAP2 SWAP1 POP JUMP JUMPDEST PUSH32 0x5573657220494420456D70747900000000000000000000000000000000000000 PUSH1 0x0 DUP3 ADD MSTORE POP JUMP JUMPDEST PUSH1 0x0 PUSH2 0x8AD1 PUSH1 0xD DUP4 PUSH2 0x8564 JUMP JUMPDEST SWAP2 POP PUSH2 0x8ADC DUP3 PUSH2 0x8A9B JUMP JUMPDEST PUSH1 0x20 DUP3 ADD SWAP1 POP SWAP2 SWAP1 POP JUMP JUMPDEST PUSH1 0x0 PUSH1 0x20 DUP3 ADD SWAP1 POP DUP2 DUP2 SUB PUSH1 0x0 DUP4 ADD MSTORE PUSH2 0x8B00 DUP2 PUSH2 0x8AC4 JUMP JUMPDEST SWAP1 POP SWAP2 SWAP1 POP JUMP JUMPDEST PUSH32 0x4944206973206E6F7420666F756E640000000000000000000000000000000000 PUSH1 0x0 DUP3 ADD MSTORE POP JUMP JUMPDEST PUSH1 0x0 PUSH2 0x8B3D PUSH1 0xF DUP4 PUSH2 0x8564 JUMP JUMPDEST SWAP2 POP PUSH2 0x8B48 DUP3 PUSH2 0x8B07 JUMP JUMPDEST PUSH1 0x20 DUP3 ADD SWAP1 POP SWAP2 SWAP1 POP JUMP JUMPDEST PUSH1 0x0 PUSH1 0x20 DUP3 ADD SWAP1 POP DUP2 DUP2 SUB PUSH1 0x0 DUP4 ADD MSTORE PUSH2 0x8B6C DUP2 PUSH2 0x8B30 JUMP JUMPDEST SWAP1 POP SWAP2 SWAP1 POP JUMP JUMPDEST PUSH32 0x55736572206973206E6F7420666F756E64000000000000000000000000000000 PUSH1 0x0 DUP3 ADD MSTORE POP JUMP JUMPDEST PUSH1 0x0 PUSH2 0x8BA9 PUSH1 0x11 DUP4 PUSH2 0x8564 JUMP JUMPDEST SWAP2 POP PUSH2 0x8BB4 DUP3 PUSH2 0x8B73 JUMP JUMPDEST PUSH1 0x20 DUP3 ADD SWAP1 POP SWAP2 SWAP1 POP JUMP JUMPDEST PUSH1 0x0 PUSH1 0x20 DUP3 ADD SWAP1 POP DUP2 DUP2 SUB PUSH1 0x0 DUP4 ADD MSTORE PUSH2 0x8BD8 DUP2 PUSH2 0x8B9C JUMP JUMPDEST SWAP1 POP SWAP2 SWAP1 POP JUMP JUMPDEST PUSH32 0x456D61696C206973206E6F7420666F756E640000000000000000000000000000 PUSH1 0x0 DUP3 ADD MSTORE POP JUMP JUMPDEST PUSH1 0x0 PUSH2 0x8C15 PUSH1 0x12 DUP4 PUSH2 0x8564 JUMP JUMPDEST SWAP2 POP PUSH2 0x8C20 DUP3 PUSH2 0x8BDF JUMP JUMPDEST PUSH1 0x20 DUP3 ADD SWAP1 POP SWAP2 SWAP1 POP JUMP JUMPDEST PUSH1 0x0 PUSH1 0x20 DUP3 ADD SWAP1 POP DUP2 DUP2 SUB PUSH1 0x0 DUP4 ADD MSTORE PUSH2 0x8C44 DUP2 PUSH2 0x8C08 JUMP JUMPDEST SWAP1 POP SWAP2 SWAP1 POP JUMP JUMPDEST PUSH1 0x0 DUP2 SWAP1 POP SWAP3 SWAP2 POP POP JUMP JUMPDEST PUSH1 0x0 PUSH2 0x8C61 DUP3 PUSH2 0x7588 JUMP JUMPDEST PUSH2 0x8C6B DUP2 DUP6 PUSH2 0x8C4B JUMP JUMPDEST SWAP4 POP PUSH2 0x8C7B DUP2 DUP6 PUSH1 0x20 DUP7 ADD PUSH2 0x75A4 JUMP JUMPDEST DUP1 DUP5 ADD SWAP2 POP POP SWAP3 SWAP2 POP POP JUMP JUMPDEST PUSH1 0x0 PUSH2 0x8C93 DUP3 DUP5 PUSH2 0x8C56 JUMP JUMPDEST SWAP2 POP DUP2 SWAP1 POP SWAP3 SWAP2 POP POP JUMP JUMPDEST PUSH32 0x4B594320686173206E6F7420666F756E64000000000000000000000000000000 PUSH1 0x0 DUP3 ADD MSTORE POP JUMP JUMPDEST PUSH1 0x0 PUSH2 0x8CD4 PUSH1 0x11 DUP4 PUSH2 0x8564 JUMP JUMPDEST SWAP2 POP PUSH2 0x8CDF DUP3 PUSH2 0x8C9E JUMP JUMPDEST PUSH1 0x20 DUP3 ADD SWAP1 POP SWAP2 SWAP1 POP JUMP JUMPDEST PUSH1 0x0 PUSH1 0x20 DUP3 ADD SWAP1 POP DUP2 DUP2 SUB PUSH1 0x0 DUP4 ADD MSTORE PUSH2 0x8D03 DUP2 PUSH2 0x8CC7 JUMP JUMPDEST SWAP1 POP SWAP2 SWAP1 POP JUMP JUMPDEST PUSH32 0x437573746F6D657220686173206E6F7420666F756E6400000000000000000000 PUSH1 0x0 DUP3 ADD MSTORE POP JUMP JUMPDEST PUSH1 0x0 PUSH2 0x8D40 PUSH1 0x16 DUP4 PUSH2 0x8564 JUMP JUMPDEST SWAP2 POP PUSH2 0x8D4B DUP3 PUSH2 0x8D0A JUMP JUMPDEST PUSH1 0x20 DUP3 ADD SWAP1 POP SWAP2 SWAP1 POP JUMP JUMPDEST PUSH1 0x0 PUSH1 0x20 DUP3 ADD SWAP1 POP DUP2 DUP2 SUB PUSH1 0x0 DUP4 ADD MSTORE PUSH2 0x8D6F DUP2 PUSH2 0x8D33 JUMP JUMPDEST SWAP1 POP SWAP2 SWAP1 POP JUMP JUMPDEST PUSH1 0x0 PUSH2 0x8D81 DUP3 PUSH2 0x7588 JUMP JUMPDEST PUSH2 0x8D8B DUP2 DUP6 PUSH2 0x8564 JUMP JUMPDEST SWAP4 POP PUSH2 0x8D9B DUP2 DUP6 PUSH1 0x20 DUP7 ADD PUSH2 0x75A4 JUMP JUMPDEST PUSH2 0x8DA4 DUP2 PUSH2 0x75CE JUMP JUMPDEST DUP5 ADD SWAP2 POP POP SWAP3 SWAP2 POP POP JUMP JUMPDEST PUSH1 0x0 DUP2 SLOAD PUSH2 0x8DBC DUP2 PUSH2 0x8780 JUMP JUMPDEST PUSH2 0x8DC6 DUP2 DUP7 PUSH2 0x8564 JUMP JUMPDEST SWAP5 POP PUSH1 0x1 DUP3 AND PUSH1 0x0 DUP2 EQ PUSH2 0x8DE1 JUMPI PUSH1 0x1 DUP2 EQ PUSH2 0x8DF7 JUMPI PUSH2 0x8E2A JUMP JUMPDEST PUSH1 0xFF NOT DUP4 AND DUP7 MSTORE DUP2 ISZERO ISZERO PUSH1 0x20 MUL DUP7 ADD SWAP4 POP PUSH2 0x8E2A JUMP JUMPDEST PUSH2 0x8E00 DUP6 PUSH2 0x87B1 JUMP JUMPDEST PUSH1 0x0 JUMPDEST DUP4 DUP2 LT ISZERO PUSH2 0x8E22 JUMPI DUP2 SLOAD DUP2 DUP10 ADD MSTORE PUSH1 0x1 DUP3 ADD SWAP2 POP PUSH1 0x20 DUP2 ADD SWAP1 POP PUSH2 0x8E03 JUMP JUMPDEST DUP1 DUP9 ADD SWAP6 POP POP POP JUMPDEST POP POP POP SWAP3 SWAP2 POP POP JUMP JUMPDEST PUSH1 0x0 PUSH1 0x60 DUP3 ADD SWAP1 POP DUP2 DUP2 SUB PUSH1 0x0 DUP4 ADD MSTORE PUSH2 0x8E4D DUP2 DUP7 PUSH2 0x8D76 JUMP JUMPDEST SWAP1 POP DUP2 DUP2 SUB PUSH1 0x20 DUP4 ADD MSTORE PUSH2 0x8E61 DUP2 DUP6 PUSH2 0x8DAF JUMP JUMPDEST SWAP1 POP DUP2 DUP2 SUB PUSH1 0x40 DUP4 ADD MSTORE PUSH2 0x8E75 DUP2 DUP5 PUSH2 0x8DAF JUMP JUMPDEST SWAP1 POP SWAP5 SWAP4 POP POP POP POP JUMP JUMPDEST PUSH32 0x4E487B7100000000000000000000000000000000000000000000000000000000 PUSH1 0x0 MSTORE PUSH1 0x32 PUSH1 0x4 MSTORE PUSH1 0x24 PUSH1 0x0 REVERT JUMPDEST PUSH32 0x4E487B7100000000000000000000000000000000000000000000000000000000 PUSH1 0x0 MSTORE PUSH1 0x11 PUSH1 0x4 MSTORE PUSH1 0x24 PUSH1 0x0 REVERT JUMPDEST PUSH1 0x0 PUSH2 0x8EE8 DUP3 PUSH2 0x74EA JUMP JUMPDEST SWAP2 POP PUSH32 0xFFFFFFFFFFFFFFFFFFFFFFFFFFFFFFFFFFFFFFFFFFFFFFFFFFFFFFFFFFFFFFFF DUP3 SUB PUSH2 0x8F1A JUMPI PUSH2 0x8F19 PUSH2 0x8EAE JUMP JUMPDEST JUMPDEST PUSH1 0x1 DUP3 ADD SWAP1 POP SWAP2 SWAP1 POP JUMP JUMPDEST PUSH32 0x5065726D697373696F6E20686173206E6F7420666F756E640000000000000000 PUSH1 0x0 DUP3 ADD MSTORE POP JUMP JUMPDEST PUSH1 0x0 PUSH2 0x8F5B PUSH1 0x18 DUP4 PUSH2 0x8564 JUMP JUMPDEST SWAP2 POP PUSH2 0x8F66 DUP3 PUSH2 0x8F25 JUMP JUMPDEST PUSH1 0x20 DUP3 ADD SWAP1 POP SWAP2 SWAP1 POP JUMP JUMPDEST PUSH1 0x0 PUSH1 0x20 DUP3 ADD SWAP1 POP DUP2 DUP2 SUB PUSH1 0x0 DUP4 ADD MSTORE PUSH2 0x8F8A DUP2 PUSH2 0x8F4E JUMP JUMPDEST SWAP1 POP SWAP2 SWAP1 POP JUMP JUMPDEST PUSH2 0x8F9A DUP2 PUSH2 0x7434 JUMP JUMPDEST DUP3 MSTORE POP POP JUMP JUMPDEST PUSH2 0x8FA9 DUP2 PUSH2 0x76D4 JUMP JUMPDEST DUP3 MSTORE POP POP JUMP JUMPDEST PUSH1 0x0 PUSH1 0x80 DUP3 ADD SWAP1 POP DUP2 DUP2 SUB PUSH1 0x0 DUP4 ADD MSTORE PUSH2 0x8FC9 DUP2 DUP8 PUSH2 0x8D76 JUMP JUMPDEST SWAP1 POP PUSH2 0x8FD8 PUSH1 0x20 DUP4 ADD DUP7 PUSH2 0x8F91 JUMP JUMPDEST PUSH2 0x8FE5 PUSH1 0x40 DUP4 ADD DUP6 PUSH2 0x8F91 JUMP JUMPDEST PUSH2 0x8FF2 PUSH1 0x60 DUP4 ADD DUP5 PUSH2 0x8FA0 JUMP JUMPDEST SWAP6 SWAP5 POP POP POP POP POP JUMP JUMPDEST PUSH32 0x557365722068616420726571756573746564204B594300000000000000000000 PUSH1 0x0 DUP3 ADD MSTORE POP JUMP JUMPDEST PUSH1 0x0 PUSH2 0x9031 PUSH1 0x16 DUP4 PUSH2 0x8564 JUMP JUMPDEST SWAP2 POP PUSH2 0x903C DUP3 PUSH2 0x8FFB JUMP JUMPDEST PUSH1 0x20 DUP3 ADD SWAP1 POP SWAP2 SWAP1 POP JUMP JUMPDEST PUSH1 0x0 PUSH1 0x20 DUP3 ADD SWAP1 POP DUP2 DUP2 SUB PUSH1 0x0 DUP4 ADD MSTORE PUSH2 0x9060 DUP2 PUSH2 0x9024 JUMP JUMPDEST SWAP1 POP SWAP2 SWAP1 POP JUMP JUMPDEST PUSH1 0x0 PUSH1 0x60 DUP3 ADD SWAP1 POP DUP2 DUP2 SUB PUSH1 0x0 DUP4 ADD MSTORE PUSH2 0x9081 DUP2 DUP7 PUSH2 0x8D76 JUMP JUMPDEST SWAP1 POP DUP2 DUP2 SUB PUSH1 0x20 DUP4 ADD MSTORE PUSH2 0x9095 DUP2 DUP6 PUSH2 0x8DAF JUMP JUMPDEST SWAP1 POP DUP2 DUP2 SUB PUSH1 0x40 DUP4 ADD MSTORE PUSH2 0x90A9 DUP2 DUP5 PUSH2 0x8D76 JUMP JUMPDEST SWAP1 POP SWAP5 SWAP4 POP POP POP POP JUMP JUMPDEST PUSH32 0x5573657220646F6573206E6F742068617665204B594320726571756573740000 PUSH1 0x0 DUP3 ADD MSTORE POP JUMP JUMPDEST PUSH1 0x0 PUSH2 0x90E9 PUSH1 0x1E DUP4 PUSH2 0x8564 JUMP JUMPDEST SWAP2 POP PUSH2 0x90F4 DUP3 PUSH2 0x90B3 JUMP JUMPDEST PUSH1 0x20 DUP3 ADD SWAP1 POP SWAP2 SWAP1 POP JUMP JUMPDEST PUSH1 0x0 PUSH1 0x20 DUP3 ADD SWAP1 POP DUP2 DUP2 SUB PUSH1 0x0 DUP4 ADD MSTORE PUSH2 0x9118 DUP2 PUSH2 0x90DC JUMP JUMPDEST SWAP1 POP SWAP2 SWAP1 POP JUMP JUMPDEST PUSH32 0x4B594320686173206E6F74206265656E20726571756972650000000000000000 PUSH1 0x0 DUP3 ADD MSTORE POP JUMP JUMPDEST PUSH1 0x0 PUSH2 0x9155 PUSH1 0x18 DUP4 PUSH2 0x8564 JUMP JUMPDEST SWAP2 POP PUSH2 0x9160 DUP3 PUSH2 0x911F JUMP JUMPDEST PUSH1 0x20 DUP3 ADD SWAP1 POP SWAP2 SWAP1 POP JUMP JUMPDEST PUSH1 0x0 PUSH1 0x20 DUP3 ADD SWAP1 POP DUP2 DUP2 SUB PUSH1 0x0 DUP4 ADD MSTORE PUSH2 0x9184 DUP2 PUSH2 0x9148 JUMP JUMPDEST SWAP1 POP SWAP2 SWAP1 POP JUMP JUMPDEST PUSH2 0x9194 DUP2 PUSH2 0x768C JUMP JUMPDEST DUP3 MSTORE POP POP JUMP JUMPDEST PUSH1 0x0 PUSH1 0x80 DUP3 ADD SWAP1 POP DUP2 DUP2 SUB PUSH1 0x0 DUP4 ADD MSTORE PUSH2 0x91B4 DUP2 DUP8 PUSH2 0x8D76 JUMP JUMPDEST SWAP1 POP PUSH2 0x91C3 PUSH1 0x20 DUP4 ADD DUP7 PUSH2 0x8F91 JUMP JUMPDEST PUSH2 0x91D0 PUSH1 0x40 DUP4 ADD DUP6 PUSH2 0x8F91 JUMP JUMPDEST PUSH2 0x91DD PUSH1 0x60 DUP4 ADD DUP5 PUSH2 0x918B JUMP JUMPDEST SWAP6 SWAP5 POP POP POP POP POP JUMP JUMPDEST PUSH32 0x4F6E6C792061646D696E20697320616C6C6F7765640000000000000000000000 PUSH1 0x0 DUP3 ADD MSTORE POP JUMP JUMPDEST PUSH1 0x0 PUSH2 0x921C PUSH1 0x15 DUP4 PUSH2 0x8564 JUMP JUMPDEST SWAP2 POP PUSH2 0x9227 DUP3 PUSH2 0x91E6 JUMP JUMPDEST PUSH1 0x20 DUP3 ADD SWAP1 POP SWAP2 SWAP1 POP JUMP JUMPDEST PUSH1 0x0 PUSH1 0x20 DUP3 ADD SWAP1 POP DUP2 DUP2 SUB PUSH1 0x0 DUP4 ADD MSTORE PUSH2 0x924B DUP2 PUSH2 0x920F JUMP JUMPDEST SWAP1 POP SWAP2 SWAP1 POP JUMP JUMPDEST PUSH32 0x546869732046696E616E6369616C20496E737469747574696F6E206973206E6F PUSH1 0x0 DUP3 ADD MSTORE PUSH32 0x7220666F756E6400000000000000000000000000000000000000000000000000 PUSH1 0x20 DUP3 ADD MSTORE POP JUMP JUMPDEST PUSH1 0x0 PUSH2 0x92AE PUSH1 0x27 DUP4 PUSH2 0x8564 JUMP JUMPDEST SWAP2 POP PUSH2 0x92B9 DUP3 PUSH2 0x9252 JUMP JUMPDEST PUSH1 0x40 DUP3 ADD SWAP1 POP SWAP2 SWAP1 POP JUMP JUMPDEST PUSH1 0x0 PUSH1 0x20 DUP3 ADD SWAP1 POP DUP2 DUP2 SUB PUSH1 0x0 DUP4 ADD MSTORE PUSH2 0x92DD DUP2 PUSH2 0x92A1 JUMP JUMPDEST SWAP1 POP SWAP2 SWAP1 POP JUMP JUMPDEST PUSH1 0x0 PUSH1 0x40 DUP3 ADD SWAP1 POP PUSH2 0x92F9 PUSH1 0x0 DUP4 ADD DUP6 PUSH2 0x8F91 JUMP JUMPDEST DUP2 DUP2 SUB PUSH1 0x20 DUP4 ADD MSTORE PUSH2 0x930B DUP2 DUP5 PUSH2 0x8DAF JUMP JUMPDEST SWAP1 POP SWAP4 SWAP3 POP POP POP JUMP JUMPDEST PUSH32 0x506167654E756D6265722073686F756C64206265203E20300000000000000000 PUSH1 0x0 DUP3 ADD MSTORE POP JUMP JUMPDEST PUSH1 0x0 PUSH2 0x934A PUSH1 0x18 DUP4 PUSH2 0x8564 JUMP JUMPDEST SWAP2 POP PUSH2 0x9355 DUP3 PUSH2 0x9314 JUMP JUMPDEST PUSH1 0x20 DUP3 ADD SWAP1 POP SWAP2 SWAP1 POP JUMP JUMPDEST PUSH1 0x0 PUSH1 0x20 DUP3 ADD SWAP1 POP DUP2 DUP2 SUB PUSH1 0x0 DUP4 ADD MSTORE PUSH2 0x9379 DUP2 PUSH2 0x933D JUMP JUMPDEST SWAP1 POP SWAP2 SWAP1 POP JUMP JUMPDEST PUSH32 0x546869732046696E616E6369616C20496E737469747574696F6E206973206578 PUSH1 0x0 DUP3 ADD MSTORE PUSH32 0x6973746564000000000000000000000000000000000000000000000000000000 PUSH1 0x20 DUP3 ADD MSTORE POP JUMP JUMPDEST PUSH1 0x0 PUSH2 0x93DC PUSH1 0x25 DUP4 PUSH2 0x8564 JUMP JUMPDEST SWAP2 POP PUSH2 0x93E7 DUP3 PUSH2 0x9380 JUMP JUMPDEST PUSH1 0x40 DUP3 ADD SWAP1 POP SWAP2 SWAP1 POP JUMP JUMPDEST PUSH1 0x0 PUSH1 0x20 DUP3 ADD SWAP1 POP DUP2 DUP2 SUB PUSH1 0x0 DUP4 ADD MSTORE PUSH2 0x940B DUP2 PUSH2 0x93CF JUMP JUMPDEST SWAP1 POP SWAP2 SWAP1 POP JUMP JUMPDEST PUSH1 0x0 PUSH1 0x80 DUP3 ADD SWAP1 POP PUSH2 0x9427 PUSH1 0x0 DUP4 ADD DUP8 PUSH2 0x8F91 JUMP JUMPDEST DUP2 DUP2 SUB PUSH1 0x20 DUP4 ADD MSTORE PUSH2 0x9439 DUP2 DUP7 PUSH2 0x8D76 JUMP JUMPDEST SWAP1 POP DUP2 DUP2 SUB PUSH1 0x40 DUP4 ADD MSTORE PUSH2 0x944D DUP2 DUP6 PUSH2 0x8D76 JUMP JUMPDEST SWAP1 POP DUP2 DUP2 SUB PUSH1 0x60 DUP4 ADD MSTORE PUSH2 0x9461 DUP2 DUP5 PUSH2 0x8D76 JUMP JUMPDEST SWAP1 POP SWAP6 SWAP5 POP POP POP POP POP JUMP JUMPDEST PUSH1 0x0 DUP2 PUSH1 0x60 SHL SWAP1 POP SWAP2 SWAP1 POP JUMP JUMPDEST PUSH1 0x0 PUSH2 0x9484 DUP3 PUSH2 0x946C JUMP JUMPDEST SWAP1 POP SWAP2 SWAP1 POP JUMP JUMPDEST PUSH1 0x0 PUSH2 0x9496 DUP3 PUSH2 0x9479 JUMP JUMPDEST SWAP1 POP SWAP2 SWAP1 POP JUMP JUMPDEST PUSH2 0x94AE PUSH2 0x94A9 DUP3 PUSH2 0x7434 JUMP JUMPDEST PUSH2 0x948B JUMP JUMPDEST DUP3 MSTORE POP POP JUMP JUMPDEST PUSH1 0x0 PUSH2 0x94C0 DUP3 DUP6 PUSH2 0x949D JUMP JUMPDEST PUSH1 0x14 DUP3 ADD SWAP2 POP PUSH2 0x94D0 DUP3 DUP5 PUSH2 0x949D JUMP JUMPDEST PUSH1 0x14 DUP3 ADD SWAP2 POP DUP2 SWAP1 POP SWAP4 SWAP3 POP POP POP JUMP JUMPDEST PUSH1 0x0 PUSH1 0x60 DUP3 ADD SWAP1 POP PUSH2 0x94F5 PUSH1 0x0 DUP4 ADD DUP7 PUSH2 0x8F91 JUMP JUMPDEST DUP2 DUP2 SUB PUSH1 0x20 DUP4 ADD MSTORE PUSH2 0x9507 DUP2 DUP6 PUSH2 0x8D76 JUMP JUMPDEST SWAP1 POP DUP2 DUP2 SUB PUSH1 0x40 DUP4 ADD MSTORE PUSH2 0x951B DUP2 DUP5 PUSH2 0x8D76 JUMP JUMPDEST SWAP1 POP SWAP5 SWAP4 POP POP POP POP JUMP JUMPDEST PUSH32 0x52657175657374206973206E6F7420666F756E64000000000000000000000000 PUSH1 0x0 DUP3 ADD MSTORE POP JUMP JUMPDEST PUSH1 0x0 PUSH2 0x955B PUSH1 0x14 DUP4 PUSH2 0x8564 JUMP JUMPDEST SWAP2 POP PUSH2 0x9566 DUP3 PUSH2 0x9525 JUMP JUMPDEST PUSH1 0x20 DUP3 ADD SWAP1 POP SWAP2 SWAP1 POP JUMP JUMPDEST PUSH1 0x0 PUSH1 0x20 DUP3 ADD SWAP1 POP DUP2 DUP2 SUB PUSH1 0x0 DUP4 ADD MSTORE PUSH2 0x958A DUP2 PUSH2 0x954E JUMP JUMPDEST SWAP1 POP SWAP2 SWAP1 POP JUMP JUMPDEST PUSH32 0x494420686173206E6F7420666F756E6400000000000000000000000000000000 PUSH1 0x0 DUP3 ADD MSTORE POP JUMP JUMPDEST PUSH1 0x0 PUSH2 0x95C7 PUSH1 0x10 DUP4 PUSH2 0x8564 JUMP JUMPDEST SWAP2 POP PUSH2 0x95D2 DUP3 PUSH2 0x9591 JUMP JUMPDEST PUSH1 0x20 DUP3 ADD SWAP1 POP SWAP2 SWAP1 POP JUMP JUMPDEST PUSH1 0x0 PUSH1 0x20 DUP3 ADD SWAP1 POP DUP2 DUP2 SUB PUSH1 0x0 DUP4 ADD MSTORE PUSH2 0x95F6 DUP2 PUSH2 0x95BA JUMP JUMPDEST SWAP1 POP SWAP2 SWAP1 POP JUMP JUMPDEST PUSH1 0x0 PUSH1 0x60 DUP3 ADD SWAP1 POP PUSH2 0x9612 PUSH1 0x0 DUP4 ADD DUP7 PUSH2 0x8F91 JUMP JUMPDEST DUP2 DUP2 SUB PUSH1 0x20 DUP4 ADD MSTORE PUSH2 0x9624 DUP2 DUP6 PUSH2 0x8DAF JUMP JUMPDEST SWAP1 POP DUP2 DUP2 SUB PUSH1 0x40 DUP4 ADD MSTORE PUSH2 0x9638 DUP2 DUP5 PUSH2 0x8D76 JUMP JUMPDEST SWAP1 POP SWAP5 SWAP4 POP POP POP POP JUMP JUMPDEST PUSH32 0x46696E616E6369616C20494E737469747574696F6E206973206E6F7420666F75 PUSH1 0x0 DUP3 ADD MSTORE PUSH32 0x6E64000000000000000000000000000000000000000000000000000000000000 PUSH1 0x20 DUP3 ADD MSTORE POP JUMP JUMPDEST PUSH1 0x0 PUSH2 0x969E PUSH1 0x22 DUP4 PUSH2 0x8564 JUMP JUMPDEST SWAP2 POP PUSH2 0x96A9 DUP3 PUSH2 0x9642 JUMP JUMPDEST PUSH1 0x40 DUP3 ADD SWAP1 POP SWAP2 SWAP1 POP JUMP JUMPDEST PUSH1 0x0 PUSH1 0x20 DUP3 ADD SWAP1 POP DUP2 DUP2 SUB PUSH1 0x0 DUP4 ADD MSTORE PUSH2 0x96CD DUP2 PUSH2 0x9691 JUMP JUMPDEST SWAP1 POP SWAP2 SWAP1 POP JUMP JUMPDEST PUSH1 0x0 PUSH2 0x96DF DUP3 PUSH2 0x79F0 JUMP JUMPDEST SWAP2 POP PUSH2 0xFFFF DUP3 SUB PUSH2 0x96F3 JUMPI PUSH2 0x96F2 PUSH2 0x8EAE JUMP JUMPDEST JUMPDEST PUSH1 0x1 DUP3 ADD SWAP1 POP SWAP2 SWAP1 POP JUMP JUMPDEST PUSH32 0x437573746F6D657220494420686173206E6F7420466F756E6400000000000000 PUSH1 0x0 DUP3 ADD MSTORE POP JUMP JUMPDEST PUSH1 0x0 PUSH2 0x9734 PUSH1 0x19 DUP4 PUSH2 0x8564 JUMP JUMPDEST SWAP2 POP PUSH2 0x973F DUP3 PUSH2 0x96FE JUMP JUMPDEST PUSH1 0x20 DUP3 ADD SWAP1 POP SWAP2 SWAP1 POP JUMP JUMPDEST PUSH1 0x0 PUSH1 0x20 DUP3 ADD SWAP1 POP DUP2 DUP2 SUB PUSH1 0x0 DUP4 ADD MSTORE PUSH2 0x9763 DUP2 PUSH2 0x9727 JUMP JUMPDEST SWAP1 POP SWAP2 SWAP1 POP JUMP JUMPDEST PUSH32 0x4E487B7100000000000000000000000000000000000000000000000000000000 PUSH1 0x0 MSTORE PUSH1 0x12 PUSH1 0x4 MSTORE PUSH1 0x24 PUSH1 0x0 REVERT JUMPDEST PUSH1 0x0 PUSH2 0x97A4 DUP3 PUSH2 0x74EA JUMP JUMPDEST SWAP2 POP PUSH2 0x97AF DUP4 PUSH2 0x74EA JUMP JUMPDEST SWAP3 POP DUP3 PUSH2 0x97BF JUMPI PUSH2 0x97BE PUSH2 0x976A JUMP JUMPDEST JUMPDEST DUP3 DUP3 MOD SWAP1 POP SWAP3 SWAP2 POP POP JUMP JUMPDEST PUSH1 0x0 PUSH2 0x97D5 DUP3 PUSH2 0x74EA JUMP JUMPDEST SWAP2 POP PUSH2 0x97E0 DUP4 PUSH2 0x74EA JUMP JUMPDEST SWAP3 POP DUP3 PUSH2 0x97F0 JUMPI PUSH2 0x97EF PUSH2 0x976A JUMP JUMPDEST JUMPDEST DUP3 DUP3 DIV SWAP1 POP SWAP3 SWAP2 POP POP JUMP JUMPDEST PUSH1 0x0 PUSH2 0x9806 DUP3 PUSH2 0x74EA JUMP JUMPDEST SWAP2 POP PUSH2 0x9811 DUP4 PUSH2 0x74EA JUMP JUMPDEST SWAP3 POP DUP3 DUP3 SUB SWAP1 POP DUP2 DUP2 GT ISZERO PUSH2 0x9829 JUMPI PUSH2 0x9828 PUSH2 0x8EAE JUMP JUMPDEST JUMPDEST SWAP3 SWAP2 POP POP JUMP JUMPDEST PUSH1 0x0 PUSH2 0x983A DUP3 PUSH2 0x74EA JUMP JUMPDEST SWAP2 POP PUSH2 0x9845 DUP4 PUSH2 0x74EA JUMP JUMPDEST SWAP3 POP DUP3 DUP3 MUL PUSH2 0x9853 DUP2 PUSH2 0x74EA JUMP JUMPDEST SWAP2 POP DUP3 DUP3 DIV DUP5 EQ DUP4 ISZERO OR PUSH2 0x986A JUMPI PUSH2 0x9869 PUSH2 0x8EAE JUMP JUMPDEST JUMPDEST POP SWAP3 SWAP2 POP POP JUMP INVALID LOG2 PUSH5 0x6970667358 0x22 SLT KECCAK256 RETURNDATASIZE REVERT GAS CREATE MSTORE8 SWAP1 0xDB SLOAD 0x29 SWAP10 0xD 0xCD ISZERO POP KECCAK256 0xCB SWAP1 PUSH26 0x5657EAB30AB36D38F5FA7D2C076C64736F6C6343000812003300 "
		},
		"gasEstimates": {
			"creation": {
				"codeDepositCost": "7815800",
				"executionCost": "infinite",
				"totalCost": "infinite"
			},
			"external": {
				"ActiveteandDeactivete(address,bool)": "infinite",
				"AddFIAccount((string,string,address,string,uint16,uint8))": "infinite",
				"AddKYC((string,string,uint16,address,address,string,uint256),uint256,string)": "infinite",
				"AllFI(uint256)": "infinite",
				"FIUpdate(address,string,string)": "infinite",
				"FIrequest(uint256)": "infinite",
				"KYCVerification(address,bool,string)": "infinite",
				"KYCaction(address,bool,string)": "infinite",
				"checkIt()": "infinite",
				"getClientofFI(uint256)": "infinite",
				"getFIDetails(address)": "infinite",
				"gettheClientDetials(address)": "infinite",
				"reKYC(address,string)": "infinite",
				"removePremission(address,string)": "infinite",
				"searchClient(address)": "infinite",
				"searchforFI(address)": "infinite",
				"updateHash(string,uint256)": "infinite",
				"updateProfile(string,string,uint16)": "infinite"
			},
			"internal": {
				"_onlyAdmin()": "infinite",
				"getKYC(uint256,bool)": "infinite",
				"isKYCexists(string memory)": "infinite"
			}
		},
		"methodIdentifiers": {
			"ActiveteandDeactivete(address,bool)": "173eb4df",
			"AddFIAccount((string,string,address,string,uint16,uint8))": "2a807f77",
			"AddKYC((string,string,uint16,address,address,string,uint256),uint256,string)": "c2c3f244",
			"AllFI(uint256)": "3949d021",
			"FIUpdate(address,string,string)": "8202cfbc",
			"FIrequest(uint256)": "b6c1b316",
			"KYCVerification(address,bool,string)": "fac8d0b4",
			"KYCaction(address,bool,string)": "d5626b1f",
			"checkIt()": "5d676796",
			"getClientofFI(uint256)": "21c8fc5a",
			"getFIDetails(address)": "9ceecfd6",
			"gettheClientDetials(address)": "ac157423",
			"reKYC(address,string)": "8e97e778",
			"removePremission(address,string)": "bc3b3ddb",
			"searchClient(address)": "7db674b6",
			"searchforFI(address)": "b3f32a41",
			"updateHash(string,uint256)": "b69c469c",
			"updateProfile(string,string,uint16)": "eae958a0"
		}
	},
	"abi": [
		{
			"inputs": [
				{
					"internalType": "string",
					"name": "name",
					"type": "string"
				},
				{
					"internalType": "string",
					"name": "email",
					"type": "string"
				}
			],
			"stateMutability": "nonpayable",
			"type": "constructor"
		},
		{
			"anonymous": false,
			"inputs": [
				{
					"indexed": false,
					"internalType": "address",
					"name": "ID",
					"type": "address"
				},
				{
					"indexed": false,
					"internalType": "string",
					"name": "name",
					"type": "string"
				},
				{
					"indexed": false,
					"internalType": "string",
					"name": "email",
					"type": "string"
				}
			],
			"name": "ClientAdded",
			"type": "event"
		},
		{
			"anonymous": false,
			"inputs": [
				{
					"indexed": false,
					"internalType": "address",
					"name": "ID",
					"type": "address"
				},
				{
					"indexed": false,
					"internalType": "string",
					"name": "name",
					"type": "string"
				},
				{
					"indexed": false,
					"internalType": "string",
					"name": "email",
					"type": "string"
				}
			],
			"name": "ClientDataUpdated",
			"type": "event"
		},
		{
			"anonymous": false,
			"inputs": [
				{
					"indexed": false,
					"internalType": "address",
					"name": "ID",
					"type": "address"
				},
				{
					"indexed": false,
					"internalType": "string",
					"name": "name",
					"type": "string"
				}
			],
			"name": "FIactivated",
			"type": "event"
		},
		{
			"anonymous": false,
			"inputs": [
				{
					"indexed": false,
					"internalType": "address",
					"name": "ID",
					"type": "address"
				},
				{
					"indexed": false,
					"internalType": "string",
					"name": "name",
					"type": "string"
				},
				{
					"indexed": false,
					"internalType": "string",
					"name": "email",
					"type": "string"
				},
				{
					"indexed": false,
					"internalType": "string",
					"name": "SwiftCode",
					"type": "string"
				}
			],
			"name": "FIadded",
			"type": "event"
		},
		{
			"anonymous": false,
			"inputs": [
				{
					"indexed": false,
					"internalType": "address",
					"name": "ID",
					"type": "address"
				},
				{
					"indexed": false,
					"internalType": "string",
					"name": "name",
					"type": "string"
				}
			],
			"name": "FIdeactivated",
			"type": "event"
		},
		{
			"anonymous": false,
			"inputs": [
				{
					"indexed": false,
					"internalType": "address",
					"name": "ID",
					"type": "address"
				},
				{
					"indexed": false,
					"internalType": "string",
					"name": "name",
					"type": "string"
				},
				{
					"indexed": false,
					"internalType": "string",
					"name": "email",
					"type": "string"
				}
			],
			"name": "FIupdated",
			"type": "event"
		},
		{
			"anonymous": false,
			"inputs": [
				{
					"indexed": false,
					"internalType": "string",
					"name": "iDreq",
					"type": "string"
				},
				{
					"indexed": false,
					"internalType": "string",
					"name": "FIName",
					"type": "string"
				},
				{
					"indexed": false,
					"internalType": "string",
					"name": "ClinetName",
					"type": "string"
				}
			],
			"name": "addKYC",
			"type": "event"
		},
		{
			"anonymous": false,
			"inputs": [
				{
					"indexed": false,
					"internalType": "string",
					"name": "iDreq",
					"type": "string"
				},
				{
					"indexed": false,
					"internalType": "address",
					"name": "Client_ID",
					"type": "address"
				},
				{
					"indexed": false,
					"internalType": "address",
					"name": "FI_ID",
					"type": "address"
				},
				{
					"indexed": false,
					"internalType": "enum appearances.KYCStatus",
					"name": "status",
					"type": "uint8"
				}
			],
			"name": "changeStatus",
			"type": "event"
		},
		{
			"anonymous": false,
			"inputs": [
				{
					"indexed": false,
					"internalType": "address",
					"name": "ID",
					"type": "address"
				},
				{
					"indexed": false,
					"internalType": "string",
					"name": "clientName",
					"type": "string"
				},
				{
					"indexed": false,
					"internalType": "string",
					"name": "dataHash",
					"type": "string"
				}
			],
			"name": "dataHashUpdated",
			"type": "event"
		},
		{
			"anonymous": false,
			"inputs": [
				{
					"indexed": false,
					"internalType": "string",
					"name": "iDreq",
					"type": "string"
				},
				{
					"indexed": false,
					"internalType": "address",
					"name": "Client_ID",
					"type": "address"
				},
				{
					"indexed": false,
					"internalType": "address",
					"name": "FI_ID",
					"type": "address"
				},
				{
					"indexed": false,
					"internalType": "enum appearances.DataHashStatus",
					"name": "status",
					"type": "uint8"
				}
			],
			"name": "dataHashpermission",
			"type": "event"
		},
		{
			"anonymous": false,
			"inputs": [
				{
					"indexed": false,
					"internalType": "string",
					"name": "iDreq",
					"type": "string"
				},
				{
					"indexed": false,
					"internalType": "string",
					"name": "FIName",
					"type": "string"
				},
				{
					"indexed": false,
					"internalType": "string",
					"name": "ClientName",
					"type": "string"
				}
			],
			"name": "startKYC",
			"type": "event"
		},
		{
			"inputs": [
				{
					"internalType": "address",
					"name": "ID",
					"type": "address"
				},
				{
					"internalType": "bool",
					"name": "MakeActive",
					"type": "bool"
				}
			],
			"name": "ActiveteandDeactivete",
			"outputs": [],
			"stateMutability": "nonpayable",
			"type": "function"
		},
		{
			"inputs": [
				{
					"components": [
						{
							"internalType": "string",
							"name": "name",
							"type": "string"
						},
						{
							"internalType": "string",
							"name": "email",
							"type": "string"
						},
						{
							"internalType": "address",
							"name": "ID",
							"type": "address"
						},
						{
							"internalType": "string",
							"name": "SwiftCode",
							"type": "string"
						},
						{
							"internalType": "uint16",
							"name": "KYCCount",
							"type": "uint16"
						},
						{
							"internalType": "enum appearances.FIStatus",
							"name": "status",
							"type": "uint8"
						}
					],
					"internalType": "struct appearances.FI",
					"name": "fiAdd",
					"type": "tuple"
				}
			],
			"name": "AddFIAccount",
			"outputs": [],
			"stateMutability": "nonpayable",
			"type": "function"
		},
		{
			"inputs": [
				{
					"components": [
						{
							"internalType": "string",
							"name": "name",
							"type": "string"
						},
						{
							"internalType": "string",
							"name": "email",
							"type": "string"
						},
						{
							"internalType": "uint16",
							"name": "MobileNumber",
							"type": "uint16"
						},
						{
							"internalType": "address",
							"name": "ID",
							"type": "address"
						},
						{
							"internalType": "address",
							"name": "VerifiedBy",
							"type": "address"
						},
						{
							"internalType": "string",
							"name": "dataHash",
							"type": "string"
						},
						{
							"internalType": "uint256",
							"name": "dataUpdated",
							"type": "uint256"
						}
					],
					"internalType": "struct appearances.Client",
					"name": "client",
					"type": "tuple"
				},
				{
					"internalType": "uint256",
					"name": "Timestemp",
					"type": "uint256"
				},
				{
					"internalType": "string",
					"name": "note",
					"type": "string"
				}
			],
			"name": "AddKYC",
			"outputs": [],
			"stateMutability": "nonpayable",
			"type": "function"
		},
		{
			"inputs": [
				{
					"internalType": "uint256",
					"name": "pageNumber",
					"type": "uint256"
				}
			],
			"name": "AllFI",
			"outputs": [
				{
					"internalType": "uint256",
					"name": "Totalpages",
					"type": "uint256"
				},
				{
					"components": [
						{
							"internalType": "string",
							"name": "name",
							"type": "string"
						},
						{
							"internalType": "string",
							"name": "email",
							"type": "string"
						},
						{
							"internalType": "address",
							"name": "ID",
							"type": "address"
						},
						{
							"internalType": "string",
							"name": "SwiftCode",
							"type": "string"
						},
						{
							"internalType": "uint16",
							"name": "KYCCount",
							"type": "uint16"
						},
						{
							"internalType": "enum appearances.FIStatus",
							"name": "status",
							"type": "uint8"
						}
					],
					"internalType": "struct appearances.FI[]",
					"name": "",
					"type": "tuple[]"
				}
			],
			"stateMutability": "view",
			"type": "function"
		},
		{
			"inputs": [
				{
					"internalType": "address",
					"name": "ID",
					"type": "address"
				},
				{
					"internalType": "string",
					"name": "email",
					"type": "string"
				},
				{
					"internalType": "string",
					"name": "name",
					"type": "string"
				}
			],
			"name": "FIUpdate",
			"outputs": [],
			"stateMutability": "nonpayable",
			"type": "function"
		},
		{
			"inputs": [
				{
					"internalType": "uint256",
					"name": "pageNumber",
					"type": "uint256"
				}
			],
			"name": "FIrequest",
			"outputs": [
				{
					"internalType": "uint256",
					"name": "Totalpages",
					"type": "uint256"
				},
				{
					"components": [
						{
							"internalType": "string",
							"name": "ID",
							"type": "string"
						},
						{
							"internalType": "address",
							"name": "user_ID",
							"type": "address"
						},
						{
							"internalType": "string",
							"name": "ClientName",
							"type": "string"
						},
						{
							"internalType": "address",
							"name": "FI_ID",
							"type": "address"
						},
						{
							"internalType": "string",
							"name": "FIName",
							"type": "string"
						},
						{
							"internalType": "string",
							"name": "dataHash",
							"type": "string"
						},
						{
							"internalType": "uint256",
							"name": "updatedOn",
							"type": "uint256"
						},
						{
							"internalType": "enum appearances.KYCStatus",
							"name": "status",
							"type": "uint8"
						},
						{
							"internalType": "enum appearances.DataHashStatus",
							"name": "dataRequest",
							"type": "uint8"
						},
						{
							"internalType": "string",
							"name": "additionalNotes",
							"type": "string"
						}
					],
					"internalType": "struct appearances.KYCRequest[]",
					"name": "",
					"type": "tuple[]"
				}
			],
			"stateMutability": "view",
			"type": "function"
		},
		{
			"inputs": [
				{
					"internalType": "address",
					"name": "user_ID",
					"type": "address"
				},
				{
					"internalType": "bool",
					"name": "verified",
					"type": "bool"
				},
				{
					"internalType": "string",
					"name": "note",
					"type": "string"
				}
			],
			"name": "KYCVerification",
			"outputs": [],
			"stateMutability": "nonpayable",
			"type": "function"
		},
		{
			"inputs": [
				{
					"internalType": "address",
					"name": "FI_ID",
					"type": "address"
				},
				{
					"internalType": "bool",
					"name": "approve",
					"type": "bool"
				},
				{
					"internalType": "string",
					"name": "note",
					"type": "string"
				}
			],
			"name": "KYCaction",
			"outputs": [],
			"stateMutability": "nonpayable",
			"type": "function"
		},
		{
			"inputs": [],
			"name": "checkIt",
			"outputs": [
				{
					"components": [
						{
							"internalType": "string",
							"name": "name",
							"type": "string"
						},
						{
							"internalType": "string",
							"name": "email",
							"type": "string"
						},
						{
							"internalType": "address",
							"name": "ID",
							"type": "address"
						},
						{
							"internalType": "enum appearances.Positions",
							"name": "positions",
							"type": "uint8"
						},
						{
							"internalType": "enum appearances.FIStatus",
							"name": "status",
							"type": "uint8"
						}
					],
					"internalType": "struct appearances.User",
					"name": "",
					"type": "tuple"
				}
			],
			"stateMutability": "view",
			"type": "function"
		},
		{
			"inputs": [
				{
					"internalType": "uint256",
					"name": "pageNumber",
					"type": "uint256"
				}
			],
			"name": "getClientofFI",
			"outputs": [
				{
					"internalType": "uint256",
					"name": "Totalpages",
					"type": "uint256"
				},
				{
					"components": [
						{
							"internalType": "string",
							"name": "ID",
							"type": "string"
						},
						{
							"internalType": "address",
							"name": "user_ID",
							"type": "address"
						},
						{
							"internalType": "string",
							"name": "ClientName",
							"type": "string"
						},
						{
							"internalType": "address",
							"name": "FI_ID",
							"type": "address"
						},
						{
							"internalType": "string",
							"name": "FIName",
							"type": "string"
						},
						{
							"internalType": "string",
							"name": "dataHash",
							"type": "string"
						},
						{
							"internalType": "uint256",
							"name": "updatedOn",
							"type": "uint256"
						},
						{
							"internalType": "enum appearances.KYCStatus",
							"name": "status",
							"type": "uint8"
						},
						{
							"internalType": "enum appearances.DataHashStatus",
							"name": "dataRequest",
							"type": "uint8"
						},
						{
							"internalType": "string",
							"name": "additionalNotes",
							"type": "string"
						}
					],
					"internalType": "struct appearances.KYCRequest[]",
					"name": "",
					"type": "tuple[]"
				}
			],
			"stateMutability": "view",
			"type": "function"
		},
		{
			"inputs": [
				{
					"internalType": "address",
					"name": "ID",
					"type": "address"
				}
			],
			"name": "getFIDetails",
			"outputs": [
				{
					"components": [
						{
							"internalType": "string",
							"name": "name",
							"type": "string"
						},
						{
							"internalType": "string",
							"name": "email",
							"type": "string"
						},
						{
							"internalType": "address",
							"name": "ID",
							"type": "address"
						},
						{
							"internalType": "string",
							"name": "SwiftCode",
							"type": "string"
						},
						{
							"internalType": "uint16",
							"name": "KYCCount",
							"type": "uint16"
						},
						{
							"internalType": "enum appearances.FIStatus",
							"name": "status",
							"type": "uint8"
						}
					],
					"internalType": "struct appearances.FI",
					"name": "",
					"type": "tuple"
				}
			],
			"stateMutability": "view",
			"type": "function"
		},
		{
			"inputs": [
				{
					"internalType": "address",
					"name": "ID",
					"type": "address"
				}
			],
			"name": "gettheClientDetials",
			"outputs": [
				{
					"components": [
						{
							"internalType": "string",
							"name": "name",
							"type": "string"
						},
						{
							"internalType": "string",
							"name": "email",
							"type": "string"
						},
						{
							"internalType": "uint16",
							"name": "MobileNumber",
							"type": "uint16"
						},
						{
							"internalType": "address",
							"name": "ID",
							"type": "address"
						},
						{
							"internalType": "address",
							"name": "VerifiedBy",
							"type": "address"
						},
						{
							"internalType": "string",
							"name": "dataHash",
							"type": "string"
						},
						{
							"internalType": "uint256",
							"name": "dataUpdated",
							"type": "uint256"
						}
					],
					"internalType": "struct appearances.Client",
					"name": "",
					"type": "tuple"
				}
			],
			"stateMutability": "view",
			"type": "function"
		},
		{
			"inputs": [
				{
					"internalType": "address",
					"name": "ID",
					"type": "address"
				},
				{
					"internalType": "string",
					"name": "note",
					"type": "string"
				}
			],
			"name": "reKYC",
			"outputs": [],
			"stateMutability": "nonpayable",
			"type": "function"
		},
		{
			"inputs": [
				{
					"internalType": "address",
					"name": "FI_ID",
					"type": "address"
				},
				{
					"internalType": "string",
					"name": "note",
					"type": "string"
				}
			],
			"name": "removePremission",
			"outputs": [],
			"stateMutability": "nonpayable",
			"type": "function"
		},
		{
			"inputs": [
				{
					"internalType": "address",
					"name": "ID",
					"type": "address"
				}
			],
			"name": "searchClient",
			"outputs": [
				{
					"internalType": "bool",
					"name": "",
					"type": "bool"
				},
				{
					"components": [
						{
							"internalType": "string",
							"name": "name",
							"type": "string"
						},
						{
							"internalType": "string",
							"name": "email",
							"type": "string"
						},
						{
							"internalType": "uint16",
							"name": "MobileNumber",
							"type": "uint16"
						},
						{
							"internalType": "address",
							"name": "ID",
							"type": "address"
						},
						{
							"internalType": "address",
							"name": "VerifiedBy",
							"type": "address"
						},
						{
							"internalType": "string",
							"name": "dataHash",
							"type": "string"
						},
						{
							"internalType": "uint256",
							"name": "dataUpdated",
							"type": "uint256"
						}
					],
					"internalType": "struct appearances.Client",
					"name": "",
					"type": "tuple"
				},
				{
					"components": [
						{
							"internalType": "string",
							"name": "ID",
							"type": "string"
						},
						{
							"internalType": "address",
							"name": "user_ID",
							"type": "address"
						},
						{
							"internalType": "string",
							"name": "ClientName",
							"type": "string"
						},
						{
							"internalType": "address",
							"name": "FI_ID",
							"type": "address"
						},
						{
							"internalType": "string",
							"name": "FIName",
							"type": "string"
						},
						{
							"internalType": "string",
							"name": "dataHash",
							"type": "string"
						},
						{
							"internalType": "uint256",
							"name": "updatedOn",
							"type": "uint256"
						},
						{
							"internalType": "enum appearances.KYCStatus",
							"name": "status",
							"type": "uint8"
						},
						{
							"internalType": "enum appearances.DataHashStatus",
							"name": "dataRequest",
							"type": "uint8"
						},
						{
							"internalType": "string",
							"name": "additionalNotes",
							"type": "string"
						}
					],
					"internalType": "struct appearances.KYCRequest",
					"name": "",
					"type": "tuple"
				}
			],
			"stateMutability": "view",
			"type": "function"
		},
		{
			"inputs": [
				{
					"internalType": "address",
					"name": "FI_ID",
					"type": "address"
				}
			],
			"name": "searchforFI",
			"outputs": [
				{
					"internalType": "bool",
					"name": "",
					"type": "bool"
				},
				{
					"components": [
						{
							"internalType": "string",
							"name": "name",
							"type": "string"
						},
						{
							"internalType": "string",
							"name": "email",
							"type": "string"
						},
						{
							"internalType": "address",
							"name": "ID",
							"type": "address"
						},
						{
							"internalType": "string",
							"name": "SwiftCode",
							"type": "string"
						},
						{
							"internalType": "uint16",
							"name": "KYCCount",
							"type": "uint16"
						},
						{
							"internalType": "enum appearances.FIStatus",
							"name": "status",
							"type": "uint8"
						}
					],
					"internalType": "struct appearances.FI",
					"name": "",
					"type": "tuple"
				},
				{
					"components": [
						{
							"internalType": "string",
							"name": "ID",
							"type": "string"
						},
						{
							"internalType": "address",
							"name": "user_ID",
							"type": "address"
						},
						{
							"internalType": "string",
							"name": "ClientName",
							"type": "string"
						},
						{
							"internalType": "address",
							"name": "FI_ID",
							"type": "address"
						},
						{
							"internalType": "string",
							"name": "FIName",
							"type": "string"
						},
						{
							"internalType": "string",
							"name": "dataHash",
							"type": "string"
						},
						{
							"internalType": "uint256",
							"name": "updatedOn",
							"type": "uint256"
						},
						{
							"internalType": "enum appearances.KYCStatus",
							"name": "status",
							"type": "uint8"
						},
						{
							"internalType": "enum appearances.DataHashStatus",
							"name": "dataRequest",
							"type": "uint8"
						},
						{
							"internalType": "string",
							"name": "additionalNotes",
							"type": "string"
						}
					],
					"internalType": "struct appearances.KYCRequest",
					"name": "",
					"type": "tuple"
				}
			],
			"stateMutability": "view",
			"type": "function"
		},
		{
			"inputs": [
				{
					"internalType": "string",
					"name": "hash",
					"type": "string"
				},
				{
					"internalType": "uint256",
					"name": "Timestemp",
					"type": "uint256"
				}
			],
			"name": "updateHash",
			"outputs": [],
			"stateMutability": "nonpayable",
			"type": "function"
		},
		{
			"inputs": [
				{
					"internalType": "string",
					"name": "name",
					"type": "string"
				},
				{
					"internalType": "string",
					"name": "email",
					"type": "string"
				},
				{
					"internalType": "uint16",
					"name": "MobileNumber",
					"type": "uint16"
				}
			],
			"name": "updateProfile",
			"outputs": [],
			"stateMutability": "nonpayable",
			"type": "function"
		}
	]
}